{
	"contracts/Transaction.sol": {
		"Transaction": {
			"abi": [
				{
					"inputs": [],
					"stateMutability": "nonpayable",
					"type": "constructor"
				},
				{
					"inputs": [],
					"name": "NotOwner",
					"type": "error"
				},
				{
					"inputs": [],
					"name": "MINIMUMUSD",
					"outputs": [
						{
							"internalType": "uint256",
							"name": "",
							"type": "uint256"
						}
					],
					"stateMutability": "view",
					"type": "function"
				},
				{
					"inputs": [
						{
							"internalType": "address",
							"name": "",
							"type": "address"
						}
					],
					"name": "amountFunded",
					"outputs": [
						{
							"internalType": "uint256",
							"name": "",
							"type": "uint256"
						}
					],
					"stateMutability": "view",
					"type": "function"
				},
				{
					"inputs": [],
					"name": "fund",
					"outputs": [],
					"stateMutability": "payable",
					"type": "function"
				},
				{
					"inputs": [
						{
							"internalType": "uint256",
							"name": "",
							"type": "uint256"
						}
					],
					"name": "funder",
					"outputs": [
						{
							"internalType": "address",
							"name": "",
							"type": "address"
						}
					],
					"stateMutability": "view",
					"type": "function"
				},
				{
					"inputs": [],
					"name": "i_owner",
					"outputs": [
						{
							"internalType": "address",
							"name": "",
							"type": "address"
						}
					],
					"stateMutability": "view",
					"type": "function"
				},
				{
					"inputs": [],
					"name": "withdraw",
					"outputs": [],
					"stateMutability": "nonpayable",
					"type": "function"
				},
				{
					"stateMutability": "payable",
					"type": "receive"
				}
			],
			"devdoc": {
				"kind": "dev",
				"methods": {},
				"version": 1
			},
			"evm": {
				"assembly": "    /* \"contracts/Transaction.sol\":116:1597  contract Transaction {... */\n  mstore(0x40, 0xa0)\n    /* \"contracts/Transaction.sol\":391:442  constructor() {... */\n  callvalue\n  dup1\n  iszero\n  tag_1\n  jumpi\n  0x00\n  dup1\n  revert\ntag_1:\n  pop\n    /* \"contracts/Transaction.sol\":425:435  msg.sender */\n  caller\n    /* \"contracts/Transaction.sol\":415:435  i_owner = msg.sender */\n  0xffffffffffffffffffffffffffffffffffffffff\n  and\n  0x80\n  dup2\n  0xffffffffffffffffffffffffffffffffffffffff\n  and\n  0x60\n  shl\n  dup2\n  mstore\n  pop\n  pop\n    /* \"contracts/Transaction.sol\":116:1597  contract Transaction {... */\n  shr(0x60, mload(0x80))\n  codecopy(0x00, dataOffset(sub_0), dataSize(sub_0))\n  0x00\n  assignImmutable(\"0xeafa31dc210956fc0884ec5660eba9405197797219cbbda41b6aaf7118c651d8\")\n  return(0x00, dataSize(sub_0))\nstop\n\nsub_0: assembly {\n        /* \"contracts/Transaction.sol\":116:1597  contract Transaction {... */\n      mstore(0x40, 0x80)\n      jumpi(tag_1, lt(calldatasize, 0x04))\n      shr(0xe0, calldataload(0x00))\n      dup1\n      0x1f2c9238\n      eq\n      tag_3\n      jumpi\n      dup1\n      0x3ccfd60b\n      eq\n      tag_4\n      jumpi\n      dup1\n      0x7d451480\n      eq\n      tag_5\n      jumpi\n      dup1\n      0xb60d4288\n      eq\n      tag_6\n      jumpi\n      dup1\n      0xdba6335f\n      eq\n      tag_7\n      jumpi\n      dup1\n      0xdeaf2cf0\n      eq\n      tag_8\n      jumpi\n      jump(tag_2)\n    tag_1:\n      jumpi(tag_2, calldatasize)\n        /* \"contracts/Transaction.sol\":1580:1586  fund() */\n      tag_11\n        /* \"contracts/Transaction.sol\":1580:1584  fund */\n      tag_12\n        /* \"contracts/Transaction.sol\":1580:1586  fund() */\n      jump\t// in\n    tag_11:\n        /* \"contracts/Transaction.sol\":116:1597  contract Transaction {... */\n      stop\n    tag_2:\n      0x00\n      dup1\n      revert\n        /* \"contracts/Transaction.sol\":233:256  address[] public funder */\n    tag_3:\n      callvalue\n      dup1\n      iszero\n      tag_13\n      jumpi\n      0x00\n      dup1\n      revert\n    tag_13:\n      pop\n      tag_14\n      0x04\n      dup1\n      calldatasize\n      sub\n      dup2\n      add\n      swap1\n      tag_15\n      swap2\n      swap1\n      tag_16\n      jump\t// in\n    tag_15:\n      tag_17\n      jump\t// in\n    tag_14:\n      mload(0x40)\n      tag_18\n      swap2\n      swap1\n      tag_19\n      jump\t// in\n    tag_18:\n      mload(0x40)\n      dup1\n      swap2\n      sub\n      swap1\n      return\n        /* \"contracts/Transaction.sol\":661:1363  function withdraw() public onlyOwner {... */\n    tag_4:\n      callvalue\n      dup1\n      iszero\n      tag_20\n      jumpi\n      0x00\n      dup1\n      revert\n    tag_20:\n      pop\n      tag_21\n      tag_22\n      jump\t// in\n    tag_21:\n      stop\n        /* \"contracts/Transaction.sol\":182:227  uint256 public constant MINIMUMUSD = 2 * 1e18 */\n    tag_5:\n      callvalue\n      dup1\n      iszero\n      tag_23\n      jumpi\n      0x00\n      dup1\n      revert\n    tag_23:\n      pop\n      tag_24\n      tag_25\n      jump\t// in\n    tag_24:\n      mload(0x40)\n      tag_26\n      swap2\n      swap1\n      tag_27\n      jump\t// in\n    tag_26:\n      mload(0x40)\n      dup1\n      swap2\n      sub\n      swap1\n      return\n        /* \"contracts/Transaction.sol\":449:654  function fund() public payable {... */\n    tag_6:\n      tag_28\n      tag_12\n      jump\t// in\n    tag_28:\n      stop\n        /* \"contracts/Transaction.sol\":315:347  address public immutable i_owner */\n    tag_7:\n      callvalue\n      dup1\n      iszero\n      tag_29\n      jumpi\n      0x00\n      dup1\n      revert\n    tag_29:\n      pop\n      tag_30\n      tag_31\n      jump\t// in\n    tag_30:\n      mload(0x40)\n      tag_32\n      swap2\n      swap1\n      tag_19\n      jump\t// in\n    tag_32:\n      mload(0x40)\n      dup1\n      swap2\n      sub\n      swap1\n      return\n        /* \"contracts/Transaction.sol\":262:309  mapping(address => uint256) public amountFunded */\n    tag_8:\n      callvalue\n      dup1\n      iszero\n      tag_33\n      jumpi\n      0x00\n      dup1\n      revert\n    tag_33:\n      pop\n      tag_34\n      0x04\n      dup1\n      calldatasize\n      sub\n      dup2\n      add\n      swap1\n      tag_35\n      swap2\n      swap1\n      tag_36\n      jump\t// in\n    tag_35:\n      tag_37\n      jump\t// in\n    tag_34:\n      mload(0x40)\n      tag_38\n      swap2\n      swap1\n      tag_27\n      jump\t// in\n    tag_38:\n      mload(0x40)\n      dup1\n      swap2\n      sub\n      swap1\n      return\n        /* \"contracts/Transaction.sol\":449:654  function fund() public payable {... */\n    tag_12:\n        /* \"contracts/Transaction.sol\":219:227  2 * 1e18 */\n      0x1bc16d674ec80000\n        /* \"contracts/Transaction.sol\":498:519  msg.value.converter() */\n      tag_40\n        /* \"contracts/Transaction.sol\":498:507  msg.value */\n      callvalue\n        /* \"contracts/Transaction.sol\":498:517  msg.value.converter */\n      tag_41\n        /* \"contracts/Transaction.sol\":498:519  msg.value.converter() */\n      jump\t// in\n    tag_40:\n        /* \"contracts/Transaction.sol\":498:533  msg.value.converter() >= MINIMUMUSD */\n      lt\n      iszero\n        /* \"contracts/Transaction.sol\":490:567  require(msg.value.converter() >= MINIMUMUSD, \"Amount must be greater than 1\") */\n      tag_42\n      jumpi\n      mload(0x40)\n      0x08c379a000000000000000000000000000000000000000000000000000000000\n      dup2\n      mstore\n      0x04\n      add\n      tag_43\n      swap1\n      tag_44\n      jump\t// in\n    tag_43:\n      mload(0x40)\n      dup1\n      swap2\n      sub\n      swap1\n      revert\n    tag_42:\n        /* \"contracts/Transaction.sol\":577:583  funder */\n      0x00\n        /* \"contracts/Transaction.sol\":589:599  msg.sender */\n      caller\n        /* \"contracts/Transaction.sol\":577:600  funder.push(msg.sender) */\n      swap1\n      dup1\n      0x01\n      dup2\n      sload\n      add\n      dup1\n      dup3\n      sstore\n      dup1\n      swap2\n      pop\n      pop\n      0x01\n      swap1\n      sub\n      swap1\n      0x00\n      mstore\n      keccak256(0x00, 0x20)\n      add\n      0x00\n      swap1\n      swap2\n      swap1\n      swap2\n      swap1\n      swap2\n      0x0100\n      exp\n      dup2\n      sload\n      dup2\n      0xffffffffffffffffffffffffffffffffffffffff\n      mul\n      not\n      and\n      swap1\n      dup4\n      0xffffffffffffffffffffffffffffffffffffffff\n      and\n      mul\n      or\n      swap1\n      sstore\n      pop\n        /* \"contracts/Transaction.sol\":637:646  msg.value */\n      callvalue\n        /* \"contracts/Transaction.sol\":610:622  amountFunded */\n      0x01\n        /* \"contracts/Transaction.sol\":610:634  amountFunded[msg.sender] */\n      0x00\n        /* \"contracts/Transaction.sol\":623:633  msg.sender */\n      caller\n        /* \"contracts/Transaction.sol\":610:634  amountFunded[msg.sender] */\n      0xffffffffffffffffffffffffffffffffffffffff\n      and\n      0xffffffffffffffffffffffffffffffffffffffff\n      and\n      dup2\n      mstore\n      0x20\n      add\n      swap1\n      dup2\n      mstore\n      0x20\n      add\n      0x00\n      keccak256\n        /* \"contracts/Transaction.sol\":610:646  amountFunded[msg.sender] = msg.value */\n      dup2\n      swap1\n      sstore\n      pop\n        /* \"contracts/Transaction.sol\":449:654  function fund() public payable {... */\n      jump\t// out\n        /* \"contracts/Transaction.sol\":233:256  address[] public funder */\n    tag_17:\n      0x00\n      dup2\n      dup2\n      sload\n      dup2\n      lt\n      tag_46\n      jumpi\n      0x00\n      dup1\n      revert\n    tag_46:\n      swap1\n      0x00\n      mstore\n      keccak256(0x00, 0x20)\n      add\n      0x00\n      swap2\n      pop\n      sload\n      swap1\n      0x0100\n      exp\n      swap1\n      div\n      0xffffffffffffffffffffffffffffffffffffffff\n      and\n      dup2\n      jump\t// out\n        /* \"contracts/Transaction.sol\":661:1363  function withdraw() public onlyOwner {... */\n    tag_22:\n        /* \"contracts/Transaction.sol\":1489:1496  i_owner */\n      immutable(\"0xeafa31dc210956fc0884ec5660eba9405197797219cbbda41b6aaf7118c651d8\")\n        /* \"contracts/Transaction.sol\":1475:1496  msg.sender != i_owner */\n      0xffffffffffffffffffffffffffffffffffffffff\n      and\n        /* \"contracts/Transaction.sol\":1475:1485  msg.sender */\n      caller\n        /* \"contracts/Transaction.sol\":1475:1496  msg.sender != i_owner */\n      0xffffffffffffffffffffffffffffffffffffffff\n      and\n      eq\n        /* \"contracts/Transaction.sol\":1472:1520  if(msg.sender != i_owner) { revert NotOwner(); } */\n      tag_49\n      jumpi\n        /* \"contracts/Transaction.sol\":1507:1517  NotOwner() */\n      mload(0x40)\n      0x30cd747100000000000000000000000000000000000000000000000000000000\n      dup2\n      mstore\n      0x04\n      add\n      mload(0x40)\n      dup1\n      swap2\n      sub\n      swap1\n      revert\n        /* \"contracts/Transaction.sol\":1472:1520  if(msg.sender != i_owner) { revert NotOwner(); } */\n    tag_49:\n        /* \"contracts/Transaction.sol\":712:731  uint256 funderIndex */\n      0x00\n        /* \"contracts/Transaction.sol\":708:894  for(uint256 funderIndex = 0; funderIndex < funder.length; funderIndex++) {... */\n    tag_51:\n        /* \"contracts/Transaction.sol\":751:757  funder */\n      0x00\n        /* \"contracts/Transaction.sol\":751:764  funder.length */\n      dup1\n      sload\n      swap1\n      pop\n        /* \"contracts/Transaction.sol\":737:748  funderIndex */\n      dup2\n        /* \"contracts/Transaction.sol\":737:764  funderIndex < funder.length */\n      lt\n        /* \"contracts/Transaction.sol\":708:894  for(uint256 funderIndex = 0; funderIndex < funder.length; funderIndex++) {... */\n      iszero\n      tag_52\n      jumpi\n        /* \"contracts/Transaction.sol\":795:816  address funderAddress */\n      0x00\n        /* \"contracts/Transaction.sol\":819:825  funder */\n      dup1\n        /* \"contracts/Transaction.sol\":826:837  funderIndex */\n      dup3\n        /* \"contracts/Transaction.sol\":819:838  funder[funderIndex] */\n      dup2\n      sload\n      dup2\n      lt\n      tag_54\n      jumpi\n      tag_55\n      tag_56\n      jump\t// in\n    tag_55:\n    tag_54:\n      swap1\n      0x00\n      mstore\n      keccak256(0x00, 0x20)\n      add\n      0x00\n      swap1\n      sload\n      swap1\n      0x0100\n      exp\n      swap1\n      div\n      0xffffffffffffffffffffffffffffffffffffffff\n      and\n        /* \"contracts/Transaction.sol\":795:838  address funderAddress = funder[funderIndex] */\n      swap1\n      pop\n        /* \"contracts/Transaction.sol\":882:883  0 */\n      0x00\n        /* \"contracts/Transaction.sol\":852:864  amountFunded */\n      0x01\n        /* \"contracts/Transaction.sol\":852:879  amountFunded[funderAddress] */\n      0x00\n        /* \"contracts/Transaction.sol\":865:878  funderAddress */\n      dup4\n        /* \"contracts/Transaction.sol\":852:879  amountFunded[funderAddress] */\n      0xffffffffffffffffffffffffffffffffffffffff\n      and\n      0xffffffffffffffffffffffffffffffffffffffff\n      and\n      dup2\n      mstore\n      0x20\n      add\n      swap1\n      dup2\n      mstore\n      0x20\n      add\n      0x00\n      keccak256\n        /* \"contracts/Transaction.sol\":852:883  amountFunded[funderAddress] = 0 */\n      dup2\n      swap1\n      sstore\n      pop\n        /* \"contracts/Transaction.sol\":781:894  {... */\n      pop\n        /* \"contracts/Transaction.sol\":766:779  funderIndex++ */\n      dup1\n      dup1\n      tag_58\n      swap1\n      tag_59\n      jump\t// in\n    tag_58:\n      swap2\n      pop\n      pop\n        /* \"contracts/Transaction.sol\":708:894  for(uint256 funderIndex = 0; funderIndex < funder.length; funderIndex++) {... */\n      jump(tag_51)\n    tag_52:\n      pop\n        /* \"contracts/Transaction.sol\":961:962  0 */\n      0x00\n        /* \"contracts/Transaction.sol\":947:963  new address[](0) */\n      0xffffffffffffffff\n      dup2\n      gt\n      iszero\n      tag_60\n      jumpi\n      tag_61\n      tag_62\n      jump\t// in\n    tag_61:\n    tag_60:\n      mload(0x40)\n      swap1\n      dup1\n      dup3\n      mstore\n      dup1\n      0x20\n      mul\n      0x20\n      add\n      dup3\n      add\n      0x40\n      mstore\n      dup1\n      iszero\n      tag_63\n      jumpi\n      dup2\n      0x20\n      add\n      0x20\n      dup3\n      mul\n      dup1\n      calldatasize\n      dup4\n      calldatacopy\n      dup1\n      dup3\n      add\n      swap2\n      pop\n      pop\n      swap1\n      pop\n    tag_63:\n      pop\n        /* \"contracts/Transaction.sol\":938:944  funder */\n      0x00\n        /* \"contracts/Transaction.sol\":938:963  funder = new address[](0) */\n      swap1\n      dup1\n      mload\n      swap1\n      0x20\n      add\n      swap1\n      tag_64\n      swap3\n      swap2\n      swap1\n      tag_65\n      jump\t// in\n    tag_64:\n      pop\n        /* \"contracts/Transaction.sol\":1237:1249  bool success */\n      0x00\n        /* \"contracts/Transaction.sol\":1263:1273  msg.sender */\n      caller\n        /* \"contracts/Transaction.sol\":1255:1279  payable(msg.sender).call */\n      0xffffffffffffffffffffffffffffffffffffffff\n      and\n        /* \"contracts/Transaction.sol\":1287:1308  address(this).balance */\n      selfbalance\n        /* \"contracts/Transaction.sol\":1255:1313  payable(msg.sender).call{value: address(this).balance}(\"\") */\n      mload(0x40)\n      tag_66\n      swap1\n      tag_67\n      jump\t// in\n    tag_66:\n      0x00\n      mload(0x40)\n      dup1\n      dup4\n      sub\n      dup2\n      dup6\n      dup8\n      gas\n      call\n      swap3\n      pop\n      pop\n      pop\n      returndatasize\n      dup1\n      0x00\n      dup2\n      eq\n      tag_70\n      jumpi\n      mload(0x40)\n      swap2\n      pop\n      and(add(returndatasize, 0x3f), not(0x1f))\n      dup3\n      add\n      0x40\n      mstore\n      returndatasize\n      dup3\n      mstore\n      returndatasize\n      0x00\n      0x20\n      dup5\n      add\n      returndatacopy\n      jump(tag_69)\n    tag_70:\n      0x60\n      swap2\n      pop\n    tag_69:\n      pop\n        /* \"contracts/Transaction.sol\":1236:1313  (bool success, ) = payable(msg.sender).call{value: address(this).balance}(\"\") */\n      pop\n      swap1\n      pop\n        /* \"contracts/Transaction.sol\":1331:1338  success */\n      dup1\n        /* \"contracts/Transaction.sol\":1323:1356  require(success, \"Review amount\") */\n      tag_71\n      jumpi\n      mload(0x40)\n      0x08c379a000000000000000000000000000000000000000000000000000000000\n      dup2\n      mstore\n      0x04\n      add\n      tag_72\n      swap1\n      tag_73\n      jump\t// in\n    tag_72:\n      mload(0x40)\n      dup1\n      swap2\n      sub\n      swap1\n      revert\n    tag_71:\n        /* \"contracts/Transaction.sol\":698:1363  {... */\n      pop\n        /* \"contracts/Transaction.sol\":661:1363  function withdraw() public onlyOwner {... */\n      jump\t// out\n        /* \"contracts/Transaction.sol\":182:227  uint256 public constant MINIMUMUSD = 2 * 1e18 */\n    tag_25:\n        /* \"contracts/Transaction.sol\":219:227  2 * 1e18 */\n      0x1bc16d674ec80000\n        /* \"contracts/Transaction.sol\":182:227  uint256 public constant MINIMUMUSD = 2 * 1e18 */\n      dup2\n      jump\t// out\n        /* \"contracts/Transaction.sol\":315:347  address public immutable i_owner */\n    tag_31:\n      immutable(\"0xeafa31dc210956fc0884ec5660eba9405197797219cbbda41b6aaf7118c651d8\")\n      dup2\n      jump\t// out\n        /* \"contracts/Transaction.sol\":262:309  mapping(address => uint256) public amountFunded */\n    tag_37:\n      mstore(0x20, 0x01)\n      dup1\n      0x00\n      mstore\n      keccak256(0x00, 0x40)\n      0x00\n      swap2\n      pop\n      swap1\n      pop\n      sload\n      dup2\n      jump\t// out\n        /* \"contracts/library/PriceConverter.sol\":434:630  function converter(uint256 ethAmount) internal view returns(uint256) {... */\n    tag_41:\n        /* \"contracts/library/PriceConverter.sol\":494:501  uint256 */\n      0x00\n        /* \"contracts/library/PriceConverter.sol\":513:526  uint256 price */\n      dup1\n        /* \"contracts/library/PriceConverter.sol\":529:539  getPrice() */\n      tag_75\n        /* \"contracts/library/PriceConverter.sol\":529:537  getPrice */\n      tag_76\n        /* \"contracts/library/PriceConverter.sol\":529:539  getPrice() */\n      jump\t// in\n    tag_75:\n        /* \"contracts/library/PriceConverter.sol\":513:539  uint256 price = getPrice() */\n      swap1\n      pop\n        /* \"contracts/library/PriceConverter.sol\":549:567  uint256 priceInUSD */\n      0x00\n        /* \"contracts/library/PriceConverter.sol\":592:596  1e18 */\n      0x0de0b6b3a7640000\n        /* \"contracts/library/PriceConverter.sol\":579:588  ethAmount */\n      dup5\n        /* \"contracts/library/PriceConverter.sol\":571:576  price */\n      dup4\n        /* \"contracts/library/PriceConverter.sol\":571:588  price * ethAmount */\n      tag_77\n      swap2\n      swap1\n      tag_78\n      jump\t// in\n    tag_77:\n        /* \"contracts/library/PriceConverter.sol\":570:596  (price * ethAmount) / 1e18 */\n      tag_79\n      swap2\n      swap1\n      tag_80\n      jump\t// in\n    tag_79:\n        /* \"contracts/library/PriceConverter.sol\":549:596  uint256 priceInUSD = (price * ethAmount) / 1e18 */\n      swap1\n      pop\n        /* \"contracts/library/PriceConverter.sol\":613:623  priceInUSD */\n      dup1\n        /* \"contracts/library/PriceConverter.sol\":606:623  return priceInUSD */\n      swap3\n      pop\n      pop\n      pop\n        /* \"contracts/library/PriceConverter.sol\":434:630  function converter(uint256 ethAmount) internal view returns(uint256) {... */\n      swap2\n      swap1\n      pop\n      jump\t// out\n        /* \"contracts/library/PriceConverter.sol\":164:428  function getPrice() internal view returns(uint256) {... */\n    tag_76:\n        /* \"contracts/library/PriceConverter.sol\":206:213  uint256 */\n      0x00\n        /* \"contracts/library/PriceConverter.sol\":225:256  AggregatorV3Interface priceFeed */\n      dup1\n        /* \"contracts/library/PriceConverter.sol\":281:323  0xD4a33860578De61DBAbDc8BFdb98FD742fA7028e */\n      0xd4a33860578de61dbabdc8bfdb98fd742fa7028e\n        /* \"contracts/library/PriceConverter.sol\":225:324  AggregatorV3Interface priceFeed = AggregatorV3Interface(0xD4a33860578De61DBAbDc8BFdb98FD742fA7028e) */\n      swap1\n      pop\n        /* \"contracts/library/PriceConverter.sol\":336:348  int256 price */\n      0x00\n        /* \"contracts/library/PriceConverter.sol\":356:365  priceFeed */\n      dup2\n        /* \"contracts/library/PriceConverter.sol\":356:381  priceFeed.latestRoundData */\n      0xffffffffffffffffffffffffffffffffffffffff\n      and\n      0xfeaf968c\n        /* \"contracts/library/PriceConverter.sol\":356:383  priceFeed.latestRoundData() */\n      mload(0x40)\n      dup2\n      0xffffffff\n      and\n      0xe0\n      shl\n      dup2\n      mstore\n      0x04\n      add\n      0xa0\n      mload(0x40)\n      dup1\n      dup4\n      sub\n      dup2\n      dup7\n      dup1\n      extcodesize\n      iszero\n      dup1\n      iszero\n      tag_82\n      jumpi\n      0x00\n      dup1\n      revert\n    tag_82:\n      pop\n      gas\n      staticcall\n      iszero\n      dup1\n      iszero\n      tag_84\n      jumpi\n      returndatasize\n      0x00\n      dup1\n      returndatacopy\n      revert(0x00, returndatasize)\n    tag_84:\n      pop\n      pop\n      pop\n      pop\n      mload(0x40)\n      returndatasize\n      not(0x1f)\n      0x1f\n      dup3\n      add\n      and\n      dup3\n      add\n      dup1\n      0x40\n      mstore\n      pop\n      dup2\n      add\n      swap1\n      tag_85\n      swap2\n      swap1\n      tag_86\n      jump\t// in\n    tag_85:\n        /* \"contracts/library/PriceConverter.sol\":334:383  (,int256 price,,, ) = priceFeed.latestRoundData() */\n      pop\n      pop\n      pop\n      swap2\n      pop\n      pop\n        /* \"contracts/library/PriceConverter.sol\":416:420  1e10 */\n      0x02540be400\n        /* \"contracts/library/PriceConverter.sol\":408:413  price */\n      dup2\n        /* \"contracts/library/PriceConverter.sol\":408:420  price * 1e10 */\n      tag_87\n      swap2\n      swap1\n      tag_88\n      jump\t// in\n    tag_87:\n        /* \"contracts/library/PriceConverter.sol\":393:421  return uint256(price * 1e10) */\n      swap3\n      pop\n      pop\n      pop\n        /* \"contracts/library/PriceConverter.sol\":164:428  function getPrice() internal view returns(uint256) {... */\n      swap1\n      jump\t// out\n    tag_65:\n      dup3\n      dup1\n      sload\n      dup3\n      dup3\n      sstore\n      swap1\n      0x00\n      mstore\n      keccak256(0x00, 0x20)\n      swap1\n      dup2\n      add\n      swap3\n      dup3\n      iszero\n      tag_89\n      jumpi\n      swap2\n      0x20\n      mul\n      dup3\n      add\n    tag_90:\n      dup3\n      dup2\n      gt\n      iszero\n      tag_91\n      jumpi\n      dup3\n      mload\n      dup3\n      exp(0x0100, 0x00)\n      dup2\n      sload\n      dup2\n      0xffffffffffffffffffffffffffffffffffffffff\n      mul\n      not\n      and\n      swap1\n      dup4\n      0xffffffffffffffffffffffffffffffffffffffff\n      and\n      mul\n      or\n      swap1\n      sstore\n      pop\n      swap2\n      0x20\n      add\n      swap2\n      swap1\n      0x01\n      add\n      swap1\n      jump(tag_90)\n    tag_91:\n    tag_89:\n      pop\n      swap1\n      pop\n      tag_92\n      swap2\n      swap1\n      tag_93\n      jump\t// in\n    tag_92:\n      pop\n      swap1\n      jump\t// out\n    tag_93:\n    tag_94:\n      dup1\n      dup3\n      gt\n      iszero\n      tag_95\n      jumpi\n      0x00\n      dup2\n      0x00\n      swap1\n      sstore\n      pop\n      0x01\n      add\n      jump(tag_94)\n    tag_95:\n      pop\n      swap1\n      jump\t// out\n        /* \"#utility.yul\":88:205   */\n    tag_97:\n        /* \"#utility.yul\":197:198   */\n      0x00\n        /* \"#utility.yul\":194:195   */\n      dup1\n        /* \"#utility.yul\":187:199   */\n      revert\n        /* \"#utility.yul\":334:411   */\n    tag_99:\n        /* \"#utility.yul\":371:378   */\n      0x00\n        /* \"#utility.yul\":400:405   */\n      dup2\n        /* \"#utility.yul\":389:405   */\n      swap1\n      pop\n        /* \"#utility.yul\":334:411   */\n      swap2\n      swap1\n      pop\n      jump\t// out\n        /* \"#utility.yul\":417:539   */\n    tag_100:\n        /* \"#utility.yul\":490:514   */\n      tag_131\n        /* \"#utility.yul\":508:513   */\n      dup2\n        /* \"#utility.yul\":490:514   */\n      tag_99\n      jump\t// in\n    tag_131:\n        /* \"#utility.yul\":483:488   */\n      dup2\n        /* \"#utility.yul\":480:515   */\n      eq\n        /* \"#utility.yul\":470:533   */\n      tag_132\n      jumpi\n        /* \"#utility.yul\":529:530   */\n      0x00\n        /* \"#utility.yul\":526:527   */\n      dup1\n        /* \"#utility.yul\":519:531   */\n      revert\n        /* \"#utility.yul\":470:533   */\n    tag_132:\n        /* \"#utility.yul\":417:539   */\n      pop\n      jump\t// out\n        /* \"#utility.yul\":545:684   */\n    tag_101:\n        /* \"#utility.yul\":591:596   */\n      0x00\n        /* \"#utility.yul\":629:635   */\n      dup2\n        /* \"#utility.yul\":616:636   */\n      calldataload\n        /* \"#utility.yul\":607:636   */\n      swap1\n      pop\n        /* \"#utility.yul\":645:678   */\n      tag_134\n        /* \"#utility.yul\":672:677   */\n      dup2\n        /* \"#utility.yul\":645:678   */\n      tag_100\n      jump\t// in\n    tag_134:\n        /* \"#utility.yul\":545:684   */\n      swap3\n      swap2\n      pop\n      pop\n      jump\t// out\n        /* \"#utility.yul\":690:1019   */\n    tag_16:\n        /* \"#utility.yul\":749:755   */\n      0x00\n        /* \"#utility.yul\":798:800   */\n      0x20\n        /* \"#utility.yul\":786:795   */\n      dup3\n        /* \"#utility.yul\":777:784   */\n      dup5\n        /* \"#utility.yul\":773:796   */\n      sub\n        /* \"#utility.yul\":769:801   */\n      slt\n        /* \"#utility.yul\":766:885   */\n      iszero\n      tag_136\n      jumpi\n        /* \"#utility.yul\":804:883   */\n      tag_137\n      tag_97\n      jump\t// in\n    tag_137:\n        /* \"#utility.yul\":766:885   */\n    tag_136:\n        /* \"#utility.yul\":924:925   */\n      0x00\n        /* \"#utility.yul\":949:1002   */\n      tag_138\n        /* \"#utility.yul\":994:1001   */\n      dup5\n        /* \"#utility.yul\":985:991   */\n      dup3\n        /* \"#utility.yul\":974:983   */\n      dup6\n        /* \"#utility.yul\":970:992   */\n      add\n        /* \"#utility.yul\":949:1002   */\n      tag_101\n      jump\t// in\n    tag_138:\n        /* \"#utility.yul\":939:1002   */\n      swap2\n      pop\n        /* \"#utility.yul\":895:1012   */\n      pop\n        /* \"#utility.yul\":690:1019   */\n      swap3\n      swap2\n      pop\n      pop\n      jump\t// out\n        /* \"#utility.yul\":1025:1151   */\n    tag_102:\n        /* \"#utility.yul\":1062:1069   */\n      0x00\n        /* \"#utility.yul\":1102:1144   */\n      0xffffffffffffffffffffffffffffffffffffffff\n        /* \"#utility.yul\":1095:1100   */\n      dup3\n        /* \"#utility.yul\":1091:1145   */\n      and\n        /* \"#utility.yul\":1080:1145   */\n      swap1\n      pop\n        /* \"#utility.yul\":1025:1151   */\n      swap2\n      swap1\n      pop\n      jump\t// out\n        /* \"#utility.yul\":1157:1253   */\n    tag_103:\n        /* \"#utility.yul\":1194:1201   */\n      0x00\n        /* \"#utility.yul\":1223:1247   */\n      tag_141\n        /* \"#utility.yul\":1241:1246   */\n      dup3\n        /* \"#utility.yul\":1223:1247   */\n      tag_102\n      jump\t// in\n    tag_141:\n        /* \"#utility.yul\":1212:1247   */\n      swap1\n      pop\n        /* \"#utility.yul\":1157:1253   */\n      swap2\n      swap1\n      pop\n      jump\t// out\n        /* \"#utility.yul\":1259:1377   */\n    tag_104:\n        /* \"#utility.yul\":1346:1370   */\n      tag_143\n        /* \"#utility.yul\":1364:1369   */\n      dup2\n        /* \"#utility.yul\":1346:1370   */\n      tag_103\n      jump\t// in\n    tag_143:\n        /* \"#utility.yul\":1341:1344   */\n      dup3\n        /* \"#utility.yul\":1334:1371   */\n      mstore\n        /* \"#utility.yul\":1259:1377   */\n      pop\n      pop\n      jump\t// out\n        /* \"#utility.yul\":1383:1605   */\n    tag_19:\n        /* \"#utility.yul\":1476:1480   */\n      0x00\n        /* \"#utility.yul\":1514:1516   */\n      0x20\n        /* \"#utility.yul\":1503:1512   */\n      dup3\n        /* \"#utility.yul\":1499:1517   */\n      add\n        /* \"#utility.yul\":1491:1517   */\n      swap1\n      pop\n        /* \"#utility.yul\":1527:1598   */\n      tag_145\n        /* \"#utility.yul\":1595:1596   */\n      0x00\n        /* \"#utility.yul\":1584:1593   */\n      dup4\n        /* \"#utility.yul\":1580:1597   */\n      add\n        /* \"#utility.yul\":1571:1577   */\n      dup5\n        /* \"#utility.yul\":1527:1598   */\n      tag_104\n      jump\t// in\n    tag_145:\n        /* \"#utility.yul\":1383:1605   */\n      swap3\n      swap2\n      pop\n      pop\n      jump\t// out\n        /* \"#utility.yul\":1611:1729   */\n    tag_105:\n        /* \"#utility.yul\":1698:1722   */\n      tag_147\n        /* \"#utility.yul\":1716:1721   */\n      dup2\n        /* \"#utility.yul\":1698:1722   */\n      tag_99\n      jump\t// in\n    tag_147:\n        /* \"#utility.yul\":1693:1696   */\n      dup3\n        /* \"#utility.yul\":1686:1723   */\n      mstore\n        /* \"#utility.yul\":1611:1729   */\n      pop\n      pop\n      jump\t// out\n        /* \"#utility.yul\":1735:1957   */\n    tag_27:\n        /* \"#utility.yul\":1828:1832   */\n      0x00\n        /* \"#utility.yul\":1866:1868   */\n      0x20\n        /* \"#utility.yul\":1855:1864   */\n      dup3\n        /* \"#utility.yul\":1851:1869   */\n      add\n        /* \"#utility.yul\":1843:1869   */\n      swap1\n      pop\n        /* \"#utility.yul\":1879:1950   */\n      tag_149\n        /* \"#utility.yul\":1947:1948   */\n      0x00\n        /* \"#utility.yul\":1936:1945   */\n      dup4\n        /* \"#utility.yul\":1932:1949   */\n      add\n        /* \"#utility.yul\":1923:1929   */\n      dup5\n        /* \"#utility.yul\":1879:1950   */\n      tag_105\n      jump\t// in\n    tag_149:\n        /* \"#utility.yul\":1735:1957   */\n      swap3\n      swap2\n      pop\n      pop\n      jump\t// out\n        /* \"#utility.yul\":1963:2085   */\n    tag_106:\n        /* \"#utility.yul\":2036:2060   */\n      tag_151\n        /* \"#utility.yul\":2054:2059   */\n      dup2\n        /* \"#utility.yul\":2036:2060   */\n      tag_103\n      jump\t// in\n    tag_151:\n        /* \"#utility.yul\":2029:2034   */\n      dup2\n        /* \"#utility.yul\":2026:2061   */\n      eq\n        /* \"#utility.yul\":2016:2079   */\n      tag_152\n      jumpi\n        /* \"#utility.yul\":2075:2076   */\n      0x00\n        /* \"#utility.yul\":2072:2073   */\n      dup1\n        /* \"#utility.yul\":2065:2077   */\n      revert\n        /* \"#utility.yul\":2016:2079   */\n    tag_152:\n        /* \"#utility.yul\":1963:2085   */\n      pop\n      jump\t// out\n        /* \"#utility.yul\":2091:2230   */\n    tag_107:\n        /* \"#utility.yul\":2137:2142   */\n      0x00\n        /* \"#utility.yul\":2175:2181   */\n      dup2\n        /* \"#utility.yul\":2162:2182   */\n      calldataload\n        /* \"#utility.yul\":2153:2182   */\n      swap1\n      pop\n        /* \"#utility.yul\":2191:2224   */\n      tag_154\n        /* \"#utility.yul\":2218:2223   */\n      dup2\n        /* \"#utility.yul\":2191:2224   */\n      tag_106\n      jump\t// in\n    tag_154:\n        /* \"#utility.yul\":2091:2230   */\n      swap3\n      swap2\n      pop\n      pop\n      jump\t// out\n        /* \"#utility.yul\":2236:2565   */\n    tag_36:\n        /* \"#utility.yul\":2295:2301   */\n      0x00\n        /* \"#utility.yul\":2344:2346   */\n      0x20\n        /* \"#utility.yul\":2332:2341   */\n      dup3\n        /* \"#utility.yul\":2323:2330   */\n      dup5\n        /* \"#utility.yul\":2319:2342   */\n      sub\n        /* \"#utility.yul\":2315:2347   */\n      slt\n        /* \"#utility.yul\":2312:2431   */\n      iszero\n      tag_156\n      jumpi\n        /* \"#utility.yul\":2350:2429   */\n      tag_157\n      tag_97\n      jump\t// in\n    tag_157:\n        /* \"#utility.yul\":2312:2431   */\n    tag_156:\n        /* \"#utility.yul\":2470:2471   */\n      0x00\n        /* \"#utility.yul\":2495:2548   */\n      tag_158\n        /* \"#utility.yul\":2540:2547   */\n      dup5\n        /* \"#utility.yul\":2531:2537   */\n      dup3\n        /* \"#utility.yul\":2520:2529   */\n      dup6\n        /* \"#utility.yul\":2516:2538   */\n      add\n        /* \"#utility.yul\":2495:2548   */\n      tag_107\n      jump\t// in\n    tag_158:\n        /* \"#utility.yul\":2485:2548   */\n      swap2\n      pop\n        /* \"#utility.yul\":2441:2558   */\n      pop\n        /* \"#utility.yul\":2236:2565   */\n      swap3\n      swap2\n      pop\n      pop\n      jump\t// out\n        /* \"#utility.yul\":2571:2740   */\n    tag_108:\n        /* \"#utility.yul\":2655:2666   */\n      0x00\n        /* \"#utility.yul\":2689:2695   */\n      dup3\n        /* \"#utility.yul\":2684:2687   */\n      dup3\n        /* \"#utility.yul\":2677:2696   */\n      mstore\n        /* \"#utility.yul\":2729:2733   */\n      0x20\n        /* \"#utility.yul\":2724:2727   */\n      dup3\n        /* \"#utility.yul\":2720:2734   */\n      add\n        /* \"#utility.yul\":2705:2734   */\n      swap1\n      pop\n        /* \"#utility.yul\":2571:2740   */\n      swap3\n      swap2\n      pop\n      pop\n      jump\t// out\n        /* \"#utility.yul\":2746:2925   */\n    tag_109:\n        /* \"#utility.yul\":2886:2917   */\n      0x416d6f756e74206d7573742062652067726561746572207468616e2031000000\n        /* \"#utility.yul\":2882:2883   */\n      0x00\n        /* \"#utility.yul\":2874:2880   */\n      dup3\n        /* \"#utility.yul\":2870:2884   */\n      add\n        /* \"#utility.yul\":2863:2918   */\n      mstore\n        /* \"#utility.yul\":2746:2925   */\n      pop\n      jump\t// out\n        /* \"#utility.yul\":2931:3297   */\n    tag_110:\n        /* \"#utility.yul\":3073:3076   */\n      0x00\n        /* \"#utility.yul\":3094:3161   */\n      tag_162\n        /* \"#utility.yul\":3158:3160   */\n      0x1d\n        /* \"#utility.yul\":3153:3156   */\n      dup4\n        /* \"#utility.yul\":3094:3161   */\n      tag_108\n      jump\t// in\n    tag_162:\n        /* \"#utility.yul\":3087:3161   */\n      swap2\n      pop\n        /* \"#utility.yul\":3170:3263   */\n      tag_163\n        /* \"#utility.yul\":3259:3262   */\n      dup3\n        /* \"#utility.yul\":3170:3263   */\n      tag_109\n      jump\t// in\n    tag_163:\n        /* \"#utility.yul\":3288:3290   */\n      0x20\n        /* \"#utility.yul\":3283:3286   */\n      dup3\n        /* \"#utility.yul\":3279:3291   */\n      add\n        /* \"#utility.yul\":3272:3291   */\n      swap1\n      pop\n        /* \"#utility.yul\":2931:3297   */\n      swap2\n      swap1\n      pop\n      jump\t// out\n        /* \"#utility.yul\":3303:3722   */\n    tag_44:\n        /* \"#utility.yul\":3469:3473   */\n      0x00\n        /* \"#utility.yul\":3507:3509   */\n      0x20\n        /* \"#utility.yul\":3496:3505   */\n      dup3\n        /* \"#utility.yul\":3492:3510   */\n      add\n        /* \"#utility.yul\":3484:3510   */\n      swap1\n      pop\n        /* \"#utility.yul\":3556:3565   */\n      dup2\n        /* \"#utility.yul\":3550:3554   */\n      dup2\n        /* \"#utility.yul\":3546:3566   */\n      sub\n        /* \"#utility.yul\":3542:3543   */\n      0x00\n        /* \"#utility.yul\":3531:3540   */\n      dup4\n        /* \"#utility.yul\":3527:3544   */\n      add\n        /* \"#utility.yul\":3520:3567   */\n      mstore\n        /* \"#utility.yul\":3584:3715   */\n      tag_165\n        /* \"#utility.yul\":3710:3714   */\n      dup2\n        /* \"#utility.yul\":3584:3715   */\n      tag_110\n      jump\t// in\n    tag_165:\n        /* \"#utility.yul\":3576:3715   */\n      swap1\n      pop\n        /* \"#utility.yul\":3303:3722   */\n      swap2\n      swap1\n      pop\n      jump\t// out\n        /* \"#utility.yul\":3728:3908   */\n    tag_56:\n        /* \"#utility.yul\":3776:3853   */\n      0x4e487b7100000000000000000000000000000000000000000000000000000000\n        /* \"#utility.yul\":3773:3774   */\n      0x00\n        /* \"#utility.yul\":3766:3854   */\n      mstore\n        /* \"#utility.yul\":3873:3877   */\n      0x32\n        /* \"#utility.yul\":3870:3871   */\n      0x04\n        /* \"#utility.yul\":3863:3878   */\n      mstore\n        /* \"#utility.yul\":3897:3901   */\n      0x24\n        /* \"#utility.yul\":3894:3895   */\n      0x00\n        /* \"#utility.yul\":3887:3902   */\n      revert\n        /* \"#utility.yul\":3914:4094   */\n    tag_111:\n        /* \"#utility.yul\":3962:4039   */\n      0x4e487b7100000000000000000000000000000000000000000000000000000000\n        /* \"#utility.yul\":3959:3960   */\n      0x00\n        /* \"#utility.yul\":3952:4040   */\n      mstore\n        /* \"#utility.yul\":4059:4063   */\n      0x11\n        /* \"#utility.yul\":4056:4057   */\n      0x04\n        /* \"#utility.yul\":4049:4064   */\n      mstore\n        /* \"#utility.yul\":4083:4087   */\n      0x24\n        /* \"#utility.yul\":4080:4081   */\n      0x00\n        /* \"#utility.yul\":4073:4088   */\n      revert\n        /* \"#utility.yul\":4100:4333   */\n    tag_59:\n        /* \"#utility.yul\":4139:4142   */\n      0x00\n        /* \"#utility.yul\":4162:4186   */\n      tag_169\n        /* \"#utility.yul\":4180:4185   */\n      dup3\n        /* \"#utility.yul\":4162:4186   */\n      tag_99\n      jump\t// in\n    tag_169:\n        /* \"#utility.yul\":4153:4186   */\n      swap2\n      pop\n        /* \"#utility.yul\":4208:4274   */\n      0xffffffffffffffffffffffffffffffffffffffffffffffffffffffffffffffff\n        /* \"#utility.yul\":4201:4206   */\n      dup3\n        /* \"#utility.yul\":4198:4275   */\n      eq\n        /* \"#utility.yul\":4195:4298   */\n      iszero\n      tag_170\n      jumpi\n        /* \"#utility.yul\":4278:4296   */\n      tag_171\n      tag_111\n      jump\t// in\n    tag_171:\n        /* \"#utility.yul\":4195:4298   */\n    tag_170:\n        /* \"#utility.yul\":4325:4326   */\n      0x01\n        /* \"#utility.yul\":4318:4323   */\n      dup3\n        /* \"#utility.yul\":4314:4327   */\n      add\n        /* \"#utility.yul\":4307:4327   */\n      swap1\n      pop\n        /* \"#utility.yul\":4100:4333   */\n      swap2\n      swap1\n      pop\n      jump\t// out\n        /* \"#utility.yul\":4339:4519   */\n    tag_62:\n        /* \"#utility.yul\":4387:4464   */\n      0x4e487b7100000000000000000000000000000000000000000000000000000000\n        /* \"#utility.yul\":4384:4385   */\n      0x00\n        /* \"#utility.yul\":4377:4465   */\n      mstore\n        /* \"#utility.yul\":4484:4488   */\n      0x41\n        /* \"#utility.yul\":4481:4482   */\n      0x04\n        /* \"#utility.yul\":4474:4489   */\n      mstore\n        /* \"#utility.yul\":4508:4512   */\n      0x24\n        /* \"#utility.yul\":4505:4506   */\n      0x00\n        /* \"#utility.yul\":4498:4513   */\n      revert\n        /* \"#utility.yul\":4525:4672   */\n    tag_112:\n        /* \"#utility.yul\":4626:4637   */\n      0x00\n        /* \"#utility.yul\":4663:4666   */\n      dup2\n        /* \"#utility.yul\":4648:4666   */\n      swap1\n      pop\n        /* \"#utility.yul\":4525:4672   */\n      swap3\n      swap2\n      pop\n      pop\n      jump\t// out\n        /* \"#utility.yul\":4678:4792   */\n    tag_113:\n      pop\n      jump\t// out\n        /* \"#utility.yul\":4798:5196   */\n    tag_114:\n        /* \"#utility.yul\":4957:4960   */\n      0x00\n        /* \"#utility.yul\":4978:5061   */\n      tag_176\n        /* \"#utility.yul\":5059:5060   */\n      0x00\n        /* \"#utility.yul\":5054:5057   */\n      dup4\n        /* \"#utility.yul\":4978:5061   */\n      tag_112\n      jump\t// in\n    tag_176:\n        /* \"#utility.yul\":4971:5061   */\n      swap2\n      pop\n        /* \"#utility.yul\":5070:5163   */\n      tag_177\n        /* \"#utility.yul\":5159:5162   */\n      dup3\n        /* \"#utility.yul\":5070:5163   */\n      tag_113\n      jump\t// in\n    tag_177:\n        /* \"#utility.yul\":5188:5189   */\n      0x00\n        /* \"#utility.yul\":5183:5186   */\n      dup3\n        /* \"#utility.yul\":5179:5190   */\n      add\n        /* \"#utility.yul\":5172:5190   */\n      swap1\n      pop\n        /* \"#utility.yul\":4798:5196   */\n      swap2\n      swap1\n      pop\n      jump\t// out\n        /* \"#utility.yul\":5202:5581   */\n    tag_67:\n        /* \"#utility.yul\":5386:5389   */\n      0x00\n        /* \"#utility.yul\":5408:5555   */\n      tag_179\n        /* \"#utility.yul\":5551:5554   */\n      dup3\n        /* \"#utility.yul\":5408:5555   */\n      tag_114\n      jump\t// in\n    tag_179:\n        /* \"#utility.yul\":5401:5555   */\n      swap2\n      pop\n        /* \"#utility.yul\":5572:5575   */\n      dup2\n        /* \"#utility.yul\":5565:5575   */\n      swap1\n      pop\n        /* \"#utility.yul\":5202:5581   */\n      swap2\n      swap1\n      pop\n      jump\t// out\n        /* \"#utility.yul\":5587:5750   */\n    tag_115:\n        /* \"#utility.yul\":5727:5742   */\n      0x52657669657720616d6f756e7400000000000000000000000000000000000000\n        /* \"#utility.yul\":5723:5724   */\n      0x00\n        /* \"#utility.yul\":5715:5721   */\n      dup3\n        /* \"#utility.yul\":5711:5725   */\n      add\n        /* \"#utility.yul\":5704:5743   */\n      mstore\n        /* \"#utility.yul\":5587:5750   */\n      pop\n      jump\t// out\n        /* \"#utility.yul\":5756:6122   */\n    tag_116:\n        /* \"#utility.yul\":5898:5901   */\n      0x00\n        /* \"#utility.yul\":5919:5986   */\n      tag_182\n        /* \"#utility.yul\":5983:5985   */\n      0x0d\n        /* \"#utility.yul\":5978:5981   */\n      dup4\n        /* \"#utility.yul\":5919:5986   */\n      tag_108\n      jump\t// in\n    tag_182:\n        /* \"#utility.yul\":5912:5986   */\n      swap2\n      pop\n        /* \"#utility.yul\":5995:6088   */\n      tag_183\n        /* \"#utility.yul\":6084:6087   */\n      dup3\n        /* \"#utility.yul\":5995:6088   */\n      tag_115\n      jump\t// in\n    tag_183:\n        /* \"#utility.yul\":6113:6115   */\n      0x20\n        /* \"#utility.yul\":6108:6111   */\n      dup3\n        /* \"#utility.yul\":6104:6116   */\n      add\n        /* \"#utility.yul\":6097:6116   */\n      swap1\n      pop\n        /* \"#utility.yul\":5756:6122   */\n      swap2\n      swap1\n      pop\n      jump\t// out\n        /* \"#utility.yul\":6128:6547   */\n    tag_73:\n        /* \"#utility.yul\":6294:6298   */\n      0x00\n        /* \"#utility.yul\":6332:6334   */\n      0x20\n        /* \"#utility.yul\":6321:6330   */\n      dup3\n        /* \"#utility.yul\":6317:6335   */\n      add\n        /* \"#utility.yul\":6309:6335   */\n      swap1\n      pop\n        /* \"#utility.yul\":6381:6390   */\n      dup2\n        /* \"#utility.yul\":6375:6379   */\n      dup2\n        /* \"#utility.yul\":6371:6391   */\n      sub\n        /* \"#utility.yul\":6367:6368   */\n      0x00\n        /* \"#utility.yul\":6356:6365   */\n      dup4\n        /* \"#utility.yul\":6352:6369   */\n      add\n        /* \"#utility.yul\":6345:6392   */\n      mstore\n        /* \"#utility.yul\":6409:6540   */\n      tag_185\n        /* \"#utility.yul\":6535:6539   */\n      dup2\n        /* \"#utility.yul\":6409:6540   */\n      tag_116\n      jump\t// in\n    tag_185:\n        /* \"#utility.yul\":6401:6540   */\n      swap1\n      pop\n        /* \"#utility.yul\":6128:6547   */\n      swap2\n      swap1\n      pop\n      jump\t// out\n        /* \"#utility.yul\":6553:6901   */\n    tag_78:\n        /* \"#utility.yul\":6593:6600   */\n      0x00\n        /* \"#utility.yul\":6616:6636   */\n      tag_187\n        /* \"#utility.yul\":6634:6635   */\n      dup3\n        /* \"#utility.yul\":6616:6636   */\n      tag_99\n      jump\t// in\n    tag_187:\n        /* \"#utility.yul\":6611:6636   */\n      swap2\n      pop\n        /* \"#utility.yul\":6650:6670   */\n      tag_188\n        /* \"#utility.yul\":6668:6669   */\n      dup4\n        /* \"#utility.yul\":6650:6670   */\n      tag_99\n      jump\t// in\n    tag_188:\n        /* \"#utility.yul\":6645:6670   */\n      swap3\n      pop\n        /* \"#utility.yul\":6838:6839   */\n      dup2\n        /* \"#utility.yul\":6770:6836   */\n      0xffffffffffffffffffffffffffffffffffffffffffffffffffffffffffffffff\n        /* \"#utility.yul\":6766:6840   */\n      div\n        /* \"#utility.yul\":6763:6764   */\n      dup4\n        /* \"#utility.yul\":6760:6841   */\n      gt\n        /* \"#utility.yul\":6755:6756   */\n      dup3\n        /* \"#utility.yul\":6748:6757   */\n      iszero\n        /* \"#utility.yul\":6741:6758   */\n      iszero\n        /* \"#utility.yul\":6737:6842   */\n      and\n        /* \"#utility.yul\":6734:6865   */\n      iszero\n      tag_189\n      jumpi\n        /* \"#utility.yul\":6845:6863   */\n      tag_190\n      tag_111\n      jump\t// in\n    tag_190:\n        /* \"#utility.yul\":6734:6865   */\n    tag_189:\n        /* \"#utility.yul\":6893:6894   */\n      dup3\n        /* \"#utility.yul\":6890:6891   */\n      dup3\n        /* \"#utility.yul\":6886:6895   */\n      mul\n        /* \"#utility.yul\":6875:6895   */\n      swap1\n      pop\n        /* \"#utility.yul\":6553:6901   */\n      swap3\n      swap2\n      pop\n      pop\n      jump\t// out\n        /* \"#utility.yul\":6907:7087   */\n    tag_117:\n        /* \"#utility.yul\":6955:7032   */\n      0x4e487b7100000000000000000000000000000000000000000000000000000000\n        /* \"#utility.yul\":6952:6953   */\n      0x00\n        /* \"#utility.yul\":6945:7033   */\n      mstore\n        /* \"#utility.yul\":7052:7056   */\n      0x12\n        /* \"#utility.yul\":7049:7050   */\n      0x04\n        /* \"#utility.yul\":7042:7057   */\n      mstore\n        /* \"#utility.yul\":7076:7080   */\n      0x24\n        /* \"#utility.yul\":7073:7074   */\n      0x00\n        /* \"#utility.yul\":7066:7081   */\n      revert\n        /* \"#utility.yul\":7093:7278   */\n    tag_80:\n        /* \"#utility.yul\":7133:7134   */\n      0x00\n        /* \"#utility.yul\":7150:7170   */\n      tag_193\n        /* \"#utility.yul\":7168:7169   */\n      dup3\n        /* \"#utility.yul\":7150:7170   */\n      tag_99\n      jump\t// in\n    tag_193:\n        /* \"#utility.yul\":7145:7170   */\n      swap2\n      pop\n        /* \"#utility.yul\":7184:7204   */\n      tag_194\n        /* \"#utility.yul\":7202:7203   */\n      dup4\n        /* \"#utility.yul\":7184:7204   */\n      tag_99\n      jump\t// in\n    tag_194:\n        /* \"#utility.yul\":7179:7204   */\n      swap3\n      pop\n        /* \"#utility.yul\":7223:7224   */\n      dup3\n        /* \"#utility.yul\":7213:7248   */\n      tag_195\n      jumpi\n        /* \"#utility.yul\":7228:7246   */\n      tag_196\n      tag_117\n      jump\t// in\n    tag_196:\n        /* \"#utility.yul\":7213:7248   */\n    tag_195:\n        /* \"#utility.yul\":7270:7271   */\n      dup3\n        /* \"#utility.yul\":7267:7268   */\n      dup3\n        /* \"#utility.yul\":7263:7272   */\n      div\n        /* \"#utility.yul\":7258:7272   */\n      swap1\n      pop\n        /* \"#utility.yul\":7093:7278   */\n      swap3\n      swap2\n      pop\n      pop\n      jump\t// out\n        /* \"#utility.yul\":7284:7389   */\n    tag_118:\n        /* \"#utility.yul\":7320:7327   */\n      0x00\n        /* \"#utility.yul\":7360:7382   */\n      0xffffffffffffffffffff\n        /* \"#utility.yul\":7353:7358   */\n      dup3\n        /* \"#utility.yul\":7349:7383   */\n      and\n        /* \"#utility.yul\":7338:7383   */\n      swap1\n      pop\n        /* \"#utility.yul\":7284:7389   */\n      swap2\n      swap1\n      pop\n      jump\t// out\n        /* \"#utility.yul\":7395:7515   */\n    tag_119:\n        /* \"#utility.yul\":7467:7490   */\n      tag_199\n        /* \"#utility.yul\":7484:7489   */\n      dup2\n        /* \"#utility.yul\":7467:7490   */\n      tag_118\n      jump\t// in\n    tag_199:\n        /* \"#utility.yul\":7460:7465   */\n      dup2\n        /* \"#utility.yul\":7457:7491   */\n      eq\n        /* \"#utility.yul\":7447:7509   */\n      tag_200\n      jumpi\n        /* \"#utility.yul\":7505:7506   */\n      0x00\n        /* \"#utility.yul\":7502:7503   */\n      dup1\n        /* \"#utility.yul\":7495:7507   */\n      revert\n        /* \"#utility.yul\":7447:7509   */\n    tag_200:\n        /* \"#utility.yul\":7395:7515   */\n      pop\n      jump\t// out\n        /* \"#utility.yul\":7521:7662   */\n    tag_120:\n        /* \"#utility.yul\":7577:7582   */\n      0x00\n        /* \"#utility.yul\":7608:7614   */\n      dup2\n        /* \"#utility.yul\":7602:7615   */\n      mload\n        /* \"#utility.yul\":7593:7615   */\n      swap1\n      pop\n        /* \"#utility.yul\":7624:7656   */\n      tag_202\n        /* \"#utility.yul\":7650:7655   */\n      dup2\n        /* \"#utility.yul\":7624:7656   */\n      tag_119\n      jump\t// in\n    tag_202:\n        /* \"#utility.yul\":7521:7662   */\n      swap3\n      swap2\n      pop\n      pop\n      jump\t// out\n        /* \"#utility.yul\":7668:7744   */\n    tag_121:\n        /* \"#utility.yul\":7704:7711   */\n      0x00\n        /* \"#utility.yul\":7733:7738   */\n      dup2\n        /* \"#utility.yul\":7722:7738   */\n      swap1\n      pop\n        /* \"#utility.yul\":7668:7744   */\n      swap2\n      swap1\n      pop\n      jump\t// out\n        /* \"#utility.yul\":7750:7870   */\n    tag_122:\n        /* \"#utility.yul\":7822:7845   */\n      tag_205\n        /* \"#utility.yul\":7839:7844   */\n      dup2\n        /* \"#utility.yul\":7822:7845   */\n      tag_121\n      jump\t// in\n    tag_205:\n        /* \"#utility.yul\":7815:7820   */\n      dup2\n        /* \"#utility.yul\":7812:7846   */\n      eq\n        /* \"#utility.yul\":7802:7864   */\n      tag_206\n      jumpi\n        /* \"#utility.yul\":7860:7861   */\n      0x00\n        /* \"#utility.yul\":7857:7858   */\n      dup1\n        /* \"#utility.yul\":7850:7862   */\n      revert\n        /* \"#utility.yul\":7802:7864   */\n    tag_206:\n        /* \"#utility.yul\":7750:7870   */\n      pop\n      jump\t// out\n        /* \"#utility.yul\":7876:8017   */\n    tag_123:\n        /* \"#utility.yul\":7932:7937   */\n      0x00\n        /* \"#utility.yul\":7963:7969   */\n      dup2\n        /* \"#utility.yul\":7957:7970   */\n      mload\n        /* \"#utility.yul\":7948:7970   */\n      swap1\n      pop\n        /* \"#utility.yul\":7979:8011   */\n      tag_208\n        /* \"#utility.yul\":8005:8010   */\n      dup2\n        /* \"#utility.yul\":7979:8011   */\n      tag_122\n      jump\t// in\n    tag_208:\n        /* \"#utility.yul\":7876:8017   */\n      swap3\n      swap2\n      pop\n      pop\n      jump\t// out\n        /* \"#utility.yul\":8023:8166   */\n    tag_124:\n        /* \"#utility.yul\":8080:8085   */\n      0x00\n        /* \"#utility.yul\":8111:8117   */\n      dup2\n        /* \"#utility.yul\":8105:8118   */\n      mload\n        /* \"#utility.yul\":8096:8118   */\n      swap1\n      pop\n        /* \"#utility.yul\":8127:8160   */\n      tag_210\n        /* \"#utility.yul\":8154:8159   */\n      dup2\n        /* \"#utility.yul\":8127:8160   */\n      tag_100\n      jump\t// in\n    tag_210:\n        /* \"#utility.yul\":8023:8166   */\n      swap3\n      swap2\n      pop\n      pop\n      jump\t// out\n        /* \"#utility.yul\":8172:9143   */\n    tag_86:\n        /* \"#utility.yul\":8275:8281   */\n      0x00\n        /* \"#utility.yul\":8283:8289   */\n      dup1\n        /* \"#utility.yul\":8291:8297   */\n      0x00\n        /* \"#utility.yul\":8299:8305   */\n      dup1\n        /* \"#utility.yul\":8307:8313   */\n      0x00\n        /* \"#utility.yul\":8356:8359   */\n      0xa0\n        /* \"#utility.yul\":8344:8353   */\n      dup7\n        /* \"#utility.yul\":8335:8342   */\n      dup9\n        /* \"#utility.yul\":8331:8354   */\n      sub\n        /* \"#utility.yul\":8327:8360   */\n      slt\n        /* \"#utility.yul\":8324:8444   */\n      iszero\n      tag_212\n      jumpi\n        /* \"#utility.yul\":8363:8442   */\n      tag_213\n      tag_97\n      jump\t// in\n    tag_213:\n        /* \"#utility.yul\":8324:8444   */\n    tag_212:\n        /* \"#utility.yul\":8483:8484   */\n      0x00\n        /* \"#utility.yul\":8508:8571   */\n      tag_214\n        /* \"#utility.yul\":8563:8570   */\n      dup9\n        /* \"#utility.yul\":8554:8560   */\n      dup3\n        /* \"#utility.yul\":8543:8552   */\n      dup10\n        /* \"#utility.yul\":8539:8561   */\n      add\n        /* \"#utility.yul\":8508:8571   */\n      tag_120\n      jump\t// in\n    tag_214:\n        /* \"#utility.yul\":8498:8571   */\n      swap6\n      pop\n        /* \"#utility.yul\":8454:8581   */\n      pop\n        /* \"#utility.yul\":8620:8622   */\n      0x20\n        /* \"#utility.yul\":8646:8709   */\n      tag_215\n        /* \"#utility.yul\":8701:8708   */\n      dup9\n        /* \"#utility.yul\":8692:8698   */\n      dup3\n        /* \"#utility.yul\":8681:8690   */\n      dup10\n        /* \"#utility.yul\":8677:8699   */\n      add\n        /* \"#utility.yul\":8646:8709   */\n      tag_123\n      jump\t// in\n    tag_215:\n        /* \"#utility.yul\":8636:8709   */\n      swap5\n      pop\n        /* \"#utility.yul\":8591:8719   */\n      pop\n        /* \"#utility.yul\":8758:8760   */\n      0x40\n        /* \"#utility.yul\":8784:8848   */\n      tag_216\n        /* \"#utility.yul\":8840:8847   */\n      dup9\n        /* \"#utility.yul\":8831:8837   */\n      dup3\n        /* \"#utility.yul\":8820:8829   */\n      dup10\n        /* \"#utility.yul\":8816:8838   */\n      add\n        /* \"#utility.yul\":8784:8848   */\n      tag_124\n      jump\t// in\n    tag_216:\n        /* \"#utility.yul\":8774:8848   */\n      swap4\n      pop\n        /* \"#utility.yul\":8729:8858   */\n      pop\n        /* \"#utility.yul\":8897:8899   */\n      0x60\n        /* \"#utility.yul\":8923:8987   */\n      tag_217\n        /* \"#utility.yul\":8979:8986   */\n      dup9\n        /* \"#utility.yul\":8970:8976   */\n      dup3\n        /* \"#utility.yul\":8959:8968   */\n      dup10\n        /* \"#utility.yul\":8955:8977   */\n      add\n        /* \"#utility.yul\":8923:8987   */\n      tag_124\n      jump\t// in\n    tag_217:\n        /* \"#utility.yul\":8913:8987   */\n      swap3\n      pop\n        /* \"#utility.yul\":8868:8997   */\n      pop\n        /* \"#utility.yul\":9036:9039   */\n      0x80\n        /* \"#utility.yul\":9063:9126   */\n      tag_218\n        /* \"#utility.yul\":9118:9125   */\n      dup9\n        /* \"#utility.yul\":9109:9115   */\n      dup3\n        /* \"#utility.yul\":9098:9107   */\n      dup10\n        /* \"#utility.yul\":9094:9116   */\n      add\n        /* \"#utility.yul\":9063:9126   */\n      tag_120\n      jump\t// in\n    tag_218:\n        /* \"#utility.yul\":9053:9126   */\n      swap2\n      pop\n        /* \"#utility.yul\":9007:9136   */\n      pop\n        /* \"#utility.yul\":8172:9143   */\n      swap3\n      swap6\n      pop\n      swap3\n      swap6\n      swap1\n      swap4\n      pop\n      jump\t// out\n        /* \"#utility.yul\":9149:10140   */\n    tag_88:\n        /* \"#utility.yul\":9188:9195   */\n      0x00\n        /* \"#utility.yul\":9211:9230   */\n      tag_220\n        /* \"#utility.yul\":9228:9229   */\n      dup3\n        /* \"#utility.yul\":9211:9230   */\n      tag_121\n      jump\t// in\n    tag_220:\n        /* \"#utility.yul\":9206:9230   */\n      swap2\n      pop\n        /* \"#utility.yul\":9244:9263   */\n      tag_221\n        /* \"#utility.yul\":9261:9262   */\n      dup4\n        /* \"#utility.yul\":9244:9263   */\n      tag_121\n      jump\t// in\n    tag_221:\n        /* \"#utility.yul\":9239:9263   */\n      swap3\n      pop\n        /* \"#utility.yul\":9445:9446   */\n      dup3\n        /* \"#utility.yul\":9377:9443   */\n      0x7fffffffffffffffffffffffffffffffffffffffffffffffffffffffffffffff\n        /* \"#utility.yul\":9373:9447   */\n      div\n        /* \"#utility.yul\":9370:9371   */\n      dup3\n        /* \"#utility.yul\":9367:9448   */\n      gt\n        /* \"#utility.yul\":9362:9363   */\n      0x00\n        /* \"#utility.yul\":9359:9360   */\n      dup5\n        /* \"#utility.yul\":9355:9364   */\n      sgt\n        /* \"#utility.yul\":9351:9352   */\n      0x00\n        /* \"#utility.yul\":9348:9349   */\n      dup5\n        /* \"#utility.yul\":9344:9353   */\n      sgt\n        /* \"#utility.yul\":9340:9365   */\n      and\n        /* \"#utility.yul\":9336:9449   */\n      and\n        /* \"#utility.yul\":9333:9472   */\n      iszero\n      tag_222\n      jumpi\n        /* \"#utility.yul\":9452:9470   */\n      tag_223\n      tag_111\n      jump\t// in\n    tag_223:\n        /* \"#utility.yul\":9333:9472   */\n    tag_222:\n        /* \"#utility.yul\":9656:9657   */\n      dup2\n        /* \"#utility.yul\":9588:9654   */\n      0x8000000000000000000000000000000000000000000000000000000000000000\n        /* \"#utility.yul\":9583:9658   */\n      sdiv\n        /* \"#utility.yul\":9580:9581   */\n      dup4\n        /* \"#utility.yul\":9576:9659   */\n      slt\n        /* \"#utility.yul\":9571:9572   */\n      0x00\n        /* \"#utility.yul\":9568:9569   */\n      dup5\n        /* \"#utility.yul\":9564:9573   */\n      slt\n        /* \"#utility.yul\":9560:9561   */\n      0x00\n        /* \"#utility.yul\":9557:9558   */\n      dup5\n        /* \"#utility.yul\":9553:9562   */\n      sgt\n        /* \"#utility.yul\":9549:9574   */\n      and\n        /* \"#utility.yul\":9545:9660   */\n      and\n        /* \"#utility.yul\":9542:9683   */\n      iszero\n      tag_224\n      jumpi\n        /* \"#utility.yul\":9663:9681   */\n      tag_225\n      tag_111\n      jump\t// in\n    tag_225:\n        /* \"#utility.yul\":9542:9683   */\n    tag_224:\n        /* \"#utility.yul\":9867:9868   */\n      dup3\n        /* \"#utility.yul\":9799:9865   */\n      0x8000000000000000000000000000000000000000000000000000000000000000\n        /* \"#utility.yul\":9794:9869   */\n      sdiv\n        /* \"#utility.yul\":9791:9792   */\n      dup3\n        /* \"#utility.yul\":9787:9870   */\n      slt\n        /* \"#utility.yul\":9782:9783   */\n      0x00\n        /* \"#utility.yul\":9779:9780   */\n      dup5\n        /* \"#utility.yul\":9775:9784   */\n      sgt\n        /* \"#utility.yul\":9771:9772   */\n      0x00\n        /* \"#utility.yul\":9768:9769   */\n      dup5\n        /* \"#utility.yul\":9764:9773   */\n      slt\n        /* \"#utility.yul\":9760:9785   */\n      and\n        /* \"#utility.yul\":9756:9871   */\n      and\n        /* \"#utility.yul\":9753:9894   */\n      iszero\n      tag_226\n      jumpi\n        /* \"#utility.yul\":9874:9892   */\n      tag_227\n      tag_111\n      jump\t// in\n    tag_227:\n        /* \"#utility.yul\":9753:9894   */\n    tag_226:\n        /* \"#utility.yul\":10077:10078   */\n      dup3\n        /* \"#utility.yul\":10009:10075   */\n      0x7fffffffffffffffffffffffffffffffffffffffffffffffffffffffffffffff\n        /* \"#utility.yul\":10004:10079   */\n      sdiv\n        /* \"#utility.yul\":10001:10002   */\n      dup3\n        /* \"#utility.yul\":9997:10080   */\n      slt\n        /* \"#utility.yul\":9992:9993   */\n      0x00\n        /* \"#utility.yul\":9989:9990   */\n      dup5\n        /* \"#utility.yul\":9985:9994   */\n      slt\n        /* \"#utility.yul\":9981:9982   */\n      0x00\n        /* \"#utility.yul\":9978:9979   */\n      dup5\n        /* \"#utility.yul\":9974:9983   */\n      slt\n        /* \"#utility.yul\":9970:9995   */\n      and\n        /* \"#utility.yul\":9966:10081   */\n      and\n        /* \"#utility.yul\":9963:10104   */\n      iszero\n      tag_228\n      jumpi\n        /* \"#utility.yul\":10084:10102   */\n      tag_229\n      tag_111\n      jump\t// in\n    tag_229:\n        /* \"#utility.yul\":9963:10104   */\n    tag_228:\n        /* \"#utility.yul\":10132:10133   */\n      dup3\n        /* \"#utility.yul\":10129:10130   */\n      dup3\n        /* \"#utility.yul\":10125:10134   */\n      mul\n        /* \"#utility.yul\":10114:10134   */\n      swap1\n      pop\n        /* \"#utility.yul\":9149:10140   */\n      swap3\n      swap2\n      pop\n      pop\n      jump\t// out\n\n    auxdata: 0xa264697066735822122008777b15c68cd60bfe23e20b059d2c98dc34a284cdc780f131875025338210ab64736f6c63430008080033\n}\n",
				"bytecode": {
					"linkReferences": {},
					"object": "60a060405234801561001057600080fd5b503373ffffffffffffffffffffffffffffffffffffffff1660808173ffffffffffffffffffffffffffffffffffffffff1660601b8152505060805160601c610d1561006d6000396000818161029b01526104e70152610d156000f3fe6080604052600436106100595760003560e01c80631f2c92381461006d5780633ccfd60b146100aa5780637d451480146100c1578063b60d4288146100ec578063dba6335f146100f6578063deaf2cf01461012157610068565b366100685761006661015e565b005b600080fd5b34801561007957600080fd5b50610094600480360381019061008f91906106f5565b61025a565b6040516100a19190610763565b60405180910390f35b3480156100b657600080fd5b506100bf610299565b005b3480156100cd57600080fd5b506100d66104d9565b6040516100e3919061078d565b60405180910390f35b6100f461015e565b005b34801561010257600080fd5b5061010b6104e5565b6040516101189190610763565b60405180910390f35b34801561012d57600080fd5b50610148600480360381019061014391906107d4565b610509565b604051610155919061078d565b60405180910390f35b671bc16d674ec8000061017034610521565b10156101b1576040517f08c379a00000000000000000000000000000000000000000000000000000000081526004016101a89061085e565b60405180910390fd5b6000339080600181540180825580915050600190039060005260206000200160009091909190916101000a81548173ffffffffffffffffffffffffffffffffffffffff021916908373ffffffffffffffffffffffffffffffffffffffff16021790555034600160003373ffffffffffffffffffffffffffffffffffffffff1673ffffffffffffffffffffffffffffffffffffffff16815260200190815260200160002081905550565b6000818154811061026a57600080fd5b906000526020600020016000915054906101000a900473ffffffffffffffffffffffffffffffffffffffff1681565b7f000000000000000000000000000000000000000000000000000000000000000073ffffffffffffffffffffffffffffffffffffffff163373ffffffffffffffffffffffffffffffffffffffff161461031e576040517f30cd747100000000000000000000000000000000000000000000000000000000815260040160405180910390fd5b60005b6000805490508110156103c95760008082815481106103435761034261087e565b5b9060005260206000200160009054906101000a900473ffffffffffffffffffffffffffffffffffffffff1690506000600160008373ffffffffffffffffffffffffffffffffffffffff1673ffffffffffffffffffffffffffffffffffffffff168152602001908152602001600020819055505080806103c1906108dc565b915050610321565b50600067ffffffffffffffff8111156103e5576103e4610925565b5b6040519080825280602002602001820160405280156104135781602001602082028036833780820191505090505b5060009080519060200190610429929190610613565b5060003373ffffffffffffffffffffffffffffffffffffffff164760405161045090610985565b60006040518083038185875af1925050503d806000811461048d576040519150601f19603f3d011682016040523d82523d6000602084013e610492565b606091505b50509050806104d6576040517f08c379a00000000000000000000000000000000000000000000000000000000081526004016104cd906109e6565b60405180910390fd5b50565b671bc16d674ec8000081565b7f000000000000000000000000000000000000000000000000000000000000000081565b60016020528060005260406000206000915090505481565b60008061052c61055b565b90506000670de0b6b3a764000084836105459190610a06565b61054f9190610a8f565b90508092505050919050565b60008073d4a33860578de61dbabdc8bfdb98fd742fa7028e905060008173ffffffffffffffffffffffffffffffffffffffff1663feaf968c6040518163ffffffff1660e01b815260040160a06040518083038186803b1580156105bd57600080fd5b505afa1580156105d1573d6000803e3d6000fd5b505050506040513d601f19601f820116820180604052508101906105f59190610b4d565b5050509150506402540be4008161060c9190610bc8565b9250505090565b82805482825590600052602060002090810192821561068c579160200282015b8281111561068b5782518260006101000a81548173ffffffffffffffffffffffffffffffffffffffff021916908373ffffffffffffffffffffffffffffffffffffffff16021790555091602001919060010190610633565b5b509050610699919061069d565b5090565b5b808211156106b657600081600090555060010161069e565b5090565b600080fd5b6000819050919050565b6106d2816106bf565b81146106dd57600080fd5b50565b6000813590506106ef816106c9565b92915050565b60006020828403121561070b5761070a6106ba565b5b6000610719848285016106e0565b91505092915050565b600073ffffffffffffffffffffffffffffffffffffffff82169050919050565b600061074d82610722565b9050919050565b61075d81610742565b82525050565b60006020820190506107786000830184610754565b92915050565b610787816106bf565b82525050565b60006020820190506107a2600083018461077e565b92915050565b6107b181610742565b81146107bc57600080fd5b50565b6000813590506107ce816107a8565b92915050565b6000602082840312156107ea576107e96106ba565b5b60006107f8848285016107bf565b91505092915050565b600082825260208201905092915050565b7f416d6f756e74206d7573742062652067726561746572207468616e2031000000600082015250565b6000610848601d83610801565b915061085382610812565b602082019050919050565b600060208201905081810360008301526108778161083b565b9050919050565b7f4e487b7100000000000000000000000000000000000000000000000000000000600052603260045260246000fd5b7f4e487b7100000000000000000000000000000000000000000000000000000000600052601160045260246000fd5b60006108e7826106bf565b91507fffffffffffffffffffffffffffffffffffffffffffffffffffffffffffffffff82141561091a576109196108ad565b5b600182019050919050565b7f4e487b7100000000000000000000000000000000000000000000000000000000600052604160045260246000fd5b600081905092915050565b50565b600061096f600083610954565b915061097a8261095f565b600082019050919050565b600061099082610962565b9150819050919050565b7f52657669657720616d6f756e7400000000000000000000000000000000000000600082015250565b60006109d0600d83610801565b91506109db8261099a565b602082019050919050565b600060208201905081810360008301526109ff816109c3565b9050919050565b6000610a11826106bf565b9150610a1c836106bf565b9250817fffffffffffffffffffffffffffffffffffffffffffffffffffffffffffffffff0483118215151615610a5557610a546108ad565b5b828202905092915050565b7f4e487b7100000000000000000000000000000000000000000000000000000000600052601260045260246000fd5b6000610a9a826106bf565b9150610aa5836106bf565b925082610ab557610ab4610a60565b5b828204905092915050565b600069ffffffffffffffffffff82169050919050565b610adf81610ac0565b8114610aea57600080fd5b50565b600081519050610afc81610ad6565b92915050565b6000819050919050565b610b1581610b02565b8114610b2057600080fd5b50565b600081519050610b3281610b0c565b92915050565b600081519050610b47816106c9565b92915050565b600080600080600060a08688031215610b6957610b686106ba565b5b6000610b7788828901610aed565b9550506020610b8888828901610b23565b9450506040610b9988828901610b38565b9350506060610baa88828901610b38565b9250506080610bbb88828901610aed565b9150509295509295909350565b6000610bd382610b02565b9150610bde83610b02565b9250827f7fffffffffffffffffffffffffffffffffffffffffffffffffffffffffffffff0482116000841360008413161615610c1d57610c1c6108ad565b5b817f80000000000000000000000000000000000000000000000000000000000000000583126000841260008413161615610c5a57610c596108ad565b5b827f80000000000000000000000000000000000000000000000000000000000000000582126000841360008412161615610c9757610c966108ad565b5b827f7fffffffffffffffffffffffffffffffffffffffffffffffffffffffffffffff0582126000841260008412161615610cd457610cd36108ad565b5b82820290509291505056fea264697066735822122008777b15c68cd60bfe23e20b059d2c98dc34a284cdc780f131875025338210ab64736f6c63430008080033",
					"opcodes": "PUSH1 0xA0 PUSH1 0x40 MSTORE CALLVALUE DUP1 ISZERO PUSH2 0x10 JUMPI PUSH1 0x0 DUP1 REVERT JUMPDEST POP CALLER PUSH20 0xFFFFFFFFFFFFFFFFFFFFFFFFFFFFFFFFFFFFFFFF AND PUSH1 0x80 DUP2 PUSH20 0xFFFFFFFFFFFFFFFFFFFFFFFFFFFFFFFFFFFFFFFF AND PUSH1 0x60 SHL DUP2 MSTORE POP POP PUSH1 0x80 MLOAD PUSH1 0x60 SHR PUSH2 0xD15 PUSH2 0x6D PUSH1 0x0 CODECOPY PUSH1 0x0 DUP2 DUP2 PUSH2 0x29B ADD MSTORE PUSH2 0x4E7 ADD MSTORE PUSH2 0xD15 PUSH1 0x0 RETURN INVALID PUSH1 0x80 PUSH1 0x40 MSTORE PUSH1 0x4 CALLDATASIZE LT PUSH2 0x59 JUMPI PUSH1 0x0 CALLDATALOAD PUSH1 0xE0 SHR DUP1 PUSH4 0x1F2C9238 EQ PUSH2 0x6D JUMPI DUP1 PUSH4 0x3CCFD60B EQ PUSH2 0xAA JUMPI DUP1 PUSH4 0x7D451480 EQ PUSH2 0xC1 JUMPI DUP1 PUSH4 0xB60D4288 EQ PUSH2 0xEC JUMPI DUP1 PUSH4 0xDBA6335F EQ PUSH2 0xF6 JUMPI DUP1 PUSH4 0xDEAF2CF0 EQ PUSH2 0x121 JUMPI PUSH2 0x68 JUMP JUMPDEST CALLDATASIZE PUSH2 0x68 JUMPI PUSH2 0x66 PUSH2 0x15E JUMP JUMPDEST STOP JUMPDEST PUSH1 0x0 DUP1 REVERT JUMPDEST CALLVALUE DUP1 ISZERO PUSH2 0x79 JUMPI PUSH1 0x0 DUP1 REVERT JUMPDEST POP PUSH2 0x94 PUSH1 0x4 DUP1 CALLDATASIZE SUB DUP2 ADD SWAP1 PUSH2 0x8F SWAP2 SWAP1 PUSH2 0x6F5 JUMP JUMPDEST PUSH2 0x25A JUMP JUMPDEST PUSH1 0x40 MLOAD PUSH2 0xA1 SWAP2 SWAP1 PUSH2 0x763 JUMP JUMPDEST PUSH1 0x40 MLOAD DUP1 SWAP2 SUB SWAP1 RETURN JUMPDEST CALLVALUE DUP1 ISZERO PUSH2 0xB6 JUMPI PUSH1 0x0 DUP1 REVERT JUMPDEST POP PUSH2 0xBF PUSH2 0x299 JUMP JUMPDEST STOP JUMPDEST CALLVALUE DUP1 ISZERO PUSH2 0xCD JUMPI PUSH1 0x0 DUP1 REVERT JUMPDEST POP PUSH2 0xD6 PUSH2 0x4D9 JUMP JUMPDEST PUSH1 0x40 MLOAD PUSH2 0xE3 SWAP2 SWAP1 PUSH2 0x78D JUMP JUMPDEST PUSH1 0x40 MLOAD DUP1 SWAP2 SUB SWAP1 RETURN JUMPDEST PUSH2 0xF4 PUSH2 0x15E JUMP JUMPDEST STOP JUMPDEST CALLVALUE DUP1 ISZERO PUSH2 0x102 JUMPI PUSH1 0x0 DUP1 REVERT JUMPDEST POP PUSH2 0x10B PUSH2 0x4E5 JUMP JUMPDEST PUSH1 0x40 MLOAD PUSH2 0x118 SWAP2 SWAP1 PUSH2 0x763 JUMP JUMPDEST PUSH1 0x40 MLOAD DUP1 SWAP2 SUB SWAP1 RETURN JUMPDEST CALLVALUE DUP1 ISZERO PUSH2 0x12D JUMPI PUSH1 0x0 DUP1 REVERT JUMPDEST POP PUSH2 0x148 PUSH1 0x4 DUP1 CALLDATASIZE SUB DUP2 ADD SWAP1 PUSH2 0x143 SWAP2 SWAP1 PUSH2 0x7D4 JUMP JUMPDEST PUSH2 0x509 JUMP JUMPDEST PUSH1 0x40 MLOAD PUSH2 0x155 SWAP2 SWAP1 PUSH2 0x78D JUMP JUMPDEST PUSH1 0x40 MLOAD DUP1 SWAP2 SUB SWAP1 RETURN JUMPDEST PUSH8 0x1BC16D674EC80000 PUSH2 0x170 CALLVALUE PUSH2 0x521 JUMP JUMPDEST LT ISZERO PUSH2 0x1B1 JUMPI PUSH1 0x40 MLOAD PUSH32 0x8C379A000000000000000000000000000000000000000000000000000000000 DUP2 MSTORE PUSH1 0x4 ADD PUSH2 0x1A8 SWAP1 PUSH2 0x85E JUMP JUMPDEST PUSH1 0x40 MLOAD DUP1 SWAP2 SUB SWAP1 REVERT JUMPDEST PUSH1 0x0 CALLER SWAP1 DUP1 PUSH1 0x1 DUP2 SLOAD ADD DUP1 DUP3 SSTORE DUP1 SWAP2 POP POP PUSH1 0x1 SWAP1 SUB SWAP1 PUSH1 0x0 MSTORE PUSH1 0x20 PUSH1 0x0 KECCAK256 ADD PUSH1 0x0 SWAP1 SWAP2 SWAP1 SWAP2 SWAP1 SWAP2 PUSH2 0x100 EXP DUP2 SLOAD DUP2 PUSH20 0xFFFFFFFFFFFFFFFFFFFFFFFFFFFFFFFFFFFFFFFF MUL NOT AND SWAP1 DUP4 PUSH20 0xFFFFFFFFFFFFFFFFFFFFFFFFFFFFFFFFFFFFFFFF AND MUL OR SWAP1 SSTORE POP CALLVALUE PUSH1 0x1 PUSH1 0x0 CALLER PUSH20 0xFFFFFFFFFFFFFFFFFFFFFFFFFFFFFFFFFFFFFFFF AND PUSH20 0xFFFFFFFFFFFFFFFFFFFFFFFFFFFFFFFFFFFFFFFF AND DUP2 MSTORE PUSH1 0x20 ADD SWAP1 DUP2 MSTORE PUSH1 0x20 ADD PUSH1 0x0 KECCAK256 DUP2 SWAP1 SSTORE POP JUMP JUMPDEST PUSH1 0x0 DUP2 DUP2 SLOAD DUP2 LT PUSH2 0x26A JUMPI PUSH1 0x0 DUP1 REVERT JUMPDEST SWAP1 PUSH1 0x0 MSTORE PUSH1 0x20 PUSH1 0x0 KECCAK256 ADD PUSH1 0x0 SWAP2 POP SLOAD SWAP1 PUSH2 0x100 EXP SWAP1 DIV PUSH20 0xFFFFFFFFFFFFFFFFFFFFFFFFFFFFFFFFFFFFFFFF AND DUP2 JUMP JUMPDEST PUSH32 0x0 PUSH20 0xFFFFFFFFFFFFFFFFFFFFFFFFFFFFFFFFFFFFFFFF AND CALLER PUSH20 0xFFFFFFFFFFFFFFFFFFFFFFFFFFFFFFFFFFFFFFFF AND EQ PUSH2 0x31E JUMPI PUSH1 0x40 MLOAD PUSH32 0x30CD747100000000000000000000000000000000000000000000000000000000 DUP2 MSTORE PUSH1 0x4 ADD PUSH1 0x40 MLOAD DUP1 SWAP2 SUB SWAP1 REVERT JUMPDEST PUSH1 0x0 JUMPDEST PUSH1 0x0 DUP1 SLOAD SWAP1 POP DUP2 LT ISZERO PUSH2 0x3C9 JUMPI PUSH1 0x0 DUP1 DUP3 DUP2 SLOAD DUP2 LT PUSH2 0x343 JUMPI PUSH2 0x342 PUSH2 0x87E JUMP JUMPDEST JUMPDEST SWAP1 PUSH1 0x0 MSTORE PUSH1 0x20 PUSH1 0x0 KECCAK256 ADD PUSH1 0x0 SWAP1 SLOAD SWAP1 PUSH2 0x100 EXP SWAP1 DIV PUSH20 0xFFFFFFFFFFFFFFFFFFFFFFFFFFFFFFFFFFFFFFFF AND SWAP1 POP PUSH1 0x0 PUSH1 0x1 PUSH1 0x0 DUP4 PUSH20 0xFFFFFFFFFFFFFFFFFFFFFFFFFFFFFFFFFFFFFFFF AND PUSH20 0xFFFFFFFFFFFFFFFFFFFFFFFFFFFFFFFFFFFFFFFF AND DUP2 MSTORE PUSH1 0x20 ADD SWAP1 DUP2 MSTORE PUSH1 0x20 ADD PUSH1 0x0 KECCAK256 DUP2 SWAP1 SSTORE POP POP DUP1 DUP1 PUSH2 0x3C1 SWAP1 PUSH2 0x8DC JUMP JUMPDEST SWAP2 POP POP PUSH2 0x321 JUMP JUMPDEST POP PUSH1 0x0 PUSH8 0xFFFFFFFFFFFFFFFF DUP2 GT ISZERO PUSH2 0x3E5 JUMPI PUSH2 0x3E4 PUSH2 0x925 JUMP JUMPDEST JUMPDEST PUSH1 0x40 MLOAD SWAP1 DUP1 DUP3 MSTORE DUP1 PUSH1 0x20 MUL PUSH1 0x20 ADD DUP3 ADD PUSH1 0x40 MSTORE DUP1 ISZERO PUSH2 0x413 JUMPI DUP2 PUSH1 0x20 ADD PUSH1 0x20 DUP3 MUL DUP1 CALLDATASIZE DUP4 CALLDATACOPY DUP1 DUP3 ADD SWAP2 POP POP SWAP1 POP JUMPDEST POP PUSH1 0x0 SWAP1 DUP1 MLOAD SWAP1 PUSH1 0x20 ADD SWAP1 PUSH2 0x429 SWAP3 SWAP2 SWAP1 PUSH2 0x613 JUMP JUMPDEST POP PUSH1 0x0 CALLER PUSH20 0xFFFFFFFFFFFFFFFFFFFFFFFFFFFFFFFFFFFFFFFF AND SELFBALANCE PUSH1 0x40 MLOAD PUSH2 0x450 SWAP1 PUSH2 0x985 JUMP JUMPDEST PUSH1 0x0 PUSH1 0x40 MLOAD DUP1 DUP4 SUB DUP2 DUP6 DUP8 GAS CALL SWAP3 POP POP POP RETURNDATASIZE DUP1 PUSH1 0x0 DUP2 EQ PUSH2 0x48D JUMPI PUSH1 0x40 MLOAD SWAP2 POP PUSH1 0x1F NOT PUSH1 0x3F RETURNDATASIZE ADD AND DUP3 ADD PUSH1 0x40 MSTORE RETURNDATASIZE DUP3 MSTORE RETURNDATASIZE PUSH1 0x0 PUSH1 0x20 DUP5 ADD RETURNDATACOPY PUSH2 0x492 JUMP JUMPDEST PUSH1 0x60 SWAP2 POP JUMPDEST POP POP SWAP1 POP DUP1 PUSH2 0x4D6 JUMPI PUSH1 0x40 MLOAD PUSH32 0x8C379A000000000000000000000000000000000000000000000000000000000 DUP2 MSTORE PUSH1 0x4 ADD PUSH2 0x4CD SWAP1 PUSH2 0x9E6 JUMP JUMPDEST PUSH1 0x40 MLOAD DUP1 SWAP2 SUB SWAP1 REVERT JUMPDEST POP JUMP JUMPDEST PUSH8 0x1BC16D674EC80000 DUP2 JUMP JUMPDEST PUSH32 0x0 DUP2 JUMP JUMPDEST PUSH1 0x1 PUSH1 0x20 MSTORE DUP1 PUSH1 0x0 MSTORE PUSH1 0x40 PUSH1 0x0 KECCAK256 PUSH1 0x0 SWAP2 POP SWAP1 POP SLOAD DUP2 JUMP JUMPDEST PUSH1 0x0 DUP1 PUSH2 0x52C PUSH2 0x55B JUMP JUMPDEST SWAP1 POP PUSH1 0x0 PUSH8 0xDE0B6B3A7640000 DUP5 DUP4 PUSH2 0x545 SWAP2 SWAP1 PUSH2 0xA06 JUMP JUMPDEST PUSH2 0x54F SWAP2 SWAP1 PUSH2 0xA8F JUMP JUMPDEST SWAP1 POP DUP1 SWAP3 POP POP POP SWAP2 SWAP1 POP JUMP JUMPDEST PUSH1 0x0 DUP1 PUSH20 0xD4A33860578DE61DBABDC8BFDB98FD742FA7028E SWAP1 POP PUSH1 0x0 DUP2 PUSH20 0xFFFFFFFFFFFFFFFFFFFFFFFFFFFFFFFFFFFFFFFF AND PUSH4 0xFEAF968C PUSH1 0x40 MLOAD DUP2 PUSH4 0xFFFFFFFF AND PUSH1 0xE0 SHL DUP2 MSTORE PUSH1 0x4 ADD PUSH1 0xA0 PUSH1 0x40 MLOAD DUP1 DUP4 SUB DUP2 DUP7 DUP1 EXTCODESIZE ISZERO DUP1 ISZERO PUSH2 0x5BD JUMPI PUSH1 0x0 DUP1 REVERT JUMPDEST POP GAS STATICCALL ISZERO DUP1 ISZERO PUSH2 0x5D1 JUMPI RETURNDATASIZE PUSH1 0x0 DUP1 RETURNDATACOPY RETURNDATASIZE PUSH1 0x0 REVERT JUMPDEST POP POP POP POP PUSH1 0x40 MLOAD RETURNDATASIZE PUSH1 0x1F NOT PUSH1 0x1F DUP3 ADD AND DUP3 ADD DUP1 PUSH1 0x40 MSTORE POP DUP2 ADD SWAP1 PUSH2 0x5F5 SWAP2 SWAP1 PUSH2 0xB4D JUMP JUMPDEST POP POP POP SWAP2 POP POP PUSH5 0x2540BE400 DUP2 PUSH2 0x60C SWAP2 SWAP1 PUSH2 0xBC8 JUMP JUMPDEST SWAP3 POP POP POP SWAP1 JUMP JUMPDEST DUP3 DUP1 SLOAD DUP3 DUP3 SSTORE SWAP1 PUSH1 0x0 MSTORE PUSH1 0x20 PUSH1 0x0 KECCAK256 SWAP1 DUP2 ADD SWAP3 DUP3 ISZERO PUSH2 0x68C JUMPI SWAP2 PUSH1 0x20 MUL DUP3 ADD JUMPDEST DUP3 DUP2 GT ISZERO PUSH2 0x68B JUMPI DUP3 MLOAD DUP3 PUSH1 0x0 PUSH2 0x100 EXP DUP2 SLOAD DUP2 PUSH20 0xFFFFFFFFFFFFFFFFFFFFFFFFFFFFFFFFFFFFFFFF MUL NOT AND SWAP1 DUP4 PUSH20 0xFFFFFFFFFFFFFFFFFFFFFFFFFFFFFFFFFFFFFFFF AND MUL OR SWAP1 SSTORE POP SWAP2 PUSH1 0x20 ADD SWAP2 SWAP1 PUSH1 0x1 ADD SWAP1 PUSH2 0x633 JUMP JUMPDEST JUMPDEST POP SWAP1 POP PUSH2 0x699 SWAP2 SWAP1 PUSH2 0x69D JUMP JUMPDEST POP SWAP1 JUMP JUMPDEST JUMPDEST DUP1 DUP3 GT ISZERO PUSH2 0x6B6 JUMPI PUSH1 0x0 DUP2 PUSH1 0x0 SWAP1 SSTORE POP PUSH1 0x1 ADD PUSH2 0x69E JUMP JUMPDEST POP SWAP1 JUMP JUMPDEST PUSH1 0x0 DUP1 REVERT JUMPDEST PUSH1 0x0 DUP2 SWAP1 POP SWAP2 SWAP1 POP JUMP JUMPDEST PUSH2 0x6D2 DUP2 PUSH2 0x6BF JUMP JUMPDEST DUP2 EQ PUSH2 0x6DD JUMPI PUSH1 0x0 DUP1 REVERT JUMPDEST POP JUMP JUMPDEST PUSH1 0x0 DUP2 CALLDATALOAD SWAP1 POP PUSH2 0x6EF DUP2 PUSH2 0x6C9 JUMP JUMPDEST SWAP3 SWAP2 POP POP JUMP JUMPDEST PUSH1 0x0 PUSH1 0x20 DUP3 DUP5 SUB SLT ISZERO PUSH2 0x70B JUMPI PUSH2 0x70A PUSH2 0x6BA JUMP JUMPDEST JUMPDEST PUSH1 0x0 PUSH2 0x719 DUP5 DUP3 DUP6 ADD PUSH2 0x6E0 JUMP JUMPDEST SWAP2 POP POP SWAP3 SWAP2 POP POP JUMP JUMPDEST PUSH1 0x0 PUSH20 0xFFFFFFFFFFFFFFFFFFFFFFFFFFFFFFFFFFFFFFFF DUP3 AND SWAP1 POP SWAP2 SWAP1 POP JUMP JUMPDEST PUSH1 0x0 PUSH2 0x74D DUP3 PUSH2 0x722 JUMP JUMPDEST SWAP1 POP SWAP2 SWAP1 POP JUMP JUMPDEST PUSH2 0x75D DUP2 PUSH2 0x742 JUMP JUMPDEST DUP3 MSTORE POP POP JUMP JUMPDEST PUSH1 0x0 PUSH1 0x20 DUP3 ADD SWAP1 POP PUSH2 0x778 PUSH1 0x0 DUP4 ADD DUP5 PUSH2 0x754 JUMP JUMPDEST SWAP3 SWAP2 POP POP JUMP JUMPDEST PUSH2 0x787 DUP2 PUSH2 0x6BF JUMP JUMPDEST DUP3 MSTORE POP POP JUMP JUMPDEST PUSH1 0x0 PUSH1 0x20 DUP3 ADD SWAP1 POP PUSH2 0x7A2 PUSH1 0x0 DUP4 ADD DUP5 PUSH2 0x77E JUMP JUMPDEST SWAP3 SWAP2 POP POP JUMP JUMPDEST PUSH2 0x7B1 DUP2 PUSH2 0x742 JUMP JUMPDEST DUP2 EQ PUSH2 0x7BC JUMPI PUSH1 0x0 DUP1 REVERT JUMPDEST POP JUMP JUMPDEST PUSH1 0x0 DUP2 CALLDATALOAD SWAP1 POP PUSH2 0x7CE DUP2 PUSH2 0x7A8 JUMP JUMPDEST SWAP3 SWAP2 POP POP JUMP JUMPDEST PUSH1 0x0 PUSH1 0x20 DUP3 DUP5 SUB SLT ISZERO PUSH2 0x7EA JUMPI PUSH2 0x7E9 PUSH2 0x6BA JUMP JUMPDEST JUMPDEST PUSH1 0x0 PUSH2 0x7F8 DUP5 DUP3 DUP6 ADD PUSH2 0x7BF JUMP JUMPDEST SWAP2 POP POP SWAP3 SWAP2 POP POP JUMP JUMPDEST PUSH1 0x0 DUP3 DUP3 MSTORE PUSH1 0x20 DUP3 ADD SWAP1 POP SWAP3 SWAP2 POP POP JUMP JUMPDEST PUSH32 0x416D6F756E74206D7573742062652067726561746572207468616E2031000000 PUSH1 0x0 DUP3 ADD MSTORE POP JUMP JUMPDEST PUSH1 0x0 PUSH2 0x848 PUSH1 0x1D DUP4 PUSH2 0x801 JUMP JUMPDEST SWAP2 POP PUSH2 0x853 DUP3 PUSH2 0x812 JUMP JUMPDEST PUSH1 0x20 DUP3 ADD SWAP1 POP SWAP2 SWAP1 POP JUMP JUMPDEST PUSH1 0x0 PUSH1 0x20 DUP3 ADD SWAP1 POP DUP2 DUP2 SUB PUSH1 0x0 DUP4 ADD MSTORE PUSH2 0x877 DUP2 PUSH2 0x83B JUMP JUMPDEST SWAP1 POP SWAP2 SWAP1 POP JUMP JUMPDEST PUSH32 0x4E487B7100000000000000000000000000000000000000000000000000000000 PUSH1 0x0 MSTORE PUSH1 0x32 PUSH1 0x4 MSTORE PUSH1 0x24 PUSH1 0x0 REVERT JUMPDEST PUSH32 0x4E487B7100000000000000000000000000000000000000000000000000000000 PUSH1 0x0 MSTORE PUSH1 0x11 PUSH1 0x4 MSTORE PUSH1 0x24 PUSH1 0x0 REVERT JUMPDEST PUSH1 0x0 PUSH2 0x8E7 DUP3 PUSH2 0x6BF JUMP JUMPDEST SWAP2 POP PUSH32 0xFFFFFFFFFFFFFFFFFFFFFFFFFFFFFFFFFFFFFFFFFFFFFFFFFFFFFFFFFFFFFFFF DUP3 EQ ISZERO PUSH2 0x91A JUMPI PUSH2 0x919 PUSH2 0x8AD JUMP JUMPDEST JUMPDEST PUSH1 0x1 DUP3 ADD SWAP1 POP SWAP2 SWAP1 POP JUMP JUMPDEST PUSH32 0x4E487B7100000000000000000000000000000000000000000000000000000000 PUSH1 0x0 MSTORE PUSH1 0x41 PUSH1 0x4 MSTORE PUSH1 0x24 PUSH1 0x0 REVERT JUMPDEST PUSH1 0x0 DUP2 SWAP1 POP SWAP3 SWAP2 POP POP JUMP JUMPDEST POP JUMP JUMPDEST PUSH1 0x0 PUSH2 0x96F PUSH1 0x0 DUP4 PUSH2 0x954 JUMP JUMPDEST SWAP2 POP PUSH2 0x97A DUP3 PUSH2 0x95F JUMP JUMPDEST PUSH1 0x0 DUP3 ADD SWAP1 POP SWAP2 SWAP1 POP JUMP JUMPDEST PUSH1 0x0 PUSH2 0x990 DUP3 PUSH2 0x962 JUMP JUMPDEST SWAP2 POP DUP2 SWAP1 POP SWAP2 SWAP1 POP JUMP JUMPDEST PUSH32 0x52657669657720616D6F756E7400000000000000000000000000000000000000 PUSH1 0x0 DUP3 ADD MSTORE POP JUMP JUMPDEST PUSH1 0x0 PUSH2 0x9D0 PUSH1 0xD DUP4 PUSH2 0x801 JUMP JUMPDEST SWAP2 POP PUSH2 0x9DB DUP3 PUSH2 0x99A JUMP JUMPDEST PUSH1 0x20 DUP3 ADD SWAP1 POP SWAP2 SWAP1 POP JUMP JUMPDEST PUSH1 0x0 PUSH1 0x20 DUP3 ADD SWAP1 POP DUP2 DUP2 SUB PUSH1 0x0 DUP4 ADD MSTORE PUSH2 0x9FF DUP2 PUSH2 0x9C3 JUMP JUMPDEST SWAP1 POP SWAP2 SWAP1 POP JUMP JUMPDEST PUSH1 0x0 PUSH2 0xA11 DUP3 PUSH2 0x6BF JUMP JUMPDEST SWAP2 POP PUSH2 0xA1C DUP4 PUSH2 0x6BF JUMP JUMPDEST SWAP3 POP DUP2 PUSH32 0xFFFFFFFFFFFFFFFFFFFFFFFFFFFFFFFFFFFFFFFFFFFFFFFFFFFFFFFFFFFFFFFF DIV DUP4 GT DUP3 ISZERO ISZERO AND ISZERO PUSH2 0xA55 JUMPI PUSH2 0xA54 PUSH2 0x8AD JUMP JUMPDEST JUMPDEST DUP3 DUP3 MUL SWAP1 POP SWAP3 SWAP2 POP POP JUMP JUMPDEST PUSH32 0x4E487B7100000000000000000000000000000000000000000000000000000000 PUSH1 0x0 MSTORE PUSH1 0x12 PUSH1 0x4 MSTORE PUSH1 0x24 PUSH1 0x0 REVERT JUMPDEST PUSH1 0x0 PUSH2 0xA9A DUP3 PUSH2 0x6BF JUMP JUMPDEST SWAP2 POP PUSH2 0xAA5 DUP4 PUSH2 0x6BF JUMP JUMPDEST SWAP3 POP DUP3 PUSH2 0xAB5 JUMPI PUSH2 0xAB4 PUSH2 0xA60 JUMP JUMPDEST JUMPDEST DUP3 DUP3 DIV SWAP1 POP SWAP3 SWAP2 POP POP JUMP JUMPDEST PUSH1 0x0 PUSH10 0xFFFFFFFFFFFFFFFFFFFF DUP3 AND SWAP1 POP SWAP2 SWAP1 POP JUMP JUMPDEST PUSH2 0xADF DUP2 PUSH2 0xAC0 JUMP JUMPDEST DUP2 EQ PUSH2 0xAEA JUMPI PUSH1 0x0 DUP1 REVERT JUMPDEST POP JUMP JUMPDEST PUSH1 0x0 DUP2 MLOAD SWAP1 POP PUSH2 0xAFC DUP2 PUSH2 0xAD6 JUMP JUMPDEST SWAP3 SWAP2 POP POP JUMP JUMPDEST PUSH1 0x0 DUP2 SWAP1 POP SWAP2 SWAP1 POP JUMP JUMPDEST PUSH2 0xB15 DUP2 PUSH2 0xB02 JUMP JUMPDEST DUP2 EQ PUSH2 0xB20 JUMPI PUSH1 0x0 DUP1 REVERT JUMPDEST POP JUMP JUMPDEST PUSH1 0x0 DUP2 MLOAD SWAP1 POP PUSH2 0xB32 DUP2 PUSH2 0xB0C JUMP JUMPDEST SWAP3 SWAP2 POP POP JUMP JUMPDEST PUSH1 0x0 DUP2 MLOAD SWAP1 POP PUSH2 0xB47 DUP2 PUSH2 0x6C9 JUMP JUMPDEST SWAP3 SWAP2 POP POP JUMP JUMPDEST PUSH1 0x0 DUP1 PUSH1 0x0 DUP1 PUSH1 0x0 PUSH1 0xA0 DUP7 DUP9 SUB SLT ISZERO PUSH2 0xB69 JUMPI PUSH2 0xB68 PUSH2 0x6BA JUMP JUMPDEST JUMPDEST PUSH1 0x0 PUSH2 0xB77 DUP9 DUP3 DUP10 ADD PUSH2 0xAED JUMP JUMPDEST SWAP6 POP POP PUSH1 0x20 PUSH2 0xB88 DUP9 DUP3 DUP10 ADD PUSH2 0xB23 JUMP JUMPDEST SWAP5 POP POP PUSH1 0x40 PUSH2 0xB99 DUP9 DUP3 DUP10 ADD PUSH2 0xB38 JUMP JUMPDEST SWAP4 POP POP PUSH1 0x60 PUSH2 0xBAA DUP9 DUP3 DUP10 ADD PUSH2 0xB38 JUMP JUMPDEST SWAP3 POP POP PUSH1 0x80 PUSH2 0xBBB DUP9 DUP3 DUP10 ADD PUSH2 0xAED JUMP JUMPDEST SWAP2 POP POP SWAP3 SWAP6 POP SWAP3 SWAP6 SWAP1 SWAP4 POP JUMP JUMPDEST PUSH1 0x0 PUSH2 0xBD3 DUP3 PUSH2 0xB02 JUMP JUMPDEST SWAP2 POP PUSH2 0xBDE DUP4 PUSH2 0xB02 JUMP JUMPDEST SWAP3 POP DUP3 PUSH32 0x7FFFFFFFFFFFFFFFFFFFFFFFFFFFFFFFFFFFFFFFFFFFFFFFFFFFFFFFFFFFFFFF DIV DUP3 GT PUSH1 0x0 DUP5 SGT PUSH1 0x0 DUP5 SGT AND AND ISZERO PUSH2 0xC1D JUMPI PUSH2 0xC1C PUSH2 0x8AD JUMP JUMPDEST JUMPDEST DUP2 PUSH32 0x8000000000000000000000000000000000000000000000000000000000000000 SDIV DUP4 SLT PUSH1 0x0 DUP5 SLT PUSH1 0x0 DUP5 SGT AND AND ISZERO PUSH2 0xC5A JUMPI PUSH2 0xC59 PUSH2 0x8AD JUMP JUMPDEST JUMPDEST DUP3 PUSH32 0x8000000000000000000000000000000000000000000000000000000000000000 SDIV DUP3 SLT PUSH1 0x0 DUP5 SGT PUSH1 0x0 DUP5 SLT AND AND ISZERO PUSH2 0xC97 JUMPI PUSH2 0xC96 PUSH2 0x8AD JUMP JUMPDEST JUMPDEST DUP3 PUSH32 0x7FFFFFFFFFFFFFFFFFFFFFFFFFFFFFFFFFFFFFFFFFFFFFFFFFFFFFFFFFFFFFFF SDIV DUP3 SLT PUSH1 0x0 DUP5 SLT PUSH1 0x0 DUP5 SLT AND AND ISZERO PUSH2 0xCD4 JUMPI PUSH2 0xCD3 PUSH2 0x8AD JUMP JUMPDEST JUMPDEST DUP3 DUP3 MUL SWAP1 POP SWAP3 SWAP2 POP POP JUMP INVALID LOG2 PUSH5 0x6970667358 0x22 SLT KECCAK256 ADDMOD PUSH24 0x7B15C68CD60BFE23E20B059D2C98DC34A284CDC780F13187 POP 0x25 CALLER DUP3 LT 0xAB PUSH5 0x736F6C6343 STOP ADDMOD ADDMOD STOP CALLER "
				},
				"gasEstimates": {
					"creation": {
						"codeDepositCost": "669800",
						"executionCost": "infinite",
						"totalCost": "infinite"
					},
					"external": {
						"MINIMUMUSD()": "351",
						"amountFunded(address)": "2902",
						"fund()": "infinite",
						"funder(uint256)": "4934",
						"i_owner()": "infinite",
						"withdraw()": "infinite"
					}
				},
				"methodIdentifiers": {
					"MINIMUMUSD()": "7d451480",
					"amountFunded(address)": "deaf2cf0",
					"fund()": "b60d4288",
					"funder(uint256)": "1f2c9238",
					"i_owner()": "dba6335f",
					"withdraw()": "3ccfd60b"
				}
			},
			"storageLayout": {
				"storage": [
					{
						"astId": 61,
						"contract": "contracts/Transaction.sol:Transaction",
						"label": "funder",
						"offset": 0,
						"slot": "0",
						"type": "t_array(t_address)dyn_storage"
					},
					{
						"astId": 65,
						"contract": "contracts/Transaction.sol:Transaction",
						"label": "amountFunded",
						"offset": 0,
						"slot": "1",
						"type": "t_mapping(t_address,t_uint256)"
					}
				],
				"types": {
					"t_address": {
						"encoding": "inplace",
						"label": "address",
						"numberOfBytes": "20"
					},
					"t_array(t_address)dyn_storage": {
						"base": "t_address",
						"encoding": "dynamic_array",
						"label": "address[]",
						"numberOfBytes": "32"
					},
					"t_mapping(t_address,t_uint256)": {
						"encoding": "mapping",
						"key": "t_address",
						"label": "mapping(address => uint256)",
						"numberOfBytes": "32",
						"value": "t_uint256"
					},
					"t_uint256": {
						"encoding": "inplace",
						"label": "uint256",
						"numberOfBytes": "32"
					}
				}
			},
			"userdoc": {
				"kind": "user",
				"methods": {},
				"version": 1
			}
		}
	}
}