{
	"contracts/Transaction.sol": {
		"Transaction": {
			"abi": [
				{
					"inputs": [
						{
							"internalType": "address",
							"name": "",
							"type": "address"
						}
					],
					"name": "amountFunded",
					"outputs": [
						{
							"internalType": "uint256",
							"name": "",
							"type": "uint256"
						}
					],
					"stateMutability": "view",
					"type": "function"
				},
				{
					"inputs": [],
					"name": "fund",
					"outputs": [],
					"stateMutability": "payable",
					"type": "function"
				},
				{
					"inputs": [
						{
							"internalType": "uint256",
							"name": "",
							"type": "uint256"
						}
					],
					"name": "funder",
					"outputs": [
						{
							"internalType": "address",
							"name": "",
							"type": "address"
						}
					],
					"stateMutability": "view",
					"type": "function"
				},
				{
					"inputs": [],
					"name": "mininumUSD",
					"outputs": [
						{
							"internalType": "uint256",
							"name": "",
							"type": "uint256"
						}
					],
					"stateMutability": "view",
					"type": "function"
				}
			],
			"devdoc": {
				"kind": "dev",
				"methods": {},
				"version": 1
			},
			"evm": {
				"assembly": "    /* \"contracts/Transaction.sol\":97:503  contract Transaction {... */\n  mstore(0x40, 0x80)\n    /* \"contracts/Transaction.sol\":191:200  10 * 1e18 */\n  0x8ac7230489e80000\n    /* \"contracts/Transaction.sol\":163:200  uint256 public mininumUSD = 10 * 1e18 */\n  0x00\n  sstore\n    /* \"contracts/Transaction.sol\":97:503  contract Transaction {... */\n  callvalue\n  dup1\n  iszero\n  tag_1\n  jumpi\n  0x00\n  dup1\n  revert\ntag_1:\n  pop\n  dataSize(sub_0)\n  dup1\n  dataOffset(sub_0)\n  0x00\n  codecopy\n  0x00\n  return\nstop\n\nsub_0: assembly {\n        /* \"contracts/Transaction.sol\":97:503  contract Transaction {... */\n      mstore(0x40, 0x80)\n      jumpi(tag_1, lt(calldatasize, 0x04))\n      shr(0xe0, calldataload(0x00))\n      dup1\n      0x1f2c9238\n      eq\n      tag_2\n      jumpi\n      dup1\n      0xb60d4288\n      eq\n      tag_3\n      jumpi\n      dup1\n      0xdeaf2cf0\n      eq\n      tag_4\n      jumpi\n      dup1\n      0xf9155e82\n      eq\n      tag_5\n      jumpi\n    tag_1:\n      0x00\n      dup1\n      revert\n        /* \"contracts/Transaction.sol\":206:229  address[] public funder */\n    tag_2:\n      callvalue\n      dup1\n      iszero\n      tag_6\n      jumpi\n      0x00\n      dup1\n      revert\n    tag_6:\n      pop\n      tag_7\n      0x04\n      dup1\n      calldatasize\n      sub\n      dup2\n      add\n      swap1\n      tag_8\n      swap2\n      swap1\n      tag_9\n      jump\t// in\n    tag_8:\n      tag_10\n      jump\t// in\n    tag_7:\n      mload(0x40)\n      tag_11\n      swap2\n      swap1\n      tag_12\n      jump\t// in\n    tag_11:\n      mload(0x40)\n      dup1\n      swap2\n      sub\n      swap1\n      return\n        /* \"contracts/Transaction.sol\":289:494  function fund() public payable {... */\n    tag_3:\n      tag_13\n      tag_14\n      jump\t// in\n    tag_13:\n      stop\n        /* \"contracts/Transaction.sol\":235:282  mapping(address => uint256) public amountFunded */\n    tag_4:\n      callvalue\n      dup1\n      iszero\n      tag_15\n      jumpi\n      0x00\n      dup1\n      revert\n    tag_15:\n      pop\n      tag_16\n      0x04\n      dup1\n      calldatasize\n      sub\n      dup2\n      add\n      swap1\n      tag_17\n      swap2\n      swap1\n      tag_18\n      jump\t// in\n    tag_17:\n      tag_19\n      jump\t// in\n    tag_16:\n      mload(0x40)\n      tag_20\n      swap2\n      swap1\n      tag_21\n      jump\t// in\n    tag_20:\n      mload(0x40)\n      dup1\n      swap2\n      sub\n      swap1\n      return\n        /* \"contracts/Transaction.sol\":163:200  uint256 public mininumUSD = 10 * 1e18 */\n    tag_5:\n      callvalue\n      dup1\n      iszero\n      tag_22\n      jumpi\n      0x00\n      dup1\n      revert\n    tag_22:\n      pop\n      tag_23\n      tag_24\n      jump\t// in\n    tag_23:\n      mload(0x40)\n      tag_25\n      swap2\n      swap1\n      tag_21\n      jump\t// in\n    tag_25:\n      mload(0x40)\n      dup1\n      swap2\n      sub\n      swap1\n      return\n        /* \"contracts/Transaction.sol\":206:229  address[] public funder */\n    tag_10:\n      0x01\n      dup2\n      dup2\n      sload\n      dup2\n      lt\n      tag_26\n      jumpi\n      0x00\n      dup1\n      revert\n    tag_26:\n      swap1\n      0x00\n      mstore\n      keccak256(0x00, 0x20)\n      add\n      0x00\n      swap2\n      pop\n      sload\n      swap1\n      0x0100\n      exp\n      swap1\n      div\n      0xffffffffffffffffffffffffffffffffffffffff\n      and\n      dup2\n      jump\t// out\n        /* \"contracts/Transaction.sol\":289:494  function fund() public payable {... */\n    tag_14:\n        /* \"contracts/Transaction.sol\":363:373  mininumUSD */\n      sload(0x00)\n        /* \"contracts/Transaction.sol\":338:359  msg.value.converter() */\n      tag_29\n        /* \"contracts/Transaction.sol\":338:347  msg.value */\n      callvalue\n        /* \"contracts/Transaction.sol\":338:357  msg.value.converter */\n      tag_30\n        /* \"contracts/Transaction.sol\":338:359  msg.value.converter() */\n      jump\t// in\n    tag_29:\n        /* \"contracts/Transaction.sol\":338:373  msg.value.converter() >= mininumUSD */\n      lt\n      iszero\n        /* \"contracts/Transaction.sol\":330:407  require(msg.value.converter() >= mininumUSD, \"Amount must be greater than 1\") */\n      tag_31\n      jumpi\n      mload(0x40)\n      0x08c379a000000000000000000000000000000000000000000000000000000000\n      dup2\n      mstore\n      0x04\n      add\n      tag_32\n      swap1\n      tag_33\n      jump\t// in\n    tag_32:\n      mload(0x40)\n      dup1\n      swap2\n      sub\n      swap1\n      revert\n    tag_31:\n        /* \"contracts/Transaction.sol\":417:423  funder */\n      0x01\n        /* \"contracts/Transaction.sol\":429:439  msg.sender */\n      caller\n        /* \"contracts/Transaction.sol\":417:440  funder.push(msg.sender) */\n      swap1\n      dup1\n      0x01\n      dup2\n      sload\n      add\n      dup1\n      dup3\n      sstore\n      dup1\n      swap2\n      pop\n      pop\n      0x01\n      swap1\n      sub\n      swap1\n      0x00\n      mstore\n      keccak256(0x00, 0x20)\n      add\n      0x00\n      swap1\n      swap2\n      swap1\n      swap2\n      swap1\n      swap2\n      0x0100\n      exp\n      dup2\n      sload\n      dup2\n      0xffffffffffffffffffffffffffffffffffffffff\n      mul\n      not\n      and\n      swap1\n      dup4\n      0xffffffffffffffffffffffffffffffffffffffff\n      and\n      mul\n      or\n      swap1\n      sstore\n      pop\n        /* \"contracts/Transaction.sol\":477:486  msg.value */\n      callvalue\n        /* \"contracts/Transaction.sol\":450:462  amountFunded */\n      0x02\n        /* \"contracts/Transaction.sol\":450:474  amountFunded[msg.sender] */\n      0x00\n        /* \"contracts/Transaction.sol\":463:473  msg.sender */\n      caller\n        /* \"contracts/Transaction.sol\":450:474  amountFunded[msg.sender] */\n      0xffffffffffffffffffffffffffffffffffffffff\n      and\n      0xffffffffffffffffffffffffffffffffffffffff\n      and\n      dup2\n      mstore\n      0x20\n      add\n      swap1\n      dup2\n      mstore\n      0x20\n      add\n      0x00\n      keccak256\n        /* \"contracts/Transaction.sol\":450:486  amountFunded[msg.sender] = msg.value */\n      dup2\n      swap1\n      sstore\n      pop\n        /* \"contracts/Transaction.sol\":289:494  function fund() public payable {... */\n      jump\t// out\n        /* \"contracts/Transaction.sol\":235:282  mapping(address => uint256) public amountFunded */\n    tag_19:\n      mstore(0x20, 0x02)\n      dup1\n      0x00\n      mstore\n      keccak256(0x00, 0x40)\n      0x00\n      swap2\n      pop\n      swap1\n      pop\n      sload\n      dup2\n      jump\t// out\n        /* \"contracts/Transaction.sol\":163:200  uint256 public mininumUSD = 10 * 1e18 */\n    tag_24:\n      sload(0x00)\n      dup2\n      jump\t// out\n        /* \"contracts/library/PriceConverter.sol\":434:630  function converter(uint256 ethAmount) internal view returns(uint256) {... */\n    tag_30:\n        /* \"contracts/library/PriceConverter.sol\":494:501  uint256 */\n      0x00\n        /* \"contracts/library/PriceConverter.sol\":513:526  uint256 price */\n      dup1\n        /* \"contracts/library/PriceConverter.sol\":529:539  getPrice() */\n      tag_36\n        /* \"contracts/library/PriceConverter.sol\":529:537  getPrice */\n      tag_37\n        /* \"contracts/library/PriceConverter.sol\":529:539  getPrice() */\n      jump\t// in\n    tag_36:\n        /* \"contracts/library/PriceConverter.sol\":513:539  uint256 price = getPrice() */\n      swap1\n      pop\n        /* \"contracts/library/PriceConverter.sol\":549:567  uint256 priceInUSD */\n      0x00\n        /* \"contracts/library/PriceConverter.sol\":592:596  1e18 */\n      0x0de0b6b3a7640000\n        /* \"contracts/library/PriceConverter.sol\":579:588  ethAmount */\n      dup5\n        /* \"contracts/library/PriceConverter.sol\":571:576  price */\n      dup4\n        /* \"contracts/library/PriceConverter.sol\":571:588  price * ethAmount */\n      tag_38\n      swap2\n      swap1\n      tag_39\n      jump\t// in\n    tag_38:\n        /* \"contracts/library/PriceConverter.sol\":570:596  (price * ethAmount) / 1e18 */\n      tag_40\n      swap2\n      swap1\n      tag_41\n      jump\t// in\n    tag_40:\n        /* \"contracts/library/PriceConverter.sol\":549:596  uint256 priceInUSD = (price * ethAmount) / 1e18 */\n      swap1\n      pop\n        /* \"contracts/library/PriceConverter.sol\":613:623  priceInUSD */\n      dup1\n        /* \"contracts/library/PriceConverter.sol\":606:623  return priceInUSD */\n      swap3\n      pop\n      pop\n      pop\n        /* \"contracts/library/PriceConverter.sol\":434:630  function converter(uint256 ethAmount) internal view returns(uint256) {... */\n      swap2\n      swap1\n      pop\n      jump\t// out\n        /* \"contracts/library/PriceConverter.sol\":164:428  function getPrice() internal view returns(uint256) {... */\n    tag_37:\n        /* \"contracts/library/PriceConverter.sol\":206:213  uint256 */\n      0x00\n        /* \"contracts/library/PriceConverter.sol\":225:256  AggregatorV3Interface priceFeed */\n      dup1\n        /* \"contracts/library/PriceConverter.sol\":281:323  0xD4a33860578De61DBAbDc8BFdb98FD742fA7028e */\n      0xd4a33860578de61dbabdc8bfdb98fd742fa7028e\n        /* \"contracts/library/PriceConverter.sol\":225:324  AggregatorV3Interface priceFeed = AggregatorV3Interface(0xD4a33860578De61DBAbDc8BFdb98FD742fA7028e) */\n      swap1\n      pop\n        /* \"contracts/library/PriceConverter.sol\":336:348  int256 price */\n      0x00\n        /* \"contracts/library/PriceConverter.sol\":356:365  priceFeed */\n      dup2\n        /* \"contracts/library/PriceConverter.sol\":356:381  priceFeed.latestRoundData */\n      0xffffffffffffffffffffffffffffffffffffffff\n      and\n      0xfeaf968c\n        /* \"contracts/library/PriceConverter.sol\":356:383  priceFeed.latestRoundData() */\n      mload(0x40)\n      dup2\n      0xffffffff\n      and\n      0xe0\n      shl\n      dup2\n      mstore\n      0x04\n      add\n      0xa0\n      mload(0x40)\n      dup1\n      dup4\n      sub\n      dup2\n      dup7\n      dup1\n      extcodesize\n      iszero\n      dup1\n      iszero\n      tag_43\n      jumpi\n      0x00\n      dup1\n      revert\n    tag_43:\n      pop\n      gas\n      staticcall\n      iszero\n      dup1\n      iszero\n      tag_45\n      jumpi\n      returndatasize\n      0x00\n      dup1\n      returndatacopy\n      revert(0x00, returndatasize)\n    tag_45:\n      pop\n      pop\n      pop\n      pop\n      mload(0x40)\n      returndatasize\n      not(0x1f)\n      0x1f\n      dup3\n      add\n      and\n      dup3\n      add\n      dup1\n      0x40\n      mstore\n      pop\n      dup2\n      add\n      swap1\n      tag_46\n      swap2\n      swap1\n      tag_47\n      jump\t// in\n    tag_46:\n        /* \"contracts/library/PriceConverter.sol\":334:383  (,int256 price,,, ) = priceFeed.latestRoundData() */\n      pop\n      pop\n      pop\n      swap2\n      pop\n      pop\n        /* \"contracts/library/PriceConverter.sol\":416:420  1e10 */\n      0x02540be400\n        /* \"contracts/library/PriceConverter.sol\":408:413  price */\n      dup2\n        /* \"contracts/library/PriceConverter.sol\":408:420  price * 1e10 */\n      tag_48\n      swap2\n      swap1\n      tag_49\n      jump\t// in\n    tag_48:\n        /* \"contracts/library/PriceConverter.sol\":393:421  return uint256(price * 1e10) */\n      swap3\n      pop\n      pop\n      pop\n        /* \"contracts/library/PriceConverter.sol\":164:428  function getPrice() internal view returns(uint256) {... */\n      swap1\n      jump\t// out\n        /* \"#utility.yul\":88:205   */\n    tag_51:\n        /* \"#utility.yul\":197:198   */\n      0x00\n        /* \"#utility.yul\":194:195   */\n      dup1\n        /* \"#utility.yul\":187:199   */\n      revert\n        /* \"#utility.yul\":334:411   */\n    tag_53:\n        /* \"#utility.yul\":371:378   */\n      0x00\n        /* \"#utility.yul\":400:405   */\n      dup2\n        /* \"#utility.yul\":389:405   */\n      swap1\n      pop\n        /* \"#utility.yul\":334:411   */\n      swap2\n      swap1\n      pop\n      jump\t// out\n        /* \"#utility.yul\":417:539   */\n    tag_54:\n        /* \"#utility.yul\":490:514   */\n      tag_80\n        /* \"#utility.yul\":508:513   */\n      dup2\n        /* \"#utility.yul\":490:514   */\n      tag_53\n      jump\t// in\n    tag_80:\n        /* \"#utility.yul\":483:488   */\n      dup2\n        /* \"#utility.yul\":480:515   */\n      eq\n        /* \"#utility.yul\":470:533   */\n      tag_81\n      jumpi\n        /* \"#utility.yul\":529:530   */\n      0x00\n        /* \"#utility.yul\":526:527   */\n      dup1\n        /* \"#utility.yul\":519:531   */\n      revert\n        /* \"#utility.yul\":470:533   */\n    tag_81:\n        /* \"#utility.yul\":417:539   */\n      pop\n      jump\t// out\n        /* \"#utility.yul\":545:684   */\n    tag_55:\n        /* \"#utility.yul\":591:596   */\n      0x00\n        /* \"#utility.yul\":629:635   */\n      dup2\n        /* \"#utility.yul\":616:636   */\n      calldataload\n        /* \"#utility.yul\":607:636   */\n      swap1\n      pop\n        /* \"#utility.yul\":645:678   */\n      tag_83\n        /* \"#utility.yul\":672:677   */\n      dup2\n        /* \"#utility.yul\":645:678   */\n      tag_54\n      jump\t// in\n    tag_83:\n        /* \"#utility.yul\":545:684   */\n      swap3\n      swap2\n      pop\n      pop\n      jump\t// out\n        /* \"#utility.yul\":690:1019   */\n    tag_9:\n        /* \"#utility.yul\":749:755   */\n      0x00\n        /* \"#utility.yul\":798:800   */\n      0x20\n        /* \"#utility.yul\":786:795   */\n      dup3\n        /* \"#utility.yul\":777:784   */\n      dup5\n        /* \"#utility.yul\":773:796   */\n      sub\n        /* \"#utility.yul\":769:801   */\n      slt\n        /* \"#utility.yul\":766:885   */\n      iszero\n      tag_85\n      jumpi\n        /* \"#utility.yul\":804:883   */\n      tag_86\n      tag_51\n      jump\t// in\n    tag_86:\n        /* \"#utility.yul\":766:885   */\n    tag_85:\n        /* \"#utility.yul\":924:925   */\n      0x00\n        /* \"#utility.yul\":949:1002   */\n      tag_87\n        /* \"#utility.yul\":994:1001   */\n      dup5\n        /* \"#utility.yul\":985:991   */\n      dup3\n        /* \"#utility.yul\":974:983   */\n      dup6\n        /* \"#utility.yul\":970:992   */\n      add\n        /* \"#utility.yul\":949:1002   */\n      tag_55\n      jump\t// in\n    tag_87:\n        /* \"#utility.yul\":939:1002   */\n      swap2\n      pop\n        /* \"#utility.yul\":895:1012   */\n      pop\n        /* \"#utility.yul\":690:1019   */\n      swap3\n      swap2\n      pop\n      pop\n      jump\t// out\n        /* \"#utility.yul\":1025:1151   */\n    tag_56:\n        /* \"#utility.yul\":1062:1069   */\n      0x00\n        /* \"#utility.yul\":1102:1144   */\n      0xffffffffffffffffffffffffffffffffffffffff\n        /* \"#utility.yul\":1095:1100   */\n      dup3\n        /* \"#utility.yul\":1091:1145   */\n      and\n        /* \"#utility.yul\":1080:1145   */\n      swap1\n      pop\n        /* \"#utility.yul\":1025:1151   */\n      swap2\n      swap1\n      pop\n      jump\t// out\n        /* \"#utility.yul\":1157:1253   */\n    tag_57:\n        /* \"#utility.yul\":1194:1201   */\n      0x00\n        /* \"#utility.yul\":1223:1247   */\n      tag_90\n        /* \"#utility.yul\":1241:1246   */\n      dup3\n        /* \"#utility.yul\":1223:1247   */\n      tag_56\n      jump\t// in\n    tag_90:\n        /* \"#utility.yul\":1212:1247   */\n      swap1\n      pop\n        /* \"#utility.yul\":1157:1253   */\n      swap2\n      swap1\n      pop\n      jump\t// out\n        /* \"#utility.yul\":1259:1377   */\n    tag_58:\n        /* \"#utility.yul\":1346:1370   */\n      tag_92\n        /* \"#utility.yul\":1364:1369   */\n      dup2\n        /* \"#utility.yul\":1346:1370   */\n      tag_57\n      jump\t// in\n    tag_92:\n        /* \"#utility.yul\":1341:1344   */\n      dup3\n        /* \"#utility.yul\":1334:1371   */\n      mstore\n        /* \"#utility.yul\":1259:1377   */\n      pop\n      pop\n      jump\t// out\n        /* \"#utility.yul\":1383:1605   */\n    tag_12:\n        /* \"#utility.yul\":1476:1480   */\n      0x00\n        /* \"#utility.yul\":1514:1516   */\n      0x20\n        /* \"#utility.yul\":1503:1512   */\n      dup3\n        /* \"#utility.yul\":1499:1517   */\n      add\n        /* \"#utility.yul\":1491:1517   */\n      swap1\n      pop\n        /* \"#utility.yul\":1527:1598   */\n      tag_94\n        /* \"#utility.yul\":1595:1596   */\n      0x00\n        /* \"#utility.yul\":1584:1593   */\n      dup4\n        /* \"#utility.yul\":1580:1597   */\n      add\n        /* \"#utility.yul\":1571:1577   */\n      dup5\n        /* \"#utility.yul\":1527:1598   */\n      tag_58\n      jump\t// in\n    tag_94:\n        /* \"#utility.yul\":1383:1605   */\n      swap3\n      swap2\n      pop\n      pop\n      jump\t// out\n        /* \"#utility.yul\":1611:1733   */\n    tag_59:\n        /* \"#utility.yul\":1684:1708   */\n      tag_96\n        /* \"#utility.yul\":1702:1707   */\n      dup2\n        /* \"#utility.yul\":1684:1708   */\n      tag_57\n      jump\t// in\n    tag_96:\n        /* \"#utility.yul\":1677:1682   */\n      dup2\n        /* \"#utility.yul\":1674:1709   */\n      eq\n        /* \"#utility.yul\":1664:1727   */\n      tag_97\n      jumpi\n        /* \"#utility.yul\":1723:1724   */\n      0x00\n        /* \"#utility.yul\":1720:1721   */\n      dup1\n        /* \"#utility.yul\":1713:1725   */\n      revert\n        /* \"#utility.yul\":1664:1727   */\n    tag_97:\n        /* \"#utility.yul\":1611:1733   */\n      pop\n      jump\t// out\n        /* \"#utility.yul\":1739:1878   */\n    tag_60:\n        /* \"#utility.yul\":1785:1790   */\n      0x00\n        /* \"#utility.yul\":1823:1829   */\n      dup2\n        /* \"#utility.yul\":1810:1830   */\n      calldataload\n        /* \"#utility.yul\":1801:1830   */\n      swap1\n      pop\n        /* \"#utility.yul\":1839:1872   */\n      tag_99\n        /* \"#utility.yul\":1866:1871   */\n      dup2\n        /* \"#utility.yul\":1839:1872   */\n      tag_59\n      jump\t// in\n    tag_99:\n        /* \"#utility.yul\":1739:1878   */\n      swap3\n      swap2\n      pop\n      pop\n      jump\t// out\n        /* \"#utility.yul\":1884:2213   */\n    tag_18:\n        /* \"#utility.yul\":1943:1949   */\n      0x00\n        /* \"#utility.yul\":1992:1994   */\n      0x20\n        /* \"#utility.yul\":1980:1989   */\n      dup3\n        /* \"#utility.yul\":1971:1978   */\n      dup5\n        /* \"#utility.yul\":1967:1990   */\n      sub\n        /* \"#utility.yul\":1963:1995   */\n      slt\n        /* \"#utility.yul\":1960:2079   */\n      iszero\n      tag_101\n      jumpi\n        /* \"#utility.yul\":1998:2077   */\n      tag_102\n      tag_51\n      jump\t// in\n    tag_102:\n        /* \"#utility.yul\":1960:2079   */\n    tag_101:\n        /* \"#utility.yul\":2118:2119   */\n      0x00\n        /* \"#utility.yul\":2143:2196   */\n      tag_103\n        /* \"#utility.yul\":2188:2195   */\n      dup5\n        /* \"#utility.yul\":2179:2185   */\n      dup3\n        /* \"#utility.yul\":2168:2177   */\n      dup6\n        /* \"#utility.yul\":2164:2186   */\n      add\n        /* \"#utility.yul\":2143:2196   */\n      tag_60\n      jump\t// in\n    tag_103:\n        /* \"#utility.yul\":2133:2196   */\n      swap2\n      pop\n        /* \"#utility.yul\":2089:2206   */\n      pop\n        /* \"#utility.yul\":1884:2213   */\n      swap3\n      swap2\n      pop\n      pop\n      jump\t// out\n        /* \"#utility.yul\":2219:2337   */\n    tag_61:\n        /* \"#utility.yul\":2306:2330   */\n      tag_105\n        /* \"#utility.yul\":2324:2329   */\n      dup2\n        /* \"#utility.yul\":2306:2330   */\n      tag_53\n      jump\t// in\n    tag_105:\n        /* \"#utility.yul\":2301:2304   */\n      dup3\n        /* \"#utility.yul\":2294:2331   */\n      mstore\n        /* \"#utility.yul\":2219:2337   */\n      pop\n      pop\n      jump\t// out\n        /* \"#utility.yul\":2343:2565   */\n    tag_21:\n        /* \"#utility.yul\":2436:2440   */\n      0x00\n        /* \"#utility.yul\":2474:2476   */\n      0x20\n        /* \"#utility.yul\":2463:2472   */\n      dup3\n        /* \"#utility.yul\":2459:2477   */\n      add\n        /* \"#utility.yul\":2451:2477   */\n      swap1\n      pop\n        /* \"#utility.yul\":2487:2558   */\n      tag_107\n        /* \"#utility.yul\":2555:2556   */\n      0x00\n        /* \"#utility.yul\":2544:2553   */\n      dup4\n        /* \"#utility.yul\":2540:2557   */\n      add\n        /* \"#utility.yul\":2531:2537   */\n      dup5\n        /* \"#utility.yul\":2487:2558   */\n      tag_61\n      jump\t// in\n    tag_107:\n        /* \"#utility.yul\":2343:2565   */\n      swap3\n      swap2\n      pop\n      pop\n      jump\t// out\n        /* \"#utility.yul\":2571:2740   */\n    tag_62:\n        /* \"#utility.yul\":2655:2666   */\n      0x00\n        /* \"#utility.yul\":2689:2695   */\n      dup3\n        /* \"#utility.yul\":2684:2687   */\n      dup3\n        /* \"#utility.yul\":2677:2696   */\n      mstore\n        /* \"#utility.yul\":2729:2733   */\n      0x20\n        /* \"#utility.yul\":2724:2727   */\n      dup3\n        /* \"#utility.yul\":2720:2734   */\n      add\n        /* \"#utility.yul\":2705:2734   */\n      swap1\n      pop\n        /* \"#utility.yul\":2571:2740   */\n      swap3\n      swap2\n      pop\n      pop\n      jump\t// out\n        /* \"#utility.yul\":2746:2925   */\n    tag_63:\n        /* \"#utility.yul\":2886:2917   */\n      0x416d6f756e74206d7573742062652067726561746572207468616e2031000000\n        /* \"#utility.yul\":2882:2883   */\n      0x00\n        /* \"#utility.yul\":2874:2880   */\n      dup3\n        /* \"#utility.yul\":2870:2884   */\n      add\n        /* \"#utility.yul\":2863:2918   */\n      mstore\n        /* \"#utility.yul\":2746:2925   */\n      pop\n      jump\t// out\n        /* \"#utility.yul\":2931:3297   */\n    tag_64:\n        /* \"#utility.yul\":3073:3076   */\n      0x00\n        /* \"#utility.yul\":3094:3161   */\n      tag_111\n        /* \"#utility.yul\":3158:3160   */\n      0x1d\n        /* \"#utility.yul\":3153:3156   */\n      dup4\n        /* \"#utility.yul\":3094:3161   */\n      tag_62\n      jump\t// in\n    tag_111:\n        /* \"#utility.yul\":3087:3161   */\n      swap2\n      pop\n        /* \"#utility.yul\":3170:3263   */\n      tag_112\n        /* \"#utility.yul\":3259:3262   */\n      dup3\n        /* \"#utility.yul\":3170:3263   */\n      tag_63\n      jump\t// in\n    tag_112:\n        /* \"#utility.yul\":3288:3290   */\n      0x20\n        /* \"#utility.yul\":3283:3286   */\n      dup3\n        /* \"#utility.yul\":3279:3291   */\n      add\n        /* \"#utility.yul\":3272:3291   */\n      swap1\n      pop\n        /* \"#utility.yul\":2931:3297   */\n      swap2\n      swap1\n      pop\n      jump\t// out\n        /* \"#utility.yul\":3303:3722   */\n    tag_33:\n        /* \"#utility.yul\":3469:3473   */\n      0x00\n        /* \"#utility.yul\":3507:3509   */\n      0x20\n        /* \"#utility.yul\":3496:3505   */\n      dup3\n        /* \"#utility.yul\":3492:3510   */\n      add\n        /* \"#utility.yul\":3484:3510   */\n      swap1\n      pop\n        /* \"#utility.yul\":3556:3565   */\n      dup2\n        /* \"#utility.yul\":3550:3554   */\n      dup2\n        /* \"#utility.yul\":3546:3566   */\n      sub\n        /* \"#utility.yul\":3542:3543   */\n      0x00\n        /* \"#utility.yul\":3531:3540   */\n      dup4\n        /* \"#utility.yul\":3527:3544   */\n      add\n        /* \"#utility.yul\":3520:3567   */\n      mstore\n        /* \"#utility.yul\":3584:3715   */\n      tag_114\n        /* \"#utility.yul\":3710:3714   */\n      dup2\n        /* \"#utility.yul\":3584:3715   */\n      tag_64\n      jump\t// in\n    tag_114:\n        /* \"#utility.yul\":3576:3715   */\n      swap1\n      pop\n        /* \"#utility.yul\":3303:3722   */\n      swap2\n      swap1\n      pop\n      jump\t// out\n        /* \"#utility.yul\":3728:3908   */\n    tag_65:\n        /* \"#utility.yul\":3776:3853   */\n      0x4e487b7100000000000000000000000000000000000000000000000000000000\n        /* \"#utility.yul\":3773:3774   */\n      0x00\n        /* \"#utility.yul\":3766:3854   */\n      mstore\n        /* \"#utility.yul\":3873:3877   */\n      0x11\n        /* \"#utility.yul\":3870:3871   */\n      0x04\n        /* \"#utility.yul\":3863:3878   */\n      mstore\n        /* \"#utility.yul\":3897:3901   */\n      0x24\n        /* \"#utility.yul\":3894:3895   */\n      0x00\n        /* \"#utility.yul\":3887:3902   */\n      revert\n        /* \"#utility.yul\":3914:4262   */\n    tag_39:\n        /* \"#utility.yul\":3954:3961   */\n      0x00\n        /* \"#utility.yul\":3977:3997   */\n      tag_117\n        /* \"#utility.yul\":3995:3996   */\n      dup3\n        /* \"#utility.yul\":3977:3997   */\n      tag_53\n      jump\t// in\n    tag_117:\n        /* \"#utility.yul\":3972:3997   */\n      swap2\n      pop\n        /* \"#utility.yul\":4011:4031   */\n      tag_118\n        /* \"#utility.yul\":4029:4030   */\n      dup4\n        /* \"#utility.yul\":4011:4031   */\n      tag_53\n      jump\t// in\n    tag_118:\n        /* \"#utility.yul\":4006:4031   */\n      swap3\n      pop\n        /* \"#utility.yul\":4199:4200   */\n      dup2\n        /* \"#utility.yul\":4131:4197   */\n      0xffffffffffffffffffffffffffffffffffffffffffffffffffffffffffffffff\n        /* \"#utility.yul\":4127:4201   */\n      div\n        /* \"#utility.yul\":4124:4125   */\n      dup4\n        /* \"#utility.yul\":4121:4202   */\n      gt\n        /* \"#utility.yul\":4116:4117   */\n      dup3\n        /* \"#utility.yul\":4109:4118   */\n      iszero\n        /* \"#utility.yul\":4102:4119   */\n      iszero\n        /* \"#utility.yul\":4098:4203   */\n      and\n        /* \"#utility.yul\":4095:4226   */\n      iszero\n      tag_119\n      jumpi\n        /* \"#utility.yul\":4206:4224   */\n      tag_120\n      tag_65\n      jump\t// in\n    tag_120:\n        /* \"#utility.yul\":4095:4226   */\n    tag_119:\n        /* \"#utility.yul\":4254:4255   */\n      dup3\n        /* \"#utility.yul\":4251:4252   */\n      dup3\n        /* \"#utility.yul\":4247:4256   */\n      mul\n        /* \"#utility.yul\":4236:4256   */\n      swap1\n      pop\n        /* \"#utility.yul\":3914:4262   */\n      swap3\n      swap2\n      pop\n      pop\n      jump\t// out\n        /* \"#utility.yul\":4268:4448   */\n    tag_66:\n        /* \"#utility.yul\":4316:4393   */\n      0x4e487b7100000000000000000000000000000000000000000000000000000000\n        /* \"#utility.yul\":4313:4314   */\n      0x00\n        /* \"#utility.yul\":4306:4394   */\n      mstore\n        /* \"#utility.yul\":4413:4417   */\n      0x12\n        /* \"#utility.yul\":4410:4411   */\n      0x04\n        /* \"#utility.yul\":4403:4418   */\n      mstore\n        /* \"#utility.yul\":4437:4441   */\n      0x24\n        /* \"#utility.yul\":4434:4435   */\n      0x00\n        /* \"#utility.yul\":4427:4442   */\n      revert\n        /* \"#utility.yul\":4454:4639   */\n    tag_41:\n        /* \"#utility.yul\":4494:4495   */\n      0x00\n        /* \"#utility.yul\":4511:4531   */\n      tag_123\n        /* \"#utility.yul\":4529:4530   */\n      dup3\n        /* \"#utility.yul\":4511:4531   */\n      tag_53\n      jump\t// in\n    tag_123:\n        /* \"#utility.yul\":4506:4531   */\n      swap2\n      pop\n        /* \"#utility.yul\":4545:4565   */\n      tag_124\n        /* \"#utility.yul\":4563:4564   */\n      dup4\n        /* \"#utility.yul\":4545:4565   */\n      tag_53\n      jump\t// in\n    tag_124:\n        /* \"#utility.yul\":4540:4565   */\n      swap3\n      pop\n        /* \"#utility.yul\":4584:4585   */\n      dup3\n        /* \"#utility.yul\":4574:4609   */\n      tag_125\n      jumpi\n        /* \"#utility.yul\":4589:4607   */\n      tag_126\n      tag_66\n      jump\t// in\n    tag_126:\n        /* \"#utility.yul\":4574:4609   */\n    tag_125:\n        /* \"#utility.yul\":4631:4632   */\n      dup3\n        /* \"#utility.yul\":4628:4629   */\n      dup3\n        /* \"#utility.yul\":4624:4633   */\n      div\n        /* \"#utility.yul\":4619:4633   */\n      swap1\n      pop\n        /* \"#utility.yul\":4454:4639   */\n      swap3\n      swap2\n      pop\n      pop\n      jump\t// out\n        /* \"#utility.yul\":4645:4750   */\n    tag_67:\n        /* \"#utility.yul\":4681:4688   */\n      0x00\n        /* \"#utility.yul\":4721:4743   */\n      0xffffffffffffffffffff\n        /* \"#utility.yul\":4714:4719   */\n      dup3\n        /* \"#utility.yul\":4710:4744   */\n      and\n        /* \"#utility.yul\":4699:4744   */\n      swap1\n      pop\n        /* \"#utility.yul\":4645:4750   */\n      swap2\n      swap1\n      pop\n      jump\t// out\n        /* \"#utility.yul\":4756:4876   */\n    tag_68:\n        /* \"#utility.yul\":4828:4851   */\n      tag_129\n        /* \"#utility.yul\":4845:4850   */\n      dup2\n        /* \"#utility.yul\":4828:4851   */\n      tag_67\n      jump\t// in\n    tag_129:\n        /* \"#utility.yul\":4821:4826   */\n      dup2\n        /* \"#utility.yul\":4818:4852   */\n      eq\n        /* \"#utility.yul\":4808:4870   */\n      tag_130\n      jumpi\n        /* \"#utility.yul\":4866:4867   */\n      0x00\n        /* \"#utility.yul\":4863:4864   */\n      dup1\n        /* \"#utility.yul\":4856:4868   */\n      revert\n        /* \"#utility.yul\":4808:4870   */\n    tag_130:\n        /* \"#utility.yul\":4756:4876   */\n      pop\n      jump\t// out\n        /* \"#utility.yul\":4882:5023   */\n    tag_69:\n        /* \"#utility.yul\":4938:4943   */\n      0x00\n        /* \"#utility.yul\":4969:4975   */\n      dup2\n        /* \"#utility.yul\":4963:4976   */\n      mload\n        /* \"#utility.yul\":4954:4976   */\n      swap1\n      pop\n        /* \"#utility.yul\":4985:5017   */\n      tag_132\n        /* \"#utility.yul\":5011:5016   */\n      dup2\n        /* \"#utility.yul\":4985:5017   */\n      tag_68\n      jump\t// in\n    tag_132:\n        /* \"#utility.yul\":4882:5023   */\n      swap3\n      swap2\n      pop\n      pop\n      jump\t// out\n        /* \"#utility.yul\":5029:5105   */\n    tag_70:\n        /* \"#utility.yul\":5065:5072   */\n      0x00\n        /* \"#utility.yul\":5094:5099   */\n      dup2\n        /* \"#utility.yul\":5083:5099   */\n      swap1\n      pop\n        /* \"#utility.yul\":5029:5105   */\n      swap2\n      swap1\n      pop\n      jump\t// out\n        /* \"#utility.yul\":5111:5231   */\n    tag_71:\n        /* \"#utility.yul\":5183:5206   */\n      tag_135\n        /* \"#utility.yul\":5200:5205   */\n      dup2\n        /* \"#utility.yul\":5183:5206   */\n      tag_70\n      jump\t// in\n    tag_135:\n        /* \"#utility.yul\":5176:5181   */\n      dup2\n        /* \"#utility.yul\":5173:5207   */\n      eq\n        /* \"#utility.yul\":5163:5225   */\n      tag_136\n      jumpi\n        /* \"#utility.yul\":5221:5222   */\n      0x00\n        /* \"#utility.yul\":5218:5219   */\n      dup1\n        /* \"#utility.yul\":5211:5223   */\n      revert\n        /* \"#utility.yul\":5163:5225   */\n    tag_136:\n        /* \"#utility.yul\":5111:5231   */\n      pop\n      jump\t// out\n        /* \"#utility.yul\":5237:5378   */\n    tag_72:\n        /* \"#utility.yul\":5293:5298   */\n      0x00\n        /* \"#utility.yul\":5324:5330   */\n      dup2\n        /* \"#utility.yul\":5318:5331   */\n      mload\n        /* \"#utility.yul\":5309:5331   */\n      swap1\n      pop\n        /* \"#utility.yul\":5340:5372   */\n      tag_138\n        /* \"#utility.yul\":5366:5371   */\n      dup2\n        /* \"#utility.yul\":5340:5372   */\n      tag_71\n      jump\t// in\n    tag_138:\n        /* \"#utility.yul\":5237:5378   */\n      swap3\n      swap2\n      pop\n      pop\n      jump\t// out\n        /* \"#utility.yul\":5384:5527   */\n    tag_73:\n        /* \"#utility.yul\":5441:5446   */\n      0x00\n        /* \"#utility.yul\":5472:5478   */\n      dup2\n        /* \"#utility.yul\":5466:5479   */\n      mload\n        /* \"#utility.yul\":5457:5479   */\n      swap1\n      pop\n        /* \"#utility.yul\":5488:5521   */\n      tag_140\n        /* \"#utility.yul\":5515:5520   */\n      dup2\n        /* \"#utility.yul\":5488:5521   */\n      tag_54\n      jump\t// in\n    tag_140:\n        /* \"#utility.yul\":5384:5527   */\n      swap3\n      swap2\n      pop\n      pop\n      jump\t// out\n        /* \"#utility.yul\":5533:6504   */\n    tag_47:\n        /* \"#utility.yul\":5636:5642   */\n      0x00\n        /* \"#utility.yul\":5644:5650   */\n      dup1\n        /* \"#utility.yul\":5652:5658   */\n      0x00\n        /* \"#utility.yul\":5660:5666   */\n      dup1\n        /* \"#utility.yul\":5668:5674   */\n      0x00\n        /* \"#utility.yul\":5717:5720   */\n      0xa0\n        /* \"#utility.yul\":5705:5714   */\n      dup7\n        /* \"#utility.yul\":5696:5703   */\n      dup9\n        /* \"#utility.yul\":5692:5715   */\n      sub\n        /* \"#utility.yul\":5688:5721   */\n      slt\n        /* \"#utility.yul\":5685:5805   */\n      iszero\n      tag_142\n      jumpi\n        /* \"#utility.yul\":5724:5803   */\n      tag_143\n      tag_51\n      jump\t// in\n    tag_143:\n        /* \"#utility.yul\":5685:5805   */\n    tag_142:\n        /* \"#utility.yul\":5844:5845   */\n      0x00\n        /* \"#utility.yul\":5869:5932   */\n      tag_144\n        /* \"#utility.yul\":5924:5931   */\n      dup9\n        /* \"#utility.yul\":5915:5921   */\n      dup3\n        /* \"#utility.yul\":5904:5913   */\n      dup10\n        /* \"#utility.yul\":5900:5922   */\n      add\n        /* \"#utility.yul\":5869:5932   */\n      tag_69\n      jump\t// in\n    tag_144:\n        /* \"#utility.yul\":5859:5932   */\n      swap6\n      pop\n        /* \"#utility.yul\":5815:5942   */\n      pop\n        /* \"#utility.yul\":5981:5983   */\n      0x20\n        /* \"#utility.yul\":6007:6070   */\n      tag_145\n        /* \"#utility.yul\":6062:6069   */\n      dup9\n        /* \"#utility.yul\":6053:6059   */\n      dup3\n        /* \"#utility.yul\":6042:6051   */\n      dup10\n        /* \"#utility.yul\":6038:6060   */\n      add\n        /* \"#utility.yul\":6007:6070   */\n      tag_72\n      jump\t// in\n    tag_145:\n        /* \"#utility.yul\":5997:6070   */\n      swap5\n      pop\n        /* \"#utility.yul\":5952:6080   */\n      pop\n        /* \"#utility.yul\":6119:6121   */\n      0x40\n        /* \"#utility.yul\":6145:6209   */\n      tag_146\n        /* \"#utility.yul\":6201:6208   */\n      dup9\n        /* \"#utility.yul\":6192:6198   */\n      dup3\n        /* \"#utility.yul\":6181:6190   */\n      dup10\n        /* \"#utility.yul\":6177:6199   */\n      add\n        /* \"#utility.yul\":6145:6209   */\n      tag_73\n      jump\t// in\n    tag_146:\n        /* \"#utility.yul\":6135:6209   */\n      swap4\n      pop\n        /* \"#utility.yul\":6090:6219   */\n      pop\n        /* \"#utility.yul\":6258:6260   */\n      0x60\n        /* \"#utility.yul\":6284:6348   */\n      tag_147\n        /* \"#utility.yul\":6340:6347   */\n      dup9\n        /* \"#utility.yul\":6331:6337   */\n      dup3\n        /* \"#utility.yul\":6320:6329   */\n      dup10\n        /* \"#utility.yul\":6316:6338   */\n      add\n        /* \"#utility.yul\":6284:6348   */\n      tag_73\n      jump\t// in\n    tag_147:\n        /* \"#utility.yul\":6274:6348   */\n      swap3\n      pop\n        /* \"#utility.yul\":6229:6358   */\n      pop\n        /* \"#utility.yul\":6397:6400   */\n      0x80\n        /* \"#utility.yul\":6424:6487   */\n      tag_148\n        /* \"#utility.yul\":6479:6486   */\n      dup9\n        /* \"#utility.yul\":6470:6476   */\n      dup3\n        /* \"#utility.yul\":6459:6468   */\n      dup10\n        /* \"#utility.yul\":6455:6477   */\n      add\n        /* \"#utility.yul\":6424:6487   */\n      tag_69\n      jump\t// in\n    tag_148:\n        /* \"#utility.yul\":6414:6487   */\n      swap2\n      pop\n        /* \"#utility.yul\":6368:6497   */\n      pop\n        /* \"#utility.yul\":5533:6504   */\n      swap3\n      swap6\n      pop\n      swap3\n      swap6\n      swap1\n      swap4\n      pop\n      jump\t// out\n        /* \"#utility.yul\":6510:7501   */\n    tag_49:\n        /* \"#utility.yul\":6549:6556   */\n      0x00\n        /* \"#utility.yul\":6572:6591   */\n      tag_150\n        /* \"#utility.yul\":6589:6590   */\n      dup3\n        /* \"#utility.yul\":6572:6591   */\n      tag_70\n      jump\t// in\n    tag_150:\n        /* \"#utility.yul\":6567:6591   */\n      swap2\n      pop\n        /* \"#utility.yul\":6605:6624   */\n      tag_151\n        /* \"#utility.yul\":6622:6623   */\n      dup4\n        /* \"#utility.yul\":6605:6624   */\n      tag_70\n      jump\t// in\n    tag_151:\n        /* \"#utility.yul\":6600:6624   */\n      swap3\n      pop\n        /* \"#utility.yul\":6806:6807   */\n      dup3\n        /* \"#utility.yul\":6738:6804   */\n      0x7fffffffffffffffffffffffffffffffffffffffffffffffffffffffffffffff\n        /* \"#utility.yul\":6734:6808   */\n      div\n        /* \"#utility.yul\":6731:6732   */\n      dup3\n        /* \"#utility.yul\":6728:6809   */\n      gt\n        /* \"#utility.yul\":6723:6724   */\n      0x00\n        /* \"#utility.yul\":6720:6721   */\n      dup5\n        /* \"#utility.yul\":6716:6725   */\n      sgt\n        /* \"#utility.yul\":6712:6713   */\n      0x00\n        /* \"#utility.yul\":6709:6710   */\n      dup5\n        /* \"#utility.yul\":6705:6714   */\n      sgt\n        /* \"#utility.yul\":6701:6726   */\n      and\n        /* \"#utility.yul\":6697:6810   */\n      and\n        /* \"#utility.yul\":6694:6833   */\n      iszero\n      tag_152\n      jumpi\n        /* \"#utility.yul\":6813:6831   */\n      tag_153\n      tag_65\n      jump\t// in\n    tag_153:\n        /* \"#utility.yul\":6694:6833   */\n    tag_152:\n        /* \"#utility.yul\":7017:7018   */\n      dup2\n        /* \"#utility.yul\":6949:7015   */\n      0x8000000000000000000000000000000000000000000000000000000000000000\n        /* \"#utility.yul\":6944:7019   */\n      sdiv\n        /* \"#utility.yul\":6941:6942   */\n      dup4\n        /* \"#utility.yul\":6937:7020   */\n      slt\n        /* \"#utility.yul\":6932:6933   */\n      0x00\n        /* \"#utility.yul\":6929:6930   */\n      dup5\n        /* \"#utility.yul\":6925:6934   */\n      slt\n        /* \"#utility.yul\":6921:6922   */\n      0x00\n        /* \"#utility.yul\":6918:6919   */\n      dup5\n        /* \"#utility.yul\":6914:6923   */\n      sgt\n        /* \"#utility.yul\":6910:6935   */\n      and\n        /* \"#utility.yul\":6906:7021   */\n      and\n        /* \"#utility.yul\":6903:7044   */\n      iszero\n      tag_154\n      jumpi\n        /* \"#utility.yul\":7024:7042   */\n      tag_155\n      tag_65\n      jump\t// in\n    tag_155:\n        /* \"#utility.yul\":6903:7044   */\n    tag_154:\n        /* \"#utility.yul\":7228:7229   */\n      dup3\n        /* \"#utility.yul\":7160:7226   */\n      0x8000000000000000000000000000000000000000000000000000000000000000\n        /* \"#utility.yul\":7155:7230   */\n      sdiv\n        /* \"#utility.yul\":7152:7153   */\n      dup3\n        /* \"#utility.yul\":7148:7231   */\n      slt\n        /* \"#utility.yul\":7143:7144   */\n      0x00\n        /* \"#utility.yul\":7140:7141   */\n      dup5\n        /* \"#utility.yul\":7136:7145   */\n      sgt\n        /* \"#utility.yul\":7132:7133   */\n      0x00\n        /* \"#utility.yul\":7129:7130   */\n      dup5\n        /* \"#utility.yul\":7125:7134   */\n      slt\n        /* \"#utility.yul\":7121:7146   */\n      and\n        /* \"#utility.yul\":7117:7232   */\n      and\n        /* \"#utility.yul\":7114:7255   */\n      iszero\n      tag_156\n      jumpi\n        /* \"#utility.yul\":7235:7253   */\n      tag_157\n      tag_65\n      jump\t// in\n    tag_157:\n        /* \"#utility.yul\":7114:7255   */\n    tag_156:\n        /* \"#utility.yul\":7438:7439   */\n      dup3\n        /* \"#utility.yul\":7370:7436   */\n      0x7fffffffffffffffffffffffffffffffffffffffffffffffffffffffffffffff\n        /* \"#utility.yul\":7365:7440   */\n      sdiv\n        /* \"#utility.yul\":7362:7363   */\n      dup3\n        /* \"#utility.yul\":7358:7441   */\n      slt\n        /* \"#utility.yul\":7353:7354   */\n      0x00\n        /* \"#utility.yul\":7350:7351   */\n      dup5\n        /* \"#utility.yul\":7346:7355   */\n      slt\n        /* \"#utility.yul\":7342:7343   */\n      0x00\n        /* \"#utility.yul\":7339:7340   */\n      dup5\n        /* \"#utility.yul\":7335:7344   */\n      slt\n        /* \"#utility.yul\":7331:7356   */\n      and\n        /* \"#utility.yul\":7327:7442   */\n      and\n        /* \"#utility.yul\":7324:7465   */\n      iszero\n      tag_158\n      jumpi\n        /* \"#utility.yul\":7445:7463   */\n      tag_159\n      tag_65\n      jump\t// in\n    tag_159:\n        /* \"#utility.yul\":7324:7465   */\n    tag_158:\n        /* \"#utility.yul\":7493:7494   */\n      dup3\n        /* \"#utility.yul\":7490:7491   */\n      dup3\n        /* \"#utility.yul\":7486:7495   */\n      mul\n        /* \"#utility.yul\":7475:7495   */\n      swap1\n      pop\n        /* \"#utility.yul\":6510:7501   */\n      swap3\n      swap2\n      pop\n      pop\n      jump\t// out\n\n    auxdata: 0xa2646970667358221220ea51ea78084978002bb63c5698994173f6285fbcee27cc381c9ff38de05f7c8d64736f6c63430008080033\n}\n",
				"bytecode": {
					"linkReferences": {},
					"object": "6080604052678ac7230489e8000060005534801561001c57600080fd5b5061083a8061002c6000396000f3fe60806040526004361061003f5760003560e01c80631f2c923814610044578063b60d428814610081578063deaf2cf01461008b578063f9155e82146100c8575b600080fd5b34801561005057600080fd5b5061006b60048036038101906100669190610373565b6100f3565b60405161007891906103e1565b60405180910390f35b610089610132565b005b34801561009757600080fd5b506100b260048036038101906100ad9190610428565b610228565b6040516100bf9190610464565b60405180910390f35b3480156100d457600080fd5b506100dd610240565b6040516100ea9190610464565b60405180910390f35b6001818154811061010357600080fd5b906000526020600020016000915054906101000a900473ffffffffffffffffffffffffffffffffffffffff1681565b60005461013e34610246565b101561017f576040517f08c379a0000000000000000000000000000000000000000000000000000000008152600401610176906104dc565b60405180910390fd5b6001339080600181540180825580915050600190039060005260206000200160009091909190916101000a81548173ffffffffffffffffffffffffffffffffffffffff021916908373ffffffffffffffffffffffffffffffffffffffff16021790555034600260003373ffffffffffffffffffffffffffffffffffffffff1673ffffffffffffffffffffffffffffffffffffffff16815260200190815260200160002081905550565b60026020528060005260406000206000915090505481565b60005481565b600080610251610280565b90506000670de0b6b3a7640000848361026a919061052b565b61027491906105b4565b90508092505050919050565b60008073d4a33860578de61dbabdc8bfdb98fd742fa7028e905060008173ffffffffffffffffffffffffffffffffffffffff1663feaf968c6040518163ffffffff1660e01b815260040160a06040518083038186803b1580156102e257600080fd5b505afa1580156102f6573d6000803e3d6000fd5b505050506040513d601f19601f8201168201806040525081019061031a9190610672565b5050509150506402540be4008161033191906106ed565b9250505090565b600080fd5b6000819050919050565b6103508161033d565b811461035b57600080fd5b50565b60008135905061036d81610347565b92915050565b60006020828403121561038957610388610338565b5b60006103978482850161035e565b91505092915050565b600073ffffffffffffffffffffffffffffffffffffffff82169050919050565b60006103cb826103a0565b9050919050565b6103db816103c0565b82525050565b60006020820190506103f660008301846103d2565b92915050565b610405816103c0565b811461041057600080fd5b50565b600081359050610422816103fc565b92915050565b60006020828403121561043e5761043d610338565b5b600061044c84828501610413565b91505092915050565b61045e8161033d565b82525050565b60006020820190506104796000830184610455565b92915050565b600082825260208201905092915050565b7f416d6f756e74206d7573742062652067726561746572207468616e2031000000600082015250565b60006104c6601d8361047f565b91506104d182610490565b602082019050919050565b600060208201905081810360008301526104f5816104b9565b9050919050565b7f4e487b7100000000000000000000000000000000000000000000000000000000600052601160045260246000fd5b60006105368261033d565b91506105418361033d565b9250817fffffffffffffffffffffffffffffffffffffffffffffffffffffffffffffffff048311821515161561057a576105796104fc565b5b828202905092915050565b7f4e487b7100000000000000000000000000000000000000000000000000000000600052601260045260246000fd5b60006105bf8261033d565b91506105ca8361033d565b9250826105da576105d9610585565b5b828204905092915050565b600069ffffffffffffffffffff82169050919050565b610604816105e5565b811461060f57600080fd5b50565b600081519050610621816105fb565b92915050565b6000819050919050565b61063a81610627565b811461064557600080fd5b50565b60008151905061065781610631565b92915050565b60008151905061066c81610347565b92915050565b600080600080600060a0868803121561068e5761068d610338565b5b600061069c88828901610612565b95505060206106ad88828901610648565b94505060406106be8882890161065d565b93505060606106cf8882890161065d565b92505060806106e088828901610612565b9150509295509295909350565b60006106f882610627565b915061070383610627565b9250827f7fffffffffffffffffffffffffffffffffffffffffffffffffffffffffffffff0482116000841360008413161615610742576107416104fc565b5b817f8000000000000000000000000000000000000000000000000000000000000000058312600084126000841316161561077f5761077e6104fc565b5b827f800000000000000000000000000000000000000000000000000000000000000005821260008413600084121616156107bc576107bb6104fc565b5b827f7fffffffffffffffffffffffffffffffffffffffffffffffffffffffffffffff05821260008412600084121616156107f9576107f86104fc565b5b82820290509291505056fea2646970667358221220ea51ea78084978002bb63c5698994173f6285fbcee27cc381c9ff38de05f7c8d64736f6c63430008080033",
					"opcodes": "PUSH1 0x80 PUSH1 0x40 MSTORE PUSH8 0x8AC7230489E80000 PUSH1 0x0 SSTORE CALLVALUE DUP1 ISZERO PUSH2 0x1C JUMPI PUSH1 0x0 DUP1 REVERT JUMPDEST POP PUSH2 0x83A DUP1 PUSH2 0x2C PUSH1 0x0 CODECOPY PUSH1 0x0 RETURN INVALID PUSH1 0x80 PUSH1 0x40 MSTORE PUSH1 0x4 CALLDATASIZE LT PUSH2 0x3F JUMPI PUSH1 0x0 CALLDATALOAD PUSH1 0xE0 SHR DUP1 PUSH4 0x1F2C9238 EQ PUSH2 0x44 JUMPI DUP1 PUSH4 0xB60D4288 EQ PUSH2 0x81 JUMPI DUP1 PUSH4 0xDEAF2CF0 EQ PUSH2 0x8B JUMPI DUP1 PUSH4 0xF9155E82 EQ PUSH2 0xC8 JUMPI JUMPDEST PUSH1 0x0 DUP1 REVERT JUMPDEST CALLVALUE DUP1 ISZERO PUSH2 0x50 JUMPI PUSH1 0x0 DUP1 REVERT JUMPDEST POP PUSH2 0x6B PUSH1 0x4 DUP1 CALLDATASIZE SUB DUP2 ADD SWAP1 PUSH2 0x66 SWAP2 SWAP1 PUSH2 0x373 JUMP JUMPDEST PUSH2 0xF3 JUMP JUMPDEST PUSH1 0x40 MLOAD PUSH2 0x78 SWAP2 SWAP1 PUSH2 0x3E1 JUMP JUMPDEST PUSH1 0x40 MLOAD DUP1 SWAP2 SUB SWAP1 RETURN JUMPDEST PUSH2 0x89 PUSH2 0x132 JUMP JUMPDEST STOP JUMPDEST CALLVALUE DUP1 ISZERO PUSH2 0x97 JUMPI PUSH1 0x0 DUP1 REVERT JUMPDEST POP PUSH2 0xB2 PUSH1 0x4 DUP1 CALLDATASIZE SUB DUP2 ADD SWAP1 PUSH2 0xAD SWAP2 SWAP1 PUSH2 0x428 JUMP JUMPDEST PUSH2 0x228 JUMP JUMPDEST PUSH1 0x40 MLOAD PUSH2 0xBF SWAP2 SWAP1 PUSH2 0x464 JUMP JUMPDEST PUSH1 0x40 MLOAD DUP1 SWAP2 SUB SWAP1 RETURN JUMPDEST CALLVALUE DUP1 ISZERO PUSH2 0xD4 JUMPI PUSH1 0x0 DUP1 REVERT JUMPDEST POP PUSH2 0xDD PUSH2 0x240 JUMP JUMPDEST PUSH1 0x40 MLOAD PUSH2 0xEA SWAP2 SWAP1 PUSH2 0x464 JUMP JUMPDEST PUSH1 0x40 MLOAD DUP1 SWAP2 SUB SWAP1 RETURN JUMPDEST PUSH1 0x1 DUP2 DUP2 SLOAD DUP2 LT PUSH2 0x103 JUMPI PUSH1 0x0 DUP1 REVERT JUMPDEST SWAP1 PUSH1 0x0 MSTORE PUSH1 0x20 PUSH1 0x0 KECCAK256 ADD PUSH1 0x0 SWAP2 POP SLOAD SWAP1 PUSH2 0x100 EXP SWAP1 DIV PUSH20 0xFFFFFFFFFFFFFFFFFFFFFFFFFFFFFFFFFFFFFFFF AND DUP2 JUMP JUMPDEST PUSH1 0x0 SLOAD PUSH2 0x13E CALLVALUE PUSH2 0x246 JUMP JUMPDEST LT ISZERO PUSH2 0x17F JUMPI PUSH1 0x40 MLOAD PUSH32 0x8C379A000000000000000000000000000000000000000000000000000000000 DUP2 MSTORE PUSH1 0x4 ADD PUSH2 0x176 SWAP1 PUSH2 0x4DC JUMP JUMPDEST PUSH1 0x40 MLOAD DUP1 SWAP2 SUB SWAP1 REVERT JUMPDEST PUSH1 0x1 CALLER SWAP1 DUP1 PUSH1 0x1 DUP2 SLOAD ADD DUP1 DUP3 SSTORE DUP1 SWAP2 POP POP PUSH1 0x1 SWAP1 SUB SWAP1 PUSH1 0x0 MSTORE PUSH1 0x20 PUSH1 0x0 KECCAK256 ADD PUSH1 0x0 SWAP1 SWAP2 SWAP1 SWAP2 SWAP1 SWAP2 PUSH2 0x100 EXP DUP2 SLOAD DUP2 PUSH20 0xFFFFFFFFFFFFFFFFFFFFFFFFFFFFFFFFFFFFFFFF MUL NOT AND SWAP1 DUP4 PUSH20 0xFFFFFFFFFFFFFFFFFFFFFFFFFFFFFFFFFFFFFFFF AND MUL OR SWAP1 SSTORE POP CALLVALUE PUSH1 0x2 PUSH1 0x0 CALLER PUSH20 0xFFFFFFFFFFFFFFFFFFFFFFFFFFFFFFFFFFFFFFFF AND PUSH20 0xFFFFFFFFFFFFFFFFFFFFFFFFFFFFFFFFFFFFFFFF AND DUP2 MSTORE PUSH1 0x20 ADD SWAP1 DUP2 MSTORE PUSH1 0x20 ADD PUSH1 0x0 KECCAK256 DUP2 SWAP1 SSTORE POP JUMP JUMPDEST PUSH1 0x2 PUSH1 0x20 MSTORE DUP1 PUSH1 0x0 MSTORE PUSH1 0x40 PUSH1 0x0 KECCAK256 PUSH1 0x0 SWAP2 POP SWAP1 POP SLOAD DUP2 JUMP JUMPDEST PUSH1 0x0 SLOAD DUP2 JUMP JUMPDEST PUSH1 0x0 DUP1 PUSH2 0x251 PUSH2 0x280 JUMP JUMPDEST SWAP1 POP PUSH1 0x0 PUSH8 0xDE0B6B3A7640000 DUP5 DUP4 PUSH2 0x26A SWAP2 SWAP1 PUSH2 0x52B JUMP JUMPDEST PUSH2 0x274 SWAP2 SWAP1 PUSH2 0x5B4 JUMP JUMPDEST SWAP1 POP DUP1 SWAP3 POP POP POP SWAP2 SWAP1 POP JUMP JUMPDEST PUSH1 0x0 DUP1 PUSH20 0xD4A33860578DE61DBABDC8BFDB98FD742FA7028E SWAP1 POP PUSH1 0x0 DUP2 PUSH20 0xFFFFFFFFFFFFFFFFFFFFFFFFFFFFFFFFFFFFFFFF AND PUSH4 0xFEAF968C PUSH1 0x40 MLOAD DUP2 PUSH4 0xFFFFFFFF AND PUSH1 0xE0 SHL DUP2 MSTORE PUSH1 0x4 ADD PUSH1 0xA0 PUSH1 0x40 MLOAD DUP1 DUP4 SUB DUP2 DUP7 DUP1 EXTCODESIZE ISZERO DUP1 ISZERO PUSH2 0x2E2 JUMPI PUSH1 0x0 DUP1 REVERT JUMPDEST POP GAS STATICCALL ISZERO DUP1 ISZERO PUSH2 0x2F6 JUMPI RETURNDATASIZE PUSH1 0x0 DUP1 RETURNDATACOPY RETURNDATASIZE PUSH1 0x0 REVERT JUMPDEST POP POP POP POP PUSH1 0x40 MLOAD RETURNDATASIZE PUSH1 0x1F NOT PUSH1 0x1F DUP3 ADD AND DUP3 ADD DUP1 PUSH1 0x40 MSTORE POP DUP2 ADD SWAP1 PUSH2 0x31A SWAP2 SWAP1 PUSH2 0x672 JUMP JUMPDEST POP POP POP SWAP2 POP POP PUSH5 0x2540BE400 DUP2 PUSH2 0x331 SWAP2 SWAP1 PUSH2 0x6ED JUMP JUMPDEST SWAP3 POP POP POP SWAP1 JUMP JUMPDEST PUSH1 0x0 DUP1 REVERT JUMPDEST PUSH1 0x0 DUP2 SWAP1 POP SWAP2 SWAP1 POP JUMP JUMPDEST PUSH2 0x350 DUP2 PUSH2 0x33D JUMP JUMPDEST DUP2 EQ PUSH2 0x35B JUMPI PUSH1 0x0 DUP1 REVERT JUMPDEST POP JUMP JUMPDEST PUSH1 0x0 DUP2 CALLDATALOAD SWAP1 POP PUSH2 0x36D DUP2 PUSH2 0x347 JUMP JUMPDEST SWAP3 SWAP2 POP POP JUMP JUMPDEST PUSH1 0x0 PUSH1 0x20 DUP3 DUP5 SUB SLT ISZERO PUSH2 0x389 JUMPI PUSH2 0x388 PUSH2 0x338 JUMP JUMPDEST JUMPDEST PUSH1 0x0 PUSH2 0x397 DUP5 DUP3 DUP6 ADD PUSH2 0x35E JUMP JUMPDEST SWAP2 POP POP SWAP3 SWAP2 POP POP JUMP JUMPDEST PUSH1 0x0 PUSH20 0xFFFFFFFFFFFFFFFFFFFFFFFFFFFFFFFFFFFFFFFF DUP3 AND SWAP1 POP SWAP2 SWAP1 POP JUMP JUMPDEST PUSH1 0x0 PUSH2 0x3CB DUP3 PUSH2 0x3A0 JUMP JUMPDEST SWAP1 POP SWAP2 SWAP1 POP JUMP JUMPDEST PUSH2 0x3DB DUP2 PUSH2 0x3C0 JUMP JUMPDEST DUP3 MSTORE POP POP JUMP JUMPDEST PUSH1 0x0 PUSH1 0x20 DUP3 ADD SWAP1 POP PUSH2 0x3F6 PUSH1 0x0 DUP4 ADD DUP5 PUSH2 0x3D2 JUMP JUMPDEST SWAP3 SWAP2 POP POP JUMP JUMPDEST PUSH2 0x405 DUP2 PUSH2 0x3C0 JUMP JUMPDEST DUP2 EQ PUSH2 0x410 JUMPI PUSH1 0x0 DUP1 REVERT JUMPDEST POP JUMP JUMPDEST PUSH1 0x0 DUP2 CALLDATALOAD SWAP1 POP PUSH2 0x422 DUP2 PUSH2 0x3FC JUMP JUMPDEST SWAP3 SWAP2 POP POP JUMP JUMPDEST PUSH1 0x0 PUSH1 0x20 DUP3 DUP5 SUB SLT ISZERO PUSH2 0x43E JUMPI PUSH2 0x43D PUSH2 0x338 JUMP JUMPDEST JUMPDEST PUSH1 0x0 PUSH2 0x44C DUP5 DUP3 DUP6 ADD PUSH2 0x413 JUMP JUMPDEST SWAP2 POP POP SWAP3 SWAP2 POP POP JUMP JUMPDEST PUSH2 0x45E DUP2 PUSH2 0x33D JUMP JUMPDEST DUP3 MSTORE POP POP JUMP JUMPDEST PUSH1 0x0 PUSH1 0x20 DUP3 ADD SWAP1 POP PUSH2 0x479 PUSH1 0x0 DUP4 ADD DUP5 PUSH2 0x455 JUMP JUMPDEST SWAP3 SWAP2 POP POP JUMP JUMPDEST PUSH1 0x0 DUP3 DUP3 MSTORE PUSH1 0x20 DUP3 ADD SWAP1 POP SWAP3 SWAP2 POP POP JUMP JUMPDEST PUSH32 0x416D6F756E74206D7573742062652067726561746572207468616E2031000000 PUSH1 0x0 DUP3 ADD MSTORE POP JUMP JUMPDEST PUSH1 0x0 PUSH2 0x4C6 PUSH1 0x1D DUP4 PUSH2 0x47F JUMP JUMPDEST SWAP2 POP PUSH2 0x4D1 DUP3 PUSH2 0x490 JUMP JUMPDEST PUSH1 0x20 DUP3 ADD SWAP1 POP SWAP2 SWAP1 POP JUMP JUMPDEST PUSH1 0x0 PUSH1 0x20 DUP3 ADD SWAP1 POP DUP2 DUP2 SUB PUSH1 0x0 DUP4 ADD MSTORE PUSH2 0x4F5 DUP2 PUSH2 0x4B9 JUMP JUMPDEST SWAP1 POP SWAP2 SWAP1 POP JUMP JUMPDEST PUSH32 0x4E487B7100000000000000000000000000000000000000000000000000000000 PUSH1 0x0 MSTORE PUSH1 0x11 PUSH1 0x4 MSTORE PUSH1 0x24 PUSH1 0x0 REVERT JUMPDEST PUSH1 0x0 PUSH2 0x536 DUP3 PUSH2 0x33D JUMP JUMPDEST SWAP2 POP PUSH2 0x541 DUP4 PUSH2 0x33D JUMP JUMPDEST SWAP3 POP DUP2 PUSH32 0xFFFFFFFFFFFFFFFFFFFFFFFFFFFFFFFFFFFFFFFFFFFFFFFFFFFFFFFFFFFFFFFF DIV DUP4 GT DUP3 ISZERO ISZERO AND ISZERO PUSH2 0x57A JUMPI PUSH2 0x579 PUSH2 0x4FC JUMP JUMPDEST JUMPDEST DUP3 DUP3 MUL SWAP1 POP SWAP3 SWAP2 POP POP JUMP JUMPDEST PUSH32 0x4E487B7100000000000000000000000000000000000000000000000000000000 PUSH1 0x0 MSTORE PUSH1 0x12 PUSH1 0x4 MSTORE PUSH1 0x24 PUSH1 0x0 REVERT JUMPDEST PUSH1 0x0 PUSH2 0x5BF DUP3 PUSH2 0x33D JUMP JUMPDEST SWAP2 POP PUSH2 0x5CA DUP4 PUSH2 0x33D JUMP JUMPDEST SWAP3 POP DUP3 PUSH2 0x5DA JUMPI PUSH2 0x5D9 PUSH2 0x585 JUMP JUMPDEST JUMPDEST DUP3 DUP3 DIV SWAP1 POP SWAP3 SWAP2 POP POP JUMP JUMPDEST PUSH1 0x0 PUSH10 0xFFFFFFFFFFFFFFFFFFFF DUP3 AND SWAP1 POP SWAP2 SWAP1 POP JUMP JUMPDEST PUSH2 0x604 DUP2 PUSH2 0x5E5 JUMP JUMPDEST DUP2 EQ PUSH2 0x60F JUMPI PUSH1 0x0 DUP1 REVERT JUMPDEST POP JUMP JUMPDEST PUSH1 0x0 DUP2 MLOAD SWAP1 POP PUSH2 0x621 DUP2 PUSH2 0x5FB JUMP JUMPDEST SWAP3 SWAP2 POP POP JUMP JUMPDEST PUSH1 0x0 DUP2 SWAP1 POP SWAP2 SWAP1 POP JUMP JUMPDEST PUSH2 0x63A DUP2 PUSH2 0x627 JUMP JUMPDEST DUP2 EQ PUSH2 0x645 JUMPI PUSH1 0x0 DUP1 REVERT JUMPDEST POP JUMP JUMPDEST PUSH1 0x0 DUP2 MLOAD SWAP1 POP PUSH2 0x657 DUP2 PUSH2 0x631 JUMP JUMPDEST SWAP3 SWAP2 POP POP JUMP JUMPDEST PUSH1 0x0 DUP2 MLOAD SWAP1 POP PUSH2 0x66C DUP2 PUSH2 0x347 JUMP JUMPDEST SWAP3 SWAP2 POP POP JUMP JUMPDEST PUSH1 0x0 DUP1 PUSH1 0x0 DUP1 PUSH1 0x0 PUSH1 0xA0 DUP7 DUP9 SUB SLT ISZERO PUSH2 0x68E JUMPI PUSH2 0x68D PUSH2 0x338 JUMP JUMPDEST JUMPDEST PUSH1 0x0 PUSH2 0x69C DUP9 DUP3 DUP10 ADD PUSH2 0x612 JUMP JUMPDEST SWAP6 POP POP PUSH1 0x20 PUSH2 0x6AD DUP9 DUP3 DUP10 ADD PUSH2 0x648 JUMP JUMPDEST SWAP5 POP POP PUSH1 0x40 PUSH2 0x6BE DUP9 DUP3 DUP10 ADD PUSH2 0x65D JUMP JUMPDEST SWAP4 POP POP PUSH1 0x60 PUSH2 0x6CF DUP9 DUP3 DUP10 ADD PUSH2 0x65D JUMP JUMPDEST SWAP3 POP POP PUSH1 0x80 PUSH2 0x6E0 DUP9 DUP3 DUP10 ADD PUSH2 0x612 JUMP JUMPDEST SWAP2 POP POP SWAP3 SWAP6 POP SWAP3 SWAP6 SWAP1 SWAP4 POP JUMP JUMPDEST PUSH1 0x0 PUSH2 0x6F8 DUP3 PUSH2 0x627 JUMP JUMPDEST SWAP2 POP PUSH2 0x703 DUP4 PUSH2 0x627 JUMP JUMPDEST SWAP3 POP DUP3 PUSH32 0x7FFFFFFFFFFFFFFFFFFFFFFFFFFFFFFFFFFFFFFFFFFFFFFFFFFFFFFFFFFFFFFF DIV DUP3 GT PUSH1 0x0 DUP5 SGT PUSH1 0x0 DUP5 SGT AND AND ISZERO PUSH2 0x742 JUMPI PUSH2 0x741 PUSH2 0x4FC JUMP JUMPDEST JUMPDEST DUP2 PUSH32 0x8000000000000000000000000000000000000000000000000000000000000000 SDIV DUP4 SLT PUSH1 0x0 DUP5 SLT PUSH1 0x0 DUP5 SGT AND AND ISZERO PUSH2 0x77F JUMPI PUSH2 0x77E PUSH2 0x4FC JUMP JUMPDEST JUMPDEST DUP3 PUSH32 0x8000000000000000000000000000000000000000000000000000000000000000 SDIV DUP3 SLT PUSH1 0x0 DUP5 SGT PUSH1 0x0 DUP5 SLT AND AND ISZERO PUSH2 0x7BC JUMPI PUSH2 0x7BB PUSH2 0x4FC JUMP JUMPDEST JUMPDEST DUP3 PUSH32 0x7FFFFFFFFFFFFFFFFFFFFFFFFFFFFFFFFFFFFFFFFFFFFFFFFFFFFFFFFFFFFFFF SDIV DUP3 SLT PUSH1 0x0 DUP5 SLT PUSH1 0x0 DUP5 SLT AND AND ISZERO PUSH2 0x7F9 JUMPI PUSH2 0x7F8 PUSH2 0x4FC JUMP JUMPDEST JUMPDEST DUP3 DUP3 MUL SWAP1 POP SWAP3 SWAP2 POP POP JUMP INVALID LOG2 PUSH5 0x6970667358 0x22 SLT KECCAK256 0xEA MLOAD 0xEA PUSH25 0x84978002BB63C5698994173F6285FBCEE27CC381C9FF38DE0 0x5F PUSH29 0x8D64736F6C634300080800330000000000000000000000000000000000 "
				},
				"gasEstimates": {
					"creation": {
						"codeDepositCost": "421200",
						"executionCost": "22561",
						"totalCost": "443761"
					},
					"external": {
						"amountFunded(address)": "2836",
						"fund()": "infinite",
						"funder(uint256)": "4934",
						"mininumUSD()": "2473"
					}
				},
				"methodIdentifiers": {
					"amountFunded(address)": "deaf2cf0",
					"fund()": "b60d4288",
					"funder(uint256)": "1f2c9238",
					"mininumUSD()": "f9155e82"
				}
			},
			"storageLayout": {
				"storage": [
					{
						"astId": 56,
						"contract": "contracts/Transaction.sol:Transaction",
						"label": "mininumUSD",
						"offset": 0,
						"slot": "0",
						"type": "t_uint256"
					},
					{
						"astId": 59,
						"contract": "contracts/Transaction.sol:Transaction",
						"label": "funder",
						"offset": 0,
						"slot": "1",
						"type": "t_array(t_address)dyn_storage"
					},
					{
						"astId": 63,
						"contract": "contracts/Transaction.sol:Transaction",
						"label": "amountFunded",
						"offset": 0,
						"slot": "2",
						"type": "t_mapping(t_address,t_uint256)"
					}
				],
				"types": {
					"t_address": {
						"encoding": "inplace",
						"label": "address",
						"numberOfBytes": "20"
					},
					"t_array(t_address)dyn_storage": {
						"base": "t_address",
						"encoding": "dynamic_array",
						"label": "address[]",
						"numberOfBytes": "32"
					},
					"t_mapping(t_address,t_uint256)": {
						"encoding": "mapping",
						"key": "t_address",
						"label": "mapping(address => uint256)",
						"numberOfBytes": "32",
						"value": "t_uint256"
					},
					"t_uint256": {
						"encoding": "inplace",
						"label": "uint256",
						"numberOfBytes": "32"
					}
				}
			},
			"userdoc": {
				"kind": "user",
				"methods": {},
				"version": 1
			}
		}
	}
}