{
	"contracts/Transaction.sol": {
		"Transaction": {
			"abi": [
				{
					"inputs": [],
					"name": "fund",
					"outputs": [],
					"stateMutability": "payable",
					"type": "function"
				},
				{
					"inputs": [],
					"name": "getPrice",
					"outputs": [
						{
							"internalType": "uint256",
							"name": "",
							"type": "uint256"
						}
					],
					"stateMutability": "view",
					"type": "function"
				},
				{
					"inputs": [],
					"name": "mininumUSD",
					"outputs": [
						{
							"internalType": "uint256",
							"name": "",
							"type": "uint256"
						}
					],
					"stateMutability": "view",
					"type": "function"
				},
				{
					"inputs": [
						{
							"internalType": "uint256",
							"name": "ethAmount",
							"type": "uint256"
						}
					],
					"name": "priceConvertion",
					"outputs": [
						{
							"internalType": "uint256",
							"name": "",
							"type": "uint256"
						}
					],
					"stateMutability": "view",
					"type": "function"
				}
			],
			"devdoc": {
				"kind": "dev",
				"methods": {},
				"version": 1
			},
			"evm": {
				"assembly": "    /* \"contracts/Transaction.sol\":135:843  contract Transaction {... */\n  mstore(0x40, 0x80)\n    /* \"contracts/Transaction.sol\":191:193  50 */\n  0x32\n    /* \"contracts/Transaction.sol\":163:193  uint256 public mininumUSD = 50 */\n  0x00\n  sstore\n    /* \"contracts/Transaction.sol\":135:843  contract Transaction {... */\n  callvalue\n  dup1\n  iszero\n  tag_1\n  jumpi\n  0x00\n  dup1\n  revert\ntag_1:\n  pop\n  dataSize(sub_0)\n  dup1\n  dataOffset(sub_0)\n  0x00\n  codecopy\n  0x00\n  return\nstop\n\nsub_0: assembly {\n        /* \"contracts/Transaction.sol\":135:843  contract Transaction {... */\n      mstore(0x40, 0x80)\n      jumpi(tag_1, lt(calldatasize, 0x04))\n      shr(0xe0, calldataload(0x00))\n      dup1\n      0x65f7f516\n      eq\n      tag_2\n      jumpi\n      dup1\n      0x98d5fdca\n      eq\n      tag_3\n      jumpi\n      dup1\n      0xb60d4288\n      eq\n      tag_4\n      jumpi\n      dup1\n      0xf9155e82\n      eq\n      tag_5\n      jumpi\n    tag_1:\n      0x00\n      dup1\n      revert\n        /* \"contracts/Transaction.sol\":638:838  function priceConvertion(uint256 ethAmount) public view returns(uint256) {... */\n    tag_2:\n      callvalue\n      dup1\n      iszero\n      tag_6\n      jumpi\n      0x00\n      dup1\n      revert\n    tag_6:\n      pop\n      tag_7\n      0x04\n      dup1\n      calldatasize\n      sub\n      dup2\n      add\n      swap1\n      tag_8\n      swap2\n      swap1\n      tag_9\n      jump\t// in\n    tag_8:\n      tag_10\n      jump\t// in\n    tag_7:\n      mload(0x40)\n      tag_11\n      swap2\n      swap1\n      tag_12\n      jump\t// in\n    tag_11:\n      mload(0x40)\n      dup1\n      swap2\n      sub\n      swap1\n      return\n        /* \"contracts/Transaction.sol\":370:632  function getPrice() public view returns(uint256) {... */\n    tag_3:\n      callvalue\n      dup1\n      iszero\n      tag_13\n      jumpi\n      0x00\n      dup1\n      revert\n    tag_13:\n      pop\n      tag_14\n      tag_15\n      jump\t// in\n    tag_14:\n      mload(0x40)\n      tag_16\n      swap2\n      swap1\n      tag_12\n      jump\t// in\n    tag_16:\n      mload(0x40)\n      dup1\n      swap2\n      sub\n      swap1\n      return\n        /* \"contracts/Transaction.sol\":250:364  function fund() public payable {... */\n    tag_4:\n      tag_17\n      tag_18\n      jump\t// in\n    tag_17:\n      stop\n        /* \"contracts/Transaction.sol\":163:193  uint256 public mininumUSD = 50 */\n    tag_5:\n      callvalue\n      dup1\n      iszero\n      tag_19\n      jumpi\n      0x00\n      dup1\n      revert\n    tag_19:\n      pop\n      tag_20\n      tag_21\n      jump\t// in\n    tag_20:\n      mload(0x40)\n      tag_22\n      swap2\n      swap1\n      tag_12\n      jump\t// in\n    tag_22:\n      mload(0x40)\n      dup1\n      swap2\n      sub\n      swap1\n      return\n        /* \"contracts/Transaction.sol\":638:838  function priceConvertion(uint256 ethAmount) public view returns(uint256) {... */\n    tag_10:\n        /* \"contracts/Transaction.sol\":702:709  uint256 */\n      0x00\n        /* \"contracts/Transaction.sol\":721:734  uint256 price */\n      dup1\n        /* \"contracts/Transaction.sol\":737:747  getPrice() */\n      tag_24\n        /* \"contracts/Transaction.sol\":737:745  getPrice */\n      tag_15\n        /* \"contracts/Transaction.sol\":737:747  getPrice() */\n      jump\t// in\n    tag_24:\n        /* \"contracts/Transaction.sol\":721:747  uint256 price = getPrice() */\n      swap1\n      pop\n        /* \"contracts/Transaction.sol\":757:775  uint256 priceInUSD */\n      0x00\n        /* \"contracts/Transaction.sol\":800:804  1e18 */\n      0x0de0b6b3a7640000\n        /* \"contracts/Transaction.sol\":787:796  ethAmount */\n      dup5\n        /* \"contracts/Transaction.sol\":779:784  price */\n      dup4\n        /* \"contracts/Transaction.sol\":779:796  price * ethAmount */\n      tag_25\n      swap2\n      swap1\n      tag_26\n      jump\t// in\n    tag_25:\n        /* \"contracts/Transaction.sol\":778:804  (price * ethAmount) / 1e18 */\n      tag_27\n      swap2\n      swap1\n      tag_28\n      jump\t// in\n    tag_27:\n        /* \"contracts/Transaction.sol\":757:804  uint256 priceInUSD = (price * ethAmount) / 1e18 */\n      swap1\n      pop\n        /* \"contracts/Transaction.sol\":821:831  priceInUSD */\n      dup1\n        /* \"contracts/Transaction.sol\":814:831  return priceInUSD */\n      swap3\n      pop\n      pop\n      pop\n        /* \"contracts/Transaction.sol\":638:838  function priceConvertion(uint256 ethAmount) public view returns(uint256) {... */\n      swap2\n      swap1\n      pop\n      jump\t// out\n        /* \"contracts/Transaction.sol\":370:632  function getPrice() public view returns(uint256) {... */\n    tag_15:\n        /* \"contracts/Transaction.sol\":410:417  uint256 */\n      0x00\n        /* \"contracts/Transaction.sol\":429:460  AggregatorV3Interface priceFeed */\n      dup1\n        /* \"contracts/Transaction.sol\":485:527  0xD4a33860578De61DBAbDc8BFdb98FD742fA7028e */\n      0xd4a33860578de61dbabdc8bfdb98fd742fa7028e\n        /* \"contracts/Transaction.sol\":429:528  AggregatorV3Interface priceFeed = AggregatorV3Interface(0xD4a33860578De61DBAbDc8BFdb98FD742fA7028e) */\n      swap1\n      pop\n        /* \"contracts/Transaction.sol\":540:552  int256 price */\n      0x00\n        /* \"contracts/Transaction.sol\":560:569  priceFeed */\n      dup2\n        /* \"contracts/Transaction.sol\":560:585  priceFeed.latestRoundData */\n      0xffffffffffffffffffffffffffffffffffffffff\n      and\n      0xfeaf968c\n        /* \"contracts/Transaction.sol\":560:587  priceFeed.latestRoundData() */\n      mload(0x40)\n      dup2\n      0xffffffff\n      and\n      0xe0\n      shl\n      dup2\n      mstore\n      0x04\n      add\n      0xa0\n      mload(0x40)\n      dup1\n      dup4\n      sub\n      dup2\n      dup7\n      dup1\n      extcodesize\n      iszero\n      dup1\n      iszero\n      tag_30\n      jumpi\n      0x00\n      dup1\n      revert\n    tag_30:\n      pop\n      gas\n      staticcall\n      iszero\n      dup1\n      iszero\n      tag_32\n      jumpi\n      returndatasize\n      0x00\n      dup1\n      returndatacopy\n      revert(0x00, returndatasize)\n    tag_32:\n      pop\n      pop\n      pop\n      pop\n      mload(0x40)\n      returndatasize\n      not(0x1f)\n      0x1f\n      dup3\n      add\n      and\n      dup3\n      add\n      dup1\n      0x40\n      mstore\n      pop\n      dup2\n      add\n      swap1\n      tag_33\n      swap2\n      swap1\n      tag_34\n      jump\t// in\n    tag_33:\n        /* \"contracts/Transaction.sol\":538:587  (,int256 price,,, ) = priceFeed.latestRoundData() */\n      pop\n      pop\n      pop\n      swap2\n      pop\n      pop\n        /* \"contracts/Transaction.sol\":620:624  1e10 */\n      0x02540be400\n        /* \"contracts/Transaction.sol\":612:617  price */\n      dup2\n        /* \"contracts/Transaction.sol\":612:624  price * 1e10 */\n      tag_35\n      swap2\n      swap1\n      tag_36\n      jump\t// in\n    tag_35:\n        /* \"contracts/Transaction.sol\":597:625  return uint256(price * 1e10) */\n      swap3\n      pop\n      pop\n      pop\n        /* \"contracts/Transaction.sol\":370:632  function getPrice() public view returns(uint256) {... */\n      swap1\n      jump\t// out\n        /* \"contracts/Transaction.sol\":250:364  function fund() public payable {... */\n    tag_18:\n        /* \"contracts/Transaction.sol\":312:322  mininumUSD */\n      sload(0x00)\n        /* \"contracts/Transaction.sol\":300:309  msg.value */\n      callvalue\n        /* \"contracts/Transaction.sol\":300:322  msg.value > mininumUSD */\n      gt\n        /* \"contracts/Transaction.sol\":292:356  require(msg.value > mininumUSD, \"Amount must be greater than 1\") */\n      tag_38\n      jumpi\n      mload(0x40)\n      0x08c379a000000000000000000000000000000000000000000000000000000000\n      dup2\n      mstore\n      0x04\n      add\n      tag_39\n      swap1\n      tag_40\n      jump\t// in\n    tag_39:\n      mload(0x40)\n      dup1\n      swap2\n      sub\n      swap1\n      revert\n    tag_38:\n        /* \"contracts/Transaction.sol\":250:364  function fund() public payable {... */\n      jump\t// out\n        /* \"contracts/Transaction.sol\":163:193  uint256 public mininumUSD = 50 */\n    tag_21:\n      sload(0x00)\n      dup2\n      jump\t// out\n        /* \"#utility.yul\":88:205   */\n    tag_42:\n        /* \"#utility.yul\":197:198   */\n      0x00\n        /* \"#utility.yul\":194:195   */\n      dup1\n        /* \"#utility.yul\":187:199   */\n      revert\n        /* \"#utility.yul\":334:411   */\n    tag_44:\n        /* \"#utility.yul\":371:378   */\n      0x00\n        /* \"#utility.yul\":400:405   */\n      dup2\n        /* \"#utility.yul\":389:405   */\n      swap1\n      pop\n        /* \"#utility.yul\":334:411   */\n      swap2\n      swap1\n      pop\n      jump\t// out\n        /* \"#utility.yul\":417:539   */\n    tag_45:\n        /* \"#utility.yul\":490:514   */\n      tag_66\n        /* \"#utility.yul\":508:513   */\n      dup2\n        /* \"#utility.yul\":490:514   */\n      tag_44\n      jump\t// in\n    tag_66:\n        /* \"#utility.yul\":483:488   */\n      dup2\n        /* \"#utility.yul\":480:515   */\n      eq\n        /* \"#utility.yul\":470:533   */\n      tag_67\n      jumpi\n        /* \"#utility.yul\":529:530   */\n      0x00\n        /* \"#utility.yul\":526:527   */\n      dup1\n        /* \"#utility.yul\":519:531   */\n      revert\n        /* \"#utility.yul\":470:533   */\n    tag_67:\n        /* \"#utility.yul\":417:539   */\n      pop\n      jump\t// out\n        /* \"#utility.yul\":545:684   */\n    tag_46:\n        /* \"#utility.yul\":591:596   */\n      0x00\n        /* \"#utility.yul\":629:635   */\n      dup2\n        /* \"#utility.yul\":616:636   */\n      calldataload\n        /* \"#utility.yul\":607:636   */\n      swap1\n      pop\n        /* \"#utility.yul\":645:678   */\n      tag_69\n        /* \"#utility.yul\":672:677   */\n      dup2\n        /* \"#utility.yul\":645:678   */\n      tag_45\n      jump\t// in\n    tag_69:\n        /* \"#utility.yul\":545:684   */\n      swap3\n      swap2\n      pop\n      pop\n      jump\t// out\n        /* \"#utility.yul\":690:1019   */\n    tag_9:\n        /* \"#utility.yul\":749:755   */\n      0x00\n        /* \"#utility.yul\":798:800   */\n      0x20\n        /* \"#utility.yul\":786:795   */\n      dup3\n        /* \"#utility.yul\":777:784   */\n      dup5\n        /* \"#utility.yul\":773:796   */\n      sub\n        /* \"#utility.yul\":769:801   */\n      slt\n        /* \"#utility.yul\":766:885   */\n      iszero\n      tag_71\n      jumpi\n        /* \"#utility.yul\":804:883   */\n      tag_72\n      tag_42\n      jump\t// in\n    tag_72:\n        /* \"#utility.yul\":766:885   */\n    tag_71:\n        /* \"#utility.yul\":924:925   */\n      0x00\n        /* \"#utility.yul\":949:1002   */\n      tag_73\n        /* \"#utility.yul\":994:1001   */\n      dup5\n        /* \"#utility.yul\":985:991   */\n      dup3\n        /* \"#utility.yul\":974:983   */\n      dup6\n        /* \"#utility.yul\":970:992   */\n      add\n        /* \"#utility.yul\":949:1002   */\n      tag_46\n      jump\t// in\n    tag_73:\n        /* \"#utility.yul\":939:1002   */\n      swap2\n      pop\n        /* \"#utility.yul\":895:1012   */\n      pop\n        /* \"#utility.yul\":690:1019   */\n      swap3\n      swap2\n      pop\n      pop\n      jump\t// out\n        /* \"#utility.yul\":1025:1143   */\n    tag_47:\n        /* \"#utility.yul\":1112:1136   */\n      tag_75\n        /* \"#utility.yul\":1130:1135   */\n      dup2\n        /* \"#utility.yul\":1112:1136   */\n      tag_44\n      jump\t// in\n    tag_75:\n        /* \"#utility.yul\":1107:1110   */\n      dup3\n        /* \"#utility.yul\":1100:1137   */\n      mstore\n        /* \"#utility.yul\":1025:1143   */\n      pop\n      pop\n      jump\t// out\n        /* \"#utility.yul\":1149:1371   */\n    tag_12:\n        /* \"#utility.yul\":1242:1246   */\n      0x00\n        /* \"#utility.yul\":1280:1282   */\n      0x20\n        /* \"#utility.yul\":1269:1278   */\n      dup3\n        /* \"#utility.yul\":1265:1283   */\n      add\n        /* \"#utility.yul\":1257:1283   */\n      swap1\n      pop\n        /* \"#utility.yul\":1293:1364   */\n      tag_77\n        /* \"#utility.yul\":1361:1362   */\n      0x00\n        /* \"#utility.yul\":1350:1359   */\n      dup4\n        /* \"#utility.yul\":1346:1363   */\n      add\n        /* \"#utility.yul\":1337:1343   */\n      dup5\n        /* \"#utility.yul\":1293:1364   */\n      tag_47\n      jump\t// in\n    tag_77:\n        /* \"#utility.yul\":1149:1371   */\n      swap3\n      swap2\n      pop\n      pop\n      jump\t// out\n        /* \"#utility.yul\":1377:1557   */\n    tag_48:\n        /* \"#utility.yul\":1425:1502   */\n      0x4e487b7100000000000000000000000000000000000000000000000000000000\n        /* \"#utility.yul\":1422:1423   */\n      0x00\n        /* \"#utility.yul\":1415:1503   */\n      mstore\n        /* \"#utility.yul\":1522:1526   */\n      0x11\n        /* \"#utility.yul\":1519:1520   */\n      0x04\n        /* \"#utility.yul\":1512:1527   */\n      mstore\n        /* \"#utility.yul\":1546:1550   */\n      0x24\n        /* \"#utility.yul\":1543:1544   */\n      0x00\n        /* \"#utility.yul\":1536:1551   */\n      revert\n        /* \"#utility.yul\":1563:1911   */\n    tag_26:\n        /* \"#utility.yul\":1603:1610   */\n      0x00\n        /* \"#utility.yul\":1626:1646   */\n      tag_80\n        /* \"#utility.yul\":1644:1645   */\n      dup3\n        /* \"#utility.yul\":1626:1646   */\n      tag_44\n      jump\t// in\n    tag_80:\n        /* \"#utility.yul\":1621:1646   */\n      swap2\n      pop\n        /* \"#utility.yul\":1660:1680   */\n      tag_81\n        /* \"#utility.yul\":1678:1679   */\n      dup4\n        /* \"#utility.yul\":1660:1680   */\n      tag_44\n      jump\t// in\n    tag_81:\n        /* \"#utility.yul\":1655:1680   */\n      swap3\n      pop\n        /* \"#utility.yul\":1848:1849   */\n      dup2\n        /* \"#utility.yul\":1780:1846   */\n      0xffffffffffffffffffffffffffffffffffffffffffffffffffffffffffffffff\n        /* \"#utility.yul\":1776:1850   */\n      div\n        /* \"#utility.yul\":1773:1774   */\n      dup4\n        /* \"#utility.yul\":1770:1851   */\n      gt\n        /* \"#utility.yul\":1765:1766   */\n      dup3\n        /* \"#utility.yul\":1758:1767   */\n      iszero\n        /* \"#utility.yul\":1751:1768   */\n      iszero\n        /* \"#utility.yul\":1747:1852   */\n      and\n        /* \"#utility.yul\":1744:1875   */\n      iszero\n      tag_82\n      jumpi\n        /* \"#utility.yul\":1855:1873   */\n      tag_83\n      tag_48\n      jump\t// in\n    tag_83:\n        /* \"#utility.yul\":1744:1875   */\n    tag_82:\n        /* \"#utility.yul\":1903:1904   */\n      dup3\n        /* \"#utility.yul\":1900:1901   */\n      dup3\n        /* \"#utility.yul\":1896:1905   */\n      mul\n        /* \"#utility.yul\":1885:1905   */\n      swap1\n      pop\n        /* \"#utility.yul\":1563:1911   */\n      swap3\n      swap2\n      pop\n      pop\n      jump\t// out\n        /* \"#utility.yul\":1917:2097   */\n    tag_49:\n        /* \"#utility.yul\":1965:2042   */\n      0x4e487b7100000000000000000000000000000000000000000000000000000000\n        /* \"#utility.yul\":1962:1963   */\n      0x00\n        /* \"#utility.yul\":1955:2043   */\n      mstore\n        /* \"#utility.yul\":2062:2066   */\n      0x12\n        /* \"#utility.yul\":2059:2060   */\n      0x04\n        /* \"#utility.yul\":2052:2067   */\n      mstore\n        /* \"#utility.yul\":2086:2090   */\n      0x24\n        /* \"#utility.yul\":2083:2084   */\n      0x00\n        /* \"#utility.yul\":2076:2091   */\n      revert\n        /* \"#utility.yul\":2103:2288   */\n    tag_28:\n        /* \"#utility.yul\":2143:2144   */\n      0x00\n        /* \"#utility.yul\":2160:2180   */\n      tag_86\n        /* \"#utility.yul\":2178:2179   */\n      dup3\n        /* \"#utility.yul\":2160:2180   */\n      tag_44\n      jump\t// in\n    tag_86:\n        /* \"#utility.yul\":2155:2180   */\n      swap2\n      pop\n        /* \"#utility.yul\":2194:2214   */\n      tag_87\n        /* \"#utility.yul\":2212:2213   */\n      dup4\n        /* \"#utility.yul\":2194:2214   */\n      tag_44\n      jump\t// in\n    tag_87:\n        /* \"#utility.yul\":2189:2214   */\n      swap3\n      pop\n        /* \"#utility.yul\":2233:2234   */\n      dup3\n        /* \"#utility.yul\":2223:2258   */\n      tag_88\n      jumpi\n        /* \"#utility.yul\":2238:2256   */\n      tag_89\n      tag_49\n      jump\t// in\n    tag_89:\n        /* \"#utility.yul\":2223:2258   */\n    tag_88:\n        /* \"#utility.yul\":2280:2281   */\n      dup3\n        /* \"#utility.yul\":2277:2278   */\n      dup3\n        /* \"#utility.yul\":2273:2282   */\n      div\n        /* \"#utility.yul\":2268:2282   */\n      swap1\n      pop\n        /* \"#utility.yul\":2103:2288   */\n      swap3\n      swap2\n      pop\n      pop\n      jump\t// out\n        /* \"#utility.yul\":2294:2399   */\n    tag_50:\n        /* \"#utility.yul\":2330:2337   */\n      0x00\n        /* \"#utility.yul\":2370:2392   */\n      0xffffffffffffffffffff\n        /* \"#utility.yul\":2363:2368   */\n      dup3\n        /* \"#utility.yul\":2359:2393   */\n      and\n        /* \"#utility.yul\":2348:2393   */\n      swap1\n      pop\n        /* \"#utility.yul\":2294:2399   */\n      swap2\n      swap1\n      pop\n      jump\t// out\n        /* \"#utility.yul\":2405:2525   */\n    tag_51:\n        /* \"#utility.yul\":2477:2500   */\n      tag_92\n        /* \"#utility.yul\":2494:2499   */\n      dup2\n        /* \"#utility.yul\":2477:2500   */\n      tag_50\n      jump\t// in\n    tag_92:\n        /* \"#utility.yul\":2470:2475   */\n      dup2\n        /* \"#utility.yul\":2467:2501   */\n      eq\n        /* \"#utility.yul\":2457:2519   */\n      tag_93\n      jumpi\n        /* \"#utility.yul\":2515:2516   */\n      0x00\n        /* \"#utility.yul\":2512:2513   */\n      dup1\n        /* \"#utility.yul\":2505:2517   */\n      revert\n        /* \"#utility.yul\":2457:2519   */\n    tag_93:\n        /* \"#utility.yul\":2405:2525   */\n      pop\n      jump\t// out\n        /* \"#utility.yul\":2531:2672   */\n    tag_52:\n        /* \"#utility.yul\":2587:2592   */\n      0x00\n        /* \"#utility.yul\":2618:2624   */\n      dup2\n        /* \"#utility.yul\":2612:2625   */\n      mload\n        /* \"#utility.yul\":2603:2625   */\n      swap1\n      pop\n        /* \"#utility.yul\":2634:2666   */\n      tag_95\n        /* \"#utility.yul\":2660:2665   */\n      dup2\n        /* \"#utility.yul\":2634:2666   */\n      tag_51\n      jump\t// in\n    tag_95:\n        /* \"#utility.yul\":2531:2672   */\n      swap3\n      swap2\n      pop\n      pop\n      jump\t// out\n        /* \"#utility.yul\":2678:2754   */\n    tag_53:\n        /* \"#utility.yul\":2714:2721   */\n      0x00\n        /* \"#utility.yul\":2743:2748   */\n      dup2\n        /* \"#utility.yul\":2732:2748   */\n      swap1\n      pop\n        /* \"#utility.yul\":2678:2754   */\n      swap2\n      swap1\n      pop\n      jump\t// out\n        /* \"#utility.yul\":2760:2880   */\n    tag_54:\n        /* \"#utility.yul\":2832:2855   */\n      tag_98\n        /* \"#utility.yul\":2849:2854   */\n      dup2\n        /* \"#utility.yul\":2832:2855   */\n      tag_53\n      jump\t// in\n    tag_98:\n        /* \"#utility.yul\":2825:2830   */\n      dup2\n        /* \"#utility.yul\":2822:2856   */\n      eq\n        /* \"#utility.yul\":2812:2874   */\n      tag_99\n      jumpi\n        /* \"#utility.yul\":2870:2871   */\n      0x00\n        /* \"#utility.yul\":2867:2868   */\n      dup1\n        /* \"#utility.yul\":2860:2872   */\n      revert\n        /* \"#utility.yul\":2812:2874   */\n    tag_99:\n        /* \"#utility.yul\":2760:2880   */\n      pop\n      jump\t// out\n        /* \"#utility.yul\":2886:3027   */\n    tag_55:\n        /* \"#utility.yul\":2942:2947   */\n      0x00\n        /* \"#utility.yul\":2973:2979   */\n      dup2\n        /* \"#utility.yul\":2967:2980   */\n      mload\n        /* \"#utility.yul\":2958:2980   */\n      swap1\n      pop\n        /* \"#utility.yul\":2989:3021   */\n      tag_101\n        /* \"#utility.yul\":3015:3020   */\n      dup2\n        /* \"#utility.yul\":2989:3021   */\n      tag_54\n      jump\t// in\n    tag_101:\n        /* \"#utility.yul\":2886:3027   */\n      swap3\n      swap2\n      pop\n      pop\n      jump\t// out\n        /* \"#utility.yul\":3033:3176   */\n    tag_56:\n        /* \"#utility.yul\":3090:3095   */\n      0x00\n        /* \"#utility.yul\":3121:3127   */\n      dup2\n        /* \"#utility.yul\":3115:3128   */\n      mload\n        /* \"#utility.yul\":3106:3128   */\n      swap1\n      pop\n        /* \"#utility.yul\":3137:3170   */\n      tag_103\n        /* \"#utility.yul\":3164:3169   */\n      dup2\n        /* \"#utility.yul\":3137:3170   */\n      tag_45\n      jump\t// in\n    tag_103:\n        /* \"#utility.yul\":3033:3176   */\n      swap3\n      swap2\n      pop\n      pop\n      jump\t// out\n        /* \"#utility.yul\":3182:4153   */\n    tag_34:\n        /* \"#utility.yul\":3285:3291   */\n      0x00\n        /* \"#utility.yul\":3293:3299   */\n      dup1\n        /* \"#utility.yul\":3301:3307   */\n      0x00\n        /* \"#utility.yul\":3309:3315   */\n      dup1\n        /* \"#utility.yul\":3317:3323   */\n      0x00\n        /* \"#utility.yul\":3366:3369   */\n      0xa0\n        /* \"#utility.yul\":3354:3363   */\n      dup7\n        /* \"#utility.yul\":3345:3352   */\n      dup9\n        /* \"#utility.yul\":3341:3364   */\n      sub\n        /* \"#utility.yul\":3337:3370   */\n      slt\n        /* \"#utility.yul\":3334:3454   */\n      iszero\n      tag_105\n      jumpi\n        /* \"#utility.yul\":3373:3452   */\n      tag_106\n      tag_42\n      jump\t// in\n    tag_106:\n        /* \"#utility.yul\":3334:3454   */\n    tag_105:\n        /* \"#utility.yul\":3493:3494   */\n      0x00\n        /* \"#utility.yul\":3518:3581   */\n      tag_107\n        /* \"#utility.yul\":3573:3580   */\n      dup9\n        /* \"#utility.yul\":3564:3570   */\n      dup3\n        /* \"#utility.yul\":3553:3562   */\n      dup10\n        /* \"#utility.yul\":3549:3571   */\n      add\n        /* \"#utility.yul\":3518:3581   */\n      tag_52\n      jump\t// in\n    tag_107:\n        /* \"#utility.yul\":3508:3581   */\n      swap6\n      pop\n        /* \"#utility.yul\":3464:3591   */\n      pop\n        /* \"#utility.yul\":3630:3632   */\n      0x20\n        /* \"#utility.yul\":3656:3719   */\n      tag_108\n        /* \"#utility.yul\":3711:3718   */\n      dup9\n        /* \"#utility.yul\":3702:3708   */\n      dup3\n        /* \"#utility.yul\":3691:3700   */\n      dup10\n        /* \"#utility.yul\":3687:3709   */\n      add\n        /* \"#utility.yul\":3656:3719   */\n      tag_55\n      jump\t// in\n    tag_108:\n        /* \"#utility.yul\":3646:3719   */\n      swap5\n      pop\n        /* \"#utility.yul\":3601:3729   */\n      pop\n        /* \"#utility.yul\":3768:3770   */\n      0x40\n        /* \"#utility.yul\":3794:3858   */\n      tag_109\n        /* \"#utility.yul\":3850:3857   */\n      dup9\n        /* \"#utility.yul\":3841:3847   */\n      dup3\n        /* \"#utility.yul\":3830:3839   */\n      dup10\n        /* \"#utility.yul\":3826:3848   */\n      add\n        /* \"#utility.yul\":3794:3858   */\n      tag_56\n      jump\t// in\n    tag_109:\n        /* \"#utility.yul\":3784:3858   */\n      swap4\n      pop\n        /* \"#utility.yul\":3739:3868   */\n      pop\n        /* \"#utility.yul\":3907:3909   */\n      0x60\n        /* \"#utility.yul\":3933:3997   */\n      tag_110\n        /* \"#utility.yul\":3989:3996   */\n      dup9\n        /* \"#utility.yul\":3980:3986   */\n      dup3\n        /* \"#utility.yul\":3969:3978   */\n      dup10\n        /* \"#utility.yul\":3965:3987   */\n      add\n        /* \"#utility.yul\":3933:3997   */\n      tag_56\n      jump\t// in\n    tag_110:\n        /* \"#utility.yul\":3923:3997   */\n      swap3\n      pop\n        /* \"#utility.yul\":3878:4007   */\n      pop\n        /* \"#utility.yul\":4046:4049   */\n      0x80\n        /* \"#utility.yul\":4073:4136   */\n      tag_111\n        /* \"#utility.yul\":4128:4135   */\n      dup9\n        /* \"#utility.yul\":4119:4125   */\n      dup3\n        /* \"#utility.yul\":4108:4117   */\n      dup10\n        /* \"#utility.yul\":4104:4126   */\n      add\n        /* \"#utility.yul\":4073:4136   */\n      tag_52\n      jump\t// in\n    tag_111:\n        /* \"#utility.yul\":4063:4136   */\n      swap2\n      pop\n        /* \"#utility.yul\":4017:4146   */\n      pop\n        /* \"#utility.yul\":3182:4153   */\n      swap3\n      swap6\n      pop\n      swap3\n      swap6\n      swap1\n      swap4\n      pop\n      jump\t// out\n        /* \"#utility.yul\":4159:5150   */\n    tag_36:\n        /* \"#utility.yul\":4198:4205   */\n      0x00\n        /* \"#utility.yul\":4221:4240   */\n      tag_113\n        /* \"#utility.yul\":4238:4239   */\n      dup3\n        /* \"#utility.yul\":4221:4240   */\n      tag_53\n      jump\t// in\n    tag_113:\n        /* \"#utility.yul\":4216:4240   */\n      swap2\n      pop\n        /* \"#utility.yul\":4254:4273   */\n      tag_114\n        /* \"#utility.yul\":4271:4272   */\n      dup4\n        /* \"#utility.yul\":4254:4273   */\n      tag_53\n      jump\t// in\n    tag_114:\n        /* \"#utility.yul\":4249:4273   */\n      swap3\n      pop\n        /* \"#utility.yul\":4455:4456   */\n      dup3\n        /* \"#utility.yul\":4387:4453   */\n      0x7fffffffffffffffffffffffffffffffffffffffffffffffffffffffffffffff\n        /* \"#utility.yul\":4383:4457   */\n      div\n        /* \"#utility.yul\":4380:4381   */\n      dup3\n        /* \"#utility.yul\":4377:4458   */\n      gt\n        /* \"#utility.yul\":4372:4373   */\n      0x00\n        /* \"#utility.yul\":4369:4370   */\n      dup5\n        /* \"#utility.yul\":4365:4374   */\n      sgt\n        /* \"#utility.yul\":4361:4362   */\n      0x00\n        /* \"#utility.yul\":4358:4359   */\n      dup5\n        /* \"#utility.yul\":4354:4363   */\n      sgt\n        /* \"#utility.yul\":4350:4375   */\n      and\n        /* \"#utility.yul\":4346:4459   */\n      and\n        /* \"#utility.yul\":4343:4482   */\n      iszero\n      tag_115\n      jumpi\n        /* \"#utility.yul\":4462:4480   */\n      tag_116\n      tag_48\n      jump\t// in\n    tag_116:\n        /* \"#utility.yul\":4343:4482   */\n    tag_115:\n        /* \"#utility.yul\":4666:4667   */\n      dup2\n        /* \"#utility.yul\":4598:4664   */\n      0x8000000000000000000000000000000000000000000000000000000000000000\n        /* \"#utility.yul\":4593:4668   */\n      sdiv\n        /* \"#utility.yul\":4590:4591   */\n      dup4\n        /* \"#utility.yul\":4586:4669   */\n      slt\n        /* \"#utility.yul\":4581:4582   */\n      0x00\n        /* \"#utility.yul\":4578:4579   */\n      dup5\n        /* \"#utility.yul\":4574:4583   */\n      slt\n        /* \"#utility.yul\":4570:4571   */\n      0x00\n        /* \"#utility.yul\":4567:4568   */\n      dup5\n        /* \"#utility.yul\":4563:4572   */\n      sgt\n        /* \"#utility.yul\":4559:4584   */\n      and\n        /* \"#utility.yul\":4555:4670   */\n      and\n        /* \"#utility.yul\":4552:4693   */\n      iszero\n      tag_117\n      jumpi\n        /* \"#utility.yul\":4673:4691   */\n      tag_118\n      tag_48\n      jump\t// in\n    tag_118:\n        /* \"#utility.yul\":4552:4693   */\n    tag_117:\n        /* \"#utility.yul\":4877:4878   */\n      dup3\n        /* \"#utility.yul\":4809:4875   */\n      0x8000000000000000000000000000000000000000000000000000000000000000\n        /* \"#utility.yul\":4804:4879   */\n      sdiv\n        /* \"#utility.yul\":4801:4802   */\n      dup3\n        /* \"#utility.yul\":4797:4880   */\n      slt\n        /* \"#utility.yul\":4792:4793   */\n      0x00\n        /* \"#utility.yul\":4789:4790   */\n      dup5\n        /* \"#utility.yul\":4785:4794   */\n      sgt\n        /* \"#utility.yul\":4781:4782   */\n      0x00\n        /* \"#utility.yul\":4778:4779   */\n      dup5\n        /* \"#utility.yul\":4774:4783   */\n      slt\n        /* \"#utility.yul\":4770:4795   */\n      and\n        /* \"#utility.yul\":4766:4881   */\n      and\n        /* \"#utility.yul\":4763:4904   */\n      iszero\n      tag_119\n      jumpi\n        /* \"#utility.yul\":4884:4902   */\n      tag_120\n      tag_48\n      jump\t// in\n    tag_120:\n        /* \"#utility.yul\":4763:4904   */\n    tag_119:\n        /* \"#utility.yul\":5087:5088   */\n      dup3\n        /* \"#utility.yul\":5019:5085   */\n      0x7fffffffffffffffffffffffffffffffffffffffffffffffffffffffffffffff\n        /* \"#utility.yul\":5014:5089   */\n      sdiv\n        /* \"#utility.yul\":5011:5012   */\n      dup3\n        /* \"#utility.yul\":5007:5090   */\n      slt\n        /* \"#utility.yul\":5002:5003   */\n      0x00\n        /* \"#utility.yul\":4999:5000   */\n      dup5\n        /* \"#utility.yul\":4995:5004   */\n      slt\n        /* \"#utility.yul\":4991:4992   */\n      0x00\n        /* \"#utility.yul\":4988:4989   */\n      dup5\n        /* \"#utility.yul\":4984:4993   */\n      slt\n        /* \"#utility.yul\":4980:5005   */\n      and\n        /* \"#utility.yul\":4976:5091   */\n      and\n        /* \"#utility.yul\":4973:5114   */\n      iszero\n      tag_121\n      jumpi\n        /* \"#utility.yul\":5094:5112   */\n      tag_122\n      tag_48\n      jump\t// in\n    tag_122:\n        /* \"#utility.yul\":4973:5114   */\n    tag_121:\n        /* \"#utility.yul\":5142:5143   */\n      dup3\n        /* \"#utility.yul\":5139:5140   */\n      dup3\n        /* \"#utility.yul\":5135:5144   */\n      mul\n        /* \"#utility.yul\":5124:5144   */\n      swap1\n      pop\n        /* \"#utility.yul\":4159:5150   */\n      swap3\n      swap2\n      pop\n      pop\n      jump\t// out\n        /* \"#utility.yul\":5156:5325   */\n    tag_57:\n        /* \"#utility.yul\":5240:5251   */\n      0x00\n        /* \"#utility.yul\":5274:5280   */\n      dup3\n        /* \"#utility.yul\":5269:5272   */\n      dup3\n        /* \"#utility.yul\":5262:5281   */\n      mstore\n        /* \"#utility.yul\":5314:5318   */\n      0x20\n        /* \"#utility.yul\":5309:5312   */\n      dup3\n        /* \"#utility.yul\":5305:5319   */\n      add\n        /* \"#utility.yul\":5290:5319   */\n      swap1\n      pop\n        /* \"#utility.yul\":5156:5325   */\n      swap3\n      swap2\n      pop\n      pop\n      jump\t// out\n        /* \"#utility.yul\":5331:5510   */\n    tag_58:\n        /* \"#utility.yul\":5471:5502   */\n      0x416d6f756e74206d7573742062652067726561746572207468616e2031000000\n        /* \"#utility.yul\":5467:5468   */\n      0x00\n        /* \"#utility.yul\":5459:5465   */\n      dup3\n        /* \"#utility.yul\":5455:5469   */\n      add\n        /* \"#utility.yul\":5448:5503   */\n      mstore\n        /* \"#utility.yul\":5331:5510   */\n      pop\n      jump\t// out\n        /* \"#utility.yul\":5516:5882   */\n    tag_59:\n        /* \"#utility.yul\":5658:5661   */\n      0x00\n        /* \"#utility.yul\":5679:5746   */\n      tag_126\n        /* \"#utility.yul\":5743:5745   */\n      0x1d\n        /* \"#utility.yul\":5738:5741   */\n      dup4\n        /* \"#utility.yul\":5679:5746   */\n      tag_57\n      jump\t// in\n    tag_126:\n        /* \"#utility.yul\":5672:5746   */\n      swap2\n      pop\n        /* \"#utility.yul\":5755:5848   */\n      tag_127\n        /* \"#utility.yul\":5844:5847   */\n      dup3\n        /* \"#utility.yul\":5755:5848   */\n      tag_58\n      jump\t// in\n    tag_127:\n        /* \"#utility.yul\":5873:5875   */\n      0x20\n        /* \"#utility.yul\":5868:5871   */\n      dup3\n        /* \"#utility.yul\":5864:5876   */\n      add\n        /* \"#utility.yul\":5857:5876   */\n      swap1\n      pop\n        /* \"#utility.yul\":5516:5882   */\n      swap2\n      swap1\n      pop\n      jump\t// out\n        /* \"#utility.yul\":5888:6307   */\n    tag_40:\n        /* \"#utility.yul\":6054:6058   */\n      0x00\n        /* \"#utility.yul\":6092:6094   */\n      0x20\n        /* \"#utility.yul\":6081:6090   */\n      dup3\n        /* \"#utility.yul\":6077:6095   */\n      add\n        /* \"#utility.yul\":6069:6095   */\n      swap1\n      pop\n        /* \"#utility.yul\":6141:6150   */\n      dup2\n        /* \"#utility.yul\":6135:6139   */\n      dup2\n        /* \"#utility.yul\":6131:6151   */\n      sub\n        /* \"#utility.yul\":6127:6128   */\n      0x00\n        /* \"#utility.yul\":6116:6125   */\n      dup4\n        /* \"#utility.yul\":6112:6129   */\n      add\n        /* \"#utility.yul\":6105:6152   */\n      mstore\n        /* \"#utility.yul\":6169:6300   */\n      tag_129\n        /* \"#utility.yul\":6295:6299   */\n      dup2\n        /* \"#utility.yul\":6169:6300   */\n      tag_59\n      jump\t// in\n    tag_129:\n        /* \"#utility.yul\":6161:6300   */\n      swap1\n      pop\n        /* \"#utility.yul\":5888:6307   */\n      swap2\n      swap1\n      pop\n      jump\t// out\n\n    auxdata: 0xa26469706673582212206ceab2908a1de313be7b3d1d4fc7985b09200fc5fff6c5c6e80a0f018da68da164736f6c63430008080033\n}\n",
				"bytecode": {
					"linkReferences": {},
					"object": "6080604052603260005534801561001557600080fd5b5061066c806100256000396000f3fe60806040526004361061003f5760003560e01c806365f7f5161461004457806398d5fdca14610081578063b60d4288146100ac578063f9155e82146100b6575b600080fd5b34801561005057600080fd5b5061006b6004803603810190610066919061025a565b6100e1565b6040516100789190610296565b60405180910390f35b34801561008d57600080fd5b5061009661011b565b6040516100a39190610296565b60405180910390f35b6100b46101d3565b005b3480156100c257600080fd5b506100cb610219565b6040516100d89190610296565b60405180910390f35b6000806100ec61011b565b90506000670de0b6b3a7640000848361010591906102e0565b61010f9190610369565b90508092505050919050565b60008073d4a33860578de61dbabdc8bfdb98fd742fa7028e905060008173ffffffffffffffffffffffffffffffffffffffff1663feaf968c6040518163ffffffff1660e01b815260040160a06040518083038186803b15801561017d57600080fd5b505afa158015610191573d6000803e3d6000fd5b505050506040513d601f19601f820116820180604052508101906101b59190610427565b5050509150506402540be400816101cc91906104a2565b9250505090565b6000543411610217576040517f08c379a000000000000000000000000000000000000000000000000000000000815260040161020e90610616565b60405180910390fd5b565b60005481565b600080fd5b6000819050919050565b61023781610224565b811461024257600080fd5b50565b6000813590506102548161022e565b92915050565b6000602082840312156102705761026f61021f565b5b600061027e84828501610245565b91505092915050565b61029081610224565b82525050565b60006020820190506102ab6000830184610287565b92915050565b7f4e487b7100000000000000000000000000000000000000000000000000000000600052601160045260246000fd5b60006102eb82610224565b91506102f683610224565b9250817fffffffffffffffffffffffffffffffffffffffffffffffffffffffffffffffff048311821515161561032f5761032e6102b1565b5b828202905092915050565b7f4e487b7100000000000000000000000000000000000000000000000000000000600052601260045260246000fd5b600061037482610224565b915061037f83610224565b92508261038f5761038e61033a565b5b828204905092915050565b600069ffffffffffffffffffff82169050919050565b6103b98161039a565b81146103c457600080fd5b50565b6000815190506103d6816103b0565b92915050565b6000819050919050565b6103ef816103dc565b81146103fa57600080fd5b50565b60008151905061040c816103e6565b92915050565b6000815190506104218161022e565b92915050565b600080600080600060a086880312156104435761044261021f565b5b6000610451888289016103c7565b9550506020610462888289016103fd565b945050604061047388828901610412565b935050606061048488828901610412565b9250506080610495888289016103c7565b9150509295509295909350565b60006104ad826103dc565b91506104b8836103dc565b9250827f7fffffffffffffffffffffffffffffffffffffffffffffffffffffffffffffff04821160008413600084131616156104f7576104f66102b1565b5b817f80000000000000000000000000000000000000000000000000000000000000000583126000841260008413161615610534576105336102b1565b5b827f80000000000000000000000000000000000000000000000000000000000000000582126000841360008412161615610571576105706102b1565b5b827f7fffffffffffffffffffffffffffffffffffffffffffffffffffffffffffffff05821260008412600084121616156105ae576105ad6102b1565b5b828202905092915050565b600082825260208201905092915050565b7f416d6f756e74206d7573742062652067726561746572207468616e2031000000600082015250565b6000610600601d836105b9565b915061060b826105ca565b602082019050919050565b6000602082019050818103600083015261062f816105f3565b905091905056fea26469706673582212206ceab2908a1de313be7b3d1d4fc7985b09200fc5fff6c5c6e80a0f018da68da164736f6c63430008080033",
					"opcodes": "PUSH1 0x80 PUSH1 0x40 MSTORE PUSH1 0x32 PUSH1 0x0 SSTORE CALLVALUE DUP1 ISZERO PUSH2 0x15 JUMPI PUSH1 0x0 DUP1 REVERT JUMPDEST POP PUSH2 0x66C DUP1 PUSH2 0x25 PUSH1 0x0 CODECOPY PUSH1 0x0 RETURN INVALID PUSH1 0x80 PUSH1 0x40 MSTORE PUSH1 0x4 CALLDATASIZE LT PUSH2 0x3F JUMPI PUSH1 0x0 CALLDATALOAD PUSH1 0xE0 SHR DUP1 PUSH4 0x65F7F516 EQ PUSH2 0x44 JUMPI DUP1 PUSH4 0x98D5FDCA EQ PUSH2 0x81 JUMPI DUP1 PUSH4 0xB60D4288 EQ PUSH2 0xAC JUMPI DUP1 PUSH4 0xF9155E82 EQ PUSH2 0xB6 JUMPI JUMPDEST PUSH1 0x0 DUP1 REVERT JUMPDEST CALLVALUE DUP1 ISZERO PUSH2 0x50 JUMPI PUSH1 0x0 DUP1 REVERT JUMPDEST POP PUSH2 0x6B PUSH1 0x4 DUP1 CALLDATASIZE SUB DUP2 ADD SWAP1 PUSH2 0x66 SWAP2 SWAP1 PUSH2 0x25A JUMP JUMPDEST PUSH2 0xE1 JUMP JUMPDEST PUSH1 0x40 MLOAD PUSH2 0x78 SWAP2 SWAP1 PUSH2 0x296 JUMP JUMPDEST PUSH1 0x40 MLOAD DUP1 SWAP2 SUB SWAP1 RETURN JUMPDEST CALLVALUE DUP1 ISZERO PUSH2 0x8D JUMPI PUSH1 0x0 DUP1 REVERT JUMPDEST POP PUSH2 0x96 PUSH2 0x11B JUMP JUMPDEST PUSH1 0x40 MLOAD PUSH2 0xA3 SWAP2 SWAP1 PUSH2 0x296 JUMP JUMPDEST PUSH1 0x40 MLOAD DUP1 SWAP2 SUB SWAP1 RETURN JUMPDEST PUSH2 0xB4 PUSH2 0x1D3 JUMP JUMPDEST STOP JUMPDEST CALLVALUE DUP1 ISZERO PUSH2 0xC2 JUMPI PUSH1 0x0 DUP1 REVERT JUMPDEST POP PUSH2 0xCB PUSH2 0x219 JUMP JUMPDEST PUSH1 0x40 MLOAD PUSH2 0xD8 SWAP2 SWAP1 PUSH2 0x296 JUMP JUMPDEST PUSH1 0x40 MLOAD DUP1 SWAP2 SUB SWAP1 RETURN JUMPDEST PUSH1 0x0 DUP1 PUSH2 0xEC PUSH2 0x11B JUMP JUMPDEST SWAP1 POP PUSH1 0x0 PUSH8 0xDE0B6B3A7640000 DUP5 DUP4 PUSH2 0x105 SWAP2 SWAP1 PUSH2 0x2E0 JUMP JUMPDEST PUSH2 0x10F SWAP2 SWAP1 PUSH2 0x369 JUMP JUMPDEST SWAP1 POP DUP1 SWAP3 POP POP POP SWAP2 SWAP1 POP JUMP JUMPDEST PUSH1 0x0 DUP1 PUSH20 0xD4A33860578DE61DBABDC8BFDB98FD742FA7028E SWAP1 POP PUSH1 0x0 DUP2 PUSH20 0xFFFFFFFFFFFFFFFFFFFFFFFFFFFFFFFFFFFFFFFF AND PUSH4 0xFEAF968C PUSH1 0x40 MLOAD DUP2 PUSH4 0xFFFFFFFF AND PUSH1 0xE0 SHL DUP2 MSTORE PUSH1 0x4 ADD PUSH1 0xA0 PUSH1 0x40 MLOAD DUP1 DUP4 SUB DUP2 DUP7 DUP1 EXTCODESIZE ISZERO DUP1 ISZERO PUSH2 0x17D JUMPI PUSH1 0x0 DUP1 REVERT JUMPDEST POP GAS STATICCALL ISZERO DUP1 ISZERO PUSH2 0x191 JUMPI RETURNDATASIZE PUSH1 0x0 DUP1 RETURNDATACOPY RETURNDATASIZE PUSH1 0x0 REVERT JUMPDEST POP POP POP POP PUSH1 0x40 MLOAD RETURNDATASIZE PUSH1 0x1F NOT PUSH1 0x1F DUP3 ADD AND DUP3 ADD DUP1 PUSH1 0x40 MSTORE POP DUP2 ADD SWAP1 PUSH2 0x1B5 SWAP2 SWAP1 PUSH2 0x427 JUMP JUMPDEST POP POP POP SWAP2 POP POP PUSH5 0x2540BE400 DUP2 PUSH2 0x1CC SWAP2 SWAP1 PUSH2 0x4A2 JUMP JUMPDEST SWAP3 POP POP POP SWAP1 JUMP JUMPDEST PUSH1 0x0 SLOAD CALLVALUE GT PUSH2 0x217 JUMPI PUSH1 0x40 MLOAD PUSH32 0x8C379A000000000000000000000000000000000000000000000000000000000 DUP2 MSTORE PUSH1 0x4 ADD PUSH2 0x20E SWAP1 PUSH2 0x616 JUMP JUMPDEST PUSH1 0x40 MLOAD DUP1 SWAP2 SUB SWAP1 REVERT JUMPDEST JUMP JUMPDEST PUSH1 0x0 SLOAD DUP2 JUMP JUMPDEST PUSH1 0x0 DUP1 REVERT JUMPDEST PUSH1 0x0 DUP2 SWAP1 POP SWAP2 SWAP1 POP JUMP JUMPDEST PUSH2 0x237 DUP2 PUSH2 0x224 JUMP JUMPDEST DUP2 EQ PUSH2 0x242 JUMPI PUSH1 0x0 DUP1 REVERT JUMPDEST POP JUMP JUMPDEST PUSH1 0x0 DUP2 CALLDATALOAD SWAP1 POP PUSH2 0x254 DUP2 PUSH2 0x22E JUMP JUMPDEST SWAP3 SWAP2 POP POP JUMP JUMPDEST PUSH1 0x0 PUSH1 0x20 DUP3 DUP5 SUB SLT ISZERO PUSH2 0x270 JUMPI PUSH2 0x26F PUSH2 0x21F JUMP JUMPDEST JUMPDEST PUSH1 0x0 PUSH2 0x27E DUP5 DUP3 DUP6 ADD PUSH2 0x245 JUMP JUMPDEST SWAP2 POP POP SWAP3 SWAP2 POP POP JUMP JUMPDEST PUSH2 0x290 DUP2 PUSH2 0x224 JUMP JUMPDEST DUP3 MSTORE POP POP JUMP JUMPDEST PUSH1 0x0 PUSH1 0x20 DUP3 ADD SWAP1 POP PUSH2 0x2AB PUSH1 0x0 DUP4 ADD DUP5 PUSH2 0x287 JUMP JUMPDEST SWAP3 SWAP2 POP POP JUMP JUMPDEST PUSH32 0x4E487B7100000000000000000000000000000000000000000000000000000000 PUSH1 0x0 MSTORE PUSH1 0x11 PUSH1 0x4 MSTORE PUSH1 0x24 PUSH1 0x0 REVERT JUMPDEST PUSH1 0x0 PUSH2 0x2EB DUP3 PUSH2 0x224 JUMP JUMPDEST SWAP2 POP PUSH2 0x2F6 DUP4 PUSH2 0x224 JUMP JUMPDEST SWAP3 POP DUP2 PUSH32 0xFFFFFFFFFFFFFFFFFFFFFFFFFFFFFFFFFFFFFFFFFFFFFFFFFFFFFFFFFFFFFFFF DIV DUP4 GT DUP3 ISZERO ISZERO AND ISZERO PUSH2 0x32F JUMPI PUSH2 0x32E PUSH2 0x2B1 JUMP JUMPDEST JUMPDEST DUP3 DUP3 MUL SWAP1 POP SWAP3 SWAP2 POP POP JUMP JUMPDEST PUSH32 0x4E487B7100000000000000000000000000000000000000000000000000000000 PUSH1 0x0 MSTORE PUSH1 0x12 PUSH1 0x4 MSTORE PUSH1 0x24 PUSH1 0x0 REVERT JUMPDEST PUSH1 0x0 PUSH2 0x374 DUP3 PUSH2 0x224 JUMP JUMPDEST SWAP2 POP PUSH2 0x37F DUP4 PUSH2 0x224 JUMP JUMPDEST SWAP3 POP DUP3 PUSH2 0x38F JUMPI PUSH2 0x38E PUSH2 0x33A JUMP JUMPDEST JUMPDEST DUP3 DUP3 DIV SWAP1 POP SWAP3 SWAP2 POP POP JUMP JUMPDEST PUSH1 0x0 PUSH10 0xFFFFFFFFFFFFFFFFFFFF DUP3 AND SWAP1 POP SWAP2 SWAP1 POP JUMP JUMPDEST PUSH2 0x3B9 DUP2 PUSH2 0x39A JUMP JUMPDEST DUP2 EQ PUSH2 0x3C4 JUMPI PUSH1 0x0 DUP1 REVERT JUMPDEST POP JUMP JUMPDEST PUSH1 0x0 DUP2 MLOAD SWAP1 POP PUSH2 0x3D6 DUP2 PUSH2 0x3B0 JUMP JUMPDEST SWAP3 SWAP2 POP POP JUMP JUMPDEST PUSH1 0x0 DUP2 SWAP1 POP SWAP2 SWAP1 POP JUMP JUMPDEST PUSH2 0x3EF DUP2 PUSH2 0x3DC JUMP JUMPDEST DUP2 EQ PUSH2 0x3FA JUMPI PUSH1 0x0 DUP1 REVERT JUMPDEST POP JUMP JUMPDEST PUSH1 0x0 DUP2 MLOAD SWAP1 POP PUSH2 0x40C DUP2 PUSH2 0x3E6 JUMP JUMPDEST SWAP3 SWAP2 POP POP JUMP JUMPDEST PUSH1 0x0 DUP2 MLOAD SWAP1 POP PUSH2 0x421 DUP2 PUSH2 0x22E JUMP JUMPDEST SWAP3 SWAP2 POP POP JUMP JUMPDEST PUSH1 0x0 DUP1 PUSH1 0x0 DUP1 PUSH1 0x0 PUSH1 0xA0 DUP7 DUP9 SUB SLT ISZERO PUSH2 0x443 JUMPI PUSH2 0x442 PUSH2 0x21F JUMP JUMPDEST JUMPDEST PUSH1 0x0 PUSH2 0x451 DUP9 DUP3 DUP10 ADD PUSH2 0x3C7 JUMP JUMPDEST SWAP6 POP POP PUSH1 0x20 PUSH2 0x462 DUP9 DUP3 DUP10 ADD PUSH2 0x3FD JUMP JUMPDEST SWAP5 POP POP PUSH1 0x40 PUSH2 0x473 DUP9 DUP3 DUP10 ADD PUSH2 0x412 JUMP JUMPDEST SWAP4 POP POP PUSH1 0x60 PUSH2 0x484 DUP9 DUP3 DUP10 ADD PUSH2 0x412 JUMP JUMPDEST SWAP3 POP POP PUSH1 0x80 PUSH2 0x495 DUP9 DUP3 DUP10 ADD PUSH2 0x3C7 JUMP JUMPDEST SWAP2 POP POP SWAP3 SWAP6 POP SWAP3 SWAP6 SWAP1 SWAP4 POP JUMP JUMPDEST PUSH1 0x0 PUSH2 0x4AD DUP3 PUSH2 0x3DC JUMP JUMPDEST SWAP2 POP PUSH2 0x4B8 DUP4 PUSH2 0x3DC JUMP JUMPDEST SWAP3 POP DUP3 PUSH32 0x7FFFFFFFFFFFFFFFFFFFFFFFFFFFFFFFFFFFFFFFFFFFFFFFFFFFFFFFFFFFFFFF DIV DUP3 GT PUSH1 0x0 DUP5 SGT PUSH1 0x0 DUP5 SGT AND AND ISZERO PUSH2 0x4F7 JUMPI PUSH2 0x4F6 PUSH2 0x2B1 JUMP JUMPDEST JUMPDEST DUP2 PUSH32 0x8000000000000000000000000000000000000000000000000000000000000000 SDIV DUP4 SLT PUSH1 0x0 DUP5 SLT PUSH1 0x0 DUP5 SGT AND AND ISZERO PUSH2 0x534 JUMPI PUSH2 0x533 PUSH2 0x2B1 JUMP JUMPDEST JUMPDEST DUP3 PUSH32 0x8000000000000000000000000000000000000000000000000000000000000000 SDIV DUP3 SLT PUSH1 0x0 DUP5 SGT PUSH1 0x0 DUP5 SLT AND AND ISZERO PUSH2 0x571 JUMPI PUSH2 0x570 PUSH2 0x2B1 JUMP JUMPDEST JUMPDEST DUP3 PUSH32 0x7FFFFFFFFFFFFFFFFFFFFFFFFFFFFFFFFFFFFFFFFFFFFFFFFFFFFFFFFFFFFFFF SDIV DUP3 SLT PUSH1 0x0 DUP5 SLT PUSH1 0x0 DUP5 SLT AND AND ISZERO PUSH2 0x5AE JUMPI PUSH2 0x5AD PUSH2 0x2B1 JUMP JUMPDEST JUMPDEST DUP3 DUP3 MUL SWAP1 POP SWAP3 SWAP2 POP POP JUMP JUMPDEST PUSH1 0x0 DUP3 DUP3 MSTORE PUSH1 0x20 DUP3 ADD SWAP1 POP SWAP3 SWAP2 POP POP JUMP JUMPDEST PUSH32 0x416D6F756E74206D7573742062652067726561746572207468616E2031000000 PUSH1 0x0 DUP3 ADD MSTORE POP JUMP JUMPDEST PUSH1 0x0 PUSH2 0x600 PUSH1 0x1D DUP4 PUSH2 0x5B9 JUMP JUMPDEST SWAP2 POP PUSH2 0x60B DUP3 PUSH2 0x5CA JUMP JUMPDEST PUSH1 0x20 DUP3 ADD SWAP1 POP SWAP2 SWAP1 POP JUMP JUMPDEST PUSH1 0x0 PUSH1 0x20 DUP3 ADD SWAP1 POP DUP2 DUP2 SUB PUSH1 0x0 DUP4 ADD MSTORE PUSH2 0x62F DUP2 PUSH2 0x5F3 JUMP JUMPDEST SWAP1 POP SWAP2 SWAP1 POP JUMP INVALID LOG2 PUSH5 0x6970667358 0x22 SLT KECCAK256 PUSH13 0xEAB2908A1DE313BE7B3D1D4FC7 SWAP9 JUMPDEST MULMOD KECCAK256 0xF 0xC5 SELFDESTRUCT 0xF6 0xC5 0xC6 0xE8 EXP 0xF ADD DUP14 0xA6 DUP14 LOG1 PUSH5 0x736F6C6343 STOP ADDMOD ADDMOD STOP CALLER "
				},
				"gasEstimates": {
					"creation": {
						"codeDepositCost": "328800",
						"executionCost": "22474",
						"totalCost": "351274"
					},
					"external": {
						"fund()": "2553",
						"getPrice()": "infinite",
						"mininumUSD()": "2473",
						"priceConvertion(uint256)": "infinite"
					}
				},
				"methodIdentifiers": {
					"fund()": "b60d4288",
					"getPrice()": "98d5fdca",
					"mininumUSD()": "f9155e82",
					"priceConvertion(uint256)": "65f7f516"
				}
			},
			"storageLayout": {
				"storage": [
					{
						"astId": 51,
						"contract": "contracts/Transaction.sol:Transaction",
						"label": "mininumUSD",
						"offset": 0,
						"slot": "0",
						"type": "t_uint256"
					}
				],
				"types": {
					"t_uint256": {
						"encoding": "inplace",
						"label": "uint256",
						"numberOfBytes": "32"
					}
				}
			},
			"userdoc": {
				"kind": "user",
				"methods": {},
				"version": 1
			}
		}
	}
}