{
	"contracts/Transaction.sol": {
		"Transaction": {
			"abi": [
				{
					"inputs": [
						{
							"internalType": "address",
							"name": "",
							"type": "address"
						}
					],
					"name": "amountFunded",
					"outputs": [
						{
							"internalType": "uint256",
							"name": "",
							"type": "uint256"
						}
					],
					"stateMutability": "view",
					"type": "function"
				},
				{
					"inputs": [],
					"name": "fund",
					"outputs": [],
					"stateMutability": "payable",
					"type": "function"
				},
				{
					"inputs": [
						{
							"internalType": "uint256",
							"name": "",
							"type": "uint256"
						}
					],
					"name": "funder",
					"outputs": [
						{
							"internalType": "address",
							"name": "",
							"type": "address"
						}
					],
					"stateMutability": "view",
					"type": "function"
				},
				{
					"inputs": [],
					"name": "minimumUSD",
					"outputs": [
						{
							"internalType": "uint256",
							"name": "",
							"type": "uint256"
						}
					],
					"stateMutability": "view",
					"type": "function"
				},
				{
					"inputs": [
						{
							"internalType": "uint256",
							"name": "",
							"type": "uint256"
						}
					],
					"name": "withdraw",
					"outputs": [],
					"stateMutability": "nonpayable",
					"type": "function"
				}
			],
			"devdoc": {
				"kind": "dev",
				"methods": {},
				"version": 1
			},
			"evm": {
				"assembly": "    /* \"contracts/Transaction.sol\":97:1188  contract Transaction {... */\n  mstore(0x40, 0x80)\n    /* \"contracts/Transaction.sol\":191:199  2 * 1e18 */\n  0x1bc16d674ec80000\n    /* \"contracts/Transaction.sol\":163:199  uint256 public minimumUSD = 2 * 1e18 */\n  0x00\n  sstore\n    /* \"contracts/Transaction.sol\":97:1188  contract Transaction {... */\n  callvalue\n  dup1\n  iszero\n  tag_1\n  jumpi\n  0x00\n  dup1\n  revert\ntag_1:\n  pop\n  dataSize(sub_0)\n  dup1\n  dataOffset(sub_0)\n  0x00\n  codecopy\n  0x00\n  return\nstop\n\nsub_0: assembly {\n        /* \"contracts/Transaction.sol\":97:1188  contract Transaction {... */\n      mstore(0x40, 0x80)\n      jumpi(tag_1, lt(calldatasize, 0x04))\n      shr(0xe0, calldataload(0x00))\n      dup1\n      0x1f2c9238\n      eq\n      tag_2\n      jumpi\n      dup1\n      0x2e1a7d4d\n      eq\n      tag_3\n      jumpi\n      dup1\n      0x3430a88c\n      eq\n      tag_4\n      jumpi\n      dup1\n      0xb60d4288\n      eq\n      tag_5\n      jumpi\n      dup1\n      0xdeaf2cf0\n      eq\n      tag_6\n      jumpi\n    tag_1:\n      0x00\n      dup1\n      revert\n        /* \"contracts/Transaction.sol\":205:228  address[] public funder */\n    tag_2:\n      callvalue\n      dup1\n      iszero\n      tag_7\n      jumpi\n      0x00\n      dup1\n      revert\n    tag_7:\n      pop\n      tag_8\n      0x04\n      dup1\n      calldatasize\n      sub\n      dup2\n      add\n      swap1\n      tag_9\n      swap2\n      swap1\n      tag_10\n      jump\t// in\n    tag_9:\n      tag_11\n      jump\t// in\n    tag_8:\n      mload(0x40)\n      tag_12\n      swap2\n      swap1\n      tag_13\n      jump\t// in\n    tag_12:\n      mload(0x40)\n      dup1\n      swap2\n      sub\n      swap1\n      return\n        /* \"contracts/Transaction.sol\":500:1184  function withdraw(uint256) public {... */\n    tag_3:\n      callvalue\n      dup1\n      iszero\n      tag_14\n      jumpi\n      0x00\n      dup1\n      revert\n    tag_14:\n      pop\n      tag_15\n      0x04\n      dup1\n      calldatasize\n      sub\n      dup2\n      add\n      swap1\n      tag_16\n      swap2\n      swap1\n      tag_10\n      jump\t// in\n    tag_16:\n      tag_17\n      jump\t// in\n    tag_15:\n      stop\n        /* \"contracts/Transaction.sol\":163:199  uint256 public minimumUSD = 2 * 1e18 */\n    tag_4:\n      callvalue\n      dup1\n      iszero\n      tag_18\n      jumpi\n      0x00\n      dup1\n      revert\n    tag_18:\n      pop\n      tag_19\n      tag_20\n      jump\t// in\n    tag_19:\n      mload(0x40)\n      tag_21\n      swap2\n      swap1\n      tag_22\n      jump\t// in\n    tag_21:\n      mload(0x40)\n      dup1\n      swap2\n      sub\n      swap1\n      return\n        /* \"contracts/Transaction.sol\":288:493  function fund() public payable {... */\n    tag_5:\n      tag_23\n      tag_24\n      jump\t// in\n    tag_23:\n      stop\n        /* \"contracts/Transaction.sol\":234:281  mapping(address => uint256) public amountFunded */\n    tag_6:\n      callvalue\n      dup1\n      iszero\n      tag_25\n      jumpi\n      0x00\n      dup1\n      revert\n    tag_25:\n      pop\n      tag_26\n      0x04\n      dup1\n      calldatasize\n      sub\n      dup2\n      add\n      swap1\n      tag_27\n      swap2\n      swap1\n      tag_28\n      jump\t// in\n    tag_27:\n      tag_29\n      jump\t// in\n    tag_26:\n      mload(0x40)\n      tag_30\n      swap2\n      swap1\n      tag_22\n      jump\t// in\n    tag_30:\n      mload(0x40)\n      dup1\n      swap2\n      sub\n      swap1\n      return\n        /* \"contracts/Transaction.sol\":205:228  address[] public funder */\n    tag_11:\n      0x01\n      dup2\n      dup2\n      sload\n      dup2\n      lt\n      tag_31\n      jumpi\n      0x00\n      dup1\n      revert\n    tag_31:\n      swap1\n      0x00\n      mstore\n      keccak256(0x00, 0x20)\n      add\n      0x00\n      swap2\n      pop\n      sload\n      swap1\n      0x0100\n      exp\n      swap1\n      div\n      0xffffffffffffffffffffffffffffffffffffffff\n      and\n      dup2\n      jump\t// out\n        /* \"contracts/Transaction.sol\":500:1184  function withdraw(uint256) public {... */\n    tag_17:\n        /* \"contracts/Transaction.sol\":548:567  uint256 funderIndex */\n      0x00\n        /* \"contracts/Transaction.sol\":544:730  for(uint256 funderIndex = 0; funderIndex < funder.length; funderIndex++) {... */\n    tag_34:\n        /* \"contracts/Transaction.sol\":587:593  funder */\n      0x01\n        /* \"contracts/Transaction.sol\":587:600  funder.length */\n      dup1\n      sload\n      swap1\n      pop\n        /* \"contracts/Transaction.sol\":573:584  funderIndex */\n      dup2\n        /* \"contracts/Transaction.sol\":573:600  funderIndex < funder.length */\n      lt\n        /* \"contracts/Transaction.sol\":544:730  for(uint256 funderIndex = 0; funderIndex < funder.length; funderIndex++) {... */\n      iszero\n      tag_35\n      jumpi\n        /* \"contracts/Transaction.sol\":631:652  address funderAddress */\n      0x00\n        /* \"contracts/Transaction.sol\":655:661  funder */\n      0x01\n        /* \"contracts/Transaction.sol\":662:673  funderIndex */\n      dup3\n        /* \"contracts/Transaction.sol\":655:674  funder[funderIndex] */\n      dup2\n      sload\n      dup2\n      lt\n      tag_37\n      jumpi\n      tag_38\n      tag_39\n      jump\t// in\n    tag_38:\n    tag_37:\n      swap1\n      0x00\n      mstore\n      keccak256(0x00, 0x20)\n      add\n      0x00\n      swap1\n      sload\n      swap1\n      0x0100\n      exp\n      swap1\n      div\n      0xffffffffffffffffffffffffffffffffffffffff\n      and\n        /* \"contracts/Transaction.sol\":631:674  address funderAddress = funder[funderIndex] */\n      swap1\n      pop\n        /* \"contracts/Transaction.sol\":718:719  0 */\n      0x00\n        /* \"contracts/Transaction.sol\":688:700  amountFunded */\n      0x02\n        /* \"contracts/Transaction.sol\":688:715  amountFunded[funderAddress] */\n      0x00\n        /* \"contracts/Transaction.sol\":701:714  funderAddress */\n      dup4\n        /* \"contracts/Transaction.sol\":688:715  amountFunded[funderAddress] */\n      0xffffffffffffffffffffffffffffffffffffffff\n      and\n      0xffffffffffffffffffffffffffffffffffffffff\n      and\n      dup2\n      mstore\n      0x20\n      add\n      swap1\n      dup2\n      mstore\n      0x20\n      add\n      0x00\n      keccak256\n        /* \"contracts/Transaction.sol\":688:719  amountFunded[funderAddress] = 0 */\n      dup2\n      swap1\n      sstore\n      pop\n        /* \"contracts/Transaction.sol\":617:730  {... */\n      pop\n        /* \"contracts/Transaction.sol\":602:615  funderIndex++ */\n      dup1\n      dup1\n      tag_41\n      swap1\n      tag_42\n      jump\t// in\n    tag_41:\n      swap2\n      pop\n      pop\n        /* \"contracts/Transaction.sol\":544:730  for(uint256 funderIndex = 0; funderIndex < funder.length; funderIndex++) {... */\n      jump(tag_34)\n    tag_35:\n      pop\n        /* \"contracts/Transaction.sol\":797:798  0 */\n      0x00\n        /* \"contracts/Transaction.sol\":783:799  new address[](0) */\n      0xffffffffffffffff\n      dup2\n      gt\n      iszero\n      tag_43\n      jumpi\n      tag_44\n      tag_45\n      jump\t// in\n    tag_44:\n    tag_43:\n      mload(0x40)\n      swap1\n      dup1\n      dup3\n      mstore\n      dup1\n      0x20\n      mul\n      0x20\n      add\n      dup3\n      add\n      0x40\n      mstore\n      dup1\n      iszero\n      tag_46\n      jumpi\n      dup2\n      0x20\n      add\n      0x20\n      dup3\n      mul\n      dup1\n      calldatasize\n      dup4\n      calldatacopy\n      dup1\n      dup3\n      add\n      swap2\n      pop\n      pop\n      swap1\n      pop\n    tag_46:\n      pop\n        /* \"contracts/Transaction.sol\":774:780  funder */\n      0x01\n        /* \"contracts/Transaction.sol\":774:799  funder = new address[](0) */\n      swap1\n      dup1\n      mload\n      swap1\n      0x20\n      add\n      swap1\n      tag_47\n      swap3\n      swap2\n      swap1\n      tag_48\n      jump\t// in\n    tag_47:\n      pop\n        /* \"contracts/Transaction.sol\":851:861  msg.sender */\n      caller\n        /* \"contracts/Transaction.sol\":843:871  payable(msg.sender).transfer */\n      0xffffffffffffffffffffffffffffffffffffffff\n      and\n        /* \"contracts/Transaction.sol\":843:894  payable(msg.sender).transfer(address(this).balance) */\n      0x08fc\n        /* \"contracts/Transaction.sol\":872:893  address(this).balance */\n      selfbalance\n        /* \"contracts/Transaction.sol\":843:894  payable(msg.sender).transfer(address(this).balance) */\n      swap1\n      dup2\n      iszero\n      mul\n      swap1\n      mload(0x40)\n      0x00\n      mload(0x40)\n      dup1\n      dup4\n      sub\n      dup2\n      dup6\n      dup9\n      dup9\n      call\n      swap4\n      pop\n      pop\n      pop\n      pop\n      iszero\n      dup1\n      iszero\n      tag_50\n      jumpi\n      returndatasize\n      0x00\n      dup1\n      returndatacopy\n      revert(0x00, returndatasize)\n    tag_50:\n      pop\n        /* \"contracts/Transaction.sol\":921:929  bool snd */\n      0x00\n        /* \"contracts/Transaction.sol\":940:950  msg.sender */\n      caller\n        /* \"contracts/Transaction.sol\":932:956  payable(msg.sender).send */\n      0xffffffffffffffffffffffffffffffffffffffff\n      and\n        /* \"contracts/Transaction.sol\":932:979  payable(msg.sender).send(address(this).balance) */\n      0x08fc\n        /* \"contracts/Transaction.sol\":957:978  address(this).balance */\n      selfbalance\n        /* \"contracts/Transaction.sol\":932:979  payable(msg.sender).send(address(this).balance) */\n      swap1\n      dup2\n      iszero\n      mul\n      swap1\n      mload(0x40)\n      0x00\n      mload(0x40)\n      dup1\n      dup4\n      sub\n      dup2\n      dup6\n      dup9\n      dup9\n      call\n      swap4\n      pop\n      pop\n      pop\n      pop\n        /* \"contracts/Transaction.sol\":921:979  bool snd = payable(msg.sender).send(address(this).balance) */\n      swap1\n      pop\n        /* \"contracts/Transaction.sol\":997:1000  snd */\n      dup1\n        /* \"contracts/Transaction.sol\":989:1030  require(snd, \"Amount can not be without\") */\n      tag_52\n      jumpi\n      mload(0x40)\n      0x08c379a000000000000000000000000000000000000000000000000000000000\n      dup2\n      mstore\n      0x04\n      add\n      tag_53\n      swap1\n      tag_54\n      jump\t// in\n    tag_53:\n      mload(0x40)\n      dup1\n      swap2\n      sub\n      swap1\n      revert\n    tag_52:\n        /* \"contracts/Transaction.sol\":1058:1070  bool success */\n      0x00\n        /* \"contracts/Transaction.sol\":1084:1094  msg.sender */\n      caller\n        /* \"contracts/Transaction.sol\":1076:1100  payable(msg.sender).call */\n      0xffffffffffffffffffffffffffffffffffffffff\n      and\n        /* \"contracts/Transaction.sol\":1108:1129  address(this).balance */\n      selfbalance\n        /* \"contracts/Transaction.sol\":1076:1134  payable(msg.sender).call{value: address(this).balance}(\"\") */\n      mload(0x40)\n      tag_55\n      swap1\n      tag_56\n      jump\t// in\n    tag_55:\n      0x00\n      mload(0x40)\n      dup1\n      dup4\n      sub\n      dup2\n      dup6\n      dup8\n      gas\n      call\n      swap3\n      pop\n      pop\n      pop\n      returndatasize\n      dup1\n      0x00\n      dup2\n      eq\n      tag_59\n      jumpi\n      mload(0x40)\n      swap2\n      pop\n      and(add(returndatasize, 0x3f), not(0x1f))\n      dup3\n      add\n      0x40\n      mstore\n      returndatasize\n      dup3\n      mstore\n      returndatasize\n      0x00\n      0x20\n      dup5\n      add\n      returndatacopy\n      jump(tag_58)\n    tag_59:\n      0x60\n      swap2\n      pop\n    tag_58:\n      pop\n        /* \"contracts/Transaction.sol\":1057:1134  (bool success, ) = payable(msg.sender).call{value: address(this).balance}(\"\") */\n      pop\n      swap1\n      pop\n        /* \"contracts/Transaction.sol\":1152:1159  success */\n      dup1\n        /* \"contracts/Transaction.sol\":1144:1177  require(success, \"Review amount\") */\n      tag_60\n      jumpi\n      mload(0x40)\n      0x08c379a000000000000000000000000000000000000000000000000000000000\n      dup2\n      mstore\n      0x04\n      add\n      tag_61\n      swap1\n      tag_62\n      jump\t// in\n    tag_61:\n      mload(0x40)\n      dup1\n      swap2\n      sub\n      swap1\n      revert\n    tag_60:\n        /* \"contracts/Transaction.sol\":534:1184  {... */\n      pop\n      pop\n        /* \"contracts/Transaction.sol\":500:1184  function withdraw(uint256) public {... */\n      pop\n      jump\t// out\n        /* \"contracts/Transaction.sol\":163:199  uint256 public minimumUSD = 2 * 1e18 */\n    tag_20:\n      sload(0x00)\n      dup2\n      jump\t// out\n        /* \"contracts/Transaction.sol\":288:493  function fund() public payable {... */\n    tag_24:\n        /* \"contracts/Transaction.sol\":362:372  minimumUSD */\n      sload(0x00)\n        /* \"contracts/Transaction.sol\":337:358  msg.value.converter() */\n      tag_64\n        /* \"contracts/Transaction.sol\":337:346  msg.value */\n      callvalue\n        /* \"contracts/Transaction.sol\":337:356  msg.value.converter */\n      tag_65\n        /* \"contracts/Transaction.sol\":337:358  msg.value.converter() */\n      jump\t// in\n    tag_64:\n        /* \"contracts/Transaction.sol\":337:372  msg.value.converter() >= minimumUSD */\n      lt\n      iszero\n        /* \"contracts/Transaction.sol\":329:406  require(msg.value.converter() >= minimumUSD, \"Amount must be greater than 1\") */\n      tag_66\n      jumpi\n      mload(0x40)\n      0x08c379a000000000000000000000000000000000000000000000000000000000\n      dup2\n      mstore\n      0x04\n      add\n      tag_67\n      swap1\n      tag_68\n      jump\t// in\n    tag_67:\n      mload(0x40)\n      dup1\n      swap2\n      sub\n      swap1\n      revert\n    tag_66:\n        /* \"contracts/Transaction.sol\":416:422  funder */\n      0x01\n        /* \"contracts/Transaction.sol\":428:438  msg.sender */\n      caller\n        /* \"contracts/Transaction.sol\":416:439  funder.push(msg.sender) */\n      swap1\n      dup1\n      0x01\n      dup2\n      sload\n      add\n      dup1\n      dup3\n      sstore\n      dup1\n      swap2\n      pop\n      pop\n      0x01\n      swap1\n      sub\n      swap1\n      0x00\n      mstore\n      keccak256(0x00, 0x20)\n      add\n      0x00\n      swap1\n      swap2\n      swap1\n      swap2\n      swap1\n      swap2\n      0x0100\n      exp\n      dup2\n      sload\n      dup2\n      0xffffffffffffffffffffffffffffffffffffffff\n      mul\n      not\n      and\n      swap1\n      dup4\n      0xffffffffffffffffffffffffffffffffffffffff\n      and\n      mul\n      or\n      swap1\n      sstore\n      pop\n        /* \"contracts/Transaction.sol\":476:485  msg.value */\n      callvalue\n        /* \"contracts/Transaction.sol\":449:461  amountFunded */\n      0x02\n        /* \"contracts/Transaction.sol\":449:473  amountFunded[msg.sender] */\n      0x00\n        /* \"contracts/Transaction.sol\":462:472  msg.sender */\n      caller\n        /* \"contracts/Transaction.sol\":449:473  amountFunded[msg.sender] */\n      0xffffffffffffffffffffffffffffffffffffffff\n      and\n      0xffffffffffffffffffffffffffffffffffffffff\n      and\n      dup2\n      mstore\n      0x20\n      add\n      swap1\n      dup2\n      mstore\n      0x20\n      add\n      0x00\n      keccak256\n        /* \"contracts/Transaction.sol\":449:485  amountFunded[msg.sender] = msg.value */\n      dup2\n      swap1\n      sstore\n      pop\n        /* \"contracts/Transaction.sol\":288:493  function fund() public payable {... */\n      jump\t// out\n        /* \"contracts/Transaction.sol\":234:281  mapping(address => uint256) public amountFunded */\n    tag_29:\n      mstore(0x20, 0x02)\n      dup1\n      0x00\n      mstore\n      keccak256(0x00, 0x40)\n      0x00\n      swap2\n      pop\n      swap1\n      pop\n      sload\n      dup2\n      jump\t// out\n        /* \"contracts/library/PriceConverter.sol\":434:630  function converter(uint256 ethAmount) internal view returns(uint256) {... */\n    tag_65:\n        /* \"contracts/library/PriceConverter.sol\":494:501  uint256 */\n      0x00\n        /* \"contracts/library/PriceConverter.sol\":513:526  uint256 price */\n      dup1\n        /* \"contracts/library/PriceConverter.sol\":529:539  getPrice() */\n      tag_71\n        /* \"contracts/library/PriceConverter.sol\":529:537  getPrice */\n      tag_72\n        /* \"contracts/library/PriceConverter.sol\":529:539  getPrice() */\n      jump\t// in\n    tag_71:\n        /* \"contracts/library/PriceConverter.sol\":513:539  uint256 price = getPrice() */\n      swap1\n      pop\n        /* \"contracts/library/PriceConverter.sol\":549:567  uint256 priceInUSD */\n      0x00\n        /* \"contracts/library/PriceConverter.sol\":592:596  1e18 */\n      0x0de0b6b3a7640000\n        /* \"contracts/library/PriceConverter.sol\":579:588  ethAmount */\n      dup5\n        /* \"contracts/library/PriceConverter.sol\":571:576  price */\n      dup4\n        /* \"contracts/library/PriceConverter.sol\":571:588  price * ethAmount */\n      tag_73\n      swap2\n      swap1\n      tag_74\n      jump\t// in\n    tag_73:\n        /* \"contracts/library/PriceConverter.sol\":570:596  (price * ethAmount) / 1e18 */\n      tag_75\n      swap2\n      swap1\n      tag_76\n      jump\t// in\n    tag_75:\n        /* \"contracts/library/PriceConverter.sol\":549:596  uint256 priceInUSD = (price * ethAmount) / 1e18 */\n      swap1\n      pop\n        /* \"contracts/library/PriceConverter.sol\":613:623  priceInUSD */\n      dup1\n        /* \"contracts/library/PriceConverter.sol\":606:623  return priceInUSD */\n      swap3\n      pop\n      pop\n      pop\n        /* \"contracts/library/PriceConverter.sol\":434:630  function converter(uint256 ethAmount) internal view returns(uint256) {... */\n      swap2\n      swap1\n      pop\n      jump\t// out\n        /* \"contracts/library/PriceConverter.sol\":164:428  function getPrice() internal view returns(uint256) {... */\n    tag_72:\n        /* \"contracts/library/PriceConverter.sol\":206:213  uint256 */\n      0x00\n        /* \"contracts/library/PriceConverter.sol\":225:256  AggregatorV3Interface priceFeed */\n      dup1\n        /* \"contracts/library/PriceConverter.sol\":281:323  0xD4a33860578De61DBAbDc8BFdb98FD742fA7028e */\n      0xd4a33860578de61dbabdc8bfdb98fd742fa7028e\n        /* \"contracts/library/PriceConverter.sol\":225:324  AggregatorV3Interface priceFeed = AggregatorV3Interface(0xD4a33860578De61DBAbDc8BFdb98FD742fA7028e) */\n      swap1\n      pop\n        /* \"contracts/library/PriceConverter.sol\":336:348  int256 price */\n      0x00\n        /* \"contracts/library/PriceConverter.sol\":356:365  priceFeed */\n      dup2\n        /* \"contracts/library/PriceConverter.sol\":356:381  priceFeed.latestRoundData */\n      0xffffffffffffffffffffffffffffffffffffffff\n      and\n      0xfeaf968c\n        /* \"contracts/library/PriceConverter.sol\":356:383  priceFeed.latestRoundData() */\n      mload(0x40)\n      dup2\n      0xffffffff\n      and\n      0xe0\n      shl\n      dup2\n      mstore\n      0x04\n      add\n      0xa0\n      mload(0x40)\n      dup1\n      dup4\n      sub\n      dup2\n      dup7\n      dup1\n      extcodesize\n      iszero\n      dup1\n      iszero\n      tag_78\n      jumpi\n      0x00\n      dup1\n      revert\n    tag_78:\n      pop\n      gas\n      staticcall\n      iszero\n      dup1\n      iszero\n      tag_80\n      jumpi\n      returndatasize\n      0x00\n      dup1\n      returndatacopy\n      revert(0x00, returndatasize)\n    tag_80:\n      pop\n      pop\n      pop\n      pop\n      mload(0x40)\n      returndatasize\n      not(0x1f)\n      0x1f\n      dup3\n      add\n      and\n      dup3\n      add\n      dup1\n      0x40\n      mstore\n      pop\n      dup2\n      add\n      swap1\n      tag_81\n      swap2\n      swap1\n      tag_82\n      jump\t// in\n    tag_81:\n        /* \"contracts/library/PriceConverter.sol\":334:383  (,int256 price,,, ) = priceFeed.latestRoundData() */\n      pop\n      pop\n      pop\n      swap2\n      pop\n      pop\n        /* \"contracts/library/PriceConverter.sol\":416:420  1e10 */\n      0x02540be400\n        /* \"contracts/library/PriceConverter.sol\":408:413  price */\n      dup2\n        /* \"contracts/library/PriceConverter.sol\":408:420  price * 1e10 */\n      tag_83\n      swap2\n      swap1\n      tag_84\n      jump\t// in\n    tag_83:\n        /* \"contracts/library/PriceConverter.sol\":393:421  return uint256(price * 1e10) */\n      swap3\n      pop\n      pop\n      pop\n        /* \"contracts/library/PriceConverter.sol\":164:428  function getPrice() internal view returns(uint256) {... */\n      swap1\n      jump\t// out\n    tag_48:\n      dup3\n      dup1\n      sload\n      dup3\n      dup3\n      sstore\n      swap1\n      0x00\n      mstore\n      keccak256(0x00, 0x20)\n      swap1\n      dup2\n      add\n      swap3\n      dup3\n      iszero\n      tag_85\n      jumpi\n      swap2\n      0x20\n      mul\n      dup3\n      add\n    tag_86:\n      dup3\n      dup2\n      gt\n      iszero\n      tag_87\n      jumpi\n      dup3\n      mload\n      dup3\n      exp(0x0100, 0x00)\n      dup2\n      sload\n      dup2\n      0xffffffffffffffffffffffffffffffffffffffff\n      mul\n      not\n      and\n      swap1\n      dup4\n      0xffffffffffffffffffffffffffffffffffffffff\n      and\n      mul\n      or\n      swap1\n      sstore\n      pop\n      swap2\n      0x20\n      add\n      swap2\n      swap1\n      0x01\n      add\n      swap1\n      jump(tag_86)\n    tag_87:\n    tag_85:\n      pop\n      swap1\n      pop\n      tag_88\n      swap2\n      swap1\n      tag_89\n      jump\t// in\n    tag_88:\n      pop\n      swap1\n      jump\t// out\n    tag_89:\n    tag_90:\n      dup1\n      dup3\n      gt\n      iszero\n      tag_91\n      jumpi\n      0x00\n      dup2\n      0x00\n      swap1\n      sstore\n      pop\n      0x01\n      add\n      jump(tag_90)\n    tag_91:\n      pop\n      swap1\n      jump\t// out\n        /* \"#utility.yul\":88:205   */\n    tag_93:\n        /* \"#utility.yul\":197:198   */\n      0x00\n        /* \"#utility.yul\":194:195   */\n      dup1\n        /* \"#utility.yul\":187:199   */\n      revert\n        /* \"#utility.yul\":334:411   */\n    tag_95:\n        /* \"#utility.yul\":371:378   */\n      0x00\n        /* \"#utility.yul\":400:405   */\n      dup2\n        /* \"#utility.yul\":389:405   */\n      swap1\n      pop\n        /* \"#utility.yul\":334:411   */\n      swap2\n      swap1\n      pop\n      jump\t// out\n        /* \"#utility.yul\":417:539   */\n    tag_96:\n        /* \"#utility.yul\":490:514   */\n      tag_129\n        /* \"#utility.yul\":508:513   */\n      dup2\n        /* \"#utility.yul\":490:514   */\n      tag_95\n      jump\t// in\n    tag_129:\n        /* \"#utility.yul\":483:488   */\n      dup2\n        /* \"#utility.yul\":480:515   */\n      eq\n        /* \"#utility.yul\":470:533   */\n      tag_130\n      jumpi\n        /* \"#utility.yul\":529:530   */\n      0x00\n        /* \"#utility.yul\":526:527   */\n      dup1\n        /* \"#utility.yul\":519:531   */\n      revert\n        /* \"#utility.yul\":470:533   */\n    tag_130:\n        /* \"#utility.yul\":417:539   */\n      pop\n      jump\t// out\n        /* \"#utility.yul\":545:684   */\n    tag_97:\n        /* \"#utility.yul\":591:596   */\n      0x00\n        /* \"#utility.yul\":629:635   */\n      dup2\n        /* \"#utility.yul\":616:636   */\n      calldataload\n        /* \"#utility.yul\":607:636   */\n      swap1\n      pop\n        /* \"#utility.yul\":645:678   */\n      tag_132\n        /* \"#utility.yul\":672:677   */\n      dup2\n        /* \"#utility.yul\":645:678   */\n      tag_96\n      jump\t// in\n    tag_132:\n        /* \"#utility.yul\":545:684   */\n      swap3\n      swap2\n      pop\n      pop\n      jump\t// out\n        /* \"#utility.yul\":690:1019   */\n    tag_10:\n        /* \"#utility.yul\":749:755   */\n      0x00\n        /* \"#utility.yul\":798:800   */\n      0x20\n        /* \"#utility.yul\":786:795   */\n      dup3\n        /* \"#utility.yul\":777:784   */\n      dup5\n        /* \"#utility.yul\":773:796   */\n      sub\n        /* \"#utility.yul\":769:801   */\n      slt\n        /* \"#utility.yul\":766:885   */\n      iszero\n      tag_134\n      jumpi\n        /* \"#utility.yul\":804:883   */\n      tag_135\n      tag_93\n      jump\t// in\n    tag_135:\n        /* \"#utility.yul\":766:885   */\n    tag_134:\n        /* \"#utility.yul\":924:925   */\n      0x00\n        /* \"#utility.yul\":949:1002   */\n      tag_136\n        /* \"#utility.yul\":994:1001   */\n      dup5\n        /* \"#utility.yul\":985:991   */\n      dup3\n        /* \"#utility.yul\":974:983   */\n      dup6\n        /* \"#utility.yul\":970:992   */\n      add\n        /* \"#utility.yul\":949:1002   */\n      tag_97\n      jump\t// in\n    tag_136:\n        /* \"#utility.yul\":939:1002   */\n      swap2\n      pop\n        /* \"#utility.yul\":895:1012   */\n      pop\n        /* \"#utility.yul\":690:1019   */\n      swap3\n      swap2\n      pop\n      pop\n      jump\t// out\n        /* \"#utility.yul\":1025:1151   */\n    tag_98:\n        /* \"#utility.yul\":1062:1069   */\n      0x00\n        /* \"#utility.yul\":1102:1144   */\n      0xffffffffffffffffffffffffffffffffffffffff\n        /* \"#utility.yul\":1095:1100   */\n      dup3\n        /* \"#utility.yul\":1091:1145   */\n      and\n        /* \"#utility.yul\":1080:1145   */\n      swap1\n      pop\n        /* \"#utility.yul\":1025:1151   */\n      swap2\n      swap1\n      pop\n      jump\t// out\n        /* \"#utility.yul\":1157:1253   */\n    tag_99:\n        /* \"#utility.yul\":1194:1201   */\n      0x00\n        /* \"#utility.yul\":1223:1247   */\n      tag_139\n        /* \"#utility.yul\":1241:1246   */\n      dup3\n        /* \"#utility.yul\":1223:1247   */\n      tag_98\n      jump\t// in\n    tag_139:\n        /* \"#utility.yul\":1212:1247   */\n      swap1\n      pop\n        /* \"#utility.yul\":1157:1253   */\n      swap2\n      swap1\n      pop\n      jump\t// out\n        /* \"#utility.yul\":1259:1377   */\n    tag_100:\n        /* \"#utility.yul\":1346:1370   */\n      tag_141\n        /* \"#utility.yul\":1364:1369   */\n      dup2\n        /* \"#utility.yul\":1346:1370   */\n      tag_99\n      jump\t// in\n    tag_141:\n        /* \"#utility.yul\":1341:1344   */\n      dup3\n        /* \"#utility.yul\":1334:1371   */\n      mstore\n        /* \"#utility.yul\":1259:1377   */\n      pop\n      pop\n      jump\t// out\n        /* \"#utility.yul\":1383:1605   */\n    tag_13:\n        /* \"#utility.yul\":1476:1480   */\n      0x00\n        /* \"#utility.yul\":1514:1516   */\n      0x20\n        /* \"#utility.yul\":1503:1512   */\n      dup3\n        /* \"#utility.yul\":1499:1517   */\n      add\n        /* \"#utility.yul\":1491:1517   */\n      swap1\n      pop\n        /* \"#utility.yul\":1527:1598   */\n      tag_143\n        /* \"#utility.yul\":1595:1596   */\n      0x00\n        /* \"#utility.yul\":1584:1593   */\n      dup4\n        /* \"#utility.yul\":1580:1597   */\n      add\n        /* \"#utility.yul\":1571:1577   */\n      dup5\n        /* \"#utility.yul\":1527:1598   */\n      tag_100\n      jump\t// in\n    tag_143:\n        /* \"#utility.yul\":1383:1605   */\n      swap3\n      swap2\n      pop\n      pop\n      jump\t// out\n        /* \"#utility.yul\":1611:1729   */\n    tag_101:\n        /* \"#utility.yul\":1698:1722   */\n      tag_145\n        /* \"#utility.yul\":1716:1721   */\n      dup2\n        /* \"#utility.yul\":1698:1722   */\n      tag_95\n      jump\t// in\n    tag_145:\n        /* \"#utility.yul\":1693:1696   */\n      dup3\n        /* \"#utility.yul\":1686:1723   */\n      mstore\n        /* \"#utility.yul\":1611:1729   */\n      pop\n      pop\n      jump\t// out\n        /* \"#utility.yul\":1735:1957   */\n    tag_22:\n        /* \"#utility.yul\":1828:1832   */\n      0x00\n        /* \"#utility.yul\":1866:1868   */\n      0x20\n        /* \"#utility.yul\":1855:1864   */\n      dup3\n        /* \"#utility.yul\":1851:1869   */\n      add\n        /* \"#utility.yul\":1843:1869   */\n      swap1\n      pop\n        /* \"#utility.yul\":1879:1950   */\n      tag_147\n        /* \"#utility.yul\":1947:1948   */\n      0x00\n        /* \"#utility.yul\":1936:1945   */\n      dup4\n        /* \"#utility.yul\":1932:1949   */\n      add\n        /* \"#utility.yul\":1923:1929   */\n      dup5\n        /* \"#utility.yul\":1879:1950   */\n      tag_101\n      jump\t// in\n    tag_147:\n        /* \"#utility.yul\":1735:1957   */\n      swap3\n      swap2\n      pop\n      pop\n      jump\t// out\n        /* \"#utility.yul\":1963:2085   */\n    tag_102:\n        /* \"#utility.yul\":2036:2060   */\n      tag_149\n        /* \"#utility.yul\":2054:2059   */\n      dup2\n        /* \"#utility.yul\":2036:2060   */\n      tag_99\n      jump\t// in\n    tag_149:\n        /* \"#utility.yul\":2029:2034   */\n      dup2\n        /* \"#utility.yul\":2026:2061   */\n      eq\n        /* \"#utility.yul\":2016:2079   */\n      tag_150\n      jumpi\n        /* \"#utility.yul\":2075:2076   */\n      0x00\n        /* \"#utility.yul\":2072:2073   */\n      dup1\n        /* \"#utility.yul\":2065:2077   */\n      revert\n        /* \"#utility.yul\":2016:2079   */\n    tag_150:\n        /* \"#utility.yul\":1963:2085   */\n      pop\n      jump\t// out\n        /* \"#utility.yul\":2091:2230   */\n    tag_103:\n        /* \"#utility.yul\":2137:2142   */\n      0x00\n        /* \"#utility.yul\":2175:2181   */\n      dup2\n        /* \"#utility.yul\":2162:2182   */\n      calldataload\n        /* \"#utility.yul\":2153:2182   */\n      swap1\n      pop\n        /* \"#utility.yul\":2191:2224   */\n      tag_152\n        /* \"#utility.yul\":2218:2223   */\n      dup2\n        /* \"#utility.yul\":2191:2224   */\n      tag_102\n      jump\t// in\n    tag_152:\n        /* \"#utility.yul\":2091:2230   */\n      swap3\n      swap2\n      pop\n      pop\n      jump\t// out\n        /* \"#utility.yul\":2236:2565   */\n    tag_28:\n        /* \"#utility.yul\":2295:2301   */\n      0x00\n        /* \"#utility.yul\":2344:2346   */\n      0x20\n        /* \"#utility.yul\":2332:2341   */\n      dup3\n        /* \"#utility.yul\":2323:2330   */\n      dup5\n        /* \"#utility.yul\":2319:2342   */\n      sub\n        /* \"#utility.yul\":2315:2347   */\n      slt\n        /* \"#utility.yul\":2312:2431   */\n      iszero\n      tag_154\n      jumpi\n        /* \"#utility.yul\":2350:2429   */\n      tag_155\n      tag_93\n      jump\t// in\n    tag_155:\n        /* \"#utility.yul\":2312:2431   */\n    tag_154:\n        /* \"#utility.yul\":2470:2471   */\n      0x00\n        /* \"#utility.yul\":2495:2548   */\n      tag_156\n        /* \"#utility.yul\":2540:2547   */\n      dup5\n        /* \"#utility.yul\":2531:2537   */\n      dup3\n        /* \"#utility.yul\":2520:2529   */\n      dup6\n        /* \"#utility.yul\":2516:2538   */\n      add\n        /* \"#utility.yul\":2495:2548   */\n      tag_103\n      jump\t// in\n    tag_156:\n        /* \"#utility.yul\":2485:2548   */\n      swap2\n      pop\n        /* \"#utility.yul\":2441:2558   */\n      pop\n        /* \"#utility.yul\":2236:2565   */\n      swap3\n      swap2\n      pop\n      pop\n      jump\t// out\n        /* \"#utility.yul\":2571:2751   */\n    tag_39:\n        /* \"#utility.yul\":2619:2696   */\n      0x4e487b7100000000000000000000000000000000000000000000000000000000\n        /* \"#utility.yul\":2616:2617   */\n      0x00\n        /* \"#utility.yul\":2609:2697   */\n      mstore\n        /* \"#utility.yul\":2716:2720   */\n      0x32\n        /* \"#utility.yul\":2713:2714   */\n      0x04\n        /* \"#utility.yul\":2706:2721   */\n      mstore\n        /* \"#utility.yul\":2740:2744   */\n      0x24\n        /* \"#utility.yul\":2737:2738   */\n      0x00\n        /* \"#utility.yul\":2730:2745   */\n      revert\n        /* \"#utility.yul\":2757:2937   */\n    tag_104:\n        /* \"#utility.yul\":2805:2882   */\n      0x4e487b7100000000000000000000000000000000000000000000000000000000\n        /* \"#utility.yul\":2802:2803   */\n      0x00\n        /* \"#utility.yul\":2795:2883   */\n      mstore\n        /* \"#utility.yul\":2902:2906   */\n      0x11\n        /* \"#utility.yul\":2899:2900   */\n      0x04\n        /* \"#utility.yul\":2892:2907   */\n      mstore\n        /* \"#utility.yul\":2926:2930   */\n      0x24\n        /* \"#utility.yul\":2923:2924   */\n      0x00\n        /* \"#utility.yul\":2916:2931   */\n      revert\n        /* \"#utility.yul\":2943:3176   */\n    tag_42:\n        /* \"#utility.yul\":2982:2985   */\n      0x00\n        /* \"#utility.yul\":3005:3029   */\n      tag_160\n        /* \"#utility.yul\":3023:3028   */\n      dup3\n        /* \"#utility.yul\":3005:3029   */\n      tag_95\n      jump\t// in\n    tag_160:\n        /* \"#utility.yul\":2996:3029   */\n      swap2\n      pop\n        /* \"#utility.yul\":3051:3117   */\n      0xffffffffffffffffffffffffffffffffffffffffffffffffffffffffffffffff\n        /* \"#utility.yul\":3044:3049   */\n      dup3\n        /* \"#utility.yul\":3041:3118   */\n      eq\n        /* \"#utility.yul\":3038:3141   */\n      iszero\n      tag_161\n      jumpi\n        /* \"#utility.yul\":3121:3139   */\n      tag_162\n      tag_104\n      jump\t// in\n    tag_162:\n        /* \"#utility.yul\":3038:3141   */\n    tag_161:\n        /* \"#utility.yul\":3168:3169   */\n      0x01\n        /* \"#utility.yul\":3161:3166   */\n      dup3\n        /* \"#utility.yul\":3157:3170   */\n      add\n        /* \"#utility.yul\":3150:3170   */\n      swap1\n      pop\n        /* \"#utility.yul\":2943:3176   */\n      swap2\n      swap1\n      pop\n      jump\t// out\n        /* \"#utility.yul\":3182:3362   */\n    tag_45:\n        /* \"#utility.yul\":3230:3307   */\n      0x4e487b7100000000000000000000000000000000000000000000000000000000\n        /* \"#utility.yul\":3227:3228   */\n      0x00\n        /* \"#utility.yul\":3220:3308   */\n      mstore\n        /* \"#utility.yul\":3327:3331   */\n      0x41\n        /* \"#utility.yul\":3324:3325   */\n      0x04\n        /* \"#utility.yul\":3317:3332   */\n      mstore\n        /* \"#utility.yul\":3351:3355   */\n      0x24\n        /* \"#utility.yul\":3348:3349   */\n      0x00\n        /* \"#utility.yul\":3341:3356   */\n      revert\n        /* \"#utility.yul\":3368:3537   */\n    tag_105:\n        /* \"#utility.yul\":3452:3463   */\n      0x00\n        /* \"#utility.yul\":3486:3492   */\n      dup3\n        /* \"#utility.yul\":3481:3484   */\n      dup3\n        /* \"#utility.yul\":3474:3493   */\n      mstore\n        /* \"#utility.yul\":3526:3530   */\n      0x20\n        /* \"#utility.yul\":3521:3524   */\n      dup3\n        /* \"#utility.yul\":3517:3531   */\n      add\n        /* \"#utility.yul\":3502:3531   */\n      swap1\n      pop\n        /* \"#utility.yul\":3368:3537   */\n      swap3\n      swap2\n      pop\n      pop\n      jump\t// out\n        /* \"#utility.yul\":3543:3718   */\n    tag_106:\n        /* \"#utility.yul\":3683:3710   */\n      0x416d6f756e742063616e206e6f7420626520776974686f757400000000000000\n        /* \"#utility.yul\":3679:3680   */\n      0x00\n        /* \"#utility.yul\":3671:3677   */\n      dup3\n        /* \"#utility.yul\":3667:3681   */\n      add\n        /* \"#utility.yul\":3660:3711   */\n      mstore\n        /* \"#utility.yul\":3543:3718   */\n      pop\n      jump\t// out\n        /* \"#utility.yul\":3724:4090   */\n    tag_107:\n        /* \"#utility.yul\":3866:3869   */\n      0x00\n        /* \"#utility.yul\":3887:3954   */\n      tag_167\n        /* \"#utility.yul\":3951:3953   */\n      0x19\n        /* \"#utility.yul\":3946:3949   */\n      dup4\n        /* \"#utility.yul\":3887:3954   */\n      tag_105\n      jump\t// in\n    tag_167:\n        /* \"#utility.yul\":3880:3954   */\n      swap2\n      pop\n        /* \"#utility.yul\":3963:4056   */\n      tag_168\n        /* \"#utility.yul\":4052:4055   */\n      dup3\n        /* \"#utility.yul\":3963:4056   */\n      tag_106\n      jump\t// in\n    tag_168:\n        /* \"#utility.yul\":4081:4083   */\n      0x20\n        /* \"#utility.yul\":4076:4079   */\n      dup3\n        /* \"#utility.yul\":4072:4084   */\n      add\n        /* \"#utility.yul\":4065:4084   */\n      swap1\n      pop\n        /* \"#utility.yul\":3724:4090   */\n      swap2\n      swap1\n      pop\n      jump\t// out\n        /* \"#utility.yul\":4096:4515   */\n    tag_54:\n        /* \"#utility.yul\":4262:4266   */\n      0x00\n        /* \"#utility.yul\":4300:4302   */\n      0x20\n        /* \"#utility.yul\":4289:4298   */\n      dup3\n        /* \"#utility.yul\":4285:4303   */\n      add\n        /* \"#utility.yul\":4277:4303   */\n      swap1\n      pop\n        /* \"#utility.yul\":4349:4358   */\n      dup2\n        /* \"#utility.yul\":4343:4347   */\n      dup2\n        /* \"#utility.yul\":4339:4359   */\n      sub\n        /* \"#utility.yul\":4335:4336   */\n      0x00\n        /* \"#utility.yul\":4324:4333   */\n      dup4\n        /* \"#utility.yul\":4320:4337   */\n      add\n        /* \"#utility.yul\":4313:4360   */\n      mstore\n        /* \"#utility.yul\":4377:4508   */\n      tag_170\n        /* \"#utility.yul\":4503:4507   */\n      dup2\n        /* \"#utility.yul\":4377:4508   */\n      tag_107\n      jump\t// in\n    tag_170:\n        /* \"#utility.yul\":4369:4508   */\n      swap1\n      pop\n        /* \"#utility.yul\":4096:4515   */\n      swap2\n      swap1\n      pop\n      jump\t// out\n        /* \"#utility.yul\":4521:4668   */\n    tag_108:\n        /* \"#utility.yul\":4622:4633   */\n      0x00\n        /* \"#utility.yul\":4659:4662   */\n      dup2\n        /* \"#utility.yul\":4644:4662   */\n      swap1\n      pop\n        /* \"#utility.yul\":4521:4668   */\n      swap3\n      swap2\n      pop\n      pop\n      jump\t// out\n        /* \"#utility.yul\":4674:4788   */\n    tag_109:\n      pop\n      jump\t// out\n        /* \"#utility.yul\":4794:5192   */\n    tag_110:\n        /* \"#utility.yul\":4953:4956   */\n      0x00\n        /* \"#utility.yul\":4974:5057   */\n      tag_174\n        /* \"#utility.yul\":5055:5056   */\n      0x00\n        /* \"#utility.yul\":5050:5053   */\n      dup4\n        /* \"#utility.yul\":4974:5057   */\n      tag_108\n      jump\t// in\n    tag_174:\n        /* \"#utility.yul\":4967:5057   */\n      swap2\n      pop\n        /* \"#utility.yul\":5066:5159   */\n      tag_175\n        /* \"#utility.yul\":5155:5158   */\n      dup3\n        /* \"#utility.yul\":5066:5159   */\n      tag_109\n      jump\t// in\n    tag_175:\n        /* \"#utility.yul\":5184:5185   */\n      0x00\n        /* \"#utility.yul\":5179:5182   */\n      dup3\n        /* \"#utility.yul\":5175:5186   */\n      add\n        /* \"#utility.yul\":5168:5186   */\n      swap1\n      pop\n        /* \"#utility.yul\":4794:5192   */\n      swap2\n      swap1\n      pop\n      jump\t// out\n        /* \"#utility.yul\":5198:5577   */\n    tag_56:\n        /* \"#utility.yul\":5382:5385   */\n      0x00\n        /* \"#utility.yul\":5404:5551   */\n      tag_177\n        /* \"#utility.yul\":5547:5550   */\n      dup3\n        /* \"#utility.yul\":5404:5551   */\n      tag_110\n      jump\t// in\n    tag_177:\n        /* \"#utility.yul\":5397:5551   */\n      swap2\n      pop\n        /* \"#utility.yul\":5568:5571   */\n      dup2\n        /* \"#utility.yul\":5561:5571   */\n      swap1\n      pop\n        /* \"#utility.yul\":5198:5577   */\n      swap2\n      swap1\n      pop\n      jump\t// out\n        /* \"#utility.yul\":5583:5746   */\n    tag_111:\n        /* \"#utility.yul\":5723:5738   */\n      0x52657669657720616d6f756e7400000000000000000000000000000000000000\n        /* \"#utility.yul\":5719:5720   */\n      0x00\n        /* \"#utility.yul\":5711:5717   */\n      dup3\n        /* \"#utility.yul\":5707:5721   */\n      add\n        /* \"#utility.yul\":5700:5739   */\n      mstore\n        /* \"#utility.yul\":5583:5746   */\n      pop\n      jump\t// out\n        /* \"#utility.yul\":5752:6118   */\n    tag_112:\n        /* \"#utility.yul\":5894:5897   */\n      0x00\n        /* \"#utility.yul\":5915:5982   */\n      tag_180\n        /* \"#utility.yul\":5979:5981   */\n      0x0d\n        /* \"#utility.yul\":5974:5977   */\n      dup4\n        /* \"#utility.yul\":5915:5982   */\n      tag_105\n      jump\t// in\n    tag_180:\n        /* \"#utility.yul\":5908:5982   */\n      swap2\n      pop\n        /* \"#utility.yul\":5991:6084   */\n      tag_181\n        /* \"#utility.yul\":6080:6083   */\n      dup3\n        /* \"#utility.yul\":5991:6084   */\n      tag_111\n      jump\t// in\n    tag_181:\n        /* \"#utility.yul\":6109:6111   */\n      0x20\n        /* \"#utility.yul\":6104:6107   */\n      dup3\n        /* \"#utility.yul\":6100:6112   */\n      add\n        /* \"#utility.yul\":6093:6112   */\n      swap1\n      pop\n        /* \"#utility.yul\":5752:6118   */\n      swap2\n      swap1\n      pop\n      jump\t// out\n        /* \"#utility.yul\":6124:6543   */\n    tag_62:\n        /* \"#utility.yul\":6290:6294   */\n      0x00\n        /* \"#utility.yul\":6328:6330   */\n      0x20\n        /* \"#utility.yul\":6317:6326   */\n      dup3\n        /* \"#utility.yul\":6313:6331   */\n      add\n        /* \"#utility.yul\":6305:6331   */\n      swap1\n      pop\n        /* \"#utility.yul\":6377:6386   */\n      dup2\n        /* \"#utility.yul\":6371:6375   */\n      dup2\n        /* \"#utility.yul\":6367:6387   */\n      sub\n        /* \"#utility.yul\":6363:6364   */\n      0x00\n        /* \"#utility.yul\":6352:6361   */\n      dup4\n        /* \"#utility.yul\":6348:6365   */\n      add\n        /* \"#utility.yul\":6341:6388   */\n      mstore\n        /* \"#utility.yul\":6405:6536   */\n      tag_183\n        /* \"#utility.yul\":6531:6535   */\n      dup2\n        /* \"#utility.yul\":6405:6536   */\n      tag_112\n      jump\t// in\n    tag_183:\n        /* \"#utility.yul\":6397:6536   */\n      swap1\n      pop\n        /* \"#utility.yul\":6124:6543   */\n      swap2\n      swap1\n      pop\n      jump\t// out\n        /* \"#utility.yul\":6549:6728   */\n    tag_113:\n        /* \"#utility.yul\":6689:6720   */\n      0x416d6f756e74206d7573742062652067726561746572207468616e2031000000\n        /* \"#utility.yul\":6685:6686   */\n      0x00\n        /* \"#utility.yul\":6677:6683   */\n      dup3\n        /* \"#utility.yul\":6673:6687   */\n      add\n        /* \"#utility.yul\":6666:6721   */\n      mstore\n        /* \"#utility.yul\":6549:6728   */\n      pop\n      jump\t// out\n        /* \"#utility.yul\":6734:7100   */\n    tag_114:\n        /* \"#utility.yul\":6876:6879   */\n      0x00\n        /* \"#utility.yul\":6897:6964   */\n      tag_186\n        /* \"#utility.yul\":6961:6963   */\n      0x1d\n        /* \"#utility.yul\":6956:6959   */\n      dup4\n        /* \"#utility.yul\":6897:6964   */\n      tag_105\n      jump\t// in\n    tag_186:\n        /* \"#utility.yul\":6890:6964   */\n      swap2\n      pop\n        /* \"#utility.yul\":6973:7066   */\n      tag_187\n        /* \"#utility.yul\":7062:7065   */\n      dup3\n        /* \"#utility.yul\":6973:7066   */\n      tag_113\n      jump\t// in\n    tag_187:\n        /* \"#utility.yul\":7091:7093   */\n      0x20\n        /* \"#utility.yul\":7086:7089   */\n      dup3\n        /* \"#utility.yul\":7082:7094   */\n      add\n        /* \"#utility.yul\":7075:7094   */\n      swap1\n      pop\n        /* \"#utility.yul\":6734:7100   */\n      swap2\n      swap1\n      pop\n      jump\t// out\n        /* \"#utility.yul\":7106:7525   */\n    tag_68:\n        /* \"#utility.yul\":7272:7276   */\n      0x00\n        /* \"#utility.yul\":7310:7312   */\n      0x20\n        /* \"#utility.yul\":7299:7308   */\n      dup3\n        /* \"#utility.yul\":7295:7313   */\n      add\n        /* \"#utility.yul\":7287:7313   */\n      swap1\n      pop\n        /* \"#utility.yul\":7359:7368   */\n      dup2\n        /* \"#utility.yul\":7353:7357   */\n      dup2\n        /* \"#utility.yul\":7349:7369   */\n      sub\n        /* \"#utility.yul\":7345:7346   */\n      0x00\n        /* \"#utility.yul\":7334:7343   */\n      dup4\n        /* \"#utility.yul\":7330:7347   */\n      add\n        /* \"#utility.yul\":7323:7370   */\n      mstore\n        /* \"#utility.yul\":7387:7518   */\n      tag_189\n        /* \"#utility.yul\":7513:7517   */\n      dup2\n        /* \"#utility.yul\":7387:7518   */\n      tag_114\n      jump\t// in\n    tag_189:\n        /* \"#utility.yul\":7379:7518   */\n      swap1\n      pop\n        /* \"#utility.yul\":7106:7525   */\n      swap2\n      swap1\n      pop\n      jump\t// out\n        /* \"#utility.yul\":7531:7879   */\n    tag_74:\n        /* \"#utility.yul\":7571:7578   */\n      0x00\n        /* \"#utility.yul\":7594:7614   */\n      tag_191\n        /* \"#utility.yul\":7612:7613   */\n      dup3\n        /* \"#utility.yul\":7594:7614   */\n      tag_95\n      jump\t// in\n    tag_191:\n        /* \"#utility.yul\":7589:7614   */\n      swap2\n      pop\n        /* \"#utility.yul\":7628:7648   */\n      tag_192\n        /* \"#utility.yul\":7646:7647   */\n      dup4\n        /* \"#utility.yul\":7628:7648   */\n      tag_95\n      jump\t// in\n    tag_192:\n        /* \"#utility.yul\":7623:7648   */\n      swap3\n      pop\n        /* \"#utility.yul\":7816:7817   */\n      dup2\n        /* \"#utility.yul\":7748:7814   */\n      0xffffffffffffffffffffffffffffffffffffffffffffffffffffffffffffffff\n        /* \"#utility.yul\":7744:7818   */\n      div\n        /* \"#utility.yul\":7741:7742   */\n      dup4\n        /* \"#utility.yul\":7738:7819   */\n      gt\n        /* \"#utility.yul\":7733:7734   */\n      dup3\n        /* \"#utility.yul\":7726:7735   */\n      iszero\n        /* \"#utility.yul\":7719:7736   */\n      iszero\n        /* \"#utility.yul\":7715:7820   */\n      and\n        /* \"#utility.yul\":7712:7843   */\n      iszero\n      tag_193\n      jumpi\n        /* \"#utility.yul\":7823:7841   */\n      tag_194\n      tag_104\n      jump\t// in\n    tag_194:\n        /* \"#utility.yul\":7712:7843   */\n    tag_193:\n        /* \"#utility.yul\":7871:7872   */\n      dup3\n        /* \"#utility.yul\":7868:7869   */\n      dup3\n        /* \"#utility.yul\":7864:7873   */\n      mul\n        /* \"#utility.yul\":7853:7873   */\n      swap1\n      pop\n        /* \"#utility.yul\":7531:7879   */\n      swap3\n      swap2\n      pop\n      pop\n      jump\t// out\n        /* \"#utility.yul\":7885:8065   */\n    tag_115:\n        /* \"#utility.yul\":7933:8010   */\n      0x4e487b7100000000000000000000000000000000000000000000000000000000\n        /* \"#utility.yul\":7930:7931   */\n      0x00\n        /* \"#utility.yul\":7923:8011   */\n      mstore\n        /* \"#utility.yul\":8030:8034   */\n      0x12\n        /* \"#utility.yul\":8027:8028   */\n      0x04\n        /* \"#utility.yul\":8020:8035   */\n      mstore\n        /* \"#utility.yul\":8054:8058   */\n      0x24\n        /* \"#utility.yul\":8051:8052   */\n      0x00\n        /* \"#utility.yul\":8044:8059   */\n      revert\n        /* \"#utility.yul\":8071:8256   */\n    tag_76:\n        /* \"#utility.yul\":8111:8112   */\n      0x00\n        /* \"#utility.yul\":8128:8148   */\n      tag_197\n        /* \"#utility.yul\":8146:8147   */\n      dup3\n        /* \"#utility.yul\":8128:8148   */\n      tag_95\n      jump\t// in\n    tag_197:\n        /* \"#utility.yul\":8123:8148   */\n      swap2\n      pop\n        /* \"#utility.yul\":8162:8182   */\n      tag_198\n        /* \"#utility.yul\":8180:8181   */\n      dup4\n        /* \"#utility.yul\":8162:8182   */\n      tag_95\n      jump\t// in\n    tag_198:\n        /* \"#utility.yul\":8157:8182   */\n      swap3\n      pop\n        /* \"#utility.yul\":8201:8202   */\n      dup3\n        /* \"#utility.yul\":8191:8226   */\n      tag_199\n      jumpi\n        /* \"#utility.yul\":8206:8224   */\n      tag_200\n      tag_115\n      jump\t// in\n    tag_200:\n        /* \"#utility.yul\":8191:8226   */\n    tag_199:\n        /* \"#utility.yul\":8248:8249   */\n      dup3\n        /* \"#utility.yul\":8245:8246   */\n      dup3\n        /* \"#utility.yul\":8241:8250   */\n      div\n        /* \"#utility.yul\":8236:8250   */\n      swap1\n      pop\n        /* \"#utility.yul\":8071:8256   */\n      swap3\n      swap2\n      pop\n      pop\n      jump\t// out\n        /* \"#utility.yul\":8262:8367   */\n    tag_116:\n        /* \"#utility.yul\":8298:8305   */\n      0x00\n        /* \"#utility.yul\":8338:8360   */\n      0xffffffffffffffffffff\n        /* \"#utility.yul\":8331:8336   */\n      dup3\n        /* \"#utility.yul\":8327:8361   */\n      and\n        /* \"#utility.yul\":8316:8361   */\n      swap1\n      pop\n        /* \"#utility.yul\":8262:8367   */\n      swap2\n      swap1\n      pop\n      jump\t// out\n        /* \"#utility.yul\":8373:8493   */\n    tag_117:\n        /* \"#utility.yul\":8445:8468   */\n      tag_203\n        /* \"#utility.yul\":8462:8467   */\n      dup2\n        /* \"#utility.yul\":8445:8468   */\n      tag_116\n      jump\t// in\n    tag_203:\n        /* \"#utility.yul\":8438:8443   */\n      dup2\n        /* \"#utility.yul\":8435:8469   */\n      eq\n        /* \"#utility.yul\":8425:8487   */\n      tag_204\n      jumpi\n        /* \"#utility.yul\":8483:8484   */\n      0x00\n        /* \"#utility.yul\":8480:8481   */\n      dup1\n        /* \"#utility.yul\":8473:8485   */\n      revert\n        /* \"#utility.yul\":8425:8487   */\n    tag_204:\n        /* \"#utility.yul\":8373:8493   */\n      pop\n      jump\t// out\n        /* \"#utility.yul\":8499:8640   */\n    tag_118:\n        /* \"#utility.yul\":8555:8560   */\n      0x00\n        /* \"#utility.yul\":8586:8592   */\n      dup2\n        /* \"#utility.yul\":8580:8593   */\n      mload\n        /* \"#utility.yul\":8571:8593   */\n      swap1\n      pop\n        /* \"#utility.yul\":8602:8634   */\n      tag_206\n        /* \"#utility.yul\":8628:8633   */\n      dup2\n        /* \"#utility.yul\":8602:8634   */\n      tag_117\n      jump\t// in\n    tag_206:\n        /* \"#utility.yul\":8499:8640   */\n      swap3\n      swap2\n      pop\n      pop\n      jump\t// out\n        /* \"#utility.yul\":8646:8722   */\n    tag_119:\n        /* \"#utility.yul\":8682:8689   */\n      0x00\n        /* \"#utility.yul\":8711:8716   */\n      dup2\n        /* \"#utility.yul\":8700:8716   */\n      swap1\n      pop\n        /* \"#utility.yul\":8646:8722   */\n      swap2\n      swap1\n      pop\n      jump\t// out\n        /* \"#utility.yul\":8728:8848   */\n    tag_120:\n        /* \"#utility.yul\":8800:8823   */\n      tag_209\n        /* \"#utility.yul\":8817:8822   */\n      dup2\n        /* \"#utility.yul\":8800:8823   */\n      tag_119\n      jump\t// in\n    tag_209:\n        /* \"#utility.yul\":8793:8798   */\n      dup2\n        /* \"#utility.yul\":8790:8824   */\n      eq\n        /* \"#utility.yul\":8780:8842   */\n      tag_210\n      jumpi\n        /* \"#utility.yul\":8838:8839   */\n      0x00\n        /* \"#utility.yul\":8835:8836   */\n      dup1\n        /* \"#utility.yul\":8828:8840   */\n      revert\n        /* \"#utility.yul\":8780:8842   */\n    tag_210:\n        /* \"#utility.yul\":8728:8848   */\n      pop\n      jump\t// out\n        /* \"#utility.yul\":8854:8995   */\n    tag_121:\n        /* \"#utility.yul\":8910:8915   */\n      0x00\n        /* \"#utility.yul\":8941:8947   */\n      dup2\n        /* \"#utility.yul\":8935:8948   */\n      mload\n        /* \"#utility.yul\":8926:8948   */\n      swap1\n      pop\n        /* \"#utility.yul\":8957:8989   */\n      tag_212\n        /* \"#utility.yul\":8983:8988   */\n      dup2\n        /* \"#utility.yul\":8957:8989   */\n      tag_120\n      jump\t// in\n    tag_212:\n        /* \"#utility.yul\":8854:8995   */\n      swap3\n      swap2\n      pop\n      pop\n      jump\t// out\n        /* \"#utility.yul\":9001:9144   */\n    tag_122:\n        /* \"#utility.yul\":9058:9063   */\n      0x00\n        /* \"#utility.yul\":9089:9095   */\n      dup2\n        /* \"#utility.yul\":9083:9096   */\n      mload\n        /* \"#utility.yul\":9074:9096   */\n      swap1\n      pop\n        /* \"#utility.yul\":9105:9138   */\n      tag_214\n        /* \"#utility.yul\":9132:9137   */\n      dup2\n        /* \"#utility.yul\":9105:9138   */\n      tag_96\n      jump\t// in\n    tag_214:\n        /* \"#utility.yul\":9001:9144   */\n      swap3\n      swap2\n      pop\n      pop\n      jump\t// out\n        /* \"#utility.yul\":9150:10121   */\n    tag_82:\n        /* \"#utility.yul\":9253:9259   */\n      0x00\n        /* \"#utility.yul\":9261:9267   */\n      dup1\n        /* \"#utility.yul\":9269:9275   */\n      0x00\n        /* \"#utility.yul\":9277:9283   */\n      dup1\n        /* \"#utility.yul\":9285:9291   */\n      0x00\n        /* \"#utility.yul\":9334:9337   */\n      0xa0\n        /* \"#utility.yul\":9322:9331   */\n      dup7\n        /* \"#utility.yul\":9313:9320   */\n      dup9\n        /* \"#utility.yul\":9309:9332   */\n      sub\n        /* \"#utility.yul\":9305:9338   */\n      slt\n        /* \"#utility.yul\":9302:9422   */\n      iszero\n      tag_216\n      jumpi\n        /* \"#utility.yul\":9341:9420   */\n      tag_217\n      tag_93\n      jump\t// in\n    tag_217:\n        /* \"#utility.yul\":9302:9422   */\n    tag_216:\n        /* \"#utility.yul\":9461:9462   */\n      0x00\n        /* \"#utility.yul\":9486:9549   */\n      tag_218\n        /* \"#utility.yul\":9541:9548   */\n      dup9\n        /* \"#utility.yul\":9532:9538   */\n      dup3\n        /* \"#utility.yul\":9521:9530   */\n      dup10\n        /* \"#utility.yul\":9517:9539   */\n      add\n        /* \"#utility.yul\":9486:9549   */\n      tag_118\n      jump\t// in\n    tag_218:\n        /* \"#utility.yul\":9476:9549   */\n      swap6\n      pop\n        /* \"#utility.yul\":9432:9559   */\n      pop\n        /* \"#utility.yul\":9598:9600   */\n      0x20\n        /* \"#utility.yul\":9624:9687   */\n      tag_219\n        /* \"#utility.yul\":9679:9686   */\n      dup9\n        /* \"#utility.yul\":9670:9676   */\n      dup3\n        /* \"#utility.yul\":9659:9668   */\n      dup10\n        /* \"#utility.yul\":9655:9677   */\n      add\n        /* \"#utility.yul\":9624:9687   */\n      tag_121\n      jump\t// in\n    tag_219:\n        /* \"#utility.yul\":9614:9687   */\n      swap5\n      pop\n        /* \"#utility.yul\":9569:9697   */\n      pop\n        /* \"#utility.yul\":9736:9738   */\n      0x40\n        /* \"#utility.yul\":9762:9826   */\n      tag_220\n        /* \"#utility.yul\":9818:9825   */\n      dup9\n        /* \"#utility.yul\":9809:9815   */\n      dup3\n        /* \"#utility.yul\":9798:9807   */\n      dup10\n        /* \"#utility.yul\":9794:9816   */\n      add\n        /* \"#utility.yul\":9762:9826   */\n      tag_122\n      jump\t// in\n    tag_220:\n        /* \"#utility.yul\":9752:9826   */\n      swap4\n      pop\n        /* \"#utility.yul\":9707:9836   */\n      pop\n        /* \"#utility.yul\":9875:9877   */\n      0x60\n        /* \"#utility.yul\":9901:9965   */\n      tag_221\n        /* \"#utility.yul\":9957:9964   */\n      dup9\n        /* \"#utility.yul\":9948:9954   */\n      dup3\n        /* \"#utility.yul\":9937:9946   */\n      dup10\n        /* \"#utility.yul\":9933:9955   */\n      add\n        /* \"#utility.yul\":9901:9965   */\n      tag_122\n      jump\t// in\n    tag_221:\n        /* \"#utility.yul\":9891:9965   */\n      swap3\n      pop\n        /* \"#utility.yul\":9846:9975   */\n      pop\n        /* \"#utility.yul\":10014:10017   */\n      0x80\n        /* \"#utility.yul\":10041:10104   */\n      tag_222\n        /* \"#utility.yul\":10096:10103   */\n      dup9\n        /* \"#utility.yul\":10087:10093   */\n      dup3\n        /* \"#utility.yul\":10076:10085   */\n      dup10\n        /* \"#utility.yul\":10072:10094   */\n      add\n        /* \"#utility.yul\":10041:10104   */\n      tag_118\n      jump\t// in\n    tag_222:\n        /* \"#utility.yul\":10031:10104   */\n      swap2\n      pop\n        /* \"#utility.yul\":9985:10114   */\n      pop\n        /* \"#utility.yul\":9150:10121   */\n      swap3\n      swap6\n      pop\n      swap3\n      swap6\n      swap1\n      swap4\n      pop\n      jump\t// out\n        /* \"#utility.yul\":10127:11118   */\n    tag_84:\n        /* \"#utility.yul\":10166:10173   */\n      0x00\n        /* \"#utility.yul\":10189:10208   */\n      tag_224\n        /* \"#utility.yul\":10206:10207   */\n      dup3\n        /* \"#utility.yul\":10189:10208   */\n      tag_119\n      jump\t// in\n    tag_224:\n        /* \"#utility.yul\":10184:10208   */\n      swap2\n      pop\n        /* \"#utility.yul\":10222:10241   */\n      tag_225\n        /* \"#utility.yul\":10239:10240   */\n      dup4\n        /* \"#utility.yul\":10222:10241   */\n      tag_119\n      jump\t// in\n    tag_225:\n        /* \"#utility.yul\":10217:10241   */\n      swap3\n      pop\n        /* \"#utility.yul\":10423:10424   */\n      dup3\n        /* \"#utility.yul\":10355:10421   */\n      0x7fffffffffffffffffffffffffffffffffffffffffffffffffffffffffffffff\n        /* \"#utility.yul\":10351:10425   */\n      div\n        /* \"#utility.yul\":10348:10349   */\n      dup3\n        /* \"#utility.yul\":10345:10426   */\n      gt\n        /* \"#utility.yul\":10340:10341   */\n      0x00\n        /* \"#utility.yul\":10337:10338   */\n      dup5\n        /* \"#utility.yul\":10333:10342   */\n      sgt\n        /* \"#utility.yul\":10329:10330   */\n      0x00\n        /* \"#utility.yul\":10326:10327   */\n      dup5\n        /* \"#utility.yul\":10322:10331   */\n      sgt\n        /* \"#utility.yul\":10318:10343   */\n      and\n        /* \"#utility.yul\":10314:10427   */\n      and\n        /* \"#utility.yul\":10311:10450   */\n      iszero\n      tag_226\n      jumpi\n        /* \"#utility.yul\":10430:10448   */\n      tag_227\n      tag_104\n      jump\t// in\n    tag_227:\n        /* \"#utility.yul\":10311:10450   */\n    tag_226:\n        /* \"#utility.yul\":10634:10635   */\n      dup2\n        /* \"#utility.yul\":10566:10632   */\n      0x8000000000000000000000000000000000000000000000000000000000000000\n        /* \"#utility.yul\":10561:10636   */\n      sdiv\n        /* \"#utility.yul\":10558:10559   */\n      dup4\n        /* \"#utility.yul\":10554:10637   */\n      slt\n        /* \"#utility.yul\":10549:10550   */\n      0x00\n        /* \"#utility.yul\":10546:10547   */\n      dup5\n        /* \"#utility.yul\":10542:10551   */\n      slt\n        /* \"#utility.yul\":10538:10539   */\n      0x00\n        /* \"#utility.yul\":10535:10536   */\n      dup5\n        /* \"#utility.yul\":10531:10540   */\n      sgt\n        /* \"#utility.yul\":10527:10552   */\n      and\n        /* \"#utility.yul\":10523:10638   */\n      and\n        /* \"#utility.yul\":10520:10661   */\n      iszero\n      tag_228\n      jumpi\n        /* \"#utility.yul\":10641:10659   */\n      tag_229\n      tag_104\n      jump\t// in\n    tag_229:\n        /* \"#utility.yul\":10520:10661   */\n    tag_228:\n        /* \"#utility.yul\":10845:10846   */\n      dup3\n        /* \"#utility.yul\":10777:10843   */\n      0x8000000000000000000000000000000000000000000000000000000000000000\n        /* \"#utility.yul\":10772:10847   */\n      sdiv\n        /* \"#utility.yul\":10769:10770   */\n      dup3\n        /* \"#utility.yul\":10765:10848   */\n      slt\n        /* \"#utility.yul\":10760:10761   */\n      0x00\n        /* \"#utility.yul\":10757:10758   */\n      dup5\n        /* \"#utility.yul\":10753:10762   */\n      sgt\n        /* \"#utility.yul\":10749:10750   */\n      0x00\n        /* \"#utility.yul\":10746:10747   */\n      dup5\n        /* \"#utility.yul\":10742:10751   */\n      slt\n        /* \"#utility.yul\":10738:10763   */\n      and\n        /* \"#utility.yul\":10734:10849   */\n      and\n        /* \"#utility.yul\":10731:10872   */\n      iszero\n      tag_230\n      jumpi\n        /* \"#utility.yul\":10852:10870   */\n      tag_231\n      tag_104\n      jump\t// in\n    tag_231:\n        /* \"#utility.yul\":10731:10872   */\n    tag_230:\n        /* \"#utility.yul\":11055:11056   */\n      dup3\n        /* \"#utility.yul\":10987:11053   */\n      0x7fffffffffffffffffffffffffffffffffffffffffffffffffffffffffffffff\n        /* \"#utility.yul\":10982:11057   */\n      sdiv\n        /* \"#utility.yul\":10979:10980   */\n      dup3\n        /* \"#utility.yul\":10975:11058   */\n      slt\n        /* \"#utility.yul\":10970:10971   */\n      0x00\n        /* \"#utility.yul\":10967:10968   */\n      dup5\n        /* \"#utility.yul\":10963:10972   */\n      slt\n        /* \"#utility.yul\":10959:10960   */\n      0x00\n        /* \"#utility.yul\":10956:10957   */\n      dup5\n        /* \"#utility.yul\":10952:10961   */\n      slt\n        /* \"#utility.yul\":10948:10973   */\n      and\n        /* \"#utility.yul\":10944:11059   */\n      and\n        /* \"#utility.yul\":10941:11082   */\n      iszero\n      tag_232\n      jumpi\n        /* \"#utility.yul\":11062:11080   */\n      tag_233\n      tag_104\n      jump\t// in\n    tag_233:\n        /* \"#utility.yul\":10941:11082   */\n    tag_232:\n        /* \"#utility.yul\":11110:11111   */\n      dup3\n        /* \"#utility.yul\":11107:11108   */\n      dup3\n        /* \"#utility.yul\":11103:11112   */\n      mul\n        /* \"#utility.yul\":11092:11112   */\n      swap1\n      pop\n        /* \"#utility.yul\":10127:11118   */\n      swap3\n      swap2\n      pop\n      pop\n      jump\t// out\n\n    auxdata: 0xa26469706673582212203741eccc596d8e69cfb163419ca373acf77e8d17db946b62cbe1a47a4e06932a64736f6c63430008080033\n}\n",
				"bytecode": {
					"linkReferences": {},
					"object": "6080604052671bc16d674ec8000060005534801561001c57600080fd5b50610d588061002c6000396000f3fe60806040526004361061004a5760003560e01c80631f2c92381461004f5780632e1a7d4d1461008c5780633430a88c146100b5578063b60d4288146100e0578063deaf2cf0146100ea575b600080fd5b34801561005b57600080fd5b50610076600480360381019061007191906106cc565b610127565b604051610083919061073a565b60405180910390f35b34801561009857600080fd5b506100b360048036038101906100ae91906106cc565b610166565b005b3480156100c157600080fd5b506100ca6103e4565b6040516100d79190610764565b60405180910390f35b6100e86103ea565b005b3480156100f657600080fd5b50610111600480360381019061010c91906107ab565b6104e0565b60405161011e9190610764565b60405180910390f35b6001818154811061013757600080fd5b906000526020600020016000915054906101000a900473ffffffffffffffffffffffffffffffffffffffff1681565b60005b6001805490508110156102125760006001828154811061018c5761018b6107d8565b5b9060005260206000200160009054906101000a900473ffffffffffffffffffffffffffffffffffffffff1690506000600260008373ffffffffffffffffffffffffffffffffffffffff1673ffffffffffffffffffffffffffffffffffffffff1681526020019081526020016000208190555050808061020a90610836565b915050610169565b50600067ffffffffffffffff81111561022e5761022d61087f565b5b60405190808252806020026020018201604052801561025c5781602001602082028036833780820191505090505b50600190805190602001906102729291906105ea565b503373ffffffffffffffffffffffffffffffffffffffff166108fc479081150290604051600060405180830381858888f193505050501580156102b9573d6000803e3d6000fd5b5060003373ffffffffffffffffffffffffffffffffffffffff166108fc479081150290604051600060405180830381858888f19350505050905080610333576040517f08c379a000000000000000000000000000000000000000000000000000000000815260040161032a9061090b565b60405180910390fd5b60003373ffffffffffffffffffffffffffffffffffffffff16476040516103599061095c565b60006040518083038185875af1925050503d8060008114610396576040519150601f19603f3d011682016040523d82523d6000602084013e61039b565b606091505b50509050806103df576040517f08c379a00000000000000000000000000000000000000000000000000000000081526004016103d6906109bd565b60405180910390fd5b505050565b60005481565b6000546103f6346104f8565b1015610437576040517f08c379a000000000000000000000000000000000000000000000000000000000815260040161042e90610a29565b60405180910390fd5b6001339080600181540180825580915050600190039060005260206000200160009091909190916101000a81548173ffffffffffffffffffffffffffffffffffffffff021916908373ffffffffffffffffffffffffffffffffffffffff16021790555034600260003373ffffffffffffffffffffffffffffffffffffffff1673ffffffffffffffffffffffffffffffffffffffff16815260200190815260200160002081905550565b60026020528060005260406000206000915090505481565b600080610503610532565b90506000670de0b6b3a7640000848361051c9190610a49565b6105269190610ad2565b90508092505050919050565b60008073d4a33860578de61dbabdc8bfdb98fd742fa7028e905060008173ffffffffffffffffffffffffffffffffffffffff1663feaf968c6040518163ffffffff1660e01b815260040160a06040518083038186803b15801561059457600080fd5b505afa1580156105a8573d6000803e3d6000fd5b505050506040513d601f19601f820116820180604052508101906105cc9190610b90565b5050509150506402540be400816105e39190610c0b565b9250505090565b828054828255906000526020600020908101928215610663579160200282015b828111156106625782518260006101000a81548173ffffffffffffffffffffffffffffffffffffffff021916908373ffffffffffffffffffffffffffffffffffffffff1602179055509160200191906001019061060a565b5b5090506106709190610674565b5090565b5b8082111561068d576000816000905550600101610675565b5090565b600080fd5b6000819050919050565b6106a981610696565b81146106b457600080fd5b50565b6000813590506106c6816106a0565b92915050565b6000602082840312156106e2576106e1610691565b5b60006106f0848285016106b7565b91505092915050565b600073ffffffffffffffffffffffffffffffffffffffff82169050919050565b6000610724826106f9565b9050919050565b61073481610719565b82525050565b600060208201905061074f600083018461072b565b92915050565b61075e81610696565b82525050565b60006020820190506107796000830184610755565b92915050565b61078881610719565b811461079357600080fd5b50565b6000813590506107a58161077f565b92915050565b6000602082840312156107c1576107c0610691565b5b60006107cf84828501610796565b91505092915050565b7f4e487b7100000000000000000000000000000000000000000000000000000000600052603260045260246000fd5b7f4e487b7100000000000000000000000000000000000000000000000000000000600052601160045260246000fd5b600061084182610696565b91507fffffffffffffffffffffffffffffffffffffffffffffffffffffffffffffffff82141561087457610873610807565b5b600182019050919050565b7f4e487b7100000000000000000000000000000000000000000000000000000000600052604160045260246000fd5b600082825260208201905092915050565b7f416d6f756e742063616e206e6f7420626520776974686f757400000000000000600082015250565b60006108f56019836108ae565b9150610900826108bf565b602082019050919050565b60006020820190508181036000830152610924816108e8565b9050919050565b600081905092915050565b50565b600061094660008361092b565b915061095182610936565b600082019050919050565b600061096782610939565b9150819050919050565b7f52657669657720616d6f756e7400000000000000000000000000000000000000600082015250565b60006109a7600d836108ae565b91506109b282610971565b602082019050919050565b600060208201905081810360008301526109d68161099a565b9050919050565b7f416d6f756e74206d7573742062652067726561746572207468616e2031000000600082015250565b6000610a13601d836108ae565b9150610a1e826109dd565b602082019050919050565b60006020820190508181036000830152610a4281610a06565b9050919050565b6000610a5482610696565b9150610a5f83610696565b9250817fffffffffffffffffffffffffffffffffffffffffffffffffffffffffffffffff0483118215151615610a9857610a97610807565b5b828202905092915050565b7f4e487b7100000000000000000000000000000000000000000000000000000000600052601260045260246000fd5b6000610add82610696565b9150610ae883610696565b925082610af857610af7610aa3565b5b828204905092915050565b600069ffffffffffffffffffff82169050919050565b610b2281610b03565b8114610b2d57600080fd5b50565b600081519050610b3f81610b19565b92915050565b6000819050919050565b610b5881610b45565b8114610b6357600080fd5b50565b600081519050610b7581610b4f565b92915050565b600081519050610b8a816106a0565b92915050565b600080600080600060a08688031215610bac57610bab610691565b5b6000610bba88828901610b30565b9550506020610bcb88828901610b66565b9450506040610bdc88828901610b7b565b9350506060610bed88828901610b7b565b9250506080610bfe88828901610b30565b9150509295509295909350565b6000610c1682610b45565b9150610c2183610b45565b9250827f7fffffffffffffffffffffffffffffffffffffffffffffffffffffffffffffff0482116000841360008413161615610c6057610c5f610807565b5b817f80000000000000000000000000000000000000000000000000000000000000000583126000841260008413161615610c9d57610c9c610807565b5b827f80000000000000000000000000000000000000000000000000000000000000000582126000841360008412161615610cda57610cd9610807565b5b827f7fffffffffffffffffffffffffffffffffffffffffffffffffffffffffffffff0582126000841260008412161615610d1757610d16610807565b5b82820290509291505056fea26469706673582212203741eccc596d8e69cfb163419ca373acf77e8d17db946b62cbe1a47a4e06932a64736f6c63430008080033",
					"opcodes": "PUSH1 0x80 PUSH1 0x40 MSTORE PUSH8 0x1BC16D674EC80000 PUSH1 0x0 SSTORE CALLVALUE DUP1 ISZERO PUSH2 0x1C JUMPI PUSH1 0x0 DUP1 REVERT JUMPDEST POP PUSH2 0xD58 DUP1 PUSH2 0x2C PUSH1 0x0 CODECOPY PUSH1 0x0 RETURN INVALID PUSH1 0x80 PUSH1 0x40 MSTORE PUSH1 0x4 CALLDATASIZE LT PUSH2 0x4A JUMPI PUSH1 0x0 CALLDATALOAD PUSH1 0xE0 SHR DUP1 PUSH4 0x1F2C9238 EQ PUSH2 0x4F JUMPI DUP1 PUSH4 0x2E1A7D4D EQ PUSH2 0x8C JUMPI DUP1 PUSH4 0x3430A88C EQ PUSH2 0xB5 JUMPI DUP1 PUSH4 0xB60D4288 EQ PUSH2 0xE0 JUMPI DUP1 PUSH4 0xDEAF2CF0 EQ PUSH2 0xEA JUMPI JUMPDEST PUSH1 0x0 DUP1 REVERT JUMPDEST CALLVALUE DUP1 ISZERO PUSH2 0x5B JUMPI PUSH1 0x0 DUP1 REVERT JUMPDEST POP PUSH2 0x76 PUSH1 0x4 DUP1 CALLDATASIZE SUB DUP2 ADD SWAP1 PUSH2 0x71 SWAP2 SWAP1 PUSH2 0x6CC JUMP JUMPDEST PUSH2 0x127 JUMP JUMPDEST PUSH1 0x40 MLOAD PUSH2 0x83 SWAP2 SWAP1 PUSH2 0x73A JUMP JUMPDEST PUSH1 0x40 MLOAD DUP1 SWAP2 SUB SWAP1 RETURN JUMPDEST CALLVALUE DUP1 ISZERO PUSH2 0x98 JUMPI PUSH1 0x0 DUP1 REVERT JUMPDEST POP PUSH2 0xB3 PUSH1 0x4 DUP1 CALLDATASIZE SUB DUP2 ADD SWAP1 PUSH2 0xAE SWAP2 SWAP1 PUSH2 0x6CC JUMP JUMPDEST PUSH2 0x166 JUMP JUMPDEST STOP JUMPDEST CALLVALUE DUP1 ISZERO PUSH2 0xC1 JUMPI PUSH1 0x0 DUP1 REVERT JUMPDEST POP PUSH2 0xCA PUSH2 0x3E4 JUMP JUMPDEST PUSH1 0x40 MLOAD PUSH2 0xD7 SWAP2 SWAP1 PUSH2 0x764 JUMP JUMPDEST PUSH1 0x40 MLOAD DUP1 SWAP2 SUB SWAP1 RETURN JUMPDEST PUSH2 0xE8 PUSH2 0x3EA JUMP JUMPDEST STOP JUMPDEST CALLVALUE DUP1 ISZERO PUSH2 0xF6 JUMPI PUSH1 0x0 DUP1 REVERT JUMPDEST POP PUSH2 0x111 PUSH1 0x4 DUP1 CALLDATASIZE SUB DUP2 ADD SWAP1 PUSH2 0x10C SWAP2 SWAP1 PUSH2 0x7AB JUMP JUMPDEST PUSH2 0x4E0 JUMP JUMPDEST PUSH1 0x40 MLOAD PUSH2 0x11E SWAP2 SWAP1 PUSH2 0x764 JUMP JUMPDEST PUSH1 0x40 MLOAD DUP1 SWAP2 SUB SWAP1 RETURN JUMPDEST PUSH1 0x1 DUP2 DUP2 SLOAD DUP2 LT PUSH2 0x137 JUMPI PUSH1 0x0 DUP1 REVERT JUMPDEST SWAP1 PUSH1 0x0 MSTORE PUSH1 0x20 PUSH1 0x0 KECCAK256 ADD PUSH1 0x0 SWAP2 POP SLOAD SWAP1 PUSH2 0x100 EXP SWAP1 DIV PUSH20 0xFFFFFFFFFFFFFFFFFFFFFFFFFFFFFFFFFFFFFFFF AND DUP2 JUMP JUMPDEST PUSH1 0x0 JUMPDEST PUSH1 0x1 DUP1 SLOAD SWAP1 POP DUP2 LT ISZERO PUSH2 0x212 JUMPI PUSH1 0x0 PUSH1 0x1 DUP3 DUP2 SLOAD DUP2 LT PUSH2 0x18C JUMPI PUSH2 0x18B PUSH2 0x7D8 JUMP JUMPDEST JUMPDEST SWAP1 PUSH1 0x0 MSTORE PUSH1 0x20 PUSH1 0x0 KECCAK256 ADD PUSH1 0x0 SWAP1 SLOAD SWAP1 PUSH2 0x100 EXP SWAP1 DIV PUSH20 0xFFFFFFFFFFFFFFFFFFFFFFFFFFFFFFFFFFFFFFFF AND SWAP1 POP PUSH1 0x0 PUSH1 0x2 PUSH1 0x0 DUP4 PUSH20 0xFFFFFFFFFFFFFFFFFFFFFFFFFFFFFFFFFFFFFFFF AND PUSH20 0xFFFFFFFFFFFFFFFFFFFFFFFFFFFFFFFFFFFFFFFF AND DUP2 MSTORE PUSH1 0x20 ADD SWAP1 DUP2 MSTORE PUSH1 0x20 ADD PUSH1 0x0 KECCAK256 DUP2 SWAP1 SSTORE POP POP DUP1 DUP1 PUSH2 0x20A SWAP1 PUSH2 0x836 JUMP JUMPDEST SWAP2 POP POP PUSH2 0x169 JUMP JUMPDEST POP PUSH1 0x0 PUSH8 0xFFFFFFFFFFFFFFFF DUP2 GT ISZERO PUSH2 0x22E JUMPI PUSH2 0x22D PUSH2 0x87F JUMP JUMPDEST JUMPDEST PUSH1 0x40 MLOAD SWAP1 DUP1 DUP3 MSTORE DUP1 PUSH1 0x20 MUL PUSH1 0x20 ADD DUP3 ADD PUSH1 0x40 MSTORE DUP1 ISZERO PUSH2 0x25C JUMPI DUP2 PUSH1 0x20 ADD PUSH1 0x20 DUP3 MUL DUP1 CALLDATASIZE DUP4 CALLDATACOPY DUP1 DUP3 ADD SWAP2 POP POP SWAP1 POP JUMPDEST POP PUSH1 0x1 SWAP1 DUP1 MLOAD SWAP1 PUSH1 0x20 ADD SWAP1 PUSH2 0x272 SWAP3 SWAP2 SWAP1 PUSH2 0x5EA JUMP JUMPDEST POP CALLER PUSH20 0xFFFFFFFFFFFFFFFFFFFFFFFFFFFFFFFFFFFFFFFF AND PUSH2 0x8FC SELFBALANCE SWAP1 DUP2 ISZERO MUL SWAP1 PUSH1 0x40 MLOAD PUSH1 0x0 PUSH1 0x40 MLOAD DUP1 DUP4 SUB DUP2 DUP6 DUP9 DUP9 CALL SWAP4 POP POP POP POP ISZERO DUP1 ISZERO PUSH2 0x2B9 JUMPI RETURNDATASIZE PUSH1 0x0 DUP1 RETURNDATACOPY RETURNDATASIZE PUSH1 0x0 REVERT JUMPDEST POP PUSH1 0x0 CALLER PUSH20 0xFFFFFFFFFFFFFFFFFFFFFFFFFFFFFFFFFFFFFFFF AND PUSH2 0x8FC SELFBALANCE SWAP1 DUP2 ISZERO MUL SWAP1 PUSH1 0x40 MLOAD PUSH1 0x0 PUSH1 0x40 MLOAD DUP1 DUP4 SUB DUP2 DUP6 DUP9 DUP9 CALL SWAP4 POP POP POP POP SWAP1 POP DUP1 PUSH2 0x333 JUMPI PUSH1 0x40 MLOAD PUSH32 0x8C379A000000000000000000000000000000000000000000000000000000000 DUP2 MSTORE PUSH1 0x4 ADD PUSH2 0x32A SWAP1 PUSH2 0x90B JUMP JUMPDEST PUSH1 0x40 MLOAD DUP1 SWAP2 SUB SWAP1 REVERT JUMPDEST PUSH1 0x0 CALLER PUSH20 0xFFFFFFFFFFFFFFFFFFFFFFFFFFFFFFFFFFFFFFFF AND SELFBALANCE PUSH1 0x40 MLOAD PUSH2 0x359 SWAP1 PUSH2 0x95C JUMP JUMPDEST PUSH1 0x0 PUSH1 0x40 MLOAD DUP1 DUP4 SUB DUP2 DUP6 DUP8 GAS CALL SWAP3 POP POP POP RETURNDATASIZE DUP1 PUSH1 0x0 DUP2 EQ PUSH2 0x396 JUMPI PUSH1 0x40 MLOAD SWAP2 POP PUSH1 0x1F NOT PUSH1 0x3F RETURNDATASIZE ADD AND DUP3 ADD PUSH1 0x40 MSTORE RETURNDATASIZE DUP3 MSTORE RETURNDATASIZE PUSH1 0x0 PUSH1 0x20 DUP5 ADD RETURNDATACOPY PUSH2 0x39B JUMP JUMPDEST PUSH1 0x60 SWAP2 POP JUMPDEST POP POP SWAP1 POP DUP1 PUSH2 0x3DF JUMPI PUSH1 0x40 MLOAD PUSH32 0x8C379A000000000000000000000000000000000000000000000000000000000 DUP2 MSTORE PUSH1 0x4 ADD PUSH2 0x3D6 SWAP1 PUSH2 0x9BD JUMP JUMPDEST PUSH1 0x40 MLOAD DUP1 SWAP2 SUB SWAP1 REVERT JUMPDEST POP POP POP JUMP JUMPDEST PUSH1 0x0 SLOAD DUP2 JUMP JUMPDEST PUSH1 0x0 SLOAD PUSH2 0x3F6 CALLVALUE PUSH2 0x4F8 JUMP JUMPDEST LT ISZERO PUSH2 0x437 JUMPI PUSH1 0x40 MLOAD PUSH32 0x8C379A000000000000000000000000000000000000000000000000000000000 DUP2 MSTORE PUSH1 0x4 ADD PUSH2 0x42E SWAP1 PUSH2 0xA29 JUMP JUMPDEST PUSH1 0x40 MLOAD DUP1 SWAP2 SUB SWAP1 REVERT JUMPDEST PUSH1 0x1 CALLER SWAP1 DUP1 PUSH1 0x1 DUP2 SLOAD ADD DUP1 DUP3 SSTORE DUP1 SWAP2 POP POP PUSH1 0x1 SWAP1 SUB SWAP1 PUSH1 0x0 MSTORE PUSH1 0x20 PUSH1 0x0 KECCAK256 ADD PUSH1 0x0 SWAP1 SWAP2 SWAP1 SWAP2 SWAP1 SWAP2 PUSH2 0x100 EXP DUP2 SLOAD DUP2 PUSH20 0xFFFFFFFFFFFFFFFFFFFFFFFFFFFFFFFFFFFFFFFF MUL NOT AND SWAP1 DUP4 PUSH20 0xFFFFFFFFFFFFFFFFFFFFFFFFFFFFFFFFFFFFFFFF AND MUL OR SWAP1 SSTORE POP CALLVALUE PUSH1 0x2 PUSH1 0x0 CALLER PUSH20 0xFFFFFFFFFFFFFFFFFFFFFFFFFFFFFFFFFFFFFFFF AND PUSH20 0xFFFFFFFFFFFFFFFFFFFFFFFFFFFFFFFFFFFFFFFF AND DUP2 MSTORE PUSH1 0x20 ADD SWAP1 DUP2 MSTORE PUSH1 0x20 ADD PUSH1 0x0 KECCAK256 DUP2 SWAP1 SSTORE POP JUMP JUMPDEST PUSH1 0x2 PUSH1 0x20 MSTORE DUP1 PUSH1 0x0 MSTORE PUSH1 0x40 PUSH1 0x0 KECCAK256 PUSH1 0x0 SWAP2 POP SWAP1 POP SLOAD DUP2 JUMP JUMPDEST PUSH1 0x0 DUP1 PUSH2 0x503 PUSH2 0x532 JUMP JUMPDEST SWAP1 POP PUSH1 0x0 PUSH8 0xDE0B6B3A7640000 DUP5 DUP4 PUSH2 0x51C SWAP2 SWAP1 PUSH2 0xA49 JUMP JUMPDEST PUSH2 0x526 SWAP2 SWAP1 PUSH2 0xAD2 JUMP JUMPDEST SWAP1 POP DUP1 SWAP3 POP POP POP SWAP2 SWAP1 POP JUMP JUMPDEST PUSH1 0x0 DUP1 PUSH20 0xD4A33860578DE61DBABDC8BFDB98FD742FA7028E SWAP1 POP PUSH1 0x0 DUP2 PUSH20 0xFFFFFFFFFFFFFFFFFFFFFFFFFFFFFFFFFFFFFFFF AND PUSH4 0xFEAF968C PUSH1 0x40 MLOAD DUP2 PUSH4 0xFFFFFFFF AND PUSH1 0xE0 SHL DUP2 MSTORE PUSH1 0x4 ADD PUSH1 0xA0 PUSH1 0x40 MLOAD DUP1 DUP4 SUB DUP2 DUP7 DUP1 EXTCODESIZE ISZERO DUP1 ISZERO PUSH2 0x594 JUMPI PUSH1 0x0 DUP1 REVERT JUMPDEST POP GAS STATICCALL ISZERO DUP1 ISZERO PUSH2 0x5A8 JUMPI RETURNDATASIZE PUSH1 0x0 DUP1 RETURNDATACOPY RETURNDATASIZE PUSH1 0x0 REVERT JUMPDEST POP POP POP POP PUSH1 0x40 MLOAD RETURNDATASIZE PUSH1 0x1F NOT PUSH1 0x1F DUP3 ADD AND DUP3 ADD DUP1 PUSH1 0x40 MSTORE POP DUP2 ADD SWAP1 PUSH2 0x5CC SWAP2 SWAP1 PUSH2 0xB90 JUMP JUMPDEST POP POP POP SWAP2 POP POP PUSH5 0x2540BE400 DUP2 PUSH2 0x5E3 SWAP2 SWAP1 PUSH2 0xC0B JUMP JUMPDEST SWAP3 POP POP POP SWAP1 JUMP JUMPDEST DUP3 DUP1 SLOAD DUP3 DUP3 SSTORE SWAP1 PUSH1 0x0 MSTORE PUSH1 0x20 PUSH1 0x0 KECCAK256 SWAP1 DUP2 ADD SWAP3 DUP3 ISZERO PUSH2 0x663 JUMPI SWAP2 PUSH1 0x20 MUL DUP3 ADD JUMPDEST DUP3 DUP2 GT ISZERO PUSH2 0x662 JUMPI DUP3 MLOAD DUP3 PUSH1 0x0 PUSH2 0x100 EXP DUP2 SLOAD DUP2 PUSH20 0xFFFFFFFFFFFFFFFFFFFFFFFFFFFFFFFFFFFFFFFF MUL NOT AND SWAP1 DUP4 PUSH20 0xFFFFFFFFFFFFFFFFFFFFFFFFFFFFFFFFFFFFFFFF AND MUL OR SWAP1 SSTORE POP SWAP2 PUSH1 0x20 ADD SWAP2 SWAP1 PUSH1 0x1 ADD SWAP1 PUSH2 0x60A JUMP JUMPDEST JUMPDEST POP SWAP1 POP PUSH2 0x670 SWAP2 SWAP1 PUSH2 0x674 JUMP JUMPDEST POP SWAP1 JUMP JUMPDEST JUMPDEST DUP1 DUP3 GT ISZERO PUSH2 0x68D JUMPI PUSH1 0x0 DUP2 PUSH1 0x0 SWAP1 SSTORE POP PUSH1 0x1 ADD PUSH2 0x675 JUMP JUMPDEST POP SWAP1 JUMP JUMPDEST PUSH1 0x0 DUP1 REVERT JUMPDEST PUSH1 0x0 DUP2 SWAP1 POP SWAP2 SWAP1 POP JUMP JUMPDEST PUSH2 0x6A9 DUP2 PUSH2 0x696 JUMP JUMPDEST DUP2 EQ PUSH2 0x6B4 JUMPI PUSH1 0x0 DUP1 REVERT JUMPDEST POP JUMP JUMPDEST PUSH1 0x0 DUP2 CALLDATALOAD SWAP1 POP PUSH2 0x6C6 DUP2 PUSH2 0x6A0 JUMP JUMPDEST SWAP3 SWAP2 POP POP JUMP JUMPDEST PUSH1 0x0 PUSH1 0x20 DUP3 DUP5 SUB SLT ISZERO PUSH2 0x6E2 JUMPI PUSH2 0x6E1 PUSH2 0x691 JUMP JUMPDEST JUMPDEST PUSH1 0x0 PUSH2 0x6F0 DUP5 DUP3 DUP6 ADD PUSH2 0x6B7 JUMP JUMPDEST SWAP2 POP POP SWAP3 SWAP2 POP POP JUMP JUMPDEST PUSH1 0x0 PUSH20 0xFFFFFFFFFFFFFFFFFFFFFFFFFFFFFFFFFFFFFFFF DUP3 AND SWAP1 POP SWAP2 SWAP1 POP JUMP JUMPDEST PUSH1 0x0 PUSH2 0x724 DUP3 PUSH2 0x6F9 JUMP JUMPDEST SWAP1 POP SWAP2 SWAP1 POP JUMP JUMPDEST PUSH2 0x734 DUP2 PUSH2 0x719 JUMP JUMPDEST DUP3 MSTORE POP POP JUMP JUMPDEST PUSH1 0x0 PUSH1 0x20 DUP3 ADD SWAP1 POP PUSH2 0x74F PUSH1 0x0 DUP4 ADD DUP5 PUSH2 0x72B JUMP JUMPDEST SWAP3 SWAP2 POP POP JUMP JUMPDEST PUSH2 0x75E DUP2 PUSH2 0x696 JUMP JUMPDEST DUP3 MSTORE POP POP JUMP JUMPDEST PUSH1 0x0 PUSH1 0x20 DUP3 ADD SWAP1 POP PUSH2 0x779 PUSH1 0x0 DUP4 ADD DUP5 PUSH2 0x755 JUMP JUMPDEST SWAP3 SWAP2 POP POP JUMP JUMPDEST PUSH2 0x788 DUP2 PUSH2 0x719 JUMP JUMPDEST DUP2 EQ PUSH2 0x793 JUMPI PUSH1 0x0 DUP1 REVERT JUMPDEST POP JUMP JUMPDEST PUSH1 0x0 DUP2 CALLDATALOAD SWAP1 POP PUSH2 0x7A5 DUP2 PUSH2 0x77F JUMP JUMPDEST SWAP3 SWAP2 POP POP JUMP JUMPDEST PUSH1 0x0 PUSH1 0x20 DUP3 DUP5 SUB SLT ISZERO PUSH2 0x7C1 JUMPI PUSH2 0x7C0 PUSH2 0x691 JUMP JUMPDEST JUMPDEST PUSH1 0x0 PUSH2 0x7CF DUP5 DUP3 DUP6 ADD PUSH2 0x796 JUMP JUMPDEST SWAP2 POP POP SWAP3 SWAP2 POP POP JUMP JUMPDEST PUSH32 0x4E487B7100000000000000000000000000000000000000000000000000000000 PUSH1 0x0 MSTORE PUSH1 0x32 PUSH1 0x4 MSTORE PUSH1 0x24 PUSH1 0x0 REVERT JUMPDEST PUSH32 0x4E487B7100000000000000000000000000000000000000000000000000000000 PUSH1 0x0 MSTORE PUSH1 0x11 PUSH1 0x4 MSTORE PUSH1 0x24 PUSH1 0x0 REVERT JUMPDEST PUSH1 0x0 PUSH2 0x841 DUP3 PUSH2 0x696 JUMP JUMPDEST SWAP2 POP PUSH32 0xFFFFFFFFFFFFFFFFFFFFFFFFFFFFFFFFFFFFFFFFFFFFFFFFFFFFFFFFFFFFFFFF DUP3 EQ ISZERO PUSH2 0x874 JUMPI PUSH2 0x873 PUSH2 0x807 JUMP JUMPDEST JUMPDEST PUSH1 0x1 DUP3 ADD SWAP1 POP SWAP2 SWAP1 POP JUMP JUMPDEST PUSH32 0x4E487B7100000000000000000000000000000000000000000000000000000000 PUSH1 0x0 MSTORE PUSH1 0x41 PUSH1 0x4 MSTORE PUSH1 0x24 PUSH1 0x0 REVERT JUMPDEST PUSH1 0x0 DUP3 DUP3 MSTORE PUSH1 0x20 DUP3 ADD SWAP1 POP SWAP3 SWAP2 POP POP JUMP JUMPDEST PUSH32 0x416D6F756E742063616E206E6F7420626520776974686F757400000000000000 PUSH1 0x0 DUP3 ADD MSTORE POP JUMP JUMPDEST PUSH1 0x0 PUSH2 0x8F5 PUSH1 0x19 DUP4 PUSH2 0x8AE JUMP JUMPDEST SWAP2 POP PUSH2 0x900 DUP3 PUSH2 0x8BF JUMP JUMPDEST PUSH1 0x20 DUP3 ADD SWAP1 POP SWAP2 SWAP1 POP JUMP JUMPDEST PUSH1 0x0 PUSH1 0x20 DUP3 ADD SWAP1 POP DUP2 DUP2 SUB PUSH1 0x0 DUP4 ADD MSTORE PUSH2 0x924 DUP2 PUSH2 0x8E8 JUMP JUMPDEST SWAP1 POP SWAP2 SWAP1 POP JUMP JUMPDEST PUSH1 0x0 DUP2 SWAP1 POP SWAP3 SWAP2 POP POP JUMP JUMPDEST POP JUMP JUMPDEST PUSH1 0x0 PUSH2 0x946 PUSH1 0x0 DUP4 PUSH2 0x92B JUMP JUMPDEST SWAP2 POP PUSH2 0x951 DUP3 PUSH2 0x936 JUMP JUMPDEST PUSH1 0x0 DUP3 ADD SWAP1 POP SWAP2 SWAP1 POP JUMP JUMPDEST PUSH1 0x0 PUSH2 0x967 DUP3 PUSH2 0x939 JUMP JUMPDEST SWAP2 POP DUP2 SWAP1 POP SWAP2 SWAP1 POP JUMP JUMPDEST PUSH32 0x52657669657720616D6F756E7400000000000000000000000000000000000000 PUSH1 0x0 DUP3 ADD MSTORE POP JUMP JUMPDEST PUSH1 0x0 PUSH2 0x9A7 PUSH1 0xD DUP4 PUSH2 0x8AE JUMP JUMPDEST SWAP2 POP PUSH2 0x9B2 DUP3 PUSH2 0x971 JUMP JUMPDEST PUSH1 0x20 DUP3 ADD SWAP1 POP SWAP2 SWAP1 POP JUMP JUMPDEST PUSH1 0x0 PUSH1 0x20 DUP3 ADD SWAP1 POP DUP2 DUP2 SUB PUSH1 0x0 DUP4 ADD MSTORE PUSH2 0x9D6 DUP2 PUSH2 0x99A JUMP JUMPDEST SWAP1 POP SWAP2 SWAP1 POP JUMP JUMPDEST PUSH32 0x416D6F756E74206D7573742062652067726561746572207468616E2031000000 PUSH1 0x0 DUP3 ADD MSTORE POP JUMP JUMPDEST PUSH1 0x0 PUSH2 0xA13 PUSH1 0x1D DUP4 PUSH2 0x8AE JUMP JUMPDEST SWAP2 POP PUSH2 0xA1E DUP3 PUSH2 0x9DD JUMP JUMPDEST PUSH1 0x20 DUP3 ADD SWAP1 POP SWAP2 SWAP1 POP JUMP JUMPDEST PUSH1 0x0 PUSH1 0x20 DUP3 ADD SWAP1 POP DUP2 DUP2 SUB PUSH1 0x0 DUP4 ADD MSTORE PUSH2 0xA42 DUP2 PUSH2 0xA06 JUMP JUMPDEST SWAP1 POP SWAP2 SWAP1 POP JUMP JUMPDEST PUSH1 0x0 PUSH2 0xA54 DUP3 PUSH2 0x696 JUMP JUMPDEST SWAP2 POP PUSH2 0xA5F DUP4 PUSH2 0x696 JUMP JUMPDEST SWAP3 POP DUP2 PUSH32 0xFFFFFFFFFFFFFFFFFFFFFFFFFFFFFFFFFFFFFFFFFFFFFFFFFFFFFFFFFFFFFFFF DIV DUP4 GT DUP3 ISZERO ISZERO AND ISZERO PUSH2 0xA98 JUMPI PUSH2 0xA97 PUSH2 0x807 JUMP JUMPDEST JUMPDEST DUP3 DUP3 MUL SWAP1 POP SWAP3 SWAP2 POP POP JUMP JUMPDEST PUSH32 0x4E487B7100000000000000000000000000000000000000000000000000000000 PUSH1 0x0 MSTORE PUSH1 0x12 PUSH1 0x4 MSTORE PUSH1 0x24 PUSH1 0x0 REVERT JUMPDEST PUSH1 0x0 PUSH2 0xADD DUP3 PUSH2 0x696 JUMP JUMPDEST SWAP2 POP PUSH2 0xAE8 DUP4 PUSH2 0x696 JUMP JUMPDEST SWAP3 POP DUP3 PUSH2 0xAF8 JUMPI PUSH2 0xAF7 PUSH2 0xAA3 JUMP JUMPDEST JUMPDEST DUP3 DUP3 DIV SWAP1 POP SWAP3 SWAP2 POP POP JUMP JUMPDEST PUSH1 0x0 PUSH10 0xFFFFFFFFFFFFFFFFFFFF DUP3 AND SWAP1 POP SWAP2 SWAP1 POP JUMP JUMPDEST PUSH2 0xB22 DUP2 PUSH2 0xB03 JUMP JUMPDEST DUP2 EQ PUSH2 0xB2D JUMPI PUSH1 0x0 DUP1 REVERT JUMPDEST POP JUMP JUMPDEST PUSH1 0x0 DUP2 MLOAD SWAP1 POP PUSH2 0xB3F DUP2 PUSH2 0xB19 JUMP JUMPDEST SWAP3 SWAP2 POP POP JUMP JUMPDEST PUSH1 0x0 DUP2 SWAP1 POP SWAP2 SWAP1 POP JUMP JUMPDEST PUSH2 0xB58 DUP2 PUSH2 0xB45 JUMP JUMPDEST DUP2 EQ PUSH2 0xB63 JUMPI PUSH1 0x0 DUP1 REVERT JUMPDEST POP JUMP JUMPDEST PUSH1 0x0 DUP2 MLOAD SWAP1 POP PUSH2 0xB75 DUP2 PUSH2 0xB4F JUMP JUMPDEST SWAP3 SWAP2 POP POP JUMP JUMPDEST PUSH1 0x0 DUP2 MLOAD SWAP1 POP PUSH2 0xB8A DUP2 PUSH2 0x6A0 JUMP JUMPDEST SWAP3 SWAP2 POP POP JUMP JUMPDEST PUSH1 0x0 DUP1 PUSH1 0x0 DUP1 PUSH1 0x0 PUSH1 0xA0 DUP7 DUP9 SUB SLT ISZERO PUSH2 0xBAC JUMPI PUSH2 0xBAB PUSH2 0x691 JUMP JUMPDEST JUMPDEST PUSH1 0x0 PUSH2 0xBBA DUP9 DUP3 DUP10 ADD PUSH2 0xB30 JUMP JUMPDEST SWAP6 POP POP PUSH1 0x20 PUSH2 0xBCB DUP9 DUP3 DUP10 ADD PUSH2 0xB66 JUMP JUMPDEST SWAP5 POP POP PUSH1 0x40 PUSH2 0xBDC DUP9 DUP3 DUP10 ADD PUSH2 0xB7B JUMP JUMPDEST SWAP4 POP POP PUSH1 0x60 PUSH2 0xBED DUP9 DUP3 DUP10 ADD PUSH2 0xB7B JUMP JUMPDEST SWAP3 POP POP PUSH1 0x80 PUSH2 0xBFE DUP9 DUP3 DUP10 ADD PUSH2 0xB30 JUMP JUMPDEST SWAP2 POP POP SWAP3 SWAP6 POP SWAP3 SWAP6 SWAP1 SWAP4 POP JUMP JUMPDEST PUSH1 0x0 PUSH2 0xC16 DUP3 PUSH2 0xB45 JUMP JUMPDEST SWAP2 POP PUSH2 0xC21 DUP4 PUSH2 0xB45 JUMP JUMPDEST SWAP3 POP DUP3 PUSH32 0x7FFFFFFFFFFFFFFFFFFFFFFFFFFFFFFFFFFFFFFFFFFFFFFFFFFFFFFFFFFFFFFF DIV DUP3 GT PUSH1 0x0 DUP5 SGT PUSH1 0x0 DUP5 SGT AND AND ISZERO PUSH2 0xC60 JUMPI PUSH2 0xC5F PUSH2 0x807 JUMP JUMPDEST JUMPDEST DUP2 PUSH32 0x8000000000000000000000000000000000000000000000000000000000000000 SDIV DUP4 SLT PUSH1 0x0 DUP5 SLT PUSH1 0x0 DUP5 SGT AND AND ISZERO PUSH2 0xC9D JUMPI PUSH2 0xC9C PUSH2 0x807 JUMP JUMPDEST JUMPDEST DUP3 PUSH32 0x8000000000000000000000000000000000000000000000000000000000000000 SDIV DUP3 SLT PUSH1 0x0 DUP5 SGT PUSH1 0x0 DUP5 SLT AND AND ISZERO PUSH2 0xCDA JUMPI PUSH2 0xCD9 PUSH2 0x807 JUMP JUMPDEST JUMPDEST DUP3 PUSH32 0x7FFFFFFFFFFFFFFFFFFFFFFFFFFFFFFFFFFFFFFFFFFFFFFFFFFFFFFFFFFFFFFF SDIV DUP3 SLT PUSH1 0x0 DUP5 SLT PUSH1 0x0 DUP5 SLT AND AND ISZERO PUSH2 0xD17 JUMPI PUSH2 0xD16 PUSH2 0x807 JUMP JUMPDEST JUMPDEST DUP3 DUP3 MUL SWAP1 POP SWAP3 SWAP2 POP POP JUMP INVALID LOG2 PUSH5 0x6970667358 0x22 SLT KECCAK256 CALLDATACOPY COINBASE 0xEC 0xCC MSIZE PUSH14 0x8E69CFB163419CA373ACF77E8D17 0xDB SWAP5 PUSH12 0x62CBE1A47A4E06932A64736F PUSH13 0x63430008080033000000000000 "
				},
				"gasEstimates": {
					"creation": {
						"codeDepositCost": "683200",
						"executionCost": "22821",
						"totalCost": "706021"
					},
					"external": {
						"amountFunded(address)": "2880",
						"fund()": "infinite",
						"funder(uint256)": "4934",
						"minimumUSD()": "2451",
						"withdraw(uint256)": "infinite"
					}
				},
				"methodIdentifiers": {
					"amountFunded(address)": "deaf2cf0",
					"fund()": "b60d4288",
					"funder(uint256)": "1f2c9238",
					"minimumUSD()": "3430a88c",
					"withdraw(uint256)": "2e1a7d4d"
				}
			},
			"storageLayout": {
				"storage": [
					{
						"astId": 56,
						"contract": "contracts/Transaction.sol:Transaction",
						"label": "minimumUSD",
						"offset": 0,
						"slot": "0",
						"type": "t_uint256"
					},
					{
						"astId": 59,
						"contract": "contracts/Transaction.sol:Transaction",
						"label": "funder",
						"offset": 0,
						"slot": "1",
						"type": "t_array(t_address)dyn_storage"
					},
					{
						"astId": 63,
						"contract": "contracts/Transaction.sol:Transaction",
						"label": "amountFunded",
						"offset": 0,
						"slot": "2",
						"type": "t_mapping(t_address,t_uint256)"
					}
				],
				"types": {
					"t_address": {
						"encoding": "inplace",
						"label": "address",
						"numberOfBytes": "20"
					},
					"t_array(t_address)dyn_storage": {
						"base": "t_address",
						"encoding": "dynamic_array",
						"label": "address[]",
						"numberOfBytes": "32"
					},
					"t_mapping(t_address,t_uint256)": {
						"encoding": "mapping",
						"key": "t_address",
						"label": "mapping(address => uint256)",
						"numberOfBytes": "32",
						"value": "t_uint256"
					},
					"t_uint256": {
						"encoding": "inplace",
						"label": "uint256",
						"numberOfBytes": "32"
					}
				}
			},
			"userdoc": {
				"kind": "user",
				"methods": {},
				"version": 1
			}
		}
	}
}