{
	"contracts/Transaction.sol": {
		"Transaction": {
			"abi": [
				{
					"inputs": [],
					"name": "fund",
					"outputs": [],
					"stateMutability": "payable",
					"type": "function"
				}
			],
			"devdoc": {
				"kind": "dev",
				"methods": {},
				"version": 1
			},
			"evm": {
				"assembly": "    /* \"contracts/Transaction.sol\":57:234  contract Transaction {... */\n  mstore(0x40, 0x80)\n    /* \"contracts/Transaction.sol\":106:108  50 */\n  0x32\n    /* \"contracts/Transaction.sol\":85:108  uint256 mininumUSD = 50 */\n  0x00\n  sstore\n    /* \"contracts/Transaction.sol\":57:234  contract Transaction {... */\n  callvalue\n  dup1\n  iszero\n  tag_1\n  jumpi\n  0x00\n  dup1\n  revert\ntag_1:\n  pop\n  dataSize(sub_0)\n  dup1\n  dataOffset(sub_0)\n  0x00\n  codecopy\n  0x00\n  return\nstop\n\nsub_0: assembly {\n        /* \"contracts/Transaction.sol\":57:234  contract Transaction {... */\n      mstore(0x40, 0x80)\n      jumpi(tag_1, lt(calldatasize, 0x04))\n      shr(0xe0, calldataload(0x00))\n      dup1\n      0xb60d4288\n      eq\n      tag_2\n      jumpi\n    tag_1:\n      0x00\n      dup1\n      revert\n        /* \"contracts/Transaction.sol\":115:229  function fund() public payable {... */\n    tag_2:\n      tag_3\n      tag_4\n      jump\t// in\n    tag_3:\n      stop\n    tag_4:\n        /* \"contracts/Transaction.sol\":177:187  mininumUSD */\n      sload(0x00)\n        /* \"contracts/Transaction.sol\":165:174  msg.value */\n      callvalue\n        /* \"contracts/Transaction.sol\":165:187  msg.value > mininumUSD */\n      gt\n        /* \"contracts/Transaction.sol\":157:221  require(msg.value > mininumUSD, \"Amount must be greater than 1\") */\n      tag_6\n      jumpi\n      mload(0x40)\n      0x08c379a000000000000000000000000000000000000000000000000000000000\n      dup2\n      mstore\n      0x04\n      add\n      tag_7\n      swap1\n      tag_8\n      jump\t// in\n    tag_7:\n      mload(0x40)\n      dup1\n      swap2\n      sub\n      swap1\n      revert\n    tag_6:\n        /* \"contracts/Transaction.sol\":115:229  function fund() public payable {... */\n      jump\t// out\n        /* \"#utility.yul\":7:176   */\n    tag_9:\n        /* \"#utility.yul\":91:102   */\n      0x00\n        /* \"#utility.yul\":125:131   */\n      dup3\n        /* \"#utility.yul\":120:123   */\n      dup3\n        /* \"#utility.yul\":113:132   */\n      mstore\n        /* \"#utility.yul\":165:169   */\n      0x20\n        /* \"#utility.yul\":160:163   */\n      dup3\n        /* \"#utility.yul\":156:170   */\n      add\n        /* \"#utility.yul\":141:170   */\n      swap1\n      pop\n        /* \"#utility.yul\":7:176   */\n      swap3\n      swap2\n      pop\n      pop\n      jump\t// out\n        /* \"#utility.yul\":182:361   */\n    tag_10:\n        /* \"#utility.yul\":322:353   */\n      0x416d6f756e74206d7573742062652067726561746572207468616e2031000000\n        /* \"#utility.yul\":318:319   */\n      0x00\n        /* \"#utility.yul\":310:316   */\n      dup3\n        /* \"#utility.yul\":306:320   */\n      add\n        /* \"#utility.yul\":299:354   */\n      mstore\n        /* \"#utility.yul\":182:361   */\n      pop\n      jump\t// out\n        /* \"#utility.yul\":367:733   */\n    tag_11:\n        /* \"#utility.yul\":509:512   */\n      0x00\n        /* \"#utility.yul\":530:597   */\n      tag_16\n        /* \"#utility.yul\":594:596   */\n      0x1d\n        /* \"#utility.yul\":589:592   */\n      dup4\n        /* \"#utility.yul\":530:597   */\n      tag_9\n      jump\t// in\n    tag_16:\n        /* \"#utility.yul\":523:597   */\n      swap2\n      pop\n        /* \"#utility.yul\":606:699   */\n      tag_17\n        /* \"#utility.yul\":695:698   */\n      dup3\n        /* \"#utility.yul\":606:699   */\n      tag_10\n      jump\t// in\n    tag_17:\n        /* \"#utility.yul\":724:726   */\n      0x20\n        /* \"#utility.yul\":719:722   */\n      dup3\n        /* \"#utility.yul\":715:727   */\n      add\n        /* \"#utility.yul\":708:727   */\n      swap1\n      pop\n        /* \"#utility.yul\":367:733   */\n      swap2\n      swap1\n      pop\n      jump\t// out\n        /* \"#utility.yul\":739:1158   */\n    tag_8:\n        /* \"#utility.yul\":905:909   */\n      0x00\n        /* \"#utility.yul\":943:945   */\n      0x20\n        /* \"#utility.yul\":932:941   */\n      dup3\n        /* \"#utility.yul\":928:946   */\n      add\n        /* \"#utility.yul\":920:946   */\n      swap1\n      pop\n        /* \"#utility.yul\":992:1001   */\n      dup2\n        /* \"#utility.yul\":986:990   */\n      dup2\n        /* \"#utility.yul\":982:1002   */\n      sub\n        /* \"#utility.yul\":978:979   */\n      0x00\n        /* \"#utility.yul\":967:976   */\n      dup4\n        /* \"#utility.yul\":963:980   */\n      add\n        /* \"#utility.yul\":956:1003   */\n      mstore\n        /* \"#utility.yul\":1020:1151   */\n      tag_19\n        /* \"#utility.yul\":1146:1150   */\n      dup2\n        /* \"#utility.yul\":1020:1151   */\n      tag_11\n      jump\t// in\n    tag_19:\n        /* \"#utility.yul\":1012:1151   */\n      swap1\n      pop\n        /* \"#utility.yul\":739:1158   */\n      swap2\n      swap1\n      pop\n      jump\t// out\n\n    auxdata: 0xa2646970667358221220580e72dda6196df6e9a7e8020cee1f003069ca6cb790eb7a8d1cc39c4551ef9164736f6c63430008080033\n}\n",
				"bytecode": {
					"linkReferences": {},
					"object": "6080604052603260005534801561001557600080fd5b50610119806100256000396000f3fe608060405260043610601c5760003560e01c8063b60d4288146021575b600080fd5b60276029565b005b6000543411606a576040517f08c379a000000000000000000000000000000000000000000000000000000000815260040160619060c5565b60405180910390fd5b565b600082825260208201905092915050565b7f416d6f756e74206d7573742062652067726561746572207468616e2031000000600082015250565b600060b1601d83606c565b915060ba82607d565b602082019050919050565b6000602082019050818103600083015260dc8160a6565b905091905056fea2646970667358221220580e72dda6196df6e9a7e8020cee1f003069ca6cb790eb7a8d1cc39c4551ef9164736f6c63430008080033",
					"opcodes": "PUSH1 0x80 PUSH1 0x40 MSTORE PUSH1 0x32 PUSH1 0x0 SSTORE CALLVALUE DUP1 ISZERO PUSH2 0x15 JUMPI PUSH1 0x0 DUP1 REVERT JUMPDEST POP PUSH2 0x119 DUP1 PUSH2 0x25 PUSH1 0x0 CODECOPY PUSH1 0x0 RETURN INVALID PUSH1 0x80 PUSH1 0x40 MSTORE PUSH1 0x4 CALLDATASIZE LT PUSH1 0x1C JUMPI PUSH1 0x0 CALLDATALOAD PUSH1 0xE0 SHR DUP1 PUSH4 0xB60D4288 EQ PUSH1 0x21 JUMPI JUMPDEST PUSH1 0x0 DUP1 REVERT JUMPDEST PUSH1 0x27 PUSH1 0x29 JUMP JUMPDEST STOP JUMPDEST PUSH1 0x0 SLOAD CALLVALUE GT PUSH1 0x6A JUMPI PUSH1 0x40 MLOAD PUSH32 0x8C379A000000000000000000000000000000000000000000000000000000000 DUP2 MSTORE PUSH1 0x4 ADD PUSH1 0x61 SWAP1 PUSH1 0xC5 JUMP JUMPDEST PUSH1 0x40 MLOAD DUP1 SWAP2 SUB SWAP1 REVERT JUMPDEST JUMP JUMPDEST PUSH1 0x0 DUP3 DUP3 MSTORE PUSH1 0x20 DUP3 ADD SWAP1 POP SWAP3 SWAP2 POP POP JUMP JUMPDEST PUSH32 0x416D6F756E74206D7573742062652067726561746572207468616E2031000000 PUSH1 0x0 DUP3 ADD MSTORE POP JUMP JUMPDEST PUSH1 0x0 PUSH1 0xB1 PUSH1 0x1D DUP4 PUSH1 0x6C JUMP JUMPDEST SWAP2 POP PUSH1 0xBA DUP3 PUSH1 0x7D JUMP JUMPDEST PUSH1 0x20 DUP3 ADD SWAP1 POP SWAP2 SWAP1 POP JUMP JUMPDEST PUSH1 0x0 PUSH1 0x20 DUP3 ADD SWAP1 POP DUP2 DUP2 SUB PUSH1 0x0 DUP4 ADD MSTORE PUSH1 0xDC DUP2 PUSH1 0xA6 JUMP JUMPDEST SWAP1 POP SWAP2 SWAP1 POP JUMP INVALID LOG2 PUSH5 0x6970667358 0x22 SLT KECCAK256 PC 0xE PUSH19 0xDDA6196DF6E9A7E8020CEE1F003069CA6CB790 0xEB PUSH27 0x8D1CC39C4551EF9164736F6C634300080800330000000000000000 "
				},
				"gasEstimates": {
					"creation": {
						"codeDepositCost": "56200",
						"executionCost": "22211",
						"totalCost": "78411"
					},
					"external": {
						"fund()": "2509"
					}
				},
				"methodIdentifiers": {
					"fund()": "b60d4288"
				}
			},
			"storageLayout": {
				"storage": [
					{
						"astId": 4,
						"contract": "contracts/Transaction.sol:Transaction",
						"label": "mininumUSD",
						"offset": 0,
						"slot": "0",
						"type": "t_uint256"
					}
				],
				"types": {
					"t_uint256": {
						"encoding": "inplace",
						"label": "uint256",
						"numberOfBytes": "32"
					}
				}
			},
			"userdoc": {
				"kind": "user",
				"methods": {},
				"version": 1
			}
		}
	}
}