{
	"contracts/Transaction.sol": {
		"Transaction": {
			"abi": [
				{
					"inputs": [],
					"stateMutability": "nonpayable",
					"type": "constructor"
				},
				{
					"inputs": [],
					"name": "MINIMUMUSD",
					"outputs": [
						{
							"internalType": "uint256",
							"name": "",
							"type": "uint256"
						}
					],
					"stateMutability": "view",
					"type": "function"
				},
				{
					"inputs": [
						{
							"internalType": "address",
							"name": "",
							"type": "address"
						}
					],
					"name": "amountFunded",
					"outputs": [
						{
							"internalType": "uint256",
							"name": "",
							"type": "uint256"
						}
					],
					"stateMutability": "view",
					"type": "function"
				},
				{
					"inputs": [],
					"name": "fund",
					"outputs": [],
					"stateMutability": "payable",
					"type": "function"
				},
				{
					"inputs": [
						{
							"internalType": "uint256",
							"name": "",
							"type": "uint256"
						}
					],
					"name": "funder",
					"outputs": [
						{
							"internalType": "address",
							"name": "",
							"type": "address"
						}
					],
					"stateMutability": "view",
					"type": "function"
				},
				{
					"inputs": [],
					"name": "i_owner",
					"outputs": [
						{
							"internalType": "address",
							"name": "",
							"type": "address"
						}
					],
					"stateMutability": "view",
					"type": "function"
				},
				{
					"inputs": [],
					"name": "withdraw",
					"outputs": [],
					"stateMutability": "nonpayable",
					"type": "function"
				}
			],
			"devdoc": {
				"kind": "dev",
				"methods": {},
				"version": 1
			},
			"evm": {
				"assembly": "    /* \"contracts/Transaction.sol\":97:1462  contract Transaction {... */\n  mstore(0x40, 0xa0)\n    /* \"contracts/Transaction.sol\":372:423  constructor() {... */\n  callvalue\n  dup1\n  iszero\n  tag_1\n  jumpi\n  0x00\n  dup1\n  revert\ntag_1:\n  pop\n    /* \"contracts/Transaction.sol\":406:416  msg.sender */\n  caller\n    /* \"contracts/Transaction.sol\":396:416  i_owner = msg.sender */\n  0xffffffffffffffffffffffffffffffffffffffff\n  and\n  0x80\n  dup2\n  0xffffffffffffffffffffffffffffffffffffffff\n  and\n  0x60\n  shl\n  dup2\n  mstore\n  pop\n  pop\n    /* \"contracts/Transaction.sol\":97:1462  contract Transaction {... */\n  shr(0x60, mload(0x80))\n  codecopy(0x00, dataOffset(sub_0), dataSize(sub_0))\n  0x00\n  assignImmutable(\"0x606503ebd6bdca7290248af82fd5a09ca0489398da9f242244210336ae6ece9f\")\n  return(0x00, dataSize(sub_0))\nstop\n\nsub_0: assembly {\n        /* \"contracts/Transaction.sol\":97:1462  contract Transaction {... */\n      mstore(0x40, 0x80)\n      jumpi(tag_1, lt(calldatasize, 0x04))\n      shr(0xe0, calldataload(0x00))\n      dup1\n      0x1f2c9238\n      eq\n      tag_2\n      jumpi\n      dup1\n      0x3ccfd60b\n      eq\n      tag_3\n      jumpi\n      dup1\n      0x7d451480\n      eq\n      tag_4\n      jumpi\n      dup1\n      0xb60d4288\n      eq\n      tag_5\n      jumpi\n      dup1\n      0xdba6335f\n      eq\n      tag_6\n      jumpi\n      dup1\n      0xdeaf2cf0\n      eq\n      tag_7\n      jumpi\n    tag_1:\n      0x00\n      dup1\n      revert\n        /* \"contracts/Transaction.sol\":214:237  address[] public funder */\n    tag_2:\n      callvalue\n      dup1\n      iszero\n      tag_8\n      jumpi\n      0x00\n      dup1\n      revert\n    tag_8:\n      pop\n      tag_9\n      0x04\n      dup1\n      calldatasize\n      sub\n      dup2\n      add\n      swap1\n      tag_10\n      swap2\n      swap1\n      tag_11\n      jump\t// in\n    tag_10:\n      tag_12\n      jump\t// in\n    tag_9:\n      mload(0x40)\n      tag_13\n      swap2\n      swap1\n      tag_14\n      jump\t// in\n    tag_13:\n      mload(0x40)\n      dup1\n      swap2\n      sub\n      swap1\n      return\n        /* \"contracts/Transaction.sol\":642:1344  function withdraw() public onlyOwner {... */\n    tag_3:\n      callvalue\n      dup1\n      iszero\n      tag_15\n      jumpi\n      0x00\n      dup1\n      revert\n    tag_15:\n      pop\n      tag_16\n      tag_17\n      jump\t// in\n    tag_16:\n      stop\n        /* \"contracts/Transaction.sol\":163:208  uint256 public constant MINIMUMUSD = 2 * 1e18 */\n    tag_4:\n      callvalue\n      dup1\n      iszero\n      tag_18\n      jumpi\n      0x00\n      dup1\n      revert\n    tag_18:\n      pop\n      tag_19\n      tag_20\n      jump\t// in\n    tag_19:\n      mload(0x40)\n      tag_21\n      swap2\n      swap1\n      tag_22\n      jump\t// in\n    tag_21:\n      mload(0x40)\n      dup1\n      swap2\n      sub\n      swap1\n      return\n        /* \"contracts/Transaction.sol\":430:635  function fund() public payable {... */\n    tag_5:\n      tag_23\n      tag_24\n      jump\t// in\n    tag_23:\n      stop\n        /* \"contracts/Transaction.sol\":296:328  address public immutable i_owner */\n    tag_6:\n      callvalue\n      dup1\n      iszero\n      tag_25\n      jumpi\n      0x00\n      dup1\n      revert\n    tag_25:\n      pop\n      tag_26\n      tag_27\n      jump\t// in\n    tag_26:\n      mload(0x40)\n      tag_28\n      swap2\n      swap1\n      tag_14\n      jump\t// in\n    tag_28:\n      mload(0x40)\n      dup1\n      swap2\n      sub\n      swap1\n      return\n        /* \"contracts/Transaction.sol\":243:290  mapping(address => uint256) public amountFunded */\n    tag_7:\n      callvalue\n      dup1\n      iszero\n      tag_29\n      jumpi\n      0x00\n      dup1\n      revert\n    tag_29:\n      pop\n      tag_30\n      0x04\n      dup1\n      calldatasize\n      sub\n      dup2\n      add\n      swap1\n      tag_31\n      swap2\n      swap1\n      tag_32\n      jump\t// in\n    tag_31:\n      tag_33\n      jump\t// in\n    tag_30:\n      mload(0x40)\n      tag_34\n      swap2\n      swap1\n      tag_22\n      jump\t// in\n    tag_34:\n      mload(0x40)\n      dup1\n      swap2\n      sub\n      swap1\n      return\n        /* \"contracts/Transaction.sol\":214:237  address[] public funder */\n    tag_12:\n      0x00\n      dup2\n      dup2\n      sload\n      dup2\n      lt\n      tag_35\n      jumpi\n      0x00\n      dup1\n      revert\n    tag_35:\n      swap1\n      0x00\n      mstore\n      keccak256(0x00, 0x20)\n      add\n      0x00\n      swap2\n      pop\n      sload\n      swap1\n      0x0100\n      exp\n      swap1\n      div\n      0xffffffffffffffffffffffffffffffffffffffff\n      and\n      dup2\n      jump\t// out\n        /* \"contracts/Transaction.sol\":642:1344  function withdraw() public onlyOwner {... */\n    tag_17:\n        /* \"contracts/Transaction.sol\":1402:1409  i_owner */\n      immutable(\"0x606503ebd6bdca7290248af82fd5a09ca0489398da9f242244210336ae6ece9f\")\n        /* \"contracts/Transaction.sol\":1388:1409  msg.sender == i_owner */\n      0xffffffffffffffffffffffffffffffffffffffff\n      and\n        /* \"contracts/Transaction.sol\":1388:1398  msg.sender */\n      caller\n        /* \"contracts/Transaction.sol\":1388:1409  msg.sender == i_owner */\n      0xffffffffffffffffffffffffffffffffffffffff\n      and\n      eq\n        /* \"contracts/Transaction.sol\":1380:1440  require(msg.sender == i_owner, \"Only owner can access this\") */\n      tag_38\n      jumpi\n      mload(0x40)\n      0x08c379a000000000000000000000000000000000000000000000000000000000\n      dup2\n      mstore\n      0x04\n      add\n      tag_39\n      swap1\n      tag_40\n      jump\t// in\n    tag_39:\n      mload(0x40)\n      dup1\n      swap2\n      sub\n      swap1\n      revert\n    tag_38:\n        /* \"contracts/Transaction.sol\":693:712  uint256 funderIndex */\n      0x00\n        /* \"contracts/Transaction.sol\":689:875  for(uint256 funderIndex = 0; funderIndex < funder.length; funderIndex++) {... */\n    tag_42:\n        /* \"contracts/Transaction.sol\":732:738  funder */\n      0x00\n        /* \"contracts/Transaction.sol\":732:745  funder.length */\n      dup1\n      sload\n      swap1\n      pop\n        /* \"contracts/Transaction.sol\":718:729  funderIndex */\n      dup2\n        /* \"contracts/Transaction.sol\":718:745  funderIndex < funder.length */\n      lt\n        /* \"contracts/Transaction.sol\":689:875  for(uint256 funderIndex = 0; funderIndex < funder.length; funderIndex++) {... */\n      iszero\n      tag_43\n      jumpi\n        /* \"contracts/Transaction.sol\":776:797  address funderAddress */\n      0x00\n        /* \"contracts/Transaction.sol\":800:806  funder */\n      dup1\n        /* \"contracts/Transaction.sol\":807:818  funderIndex */\n      dup3\n        /* \"contracts/Transaction.sol\":800:819  funder[funderIndex] */\n      dup2\n      sload\n      dup2\n      lt\n      tag_45\n      jumpi\n      tag_46\n      tag_47\n      jump\t// in\n    tag_46:\n    tag_45:\n      swap1\n      0x00\n      mstore\n      keccak256(0x00, 0x20)\n      add\n      0x00\n      swap1\n      sload\n      swap1\n      0x0100\n      exp\n      swap1\n      div\n      0xffffffffffffffffffffffffffffffffffffffff\n      and\n        /* \"contracts/Transaction.sol\":776:819  address funderAddress = funder[funderIndex] */\n      swap1\n      pop\n        /* \"contracts/Transaction.sol\":863:864  0 */\n      0x00\n        /* \"contracts/Transaction.sol\":833:845  amountFunded */\n      0x01\n        /* \"contracts/Transaction.sol\":833:860  amountFunded[funderAddress] */\n      0x00\n        /* \"contracts/Transaction.sol\":846:859  funderAddress */\n      dup4\n        /* \"contracts/Transaction.sol\":833:860  amountFunded[funderAddress] */\n      0xffffffffffffffffffffffffffffffffffffffff\n      and\n      0xffffffffffffffffffffffffffffffffffffffff\n      and\n      dup2\n      mstore\n      0x20\n      add\n      swap1\n      dup2\n      mstore\n      0x20\n      add\n      0x00\n      keccak256\n        /* \"contracts/Transaction.sol\":833:864  amountFunded[funderAddress] = 0 */\n      dup2\n      swap1\n      sstore\n      pop\n        /* \"contracts/Transaction.sol\":762:875  {... */\n      pop\n        /* \"contracts/Transaction.sol\":747:760  funderIndex++ */\n      dup1\n      dup1\n      tag_49\n      swap1\n      tag_50\n      jump\t// in\n    tag_49:\n      swap2\n      pop\n      pop\n        /* \"contracts/Transaction.sol\":689:875  for(uint256 funderIndex = 0; funderIndex < funder.length; funderIndex++) {... */\n      jump(tag_42)\n    tag_43:\n      pop\n        /* \"contracts/Transaction.sol\":942:943  0 */\n      0x00\n        /* \"contracts/Transaction.sol\":928:944  new address[](0) */\n      0xffffffffffffffff\n      dup2\n      gt\n      iszero\n      tag_51\n      jumpi\n      tag_52\n      tag_53\n      jump\t// in\n    tag_52:\n    tag_51:\n      mload(0x40)\n      swap1\n      dup1\n      dup3\n      mstore\n      dup1\n      0x20\n      mul\n      0x20\n      add\n      dup3\n      add\n      0x40\n      mstore\n      dup1\n      iszero\n      tag_54\n      jumpi\n      dup2\n      0x20\n      add\n      0x20\n      dup3\n      mul\n      dup1\n      calldatasize\n      dup4\n      calldatacopy\n      dup1\n      dup3\n      add\n      swap2\n      pop\n      pop\n      swap1\n      pop\n    tag_54:\n      pop\n        /* \"contracts/Transaction.sol\":919:925  funder */\n      0x00\n        /* \"contracts/Transaction.sol\":919:944  funder = new address[](0) */\n      swap1\n      dup1\n      mload\n      swap1\n      0x20\n      add\n      swap1\n      tag_55\n      swap3\n      swap2\n      swap1\n      tag_56\n      jump\t// in\n    tag_55:\n      pop\n        /* \"contracts/Transaction.sol\":1218:1230  bool success */\n      0x00\n        /* \"contracts/Transaction.sol\":1244:1254  msg.sender */\n      caller\n        /* \"contracts/Transaction.sol\":1236:1260  payable(msg.sender).call */\n      0xffffffffffffffffffffffffffffffffffffffff\n      and\n        /* \"contracts/Transaction.sol\":1268:1289  address(this).balance */\n      selfbalance\n        /* \"contracts/Transaction.sol\":1236:1294  payable(msg.sender).call{value: address(this).balance}(\"\") */\n      mload(0x40)\n      tag_57\n      swap1\n      tag_58\n      jump\t// in\n    tag_57:\n      0x00\n      mload(0x40)\n      dup1\n      dup4\n      sub\n      dup2\n      dup6\n      dup8\n      gas\n      call\n      swap3\n      pop\n      pop\n      pop\n      returndatasize\n      dup1\n      0x00\n      dup2\n      eq\n      tag_61\n      jumpi\n      mload(0x40)\n      swap2\n      pop\n      and(add(returndatasize, 0x3f), not(0x1f))\n      dup3\n      add\n      0x40\n      mstore\n      returndatasize\n      dup3\n      mstore\n      returndatasize\n      0x00\n      0x20\n      dup5\n      add\n      returndatacopy\n      jump(tag_60)\n    tag_61:\n      0x60\n      swap2\n      pop\n    tag_60:\n      pop\n        /* \"contracts/Transaction.sol\":1217:1294  (bool success, ) = payable(msg.sender).call{value: address(this).balance}(\"\") */\n      pop\n      swap1\n      pop\n        /* \"contracts/Transaction.sol\":1312:1319  success */\n      dup1\n        /* \"contracts/Transaction.sol\":1304:1337  require(success, \"Review amount\") */\n      tag_62\n      jumpi\n      mload(0x40)\n      0x08c379a000000000000000000000000000000000000000000000000000000000\n      dup2\n      mstore\n      0x04\n      add\n      tag_63\n      swap1\n      tag_64\n      jump\t// in\n    tag_63:\n      mload(0x40)\n      dup1\n      swap2\n      sub\n      swap1\n      revert\n    tag_62:\n        /* \"contracts/Transaction.sol\":679:1344  {... */\n      pop\n        /* \"contracts/Transaction.sol\":642:1344  function withdraw() public onlyOwner {... */\n      jump\t// out\n        /* \"contracts/Transaction.sol\":163:208  uint256 public constant MINIMUMUSD = 2 * 1e18 */\n    tag_20:\n        /* \"contracts/Transaction.sol\":200:208  2 * 1e18 */\n      0x1bc16d674ec80000\n        /* \"contracts/Transaction.sol\":163:208  uint256 public constant MINIMUMUSD = 2 * 1e18 */\n      dup2\n      jump\t// out\n        /* \"contracts/Transaction.sol\":430:635  function fund() public payable {... */\n    tag_24:\n        /* \"contracts/Transaction.sol\":200:208  2 * 1e18 */\n      0x1bc16d674ec80000\n        /* \"contracts/Transaction.sol\":479:500  msg.value.converter() */\n      tag_66\n        /* \"contracts/Transaction.sol\":479:488  msg.value */\n      callvalue\n        /* \"contracts/Transaction.sol\":479:498  msg.value.converter */\n      tag_67\n        /* \"contracts/Transaction.sol\":479:500  msg.value.converter() */\n      jump\t// in\n    tag_66:\n        /* \"contracts/Transaction.sol\":479:514  msg.value.converter() >= MINIMUMUSD */\n      lt\n      iszero\n        /* \"contracts/Transaction.sol\":471:548  require(msg.value.converter() >= MINIMUMUSD, \"Amount must be greater than 1\") */\n      tag_68\n      jumpi\n      mload(0x40)\n      0x08c379a000000000000000000000000000000000000000000000000000000000\n      dup2\n      mstore\n      0x04\n      add\n      tag_69\n      swap1\n      tag_70\n      jump\t// in\n    tag_69:\n      mload(0x40)\n      dup1\n      swap2\n      sub\n      swap1\n      revert\n    tag_68:\n        /* \"contracts/Transaction.sol\":558:564  funder */\n      0x00\n        /* \"contracts/Transaction.sol\":570:580  msg.sender */\n      caller\n        /* \"contracts/Transaction.sol\":558:581  funder.push(msg.sender) */\n      swap1\n      dup1\n      0x01\n      dup2\n      sload\n      add\n      dup1\n      dup3\n      sstore\n      dup1\n      swap2\n      pop\n      pop\n      0x01\n      swap1\n      sub\n      swap1\n      0x00\n      mstore\n      keccak256(0x00, 0x20)\n      add\n      0x00\n      swap1\n      swap2\n      swap1\n      swap2\n      swap1\n      swap2\n      0x0100\n      exp\n      dup2\n      sload\n      dup2\n      0xffffffffffffffffffffffffffffffffffffffff\n      mul\n      not\n      and\n      swap1\n      dup4\n      0xffffffffffffffffffffffffffffffffffffffff\n      and\n      mul\n      or\n      swap1\n      sstore\n      pop\n        /* \"contracts/Transaction.sol\":618:627  msg.value */\n      callvalue\n        /* \"contracts/Transaction.sol\":591:603  amountFunded */\n      0x01\n        /* \"contracts/Transaction.sol\":591:615  amountFunded[msg.sender] */\n      0x00\n        /* \"contracts/Transaction.sol\":604:614  msg.sender */\n      caller\n        /* \"contracts/Transaction.sol\":591:615  amountFunded[msg.sender] */\n      0xffffffffffffffffffffffffffffffffffffffff\n      and\n      0xffffffffffffffffffffffffffffffffffffffff\n      and\n      dup2\n      mstore\n      0x20\n      add\n      swap1\n      dup2\n      mstore\n      0x20\n      add\n      0x00\n      keccak256\n        /* \"contracts/Transaction.sol\":591:627  amountFunded[msg.sender] = msg.value */\n      dup2\n      swap1\n      sstore\n      pop\n        /* \"contracts/Transaction.sol\":430:635  function fund() public payable {... */\n      jump\t// out\n        /* \"contracts/Transaction.sol\":296:328  address public immutable i_owner */\n    tag_27:\n      immutable(\"0x606503ebd6bdca7290248af82fd5a09ca0489398da9f242244210336ae6ece9f\")\n      dup2\n      jump\t// out\n        /* \"contracts/Transaction.sol\":243:290  mapping(address => uint256) public amountFunded */\n    tag_33:\n      mstore(0x20, 0x01)\n      dup1\n      0x00\n      mstore\n      keccak256(0x00, 0x40)\n      0x00\n      swap2\n      pop\n      swap1\n      pop\n      sload\n      dup2\n      jump\t// out\n        /* \"contracts/library/PriceConverter.sol\":434:630  function converter(uint256 ethAmount) internal view returns(uint256) {... */\n    tag_67:\n        /* \"contracts/library/PriceConverter.sol\":494:501  uint256 */\n      0x00\n        /* \"contracts/library/PriceConverter.sol\":513:526  uint256 price */\n      dup1\n        /* \"contracts/library/PriceConverter.sol\":529:539  getPrice() */\n      tag_73\n        /* \"contracts/library/PriceConverter.sol\":529:537  getPrice */\n      tag_74\n        /* \"contracts/library/PriceConverter.sol\":529:539  getPrice() */\n      jump\t// in\n    tag_73:\n        /* \"contracts/library/PriceConverter.sol\":513:539  uint256 price = getPrice() */\n      swap1\n      pop\n        /* \"contracts/library/PriceConverter.sol\":549:567  uint256 priceInUSD */\n      0x00\n        /* \"contracts/library/PriceConverter.sol\":592:596  1e18 */\n      0x0de0b6b3a7640000\n        /* \"contracts/library/PriceConverter.sol\":579:588  ethAmount */\n      dup5\n        /* \"contracts/library/PriceConverter.sol\":571:576  price */\n      dup4\n        /* \"contracts/library/PriceConverter.sol\":571:588  price * ethAmount */\n      tag_75\n      swap2\n      swap1\n      tag_76\n      jump\t// in\n    tag_75:\n        /* \"contracts/library/PriceConverter.sol\":570:596  (price * ethAmount) / 1e18 */\n      tag_77\n      swap2\n      swap1\n      tag_78\n      jump\t// in\n    tag_77:\n        /* \"contracts/library/PriceConverter.sol\":549:596  uint256 priceInUSD = (price * ethAmount) / 1e18 */\n      swap1\n      pop\n        /* \"contracts/library/PriceConverter.sol\":613:623  priceInUSD */\n      dup1\n        /* \"contracts/library/PriceConverter.sol\":606:623  return priceInUSD */\n      swap3\n      pop\n      pop\n      pop\n        /* \"contracts/library/PriceConverter.sol\":434:630  function converter(uint256 ethAmount) internal view returns(uint256) {... */\n      swap2\n      swap1\n      pop\n      jump\t// out\n        /* \"contracts/library/PriceConverter.sol\":164:428  function getPrice() internal view returns(uint256) {... */\n    tag_74:\n        /* \"contracts/library/PriceConverter.sol\":206:213  uint256 */\n      0x00\n        /* \"contracts/library/PriceConverter.sol\":225:256  AggregatorV3Interface priceFeed */\n      dup1\n        /* \"contracts/library/PriceConverter.sol\":281:323  0xD4a33860578De61DBAbDc8BFdb98FD742fA7028e */\n      0xd4a33860578de61dbabdc8bfdb98fd742fa7028e\n        /* \"contracts/library/PriceConverter.sol\":225:324  AggregatorV3Interface priceFeed = AggregatorV3Interface(0xD4a33860578De61DBAbDc8BFdb98FD742fA7028e) */\n      swap1\n      pop\n        /* \"contracts/library/PriceConverter.sol\":336:348  int256 price */\n      0x00\n        /* \"contracts/library/PriceConverter.sol\":356:365  priceFeed */\n      dup2\n        /* \"contracts/library/PriceConverter.sol\":356:381  priceFeed.latestRoundData */\n      0xffffffffffffffffffffffffffffffffffffffff\n      and\n      0xfeaf968c\n        /* \"contracts/library/PriceConverter.sol\":356:383  priceFeed.latestRoundData() */\n      mload(0x40)\n      dup2\n      0xffffffff\n      and\n      0xe0\n      shl\n      dup2\n      mstore\n      0x04\n      add\n      0xa0\n      mload(0x40)\n      dup1\n      dup4\n      sub\n      dup2\n      dup7\n      dup1\n      extcodesize\n      iszero\n      dup1\n      iszero\n      tag_80\n      jumpi\n      0x00\n      dup1\n      revert\n    tag_80:\n      pop\n      gas\n      staticcall\n      iszero\n      dup1\n      iszero\n      tag_82\n      jumpi\n      returndatasize\n      0x00\n      dup1\n      returndatacopy\n      revert(0x00, returndatasize)\n    tag_82:\n      pop\n      pop\n      pop\n      pop\n      mload(0x40)\n      returndatasize\n      not(0x1f)\n      0x1f\n      dup3\n      add\n      and\n      dup3\n      add\n      dup1\n      0x40\n      mstore\n      pop\n      dup2\n      add\n      swap1\n      tag_83\n      swap2\n      swap1\n      tag_84\n      jump\t// in\n    tag_83:\n        /* \"contracts/library/PriceConverter.sol\":334:383  (,int256 price,,, ) = priceFeed.latestRoundData() */\n      pop\n      pop\n      pop\n      swap2\n      pop\n      pop\n        /* \"contracts/library/PriceConverter.sol\":416:420  1e10 */\n      0x02540be400\n        /* \"contracts/library/PriceConverter.sol\":408:413  price */\n      dup2\n        /* \"contracts/library/PriceConverter.sol\":408:420  price * 1e10 */\n      tag_85\n      swap2\n      swap1\n      tag_86\n      jump\t// in\n    tag_85:\n        /* \"contracts/library/PriceConverter.sol\":393:421  return uint256(price * 1e10) */\n      swap3\n      pop\n      pop\n      pop\n        /* \"contracts/library/PriceConverter.sol\":164:428  function getPrice() internal view returns(uint256) {... */\n      swap1\n      jump\t// out\n    tag_56:\n      dup3\n      dup1\n      sload\n      dup3\n      dup3\n      sstore\n      swap1\n      0x00\n      mstore\n      keccak256(0x00, 0x20)\n      swap1\n      dup2\n      add\n      swap3\n      dup3\n      iszero\n      tag_87\n      jumpi\n      swap2\n      0x20\n      mul\n      dup3\n      add\n    tag_88:\n      dup3\n      dup2\n      gt\n      iszero\n      tag_89\n      jumpi\n      dup3\n      mload\n      dup3\n      exp(0x0100, 0x00)\n      dup2\n      sload\n      dup2\n      0xffffffffffffffffffffffffffffffffffffffff\n      mul\n      not\n      and\n      swap1\n      dup4\n      0xffffffffffffffffffffffffffffffffffffffff\n      and\n      mul\n      or\n      swap1\n      sstore\n      pop\n      swap2\n      0x20\n      add\n      swap2\n      swap1\n      0x01\n      add\n      swap1\n      jump(tag_88)\n    tag_89:\n    tag_87:\n      pop\n      swap1\n      pop\n      tag_90\n      swap2\n      swap1\n      tag_91\n      jump\t// in\n    tag_90:\n      pop\n      swap1\n      jump\t// out\n    tag_91:\n    tag_92:\n      dup1\n      dup3\n      gt\n      iszero\n      tag_93\n      jumpi\n      0x00\n      dup2\n      0x00\n      swap1\n      sstore\n      pop\n      0x01\n      add\n      jump(tag_92)\n    tag_93:\n      pop\n      swap1\n      jump\t// out\n        /* \"#utility.yul\":88:205   */\n    tag_95:\n        /* \"#utility.yul\":197:198   */\n      0x00\n        /* \"#utility.yul\":194:195   */\n      dup1\n        /* \"#utility.yul\":187:199   */\n      revert\n        /* \"#utility.yul\":334:411   */\n    tag_97:\n        /* \"#utility.yul\":371:378   */\n      0x00\n        /* \"#utility.yul\":400:405   */\n      dup2\n        /* \"#utility.yul\":389:405   */\n      swap1\n      pop\n        /* \"#utility.yul\":334:411   */\n      swap2\n      swap1\n      pop\n      jump\t// out\n        /* \"#utility.yul\":417:539   */\n    tag_98:\n        /* \"#utility.yul\":490:514   */\n      tag_131\n        /* \"#utility.yul\":508:513   */\n      dup2\n        /* \"#utility.yul\":490:514   */\n      tag_97\n      jump\t// in\n    tag_131:\n        /* \"#utility.yul\":483:488   */\n      dup2\n        /* \"#utility.yul\":480:515   */\n      eq\n        /* \"#utility.yul\":470:533   */\n      tag_132\n      jumpi\n        /* \"#utility.yul\":529:530   */\n      0x00\n        /* \"#utility.yul\":526:527   */\n      dup1\n        /* \"#utility.yul\":519:531   */\n      revert\n        /* \"#utility.yul\":470:533   */\n    tag_132:\n        /* \"#utility.yul\":417:539   */\n      pop\n      jump\t// out\n        /* \"#utility.yul\":545:684   */\n    tag_99:\n        /* \"#utility.yul\":591:596   */\n      0x00\n        /* \"#utility.yul\":629:635   */\n      dup2\n        /* \"#utility.yul\":616:636   */\n      calldataload\n        /* \"#utility.yul\":607:636   */\n      swap1\n      pop\n        /* \"#utility.yul\":645:678   */\n      tag_134\n        /* \"#utility.yul\":672:677   */\n      dup2\n        /* \"#utility.yul\":645:678   */\n      tag_98\n      jump\t// in\n    tag_134:\n        /* \"#utility.yul\":545:684   */\n      swap3\n      swap2\n      pop\n      pop\n      jump\t// out\n        /* \"#utility.yul\":690:1019   */\n    tag_11:\n        /* \"#utility.yul\":749:755   */\n      0x00\n        /* \"#utility.yul\":798:800   */\n      0x20\n        /* \"#utility.yul\":786:795   */\n      dup3\n        /* \"#utility.yul\":777:784   */\n      dup5\n        /* \"#utility.yul\":773:796   */\n      sub\n        /* \"#utility.yul\":769:801   */\n      slt\n        /* \"#utility.yul\":766:885   */\n      iszero\n      tag_136\n      jumpi\n        /* \"#utility.yul\":804:883   */\n      tag_137\n      tag_95\n      jump\t// in\n    tag_137:\n        /* \"#utility.yul\":766:885   */\n    tag_136:\n        /* \"#utility.yul\":924:925   */\n      0x00\n        /* \"#utility.yul\":949:1002   */\n      tag_138\n        /* \"#utility.yul\":994:1001   */\n      dup5\n        /* \"#utility.yul\":985:991   */\n      dup3\n        /* \"#utility.yul\":974:983   */\n      dup6\n        /* \"#utility.yul\":970:992   */\n      add\n        /* \"#utility.yul\":949:1002   */\n      tag_99\n      jump\t// in\n    tag_138:\n        /* \"#utility.yul\":939:1002   */\n      swap2\n      pop\n        /* \"#utility.yul\":895:1012   */\n      pop\n        /* \"#utility.yul\":690:1019   */\n      swap3\n      swap2\n      pop\n      pop\n      jump\t// out\n        /* \"#utility.yul\":1025:1151   */\n    tag_100:\n        /* \"#utility.yul\":1062:1069   */\n      0x00\n        /* \"#utility.yul\":1102:1144   */\n      0xffffffffffffffffffffffffffffffffffffffff\n        /* \"#utility.yul\":1095:1100   */\n      dup3\n        /* \"#utility.yul\":1091:1145   */\n      and\n        /* \"#utility.yul\":1080:1145   */\n      swap1\n      pop\n        /* \"#utility.yul\":1025:1151   */\n      swap2\n      swap1\n      pop\n      jump\t// out\n        /* \"#utility.yul\":1157:1253   */\n    tag_101:\n        /* \"#utility.yul\":1194:1201   */\n      0x00\n        /* \"#utility.yul\":1223:1247   */\n      tag_141\n        /* \"#utility.yul\":1241:1246   */\n      dup3\n        /* \"#utility.yul\":1223:1247   */\n      tag_100\n      jump\t// in\n    tag_141:\n        /* \"#utility.yul\":1212:1247   */\n      swap1\n      pop\n        /* \"#utility.yul\":1157:1253   */\n      swap2\n      swap1\n      pop\n      jump\t// out\n        /* \"#utility.yul\":1259:1377   */\n    tag_102:\n        /* \"#utility.yul\":1346:1370   */\n      tag_143\n        /* \"#utility.yul\":1364:1369   */\n      dup2\n        /* \"#utility.yul\":1346:1370   */\n      tag_101\n      jump\t// in\n    tag_143:\n        /* \"#utility.yul\":1341:1344   */\n      dup3\n        /* \"#utility.yul\":1334:1371   */\n      mstore\n        /* \"#utility.yul\":1259:1377   */\n      pop\n      pop\n      jump\t// out\n        /* \"#utility.yul\":1383:1605   */\n    tag_14:\n        /* \"#utility.yul\":1476:1480   */\n      0x00\n        /* \"#utility.yul\":1514:1516   */\n      0x20\n        /* \"#utility.yul\":1503:1512   */\n      dup3\n        /* \"#utility.yul\":1499:1517   */\n      add\n        /* \"#utility.yul\":1491:1517   */\n      swap1\n      pop\n        /* \"#utility.yul\":1527:1598   */\n      tag_145\n        /* \"#utility.yul\":1595:1596   */\n      0x00\n        /* \"#utility.yul\":1584:1593   */\n      dup4\n        /* \"#utility.yul\":1580:1597   */\n      add\n        /* \"#utility.yul\":1571:1577   */\n      dup5\n        /* \"#utility.yul\":1527:1598   */\n      tag_102\n      jump\t// in\n    tag_145:\n        /* \"#utility.yul\":1383:1605   */\n      swap3\n      swap2\n      pop\n      pop\n      jump\t// out\n        /* \"#utility.yul\":1611:1729   */\n    tag_103:\n        /* \"#utility.yul\":1698:1722   */\n      tag_147\n        /* \"#utility.yul\":1716:1721   */\n      dup2\n        /* \"#utility.yul\":1698:1722   */\n      tag_97\n      jump\t// in\n    tag_147:\n        /* \"#utility.yul\":1693:1696   */\n      dup3\n        /* \"#utility.yul\":1686:1723   */\n      mstore\n        /* \"#utility.yul\":1611:1729   */\n      pop\n      pop\n      jump\t// out\n        /* \"#utility.yul\":1735:1957   */\n    tag_22:\n        /* \"#utility.yul\":1828:1832   */\n      0x00\n        /* \"#utility.yul\":1866:1868   */\n      0x20\n        /* \"#utility.yul\":1855:1864   */\n      dup3\n        /* \"#utility.yul\":1851:1869   */\n      add\n        /* \"#utility.yul\":1843:1869   */\n      swap1\n      pop\n        /* \"#utility.yul\":1879:1950   */\n      tag_149\n        /* \"#utility.yul\":1947:1948   */\n      0x00\n        /* \"#utility.yul\":1936:1945   */\n      dup4\n        /* \"#utility.yul\":1932:1949   */\n      add\n        /* \"#utility.yul\":1923:1929   */\n      dup5\n        /* \"#utility.yul\":1879:1950   */\n      tag_103\n      jump\t// in\n    tag_149:\n        /* \"#utility.yul\":1735:1957   */\n      swap3\n      swap2\n      pop\n      pop\n      jump\t// out\n        /* \"#utility.yul\":1963:2085   */\n    tag_104:\n        /* \"#utility.yul\":2036:2060   */\n      tag_151\n        /* \"#utility.yul\":2054:2059   */\n      dup2\n        /* \"#utility.yul\":2036:2060   */\n      tag_101\n      jump\t// in\n    tag_151:\n        /* \"#utility.yul\":2029:2034   */\n      dup2\n        /* \"#utility.yul\":2026:2061   */\n      eq\n        /* \"#utility.yul\":2016:2079   */\n      tag_152\n      jumpi\n        /* \"#utility.yul\":2075:2076   */\n      0x00\n        /* \"#utility.yul\":2072:2073   */\n      dup1\n        /* \"#utility.yul\":2065:2077   */\n      revert\n        /* \"#utility.yul\":2016:2079   */\n    tag_152:\n        /* \"#utility.yul\":1963:2085   */\n      pop\n      jump\t// out\n        /* \"#utility.yul\":2091:2230   */\n    tag_105:\n        /* \"#utility.yul\":2137:2142   */\n      0x00\n        /* \"#utility.yul\":2175:2181   */\n      dup2\n        /* \"#utility.yul\":2162:2182   */\n      calldataload\n        /* \"#utility.yul\":2153:2182   */\n      swap1\n      pop\n        /* \"#utility.yul\":2191:2224   */\n      tag_154\n        /* \"#utility.yul\":2218:2223   */\n      dup2\n        /* \"#utility.yul\":2191:2224   */\n      tag_104\n      jump\t// in\n    tag_154:\n        /* \"#utility.yul\":2091:2230   */\n      swap3\n      swap2\n      pop\n      pop\n      jump\t// out\n        /* \"#utility.yul\":2236:2565   */\n    tag_32:\n        /* \"#utility.yul\":2295:2301   */\n      0x00\n        /* \"#utility.yul\":2344:2346   */\n      0x20\n        /* \"#utility.yul\":2332:2341   */\n      dup3\n        /* \"#utility.yul\":2323:2330   */\n      dup5\n        /* \"#utility.yul\":2319:2342   */\n      sub\n        /* \"#utility.yul\":2315:2347   */\n      slt\n        /* \"#utility.yul\":2312:2431   */\n      iszero\n      tag_156\n      jumpi\n        /* \"#utility.yul\":2350:2429   */\n      tag_157\n      tag_95\n      jump\t// in\n    tag_157:\n        /* \"#utility.yul\":2312:2431   */\n    tag_156:\n        /* \"#utility.yul\":2470:2471   */\n      0x00\n        /* \"#utility.yul\":2495:2548   */\n      tag_158\n        /* \"#utility.yul\":2540:2547   */\n      dup5\n        /* \"#utility.yul\":2531:2537   */\n      dup3\n        /* \"#utility.yul\":2520:2529   */\n      dup6\n        /* \"#utility.yul\":2516:2538   */\n      add\n        /* \"#utility.yul\":2495:2548   */\n      tag_105\n      jump\t// in\n    tag_158:\n        /* \"#utility.yul\":2485:2548   */\n      swap2\n      pop\n        /* \"#utility.yul\":2441:2558   */\n      pop\n        /* \"#utility.yul\":2236:2565   */\n      swap3\n      swap2\n      pop\n      pop\n      jump\t// out\n        /* \"#utility.yul\":2571:2740   */\n    tag_106:\n        /* \"#utility.yul\":2655:2666   */\n      0x00\n        /* \"#utility.yul\":2689:2695   */\n      dup3\n        /* \"#utility.yul\":2684:2687   */\n      dup3\n        /* \"#utility.yul\":2677:2696   */\n      mstore\n        /* \"#utility.yul\":2729:2733   */\n      0x20\n        /* \"#utility.yul\":2724:2727   */\n      dup3\n        /* \"#utility.yul\":2720:2734   */\n      add\n        /* \"#utility.yul\":2705:2734   */\n      swap1\n      pop\n        /* \"#utility.yul\":2571:2740   */\n      swap3\n      swap2\n      pop\n      pop\n      jump\t// out\n        /* \"#utility.yul\":2746:2922   */\n    tag_107:\n        /* \"#utility.yul\":2886:2914   */\n      0x4f6e6c79206f776e65722063616e206163636573732074686973000000000000\n        /* \"#utility.yul\":2882:2883   */\n      0x00\n        /* \"#utility.yul\":2874:2880   */\n      dup3\n        /* \"#utility.yul\":2870:2884   */\n      add\n        /* \"#utility.yul\":2863:2915   */\n      mstore\n        /* \"#utility.yul\":2746:2922   */\n      pop\n      jump\t// out\n        /* \"#utility.yul\":2928:3294   */\n    tag_108:\n        /* \"#utility.yul\":3070:3073   */\n      0x00\n        /* \"#utility.yul\":3091:3158   */\n      tag_162\n        /* \"#utility.yul\":3155:3157   */\n      0x1a\n        /* \"#utility.yul\":3150:3153   */\n      dup4\n        /* \"#utility.yul\":3091:3158   */\n      tag_106\n      jump\t// in\n    tag_162:\n        /* \"#utility.yul\":3084:3158   */\n      swap2\n      pop\n        /* \"#utility.yul\":3167:3260   */\n      tag_163\n        /* \"#utility.yul\":3256:3259   */\n      dup3\n        /* \"#utility.yul\":3167:3260   */\n      tag_107\n      jump\t// in\n    tag_163:\n        /* \"#utility.yul\":3285:3287   */\n      0x20\n        /* \"#utility.yul\":3280:3283   */\n      dup3\n        /* \"#utility.yul\":3276:3288   */\n      add\n        /* \"#utility.yul\":3269:3288   */\n      swap1\n      pop\n        /* \"#utility.yul\":2928:3294   */\n      swap2\n      swap1\n      pop\n      jump\t// out\n        /* \"#utility.yul\":3300:3719   */\n    tag_40:\n        /* \"#utility.yul\":3466:3470   */\n      0x00\n        /* \"#utility.yul\":3504:3506   */\n      0x20\n        /* \"#utility.yul\":3493:3502   */\n      dup3\n        /* \"#utility.yul\":3489:3507   */\n      add\n        /* \"#utility.yul\":3481:3507   */\n      swap1\n      pop\n        /* \"#utility.yul\":3553:3562   */\n      dup2\n        /* \"#utility.yul\":3547:3551   */\n      dup2\n        /* \"#utility.yul\":3543:3563   */\n      sub\n        /* \"#utility.yul\":3539:3540   */\n      0x00\n        /* \"#utility.yul\":3528:3537   */\n      dup4\n        /* \"#utility.yul\":3524:3541   */\n      add\n        /* \"#utility.yul\":3517:3564   */\n      mstore\n        /* \"#utility.yul\":3581:3712   */\n      tag_165\n        /* \"#utility.yul\":3707:3711   */\n      dup2\n        /* \"#utility.yul\":3581:3712   */\n      tag_108\n      jump\t// in\n    tag_165:\n        /* \"#utility.yul\":3573:3712   */\n      swap1\n      pop\n        /* \"#utility.yul\":3300:3719   */\n      swap2\n      swap1\n      pop\n      jump\t// out\n        /* \"#utility.yul\":3725:3905   */\n    tag_47:\n        /* \"#utility.yul\":3773:3850   */\n      0x4e487b7100000000000000000000000000000000000000000000000000000000\n        /* \"#utility.yul\":3770:3771   */\n      0x00\n        /* \"#utility.yul\":3763:3851   */\n      mstore\n        /* \"#utility.yul\":3870:3874   */\n      0x32\n        /* \"#utility.yul\":3867:3868   */\n      0x04\n        /* \"#utility.yul\":3860:3875   */\n      mstore\n        /* \"#utility.yul\":3894:3898   */\n      0x24\n        /* \"#utility.yul\":3891:3892   */\n      0x00\n        /* \"#utility.yul\":3884:3899   */\n      revert\n        /* \"#utility.yul\":3911:4091   */\n    tag_109:\n        /* \"#utility.yul\":3959:4036   */\n      0x4e487b7100000000000000000000000000000000000000000000000000000000\n        /* \"#utility.yul\":3956:3957   */\n      0x00\n        /* \"#utility.yul\":3949:4037   */\n      mstore\n        /* \"#utility.yul\":4056:4060   */\n      0x11\n        /* \"#utility.yul\":4053:4054   */\n      0x04\n        /* \"#utility.yul\":4046:4061   */\n      mstore\n        /* \"#utility.yul\":4080:4084   */\n      0x24\n        /* \"#utility.yul\":4077:4078   */\n      0x00\n        /* \"#utility.yul\":4070:4085   */\n      revert\n        /* \"#utility.yul\":4097:4330   */\n    tag_50:\n        /* \"#utility.yul\":4136:4139   */\n      0x00\n        /* \"#utility.yul\":4159:4183   */\n      tag_169\n        /* \"#utility.yul\":4177:4182   */\n      dup3\n        /* \"#utility.yul\":4159:4183   */\n      tag_97\n      jump\t// in\n    tag_169:\n        /* \"#utility.yul\":4150:4183   */\n      swap2\n      pop\n        /* \"#utility.yul\":4205:4271   */\n      0xffffffffffffffffffffffffffffffffffffffffffffffffffffffffffffffff\n        /* \"#utility.yul\":4198:4203   */\n      dup3\n        /* \"#utility.yul\":4195:4272   */\n      eq\n        /* \"#utility.yul\":4192:4295   */\n      iszero\n      tag_170\n      jumpi\n        /* \"#utility.yul\":4275:4293   */\n      tag_171\n      tag_109\n      jump\t// in\n    tag_171:\n        /* \"#utility.yul\":4192:4295   */\n    tag_170:\n        /* \"#utility.yul\":4322:4323   */\n      0x01\n        /* \"#utility.yul\":4315:4320   */\n      dup3\n        /* \"#utility.yul\":4311:4324   */\n      add\n        /* \"#utility.yul\":4304:4324   */\n      swap1\n      pop\n        /* \"#utility.yul\":4097:4330   */\n      swap2\n      swap1\n      pop\n      jump\t// out\n        /* \"#utility.yul\":4336:4516   */\n    tag_53:\n        /* \"#utility.yul\":4384:4461   */\n      0x4e487b7100000000000000000000000000000000000000000000000000000000\n        /* \"#utility.yul\":4381:4382   */\n      0x00\n        /* \"#utility.yul\":4374:4462   */\n      mstore\n        /* \"#utility.yul\":4481:4485   */\n      0x41\n        /* \"#utility.yul\":4478:4479   */\n      0x04\n        /* \"#utility.yul\":4471:4486   */\n      mstore\n        /* \"#utility.yul\":4505:4509   */\n      0x24\n        /* \"#utility.yul\":4502:4503   */\n      0x00\n        /* \"#utility.yul\":4495:4510   */\n      revert\n        /* \"#utility.yul\":4522:4669   */\n    tag_110:\n        /* \"#utility.yul\":4623:4634   */\n      0x00\n        /* \"#utility.yul\":4660:4663   */\n      dup2\n        /* \"#utility.yul\":4645:4663   */\n      swap1\n      pop\n        /* \"#utility.yul\":4522:4669   */\n      swap3\n      swap2\n      pop\n      pop\n      jump\t// out\n        /* \"#utility.yul\":4675:4789   */\n    tag_111:\n      pop\n      jump\t// out\n        /* \"#utility.yul\":4795:5193   */\n    tag_112:\n        /* \"#utility.yul\":4954:4957   */\n      0x00\n        /* \"#utility.yul\":4975:5058   */\n      tag_176\n        /* \"#utility.yul\":5056:5057   */\n      0x00\n        /* \"#utility.yul\":5051:5054   */\n      dup4\n        /* \"#utility.yul\":4975:5058   */\n      tag_110\n      jump\t// in\n    tag_176:\n        /* \"#utility.yul\":4968:5058   */\n      swap2\n      pop\n        /* \"#utility.yul\":5067:5160   */\n      tag_177\n        /* \"#utility.yul\":5156:5159   */\n      dup3\n        /* \"#utility.yul\":5067:5160   */\n      tag_111\n      jump\t// in\n    tag_177:\n        /* \"#utility.yul\":5185:5186   */\n      0x00\n        /* \"#utility.yul\":5180:5183   */\n      dup3\n        /* \"#utility.yul\":5176:5187   */\n      add\n        /* \"#utility.yul\":5169:5187   */\n      swap1\n      pop\n        /* \"#utility.yul\":4795:5193   */\n      swap2\n      swap1\n      pop\n      jump\t// out\n        /* \"#utility.yul\":5199:5578   */\n    tag_58:\n        /* \"#utility.yul\":5383:5386   */\n      0x00\n        /* \"#utility.yul\":5405:5552   */\n      tag_179\n        /* \"#utility.yul\":5548:5551   */\n      dup3\n        /* \"#utility.yul\":5405:5552   */\n      tag_112\n      jump\t// in\n    tag_179:\n        /* \"#utility.yul\":5398:5552   */\n      swap2\n      pop\n        /* \"#utility.yul\":5569:5572   */\n      dup2\n        /* \"#utility.yul\":5562:5572   */\n      swap1\n      pop\n        /* \"#utility.yul\":5199:5578   */\n      swap2\n      swap1\n      pop\n      jump\t// out\n        /* \"#utility.yul\":5584:5747   */\n    tag_113:\n        /* \"#utility.yul\":5724:5739   */\n      0x52657669657720616d6f756e7400000000000000000000000000000000000000\n        /* \"#utility.yul\":5720:5721   */\n      0x00\n        /* \"#utility.yul\":5712:5718   */\n      dup3\n        /* \"#utility.yul\":5708:5722   */\n      add\n        /* \"#utility.yul\":5701:5740   */\n      mstore\n        /* \"#utility.yul\":5584:5747   */\n      pop\n      jump\t// out\n        /* \"#utility.yul\":5753:6119   */\n    tag_114:\n        /* \"#utility.yul\":5895:5898   */\n      0x00\n        /* \"#utility.yul\":5916:5983   */\n      tag_182\n        /* \"#utility.yul\":5980:5982   */\n      0x0d\n        /* \"#utility.yul\":5975:5978   */\n      dup4\n        /* \"#utility.yul\":5916:5983   */\n      tag_106\n      jump\t// in\n    tag_182:\n        /* \"#utility.yul\":5909:5983   */\n      swap2\n      pop\n        /* \"#utility.yul\":5992:6085   */\n      tag_183\n        /* \"#utility.yul\":6081:6084   */\n      dup3\n        /* \"#utility.yul\":5992:6085   */\n      tag_113\n      jump\t// in\n    tag_183:\n        /* \"#utility.yul\":6110:6112   */\n      0x20\n        /* \"#utility.yul\":6105:6108   */\n      dup3\n        /* \"#utility.yul\":6101:6113   */\n      add\n        /* \"#utility.yul\":6094:6113   */\n      swap1\n      pop\n        /* \"#utility.yul\":5753:6119   */\n      swap2\n      swap1\n      pop\n      jump\t// out\n        /* \"#utility.yul\":6125:6544   */\n    tag_64:\n        /* \"#utility.yul\":6291:6295   */\n      0x00\n        /* \"#utility.yul\":6329:6331   */\n      0x20\n        /* \"#utility.yul\":6318:6327   */\n      dup3\n        /* \"#utility.yul\":6314:6332   */\n      add\n        /* \"#utility.yul\":6306:6332   */\n      swap1\n      pop\n        /* \"#utility.yul\":6378:6387   */\n      dup2\n        /* \"#utility.yul\":6372:6376   */\n      dup2\n        /* \"#utility.yul\":6368:6388   */\n      sub\n        /* \"#utility.yul\":6364:6365   */\n      0x00\n        /* \"#utility.yul\":6353:6362   */\n      dup4\n        /* \"#utility.yul\":6349:6366   */\n      add\n        /* \"#utility.yul\":6342:6389   */\n      mstore\n        /* \"#utility.yul\":6406:6537   */\n      tag_185\n        /* \"#utility.yul\":6532:6536   */\n      dup2\n        /* \"#utility.yul\":6406:6537   */\n      tag_114\n      jump\t// in\n    tag_185:\n        /* \"#utility.yul\":6398:6537   */\n      swap1\n      pop\n        /* \"#utility.yul\":6125:6544   */\n      swap2\n      swap1\n      pop\n      jump\t// out\n        /* \"#utility.yul\":6550:6729   */\n    tag_115:\n        /* \"#utility.yul\":6690:6721   */\n      0x416d6f756e74206d7573742062652067726561746572207468616e2031000000\n        /* \"#utility.yul\":6686:6687   */\n      0x00\n        /* \"#utility.yul\":6678:6684   */\n      dup3\n        /* \"#utility.yul\":6674:6688   */\n      add\n        /* \"#utility.yul\":6667:6722   */\n      mstore\n        /* \"#utility.yul\":6550:6729   */\n      pop\n      jump\t// out\n        /* \"#utility.yul\":6735:7101   */\n    tag_116:\n        /* \"#utility.yul\":6877:6880   */\n      0x00\n        /* \"#utility.yul\":6898:6965   */\n      tag_188\n        /* \"#utility.yul\":6962:6964   */\n      0x1d\n        /* \"#utility.yul\":6957:6960   */\n      dup4\n        /* \"#utility.yul\":6898:6965   */\n      tag_106\n      jump\t// in\n    tag_188:\n        /* \"#utility.yul\":6891:6965   */\n      swap2\n      pop\n        /* \"#utility.yul\":6974:7067   */\n      tag_189\n        /* \"#utility.yul\":7063:7066   */\n      dup3\n        /* \"#utility.yul\":6974:7067   */\n      tag_115\n      jump\t// in\n    tag_189:\n        /* \"#utility.yul\":7092:7094   */\n      0x20\n        /* \"#utility.yul\":7087:7090   */\n      dup3\n        /* \"#utility.yul\":7083:7095   */\n      add\n        /* \"#utility.yul\":7076:7095   */\n      swap1\n      pop\n        /* \"#utility.yul\":6735:7101   */\n      swap2\n      swap1\n      pop\n      jump\t// out\n        /* \"#utility.yul\":7107:7526   */\n    tag_70:\n        /* \"#utility.yul\":7273:7277   */\n      0x00\n        /* \"#utility.yul\":7311:7313   */\n      0x20\n        /* \"#utility.yul\":7300:7309   */\n      dup3\n        /* \"#utility.yul\":7296:7314   */\n      add\n        /* \"#utility.yul\":7288:7314   */\n      swap1\n      pop\n        /* \"#utility.yul\":7360:7369   */\n      dup2\n        /* \"#utility.yul\":7354:7358   */\n      dup2\n        /* \"#utility.yul\":7350:7370   */\n      sub\n        /* \"#utility.yul\":7346:7347   */\n      0x00\n        /* \"#utility.yul\":7335:7344   */\n      dup4\n        /* \"#utility.yul\":7331:7348   */\n      add\n        /* \"#utility.yul\":7324:7371   */\n      mstore\n        /* \"#utility.yul\":7388:7519   */\n      tag_191\n        /* \"#utility.yul\":7514:7518   */\n      dup2\n        /* \"#utility.yul\":7388:7519   */\n      tag_116\n      jump\t// in\n    tag_191:\n        /* \"#utility.yul\":7380:7519   */\n      swap1\n      pop\n        /* \"#utility.yul\":7107:7526   */\n      swap2\n      swap1\n      pop\n      jump\t// out\n        /* \"#utility.yul\":7532:7880   */\n    tag_76:\n        /* \"#utility.yul\":7572:7579   */\n      0x00\n        /* \"#utility.yul\":7595:7615   */\n      tag_193\n        /* \"#utility.yul\":7613:7614   */\n      dup3\n        /* \"#utility.yul\":7595:7615   */\n      tag_97\n      jump\t// in\n    tag_193:\n        /* \"#utility.yul\":7590:7615   */\n      swap2\n      pop\n        /* \"#utility.yul\":7629:7649   */\n      tag_194\n        /* \"#utility.yul\":7647:7648   */\n      dup4\n        /* \"#utility.yul\":7629:7649   */\n      tag_97\n      jump\t// in\n    tag_194:\n        /* \"#utility.yul\":7624:7649   */\n      swap3\n      pop\n        /* \"#utility.yul\":7817:7818   */\n      dup2\n        /* \"#utility.yul\":7749:7815   */\n      0xffffffffffffffffffffffffffffffffffffffffffffffffffffffffffffffff\n        /* \"#utility.yul\":7745:7819   */\n      div\n        /* \"#utility.yul\":7742:7743   */\n      dup4\n        /* \"#utility.yul\":7739:7820   */\n      gt\n        /* \"#utility.yul\":7734:7735   */\n      dup3\n        /* \"#utility.yul\":7727:7736   */\n      iszero\n        /* \"#utility.yul\":7720:7737   */\n      iszero\n        /* \"#utility.yul\":7716:7821   */\n      and\n        /* \"#utility.yul\":7713:7844   */\n      iszero\n      tag_195\n      jumpi\n        /* \"#utility.yul\":7824:7842   */\n      tag_196\n      tag_109\n      jump\t// in\n    tag_196:\n        /* \"#utility.yul\":7713:7844   */\n    tag_195:\n        /* \"#utility.yul\":7872:7873   */\n      dup3\n        /* \"#utility.yul\":7869:7870   */\n      dup3\n        /* \"#utility.yul\":7865:7874   */\n      mul\n        /* \"#utility.yul\":7854:7874   */\n      swap1\n      pop\n        /* \"#utility.yul\":7532:7880   */\n      swap3\n      swap2\n      pop\n      pop\n      jump\t// out\n        /* \"#utility.yul\":7886:8066   */\n    tag_117:\n        /* \"#utility.yul\":7934:8011   */\n      0x4e487b7100000000000000000000000000000000000000000000000000000000\n        /* \"#utility.yul\":7931:7932   */\n      0x00\n        /* \"#utility.yul\":7924:8012   */\n      mstore\n        /* \"#utility.yul\":8031:8035   */\n      0x12\n        /* \"#utility.yul\":8028:8029   */\n      0x04\n        /* \"#utility.yul\":8021:8036   */\n      mstore\n        /* \"#utility.yul\":8055:8059   */\n      0x24\n        /* \"#utility.yul\":8052:8053   */\n      0x00\n        /* \"#utility.yul\":8045:8060   */\n      revert\n        /* \"#utility.yul\":8072:8257   */\n    tag_78:\n        /* \"#utility.yul\":8112:8113   */\n      0x00\n        /* \"#utility.yul\":8129:8149   */\n      tag_199\n        /* \"#utility.yul\":8147:8148   */\n      dup3\n        /* \"#utility.yul\":8129:8149   */\n      tag_97\n      jump\t// in\n    tag_199:\n        /* \"#utility.yul\":8124:8149   */\n      swap2\n      pop\n        /* \"#utility.yul\":8163:8183   */\n      tag_200\n        /* \"#utility.yul\":8181:8182   */\n      dup4\n        /* \"#utility.yul\":8163:8183   */\n      tag_97\n      jump\t// in\n    tag_200:\n        /* \"#utility.yul\":8158:8183   */\n      swap3\n      pop\n        /* \"#utility.yul\":8202:8203   */\n      dup3\n        /* \"#utility.yul\":8192:8227   */\n      tag_201\n      jumpi\n        /* \"#utility.yul\":8207:8225   */\n      tag_202\n      tag_117\n      jump\t// in\n    tag_202:\n        /* \"#utility.yul\":8192:8227   */\n    tag_201:\n        /* \"#utility.yul\":8249:8250   */\n      dup3\n        /* \"#utility.yul\":8246:8247   */\n      dup3\n        /* \"#utility.yul\":8242:8251   */\n      div\n        /* \"#utility.yul\":8237:8251   */\n      swap1\n      pop\n        /* \"#utility.yul\":8072:8257   */\n      swap3\n      swap2\n      pop\n      pop\n      jump\t// out\n        /* \"#utility.yul\":8263:8368   */\n    tag_118:\n        /* \"#utility.yul\":8299:8306   */\n      0x00\n        /* \"#utility.yul\":8339:8361   */\n      0xffffffffffffffffffff\n        /* \"#utility.yul\":8332:8337   */\n      dup3\n        /* \"#utility.yul\":8328:8362   */\n      and\n        /* \"#utility.yul\":8317:8362   */\n      swap1\n      pop\n        /* \"#utility.yul\":8263:8368   */\n      swap2\n      swap1\n      pop\n      jump\t// out\n        /* \"#utility.yul\":8374:8494   */\n    tag_119:\n        /* \"#utility.yul\":8446:8469   */\n      tag_205\n        /* \"#utility.yul\":8463:8468   */\n      dup2\n        /* \"#utility.yul\":8446:8469   */\n      tag_118\n      jump\t// in\n    tag_205:\n        /* \"#utility.yul\":8439:8444   */\n      dup2\n        /* \"#utility.yul\":8436:8470   */\n      eq\n        /* \"#utility.yul\":8426:8488   */\n      tag_206\n      jumpi\n        /* \"#utility.yul\":8484:8485   */\n      0x00\n        /* \"#utility.yul\":8481:8482   */\n      dup1\n        /* \"#utility.yul\":8474:8486   */\n      revert\n        /* \"#utility.yul\":8426:8488   */\n    tag_206:\n        /* \"#utility.yul\":8374:8494   */\n      pop\n      jump\t// out\n        /* \"#utility.yul\":8500:8641   */\n    tag_120:\n        /* \"#utility.yul\":8556:8561   */\n      0x00\n        /* \"#utility.yul\":8587:8593   */\n      dup2\n        /* \"#utility.yul\":8581:8594   */\n      mload\n        /* \"#utility.yul\":8572:8594   */\n      swap1\n      pop\n        /* \"#utility.yul\":8603:8635   */\n      tag_208\n        /* \"#utility.yul\":8629:8634   */\n      dup2\n        /* \"#utility.yul\":8603:8635   */\n      tag_119\n      jump\t// in\n    tag_208:\n        /* \"#utility.yul\":8500:8641   */\n      swap3\n      swap2\n      pop\n      pop\n      jump\t// out\n        /* \"#utility.yul\":8647:8723   */\n    tag_121:\n        /* \"#utility.yul\":8683:8690   */\n      0x00\n        /* \"#utility.yul\":8712:8717   */\n      dup2\n        /* \"#utility.yul\":8701:8717   */\n      swap1\n      pop\n        /* \"#utility.yul\":8647:8723   */\n      swap2\n      swap1\n      pop\n      jump\t// out\n        /* \"#utility.yul\":8729:8849   */\n    tag_122:\n        /* \"#utility.yul\":8801:8824   */\n      tag_211\n        /* \"#utility.yul\":8818:8823   */\n      dup2\n        /* \"#utility.yul\":8801:8824   */\n      tag_121\n      jump\t// in\n    tag_211:\n        /* \"#utility.yul\":8794:8799   */\n      dup2\n        /* \"#utility.yul\":8791:8825   */\n      eq\n        /* \"#utility.yul\":8781:8843   */\n      tag_212\n      jumpi\n        /* \"#utility.yul\":8839:8840   */\n      0x00\n        /* \"#utility.yul\":8836:8837   */\n      dup1\n        /* \"#utility.yul\":8829:8841   */\n      revert\n        /* \"#utility.yul\":8781:8843   */\n    tag_212:\n        /* \"#utility.yul\":8729:8849   */\n      pop\n      jump\t// out\n        /* \"#utility.yul\":8855:8996   */\n    tag_123:\n        /* \"#utility.yul\":8911:8916   */\n      0x00\n        /* \"#utility.yul\":8942:8948   */\n      dup2\n        /* \"#utility.yul\":8936:8949   */\n      mload\n        /* \"#utility.yul\":8927:8949   */\n      swap1\n      pop\n        /* \"#utility.yul\":8958:8990   */\n      tag_214\n        /* \"#utility.yul\":8984:8989   */\n      dup2\n        /* \"#utility.yul\":8958:8990   */\n      tag_122\n      jump\t// in\n    tag_214:\n        /* \"#utility.yul\":8855:8996   */\n      swap3\n      swap2\n      pop\n      pop\n      jump\t// out\n        /* \"#utility.yul\":9002:9145   */\n    tag_124:\n        /* \"#utility.yul\":9059:9064   */\n      0x00\n        /* \"#utility.yul\":9090:9096   */\n      dup2\n        /* \"#utility.yul\":9084:9097   */\n      mload\n        /* \"#utility.yul\":9075:9097   */\n      swap1\n      pop\n        /* \"#utility.yul\":9106:9139   */\n      tag_216\n        /* \"#utility.yul\":9133:9138   */\n      dup2\n        /* \"#utility.yul\":9106:9139   */\n      tag_98\n      jump\t// in\n    tag_216:\n        /* \"#utility.yul\":9002:9145   */\n      swap3\n      swap2\n      pop\n      pop\n      jump\t// out\n        /* \"#utility.yul\":9151:10122   */\n    tag_84:\n        /* \"#utility.yul\":9254:9260   */\n      0x00\n        /* \"#utility.yul\":9262:9268   */\n      dup1\n        /* \"#utility.yul\":9270:9276   */\n      0x00\n        /* \"#utility.yul\":9278:9284   */\n      dup1\n        /* \"#utility.yul\":9286:9292   */\n      0x00\n        /* \"#utility.yul\":9335:9338   */\n      0xa0\n        /* \"#utility.yul\":9323:9332   */\n      dup7\n        /* \"#utility.yul\":9314:9321   */\n      dup9\n        /* \"#utility.yul\":9310:9333   */\n      sub\n        /* \"#utility.yul\":9306:9339   */\n      slt\n        /* \"#utility.yul\":9303:9423   */\n      iszero\n      tag_218\n      jumpi\n        /* \"#utility.yul\":9342:9421   */\n      tag_219\n      tag_95\n      jump\t// in\n    tag_219:\n        /* \"#utility.yul\":9303:9423   */\n    tag_218:\n        /* \"#utility.yul\":9462:9463   */\n      0x00\n        /* \"#utility.yul\":9487:9550   */\n      tag_220\n        /* \"#utility.yul\":9542:9549   */\n      dup9\n        /* \"#utility.yul\":9533:9539   */\n      dup3\n        /* \"#utility.yul\":9522:9531   */\n      dup10\n        /* \"#utility.yul\":9518:9540   */\n      add\n        /* \"#utility.yul\":9487:9550   */\n      tag_120\n      jump\t// in\n    tag_220:\n        /* \"#utility.yul\":9477:9550   */\n      swap6\n      pop\n        /* \"#utility.yul\":9433:9560   */\n      pop\n        /* \"#utility.yul\":9599:9601   */\n      0x20\n        /* \"#utility.yul\":9625:9688   */\n      tag_221\n        /* \"#utility.yul\":9680:9687   */\n      dup9\n        /* \"#utility.yul\":9671:9677   */\n      dup3\n        /* \"#utility.yul\":9660:9669   */\n      dup10\n        /* \"#utility.yul\":9656:9678   */\n      add\n        /* \"#utility.yul\":9625:9688   */\n      tag_123\n      jump\t// in\n    tag_221:\n        /* \"#utility.yul\":9615:9688   */\n      swap5\n      pop\n        /* \"#utility.yul\":9570:9698   */\n      pop\n        /* \"#utility.yul\":9737:9739   */\n      0x40\n        /* \"#utility.yul\":9763:9827   */\n      tag_222\n        /* \"#utility.yul\":9819:9826   */\n      dup9\n        /* \"#utility.yul\":9810:9816   */\n      dup3\n        /* \"#utility.yul\":9799:9808   */\n      dup10\n        /* \"#utility.yul\":9795:9817   */\n      add\n        /* \"#utility.yul\":9763:9827   */\n      tag_124\n      jump\t// in\n    tag_222:\n        /* \"#utility.yul\":9753:9827   */\n      swap4\n      pop\n        /* \"#utility.yul\":9708:9837   */\n      pop\n        /* \"#utility.yul\":9876:9878   */\n      0x60\n        /* \"#utility.yul\":9902:9966   */\n      tag_223\n        /* \"#utility.yul\":9958:9965   */\n      dup9\n        /* \"#utility.yul\":9949:9955   */\n      dup3\n        /* \"#utility.yul\":9938:9947   */\n      dup10\n        /* \"#utility.yul\":9934:9956   */\n      add\n        /* \"#utility.yul\":9902:9966   */\n      tag_124\n      jump\t// in\n    tag_223:\n        /* \"#utility.yul\":9892:9966   */\n      swap3\n      pop\n        /* \"#utility.yul\":9847:9976   */\n      pop\n        /* \"#utility.yul\":10015:10018   */\n      0x80\n        /* \"#utility.yul\":10042:10105   */\n      tag_224\n        /* \"#utility.yul\":10097:10104   */\n      dup9\n        /* \"#utility.yul\":10088:10094   */\n      dup3\n        /* \"#utility.yul\":10077:10086   */\n      dup10\n        /* \"#utility.yul\":10073:10095   */\n      add\n        /* \"#utility.yul\":10042:10105   */\n      tag_120\n      jump\t// in\n    tag_224:\n        /* \"#utility.yul\":10032:10105   */\n      swap2\n      pop\n        /* \"#utility.yul\":9986:10115   */\n      pop\n        /* \"#utility.yul\":9151:10122   */\n      swap3\n      swap6\n      pop\n      swap3\n      swap6\n      swap1\n      swap4\n      pop\n      jump\t// out\n        /* \"#utility.yul\":10128:11119   */\n    tag_86:\n        /* \"#utility.yul\":10167:10174   */\n      0x00\n        /* \"#utility.yul\":10190:10209   */\n      tag_226\n        /* \"#utility.yul\":10207:10208   */\n      dup3\n        /* \"#utility.yul\":10190:10209   */\n      tag_121\n      jump\t// in\n    tag_226:\n        /* \"#utility.yul\":10185:10209   */\n      swap2\n      pop\n        /* \"#utility.yul\":10223:10242   */\n      tag_227\n        /* \"#utility.yul\":10240:10241   */\n      dup4\n        /* \"#utility.yul\":10223:10242   */\n      tag_121\n      jump\t// in\n    tag_227:\n        /* \"#utility.yul\":10218:10242   */\n      swap3\n      pop\n        /* \"#utility.yul\":10424:10425   */\n      dup3\n        /* \"#utility.yul\":10356:10422   */\n      0x7fffffffffffffffffffffffffffffffffffffffffffffffffffffffffffffff\n        /* \"#utility.yul\":10352:10426   */\n      div\n        /* \"#utility.yul\":10349:10350   */\n      dup3\n        /* \"#utility.yul\":10346:10427   */\n      gt\n        /* \"#utility.yul\":10341:10342   */\n      0x00\n        /* \"#utility.yul\":10338:10339   */\n      dup5\n        /* \"#utility.yul\":10334:10343   */\n      sgt\n        /* \"#utility.yul\":10330:10331   */\n      0x00\n        /* \"#utility.yul\":10327:10328   */\n      dup5\n        /* \"#utility.yul\":10323:10332   */\n      sgt\n        /* \"#utility.yul\":10319:10344   */\n      and\n        /* \"#utility.yul\":10315:10428   */\n      and\n        /* \"#utility.yul\":10312:10451   */\n      iszero\n      tag_228\n      jumpi\n        /* \"#utility.yul\":10431:10449   */\n      tag_229\n      tag_109\n      jump\t// in\n    tag_229:\n        /* \"#utility.yul\":10312:10451   */\n    tag_228:\n        /* \"#utility.yul\":10635:10636   */\n      dup2\n        /* \"#utility.yul\":10567:10633   */\n      0x8000000000000000000000000000000000000000000000000000000000000000\n        /* \"#utility.yul\":10562:10637   */\n      sdiv\n        /* \"#utility.yul\":10559:10560   */\n      dup4\n        /* \"#utility.yul\":10555:10638   */\n      slt\n        /* \"#utility.yul\":10550:10551   */\n      0x00\n        /* \"#utility.yul\":10547:10548   */\n      dup5\n        /* \"#utility.yul\":10543:10552   */\n      slt\n        /* \"#utility.yul\":10539:10540   */\n      0x00\n        /* \"#utility.yul\":10536:10537   */\n      dup5\n        /* \"#utility.yul\":10532:10541   */\n      sgt\n        /* \"#utility.yul\":10528:10553   */\n      and\n        /* \"#utility.yul\":10524:10639   */\n      and\n        /* \"#utility.yul\":10521:10662   */\n      iszero\n      tag_230\n      jumpi\n        /* \"#utility.yul\":10642:10660   */\n      tag_231\n      tag_109\n      jump\t// in\n    tag_231:\n        /* \"#utility.yul\":10521:10662   */\n    tag_230:\n        /* \"#utility.yul\":10846:10847   */\n      dup3\n        /* \"#utility.yul\":10778:10844   */\n      0x8000000000000000000000000000000000000000000000000000000000000000\n        /* \"#utility.yul\":10773:10848   */\n      sdiv\n        /* \"#utility.yul\":10770:10771   */\n      dup3\n        /* \"#utility.yul\":10766:10849   */\n      slt\n        /* \"#utility.yul\":10761:10762   */\n      0x00\n        /* \"#utility.yul\":10758:10759   */\n      dup5\n        /* \"#utility.yul\":10754:10763   */\n      sgt\n        /* \"#utility.yul\":10750:10751   */\n      0x00\n        /* \"#utility.yul\":10747:10748   */\n      dup5\n        /* \"#utility.yul\":10743:10752   */\n      slt\n        /* \"#utility.yul\":10739:10764   */\n      and\n        /* \"#utility.yul\":10735:10850   */\n      and\n        /* \"#utility.yul\":10732:10873   */\n      iszero\n      tag_232\n      jumpi\n        /* \"#utility.yul\":10853:10871   */\n      tag_233\n      tag_109\n      jump\t// in\n    tag_233:\n        /* \"#utility.yul\":10732:10873   */\n    tag_232:\n        /* \"#utility.yul\":11056:11057   */\n      dup3\n        /* \"#utility.yul\":10988:11054   */\n      0x7fffffffffffffffffffffffffffffffffffffffffffffffffffffffffffffff\n        /* \"#utility.yul\":10983:11058   */\n      sdiv\n        /* \"#utility.yul\":10980:10981   */\n      dup3\n        /* \"#utility.yul\":10976:11059   */\n      slt\n        /* \"#utility.yul\":10971:10972   */\n      0x00\n        /* \"#utility.yul\":10968:10969   */\n      dup5\n        /* \"#utility.yul\":10964:10973   */\n      slt\n        /* \"#utility.yul\":10960:10961   */\n      0x00\n        /* \"#utility.yul\":10957:10958   */\n      dup5\n        /* \"#utility.yul\":10953:10962   */\n      slt\n        /* \"#utility.yul\":10949:10974   */\n      and\n        /* \"#utility.yul\":10945:11060   */\n      and\n        /* \"#utility.yul\":10942:11083   */\n      iszero\n      tag_234\n      jumpi\n        /* \"#utility.yul\":11063:11081   */\n      tag_235\n      tag_109\n      jump\t// in\n    tag_235:\n        /* \"#utility.yul\":10942:11083   */\n    tag_234:\n        /* \"#utility.yul\":11111:11112   */\n      dup3\n        /* \"#utility.yul\":11108:11109   */\n      dup3\n        /* \"#utility.yul\":11104:11113   */\n      mul\n        /* \"#utility.yul\":11093:11113   */\n      swap1\n      pop\n        /* \"#utility.yul\":10128:11119   */\n      swap3\n      swap2\n      pop\n      pop\n      jump\t// out\n\n    auxdata: 0xa2646970667358221220fadca42af2afeb14e7a3a34024c80d1419aa8961f6d5c4ce922cf450a9b2e77864736f6c63430008080033\n}\n",
				"bytecode": {
					"linkReferences": {},
					"object": "60a060405234801561001057600080fd5b503373ffffffffffffffffffffffffffffffffffffffff1660808173ffffffffffffffffffffffffffffffffffffffff1660601b8152505060805160601c610d7761006d6000396000818161018c01526104dd0152610d776000f3fe6080604052600436106100555760003560e01c80631f2c92381461005a5780633ccfd60b146100975780637d451480146100ae578063b60d4288146100d9578063dba6335f146100e3578063deaf2cf01461010e575b600080fd5b34801561006657600080fd5b50610081600480360381019061007c91906106eb565b61014b565b60405161008e9190610759565b60405180910390f35b3480156100a357600080fd5b506100ac61018a565b005b3480156100ba57600080fd5b506100c36103d3565b6040516100d09190610783565b60405180910390f35b6100e16103df565b005b3480156100ef57600080fd5b506100f86104db565b6040516101059190610759565b60405180910390f35b34801561011a57600080fd5b50610135600480360381019061013091906107ca565b6104ff565b6040516101429190610783565b60405180910390f35b6000818154811061015b57600080fd5b906000526020600020016000915054906101000a900473ffffffffffffffffffffffffffffffffffffffff1681565b7f000000000000000000000000000000000000000000000000000000000000000073ffffffffffffffffffffffffffffffffffffffff163373ffffffffffffffffffffffffffffffffffffffff1614610218576040517f08c379a000000000000000000000000000000000000000000000000000000000815260040161020f90610854565b60405180910390fd5b60005b6000805490508110156102c357600080828154811061023d5761023c610874565b5b9060005260206000200160009054906101000a900473ffffffffffffffffffffffffffffffffffffffff1690506000600160008373ffffffffffffffffffffffffffffffffffffffff1673ffffffffffffffffffffffffffffffffffffffff168152602001908152602001600020819055505080806102bb906108d2565b91505061021b565b50600067ffffffffffffffff8111156102df576102de61091b565b5b60405190808252806020026020018201604052801561030d5781602001602082028036833780820191505090505b5060009080519060200190610323929190610609565b5060003373ffffffffffffffffffffffffffffffffffffffff164760405161034a9061097b565b60006040518083038185875af1925050503d8060008114610387576040519150601f19603f3d011682016040523d82523d6000602084013e61038c565b606091505b50509050806103d0576040517f08c379a00000000000000000000000000000000000000000000000000000000081526004016103c7906109dc565b60405180910390fd5b50565b671bc16d674ec8000081565b671bc16d674ec800006103f134610517565b1015610432576040517f08c379a000000000000000000000000000000000000000000000000000000000815260040161042990610a48565b60405180910390fd5b6000339080600181540180825580915050600190039060005260206000200160009091909190916101000a81548173ffffffffffffffffffffffffffffffffffffffff021916908373ffffffffffffffffffffffffffffffffffffffff16021790555034600160003373ffffffffffffffffffffffffffffffffffffffff1673ffffffffffffffffffffffffffffffffffffffff16815260200190815260200160002081905550565b7f000000000000000000000000000000000000000000000000000000000000000081565b60016020528060005260406000206000915090505481565b600080610522610551565b90506000670de0b6b3a7640000848361053b9190610a68565b6105459190610af1565b90508092505050919050565b60008073d4a33860578de61dbabdc8bfdb98fd742fa7028e905060008173ffffffffffffffffffffffffffffffffffffffff1663feaf968c6040518163ffffffff1660e01b815260040160a06040518083038186803b1580156105b357600080fd5b505afa1580156105c7573d6000803e3d6000fd5b505050506040513d601f19601f820116820180604052508101906105eb9190610baf565b5050509150506402540be400816106029190610c2a565b9250505090565b828054828255906000526020600020908101928215610682579160200282015b828111156106815782518260006101000a81548173ffffffffffffffffffffffffffffffffffffffff021916908373ffffffffffffffffffffffffffffffffffffffff16021790555091602001919060010190610629565b5b50905061068f9190610693565b5090565b5b808211156106ac576000816000905550600101610694565b5090565b600080fd5b6000819050919050565b6106c8816106b5565b81146106d357600080fd5b50565b6000813590506106e5816106bf565b92915050565b600060208284031215610701576107006106b0565b5b600061070f848285016106d6565b91505092915050565b600073ffffffffffffffffffffffffffffffffffffffff82169050919050565b600061074382610718565b9050919050565b61075381610738565b82525050565b600060208201905061076e600083018461074a565b92915050565b61077d816106b5565b82525050565b60006020820190506107986000830184610774565b92915050565b6107a781610738565b81146107b257600080fd5b50565b6000813590506107c48161079e565b92915050565b6000602082840312156107e0576107df6106b0565b5b60006107ee848285016107b5565b91505092915050565b600082825260208201905092915050565b7f4f6e6c79206f776e65722063616e206163636573732074686973000000000000600082015250565b600061083e601a836107f7565b915061084982610808565b602082019050919050565b6000602082019050818103600083015261086d81610831565b9050919050565b7f4e487b7100000000000000000000000000000000000000000000000000000000600052603260045260246000fd5b7f4e487b7100000000000000000000000000000000000000000000000000000000600052601160045260246000fd5b60006108dd826106b5565b91507fffffffffffffffffffffffffffffffffffffffffffffffffffffffffffffffff8214156109105761090f6108a3565b5b600182019050919050565b7f4e487b7100000000000000000000000000000000000000000000000000000000600052604160045260246000fd5b600081905092915050565b50565b600061096560008361094a565b915061097082610955565b600082019050919050565b600061098682610958565b9150819050919050565b7f52657669657720616d6f756e7400000000000000000000000000000000000000600082015250565b60006109c6600d836107f7565b91506109d182610990565b602082019050919050565b600060208201905081810360008301526109f5816109b9565b9050919050565b7f416d6f756e74206d7573742062652067726561746572207468616e2031000000600082015250565b6000610a32601d836107f7565b9150610a3d826109fc565b602082019050919050565b60006020820190508181036000830152610a6181610a25565b9050919050565b6000610a73826106b5565b9150610a7e836106b5565b9250817fffffffffffffffffffffffffffffffffffffffffffffffffffffffffffffffff0483118215151615610ab757610ab66108a3565b5b828202905092915050565b7f4e487b7100000000000000000000000000000000000000000000000000000000600052601260045260246000fd5b6000610afc826106b5565b9150610b07836106b5565b925082610b1757610b16610ac2565b5b828204905092915050565b600069ffffffffffffffffffff82169050919050565b610b4181610b22565b8114610b4c57600080fd5b50565b600081519050610b5e81610b38565b92915050565b6000819050919050565b610b7781610b64565b8114610b8257600080fd5b50565b600081519050610b9481610b6e565b92915050565b600081519050610ba9816106bf565b92915050565b600080600080600060a08688031215610bcb57610bca6106b0565b5b6000610bd988828901610b4f565b9550506020610bea88828901610b85565b9450506040610bfb88828901610b9a565b9350506060610c0c88828901610b9a565b9250506080610c1d88828901610b4f565b9150509295509295909350565b6000610c3582610b64565b9150610c4083610b64565b9250827f7fffffffffffffffffffffffffffffffffffffffffffffffffffffffffffffff0482116000841360008413161615610c7f57610c7e6108a3565b5b817f80000000000000000000000000000000000000000000000000000000000000000583126000841260008413161615610cbc57610cbb6108a3565b5b827f80000000000000000000000000000000000000000000000000000000000000000582126000841360008412161615610cf957610cf86108a3565b5b827f7fffffffffffffffffffffffffffffffffffffffffffffffffffffffffffffff0582126000841260008412161615610d3657610d356108a3565b5b82820290509291505056fea2646970667358221220fadca42af2afeb14e7a3a34024c80d1419aa8961f6d5c4ce922cf450a9b2e77864736f6c63430008080033",
					"opcodes": "PUSH1 0xA0 PUSH1 0x40 MSTORE CALLVALUE DUP1 ISZERO PUSH2 0x10 JUMPI PUSH1 0x0 DUP1 REVERT JUMPDEST POP CALLER PUSH20 0xFFFFFFFFFFFFFFFFFFFFFFFFFFFFFFFFFFFFFFFF AND PUSH1 0x80 DUP2 PUSH20 0xFFFFFFFFFFFFFFFFFFFFFFFFFFFFFFFFFFFFFFFF AND PUSH1 0x60 SHL DUP2 MSTORE POP POP PUSH1 0x80 MLOAD PUSH1 0x60 SHR PUSH2 0xD77 PUSH2 0x6D PUSH1 0x0 CODECOPY PUSH1 0x0 DUP2 DUP2 PUSH2 0x18C ADD MSTORE PUSH2 0x4DD ADD MSTORE PUSH2 0xD77 PUSH1 0x0 RETURN INVALID PUSH1 0x80 PUSH1 0x40 MSTORE PUSH1 0x4 CALLDATASIZE LT PUSH2 0x55 JUMPI PUSH1 0x0 CALLDATALOAD PUSH1 0xE0 SHR DUP1 PUSH4 0x1F2C9238 EQ PUSH2 0x5A JUMPI DUP1 PUSH4 0x3CCFD60B EQ PUSH2 0x97 JUMPI DUP1 PUSH4 0x7D451480 EQ PUSH2 0xAE JUMPI DUP1 PUSH4 0xB60D4288 EQ PUSH2 0xD9 JUMPI DUP1 PUSH4 0xDBA6335F EQ PUSH2 0xE3 JUMPI DUP1 PUSH4 0xDEAF2CF0 EQ PUSH2 0x10E JUMPI JUMPDEST PUSH1 0x0 DUP1 REVERT JUMPDEST CALLVALUE DUP1 ISZERO PUSH2 0x66 JUMPI PUSH1 0x0 DUP1 REVERT JUMPDEST POP PUSH2 0x81 PUSH1 0x4 DUP1 CALLDATASIZE SUB DUP2 ADD SWAP1 PUSH2 0x7C SWAP2 SWAP1 PUSH2 0x6EB JUMP JUMPDEST PUSH2 0x14B JUMP JUMPDEST PUSH1 0x40 MLOAD PUSH2 0x8E SWAP2 SWAP1 PUSH2 0x759 JUMP JUMPDEST PUSH1 0x40 MLOAD DUP1 SWAP2 SUB SWAP1 RETURN JUMPDEST CALLVALUE DUP1 ISZERO PUSH2 0xA3 JUMPI PUSH1 0x0 DUP1 REVERT JUMPDEST POP PUSH2 0xAC PUSH2 0x18A JUMP JUMPDEST STOP JUMPDEST CALLVALUE DUP1 ISZERO PUSH2 0xBA JUMPI PUSH1 0x0 DUP1 REVERT JUMPDEST POP PUSH2 0xC3 PUSH2 0x3D3 JUMP JUMPDEST PUSH1 0x40 MLOAD PUSH2 0xD0 SWAP2 SWAP1 PUSH2 0x783 JUMP JUMPDEST PUSH1 0x40 MLOAD DUP1 SWAP2 SUB SWAP1 RETURN JUMPDEST PUSH2 0xE1 PUSH2 0x3DF JUMP JUMPDEST STOP JUMPDEST CALLVALUE DUP1 ISZERO PUSH2 0xEF JUMPI PUSH1 0x0 DUP1 REVERT JUMPDEST POP PUSH2 0xF8 PUSH2 0x4DB JUMP JUMPDEST PUSH1 0x40 MLOAD PUSH2 0x105 SWAP2 SWAP1 PUSH2 0x759 JUMP JUMPDEST PUSH1 0x40 MLOAD DUP1 SWAP2 SUB SWAP1 RETURN JUMPDEST CALLVALUE DUP1 ISZERO PUSH2 0x11A JUMPI PUSH1 0x0 DUP1 REVERT JUMPDEST POP PUSH2 0x135 PUSH1 0x4 DUP1 CALLDATASIZE SUB DUP2 ADD SWAP1 PUSH2 0x130 SWAP2 SWAP1 PUSH2 0x7CA JUMP JUMPDEST PUSH2 0x4FF JUMP JUMPDEST PUSH1 0x40 MLOAD PUSH2 0x142 SWAP2 SWAP1 PUSH2 0x783 JUMP JUMPDEST PUSH1 0x40 MLOAD DUP1 SWAP2 SUB SWAP1 RETURN JUMPDEST PUSH1 0x0 DUP2 DUP2 SLOAD DUP2 LT PUSH2 0x15B JUMPI PUSH1 0x0 DUP1 REVERT JUMPDEST SWAP1 PUSH1 0x0 MSTORE PUSH1 0x20 PUSH1 0x0 KECCAK256 ADD PUSH1 0x0 SWAP2 POP SLOAD SWAP1 PUSH2 0x100 EXP SWAP1 DIV PUSH20 0xFFFFFFFFFFFFFFFFFFFFFFFFFFFFFFFFFFFFFFFF AND DUP2 JUMP JUMPDEST PUSH32 0x0 PUSH20 0xFFFFFFFFFFFFFFFFFFFFFFFFFFFFFFFFFFFFFFFF AND CALLER PUSH20 0xFFFFFFFFFFFFFFFFFFFFFFFFFFFFFFFFFFFFFFFF AND EQ PUSH2 0x218 JUMPI PUSH1 0x40 MLOAD PUSH32 0x8C379A000000000000000000000000000000000000000000000000000000000 DUP2 MSTORE PUSH1 0x4 ADD PUSH2 0x20F SWAP1 PUSH2 0x854 JUMP JUMPDEST PUSH1 0x40 MLOAD DUP1 SWAP2 SUB SWAP1 REVERT JUMPDEST PUSH1 0x0 JUMPDEST PUSH1 0x0 DUP1 SLOAD SWAP1 POP DUP2 LT ISZERO PUSH2 0x2C3 JUMPI PUSH1 0x0 DUP1 DUP3 DUP2 SLOAD DUP2 LT PUSH2 0x23D JUMPI PUSH2 0x23C PUSH2 0x874 JUMP JUMPDEST JUMPDEST SWAP1 PUSH1 0x0 MSTORE PUSH1 0x20 PUSH1 0x0 KECCAK256 ADD PUSH1 0x0 SWAP1 SLOAD SWAP1 PUSH2 0x100 EXP SWAP1 DIV PUSH20 0xFFFFFFFFFFFFFFFFFFFFFFFFFFFFFFFFFFFFFFFF AND SWAP1 POP PUSH1 0x0 PUSH1 0x1 PUSH1 0x0 DUP4 PUSH20 0xFFFFFFFFFFFFFFFFFFFFFFFFFFFFFFFFFFFFFFFF AND PUSH20 0xFFFFFFFFFFFFFFFFFFFFFFFFFFFFFFFFFFFFFFFF AND DUP2 MSTORE PUSH1 0x20 ADD SWAP1 DUP2 MSTORE PUSH1 0x20 ADD PUSH1 0x0 KECCAK256 DUP2 SWAP1 SSTORE POP POP DUP1 DUP1 PUSH2 0x2BB SWAP1 PUSH2 0x8D2 JUMP JUMPDEST SWAP2 POP POP PUSH2 0x21B JUMP JUMPDEST POP PUSH1 0x0 PUSH8 0xFFFFFFFFFFFFFFFF DUP2 GT ISZERO PUSH2 0x2DF JUMPI PUSH2 0x2DE PUSH2 0x91B JUMP JUMPDEST JUMPDEST PUSH1 0x40 MLOAD SWAP1 DUP1 DUP3 MSTORE DUP1 PUSH1 0x20 MUL PUSH1 0x20 ADD DUP3 ADD PUSH1 0x40 MSTORE DUP1 ISZERO PUSH2 0x30D JUMPI DUP2 PUSH1 0x20 ADD PUSH1 0x20 DUP3 MUL DUP1 CALLDATASIZE DUP4 CALLDATACOPY DUP1 DUP3 ADD SWAP2 POP POP SWAP1 POP JUMPDEST POP PUSH1 0x0 SWAP1 DUP1 MLOAD SWAP1 PUSH1 0x20 ADD SWAP1 PUSH2 0x323 SWAP3 SWAP2 SWAP1 PUSH2 0x609 JUMP JUMPDEST POP PUSH1 0x0 CALLER PUSH20 0xFFFFFFFFFFFFFFFFFFFFFFFFFFFFFFFFFFFFFFFF AND SELFBALANCE PUSH1 0x40 MLOAD PUSH2 0x34A SWAP1 PUSH2 0x97B JUMP JUMPDEST PUSH1 0x0 PUSH1 0x40 MLOAD DUP1 DUP4 SUB DUP2 DUP6 DUP8 GAS CALL SWAP3 POP POP POP RETURNDATASIZE DUP1 PUSH1 0x0 DUP2 EQ PUSH2 0x387 JUMPI PUSH1 0x40 MLOAD SWAP2 POP PUSH1 0x1F NOT PUSH1 0x3F RETURNDATASIZE ADD AND DUP3 ADD PUSH1 0x40 MSTORE RETURNDATASIZE DUP3 MSTORE RETURNDATASIZE PUSH1 0x0 PUSH1 0x20 DUP5 ADD RETURNDATACOPY PUSH2 0x38C JUMP JUMPDEST PUSH1 0x60 SWAP2 POP JUMPDEST POP POP SWAP1 POP DUP1 PUSH2 0x3D0 JUMPI PUSH1 0x40 MLOAD PUSH32 0x8C379A000000000000000000000000000000000000000000000000000000000 DUP2 MSTORE PUSH1 0x4 ADD PUSH2 0x3C7 SWAP1 PUSH2 0x9DC JUMP JUMPDEST PUSH1 0x40 MLOAD DUP1 SWAP2 SUB SWAP1 REVERT JUMPDEST POP JUMP JUMPDEST PUSH8 0x1BC16D674EC80000 DUP2 JUMP JUMPDEST PUSH8 0x1BC16D674EC80000 PUSH2 0x3F1 CALLVALUE PUSH2 0x517 JUMP JUMPDEST LT ISZERO PUSH2 0x432 JUMPI PUSH1 0x40 MLOAD PUSH32 0x8C379A000000000000000000000000000000000000000000000000000000000 DUP2 MSTORE PUSH1 0x4 ADD PUSH2 0x429 SWAP1 PUSH2 0xA48 JUMP JUMPDEST PUSH1 0x40 MLOAD DUP1 SWAP2 SUB SWAP1 REVERT JUMPDEST PUSH1 0x0 CALLER SWAP1 DUP1 PUSH1 0x1 DUP2 SLOAD ADD DUP1 DUP3 SSTORE DUP1 SWAP2 POP POP PUSH1 0x1 SWAP1 SUB SWAP1 PUSH1 0x0 MSTORE PUSH1 0x20 PUSH1 0x0 KECCAK256 ADD PUSH1 0x0 SWAP1 SWAP2 SWAP1 SWAP2 SWAP1 SWAP2 PUSH2 0x100 EXP DUP2 SLOAD DUP2 PUSH20 0xFFFFFFFFFFFFFFFFFFFFFFFFFFFFFFFFFFFFFFFF MUL NOT AND SWAP1 DUP4 PUSH20 0xFFFFFFFFFFFFFFFFFFFFFFFFFFFFFFFFFFFFFFFF AND MUL OR SWAP1 SSTORE POP CALLVALUE PUSH1 0x1 PUSH1 0x0 CALLER PUSH20 0xFFFFFFFFFFFFFFFFFFFFFFFFFFFFFFFFFFFFFFFF AND PUSH20 0xFFFFFFFFFFFFFFFFFFFFFFFFFFFFFFFFFFFFFFFF AND DUP2 MSTORE PUSH1 0x20 ADD SWAP1 DUP2 MSTORE PUSH1 0x20 ADD PUSH1 0x0 KECCAK256 DUP2 SWAP1 SSTORE POP JUMP JUMPDEST PUSH32 0x0 DUP2 JUMP JUMPDEST PUSH1 0x1 PUSH1 0x20 MSTORE DUP1 PUSH1 0x0 MSTORE PUSH1 0x40 PUSH1 0x0 KECCAK256 PUSH1 0x0 SWAP2 POP SWAP1 POP SLOAD DUP2 JUMP JUMPDEST PUSH1 0x0 DUP1 PUSH2 0x522 PUSH2 0x551 JUMP JUMPDEST SWAP1 POP PUSH1 0x0 PUSH8 0xDE0B6B3A7640000 DUP5 DUP4 PUSH2 0x53B SWAP2 SWAP1 PUSH2 0xA68 JUMP JUMPDEST PUSH2 0x545 SWAP2 SWAP1 PUSH2 0xAF1 JUMP JUMPDEST SWAP1 POP DUP1 SWAP3 POP POP POP SWAP2 SWAP1 POP JUMP JUMPDEST PUSH1 0x0 DUP1 PUSH20 0xD4A33860578DE61DBABDC8BFDB98FD742FA7028E SWAP1 POP PUSH1 0x0 DUP2 PUSH20 0xFFFFFFFFFFFFFFFFFFFFFFFFFFFFFFFFFFFFFFFF AND PUSH4 0xFEAF968C PUSH1 0x40 MLOAD DUP2 PUSH4 0xFFFFFFFF AND PUSH1 0xE0 SHL DUP2 MSTORE PUSH1 0x4 ADD PUSH1 0xA0 PUSH1 0x40 MLOAD DUP1 DUP4 SUB DUP2 DUP7 DUP1 EXTCODESIZE ISZERO DUP1 ISZERO PUSH2 0x5B3 JUMPI PUSH1 0x0 DUP1 REVERT JUMPDEST POP GAS STATICCALL ISZERO DUP1 ISZERO PUSH2 0x5C7 JUMPI RETURNDATASIZE PUSH1 0x0 DUP1 RETURNDATACOPY RETURNDATASIZE PUSH1 0x0 REVERT JUMPDEST POP POP POP POP PUSH1 0x40 MLOAD RETURNDATASIZE PUSH1 0x1F NOT PUSH1 0x1F DUP3 ADD AND DUP3 ADD DUP1 PUSH1 0x40 MSTORE POP DUP2 ADD SWAP1 PUSH2 0x5EB SWAP2 SWAP1 PUSH2 0xBAF JUMP JUMPDEST POP POP POP SWAP2 POP POP PUSH5 0x2540BE400 DUP2 PUSH2 0x602 SWAP2 SWAP1 PUSH2 0xC2A JUMP JUMPDEST SWAP3 POP POP POP SWAP1 JUMP JUMPDEST DUP3 DUP1 SLOAD DUP3 DUP3 SSTORE SWAP1 PUSH1 0x0 MSTORE PUSH1 0x20 PUSH1 0x0 KECCAK256 SWAP1 DUP2 ADD SWAP3 DUP3 ISZERO PUSH2 0x682 JUMPI SWAP2 PUSH1 0x20 MUL DUP3 ADD JUMPDEST DUP3 DUP2 GT ISZERO PUSH2 0x681 JUMPI DUP3 MLOAD DUP3 PUSH1 0x0 PUSH2 0x100 EXP DUP2 SLOAD DUP2 PUSH20 0xFFFFFFFFFFFFFFFFFFFFFFFFFFFFFFFFFFFFFFFF MUL NOT AND SWAP1 DUP4 PUSH20 0xFFFFFFFFFFFFFFFFFFFFFFFFFFFFFFFFFFFFFFFF AND MUL OR SWAP1 SSTORE POP SWAP2 PUSH1 0x20 ADD SWAP2 SWAP1 PUSH1 0x1 ADD SWAP1 PUSH2 0x629 JUMP JUMPDEST JUMPDEST POP SWAP1 POP PUSH2 0x68F SWAP2 SWAP1 PUSH2 0x693 JUMP JUMPDEST POP SWAP1 JUMP JUMPDEST JUMPDEST DUP1 DUP3 GT ISZERO PUSH2 0x6AC JUMPI PUSH1 0x0 DUP2 PUSH1 0x0 SWAP1 SSTORE POP PUSH1 0x1 ADD PUSH2 0x694 JUMP JUMPDEST POP SWAP1 JUMP JUMPDEST PUSH1 0x0 DUP1 REVERT JUMPDEST PUSH1 0x0 DUP2 SWAP1 POP SWAP2 SWAP1 POP JUMP JUMPDEST PUSH2 0x6C8 DUP2 PUSH2 0x6B5 JUMP JUMPDEST DUP2 EQ PUSH2 0x6D3 JUMPI PUSH1 0x0 DUP1 REVERT JUMPDEST POP JUMP JUMPDEST PUSH1 0x0 DUP2 CALLDATALOAD SWAP1 POP PUSH2 0x6E5 DUP2 PUSH2 0x6BF JUMP JUMPDEST SWAP3 SWAP2 POP POP JUMP JUMPDEST PUSH1 0x0 PUSH1 0x20 DUP3 DUP5 SUB SLT ISZERO PUSH2 0x701 JUMPI PUSH2 0x700 PUSH2 0x6B0 JUMP JUMPDEST JUMPDEST PUSH1 0x0 PUSH2 0x70F DUP5 DUP3 DUP6 ADD PUSH2 0x6D6 JUMP JUMPDEST SWAP2 POP POP SWAP3 SWAP2 POP POP JUMP JUMPDEST PUSH1 0x0 PUSH20 0xFFFFFFFFFFFFFFFFFFFFFFFFFFFFFFFFFFFFFFFF DUP3 AND SWAP1 POP SWAP2 SWAP1 POP JUMP JUMPDEST PUSH1 0x0 PUSH2 0x743 DUP3 PUSH2 0x718 JUMP JUMPDEST SWAP1 POP SWAP2 SWAP1 POP JUMP JUMPDEST PUSH2 0x753 DUP2 PUSH2 0x738 JUMP JUMPDEST DUP3 MSTORE POP POP JUMP JUMPDEST PUSH1 0x0 PUSH1 0x20 DUP3 ADD SWAP1 POP PUSH2 0x76E PUSH1 0x0 DUP4 ADD DUP5 PUSH2 0x74A JUMP JUMPDEST SWAP3 SWAP2 POP POP JUMP JUMPDEST PUSH2 0x77D DUP2 PUSH2 0x6B5 JUMP JUMPDEST DUP3 MSTORE POP POP JUMP JUMPDEST PUSH1 0x0 PUSH1 0x20 DUP3 ADD SWAP1 POP PUSH2 0x798 PUSH1 0x0 DUP4 ADD DUP5 PUSH2 0x774 JUMP JUMPDEST SWAP3 SWAP2 POP POP JUMP JUMPDEST PUSH2 0x7A7 DUP2 PUSH2 0x738 JUMP JUMPDEST DUP2 EQ PUSH2 0x7B2 JUMPI PUSH1 0x0 DUP1 REVERT JUMPDEST POP JUMP JUMPDEST PUSH1 0x0 DUP2 CALLDATALOAD SWAP1 POP PUSH2 0x7C4 DUP2 PUSH2 0x79E JUMP JUMPDEST SWAP3 SWAP2 POP POP JUMP JUMPDEST PUSH1 0x0 PUSH1 0x20 DUP3 DUP5 SUB SLT ISZERO PUSH2 0x7E0 JUMPI PUSH2 0x7DF PUSH2 0x6B0 JUMP JUMPDEST JUMPDEST PUSH1 0x0 PUSH2 0x7EE DUP5 DUP3 DUP6 ADD PUSH2 0x7B5 JUMP JUMPDEST SWAP2 POP POP SWAP3 SWAP2 POP POP JUMP JUMPDEST PUSH1 0x0 DUP3 DUP3 MSTORE PUSH1 0x20 DUP3 ADD SWAP1 POP SWAP3 SWAP2 POP POP JUMP JUMPDEST PUSH32 0x4F6E6C79206F776E65722063616E206163636573732074686973000000000000 PUSH1 0x0 DUP3 ADD MSTORE POP JUMP JUMPDEST PUSH1 0x0 PUSH2 0x83E PUSH1 0x1A DUP4 PUSH2 0x7F7 JUMP JUMPDEST SWAP2 POP PUSH2 0x849 DUP3 PUSH2 0x808 JUMP JUMPDEST PUSH1 0x20 DUP3 ADD SWAP1 POP SWAP2 SWAP1 POP JUMP JUMPDEST PUSH1 0x0 PUSH1 0x20 DUP3 ADD SWAP1 POP DUP2 DUP2 SUB PUSH1 0x0 DUP4 ADD MSTORE PUSH2 0x86D DUP2 PUSH2 0x831 JUMP JUMPDEST SWAP1 POP SWAP2 SWAP1 POP JUMP JUMPDEST PUSH32 0x4E487B7100000000000000000000000000000000000000000000000000000000 PUSH1 0x0 MSTORE PUSH1 0x32 PUSH1 0x4 MSTORE PUSH1 0x24 PUSH1 0x0 REVERT JUMPDEST PUSH32 0x4E487B7100000000000000000000000000000000000000000000000000000000 PUSH1 0x0 MSTORE PUSH1 0x11 PUSH1 0x4 MSTORE PUSH1 0x24 PUSH1 0x0 REVERT JUMPDEST PUSH1 0x0 PUSH2 0x8DD DUP3 PUSH2 0x6B5 JUMP JUMPDEST SWAP2 POP PUSH32 0xFFFFFFFFFFFFFFFFFFFFFFFFFFFFFFFFFFFFFFFFFFFFFFFFFFFFFFFFFFFFFFFF DUP3 EQ ISZERO PUSH2 0x910 JUMPI PUSH2 0x90F PUSH2 0x8A3 JUMP JUMPDEST JUMPDEST PUSH1 0x1 DUP3 ADD SWAP1 POP SWAP2 SWAP1 POP JUMP JUMPDEST PUSH32 0x4E487B7100000000000000000000000000000000000000000000000000000000 PUSH1 0x0 MSTORE PUSH1 0x41 PUSH1 0x4 MSTORE PUSH1 0x24 PUSH1 0x0 REVERT JUMPDEST PUSH1 0x0 DUP2 SWAP1 POP SWAP3 SWAP2 POP POP JUMP JUMPDEST POP JUMP JUMPDEST PUSH1 0x0 PUSH2 0x965 PUSH1 0x0 DUP4 PUSH2 0x94A JUMP JUMPDEST SWAP2 POP PUSH2 0x970 DUP3 PUSH2 0x955 JUMP JUMPDEST PUSH1 0x0 DUP3 ADD SWAP1 POP SWAP2 SWAP1 POP JUMP JUMPDEST PUSH1 0x0 PUSH2 0x986 DUP3 PUSH2 0x958 JUMP JUMPDEST SWAP2 POP DUP2 SWAP1 POP SWAP2 SWAP1 POP JUMP JUMPDEST PUSH32 0x52657669657720616D6F756E7400000000000000000000000000000000000000 PUSH1 0x0 DUP3 ADD MSTORE POP JUMP JUMPDEST PUSH1 0x0 PUSH2 0x9C6 PUSH1 0xD DUP4 PUSH2 0x7F7 JUMP JUMPDEST SWAP2 POP PUSH2 0x9D1 DUP3 PUSH2 0x990 JUMP JUMPDEST PUSH1 0x20 DUP3 ADD SWAP1 POP SWAP2 SWAP1 POP JUMP JUMPDEST PUSH1 0x0 PUSH1 0x20 DUP3 ADD SWAP1 POP DUP2 DUP2 SUB PUSH1 0x0 DUP4 ADD MSTORE PUSH2 0x9F5 DUP2 PUSH2 0x9B9 JUMP JUMPDEST SWAP1 POP SWAP2 SWAP1 POP JUMP JUMPDEST PUSH32 0x416D6F756E74206D7573742062652067726561746572207468616E2031000000 PUSH1 0x0 DUP3 ADD MSTORE POP JUMP JUMPDEST PUSH1 0x0 PUSH2 0xA32 PUSH1 0x1D DUP4 PUSH2 0x7F7 JUMP JUMPDEST SWAP2 POP PUSH2 0xA3D DUP3 PUSH2 0x9FC JUMP JUMPDEST PUSH1 0x20 DUP3 ADD SWAP1 POP SWAP2 SWAP1 POP JUMP JUMPDEST PUSH1 0x0 PUSH1 0x20 DUP3 ADD SWAP1 POP DUP2 DUP2 SUB PUSH1 0x0 DUP4 ADD MSTORE PUSH2 0xA61 DUP2 PUSH2 0xA25 JUMP JUMPDEST SWAP1 POP SWAP2 SWAP1 POP JUMP JUMPDEST PUSH1 0x0 PUSH2 0xA73 DUP3 PUSH2 0x6B5 JUMP JUMPDEST SWAP2 POP PUSH2 0xA7E DUP4 PUSH2 0x6B5 JUMP JUMPDEST SWAP3 POP DUP2 PUSH32 0xFFFFFFFFFFFFFFFFFFFFFFFFFFFFFFFFFFFFFFFFFFFFFFFFFFFFFFFFFFFFFFFF DIV DUP4 GT DUP3 ISZERO ISZERO AND ISZERO PUSH2 0xAB7 JUMPI PUSH2 0xAB6 PUSH2 0x8A3 JUMP JUMPDEST JUMPDEST DUP3 DUP3 MUL SWAP1 POP SWAP3 SWAP2 POP POP JUMP JUMPDEST PUSH32 0x4E487B7100000000000000000000000000000000000000000000000000000000 PUSH1 0x0 MSTORE PUSH1 0x12 PUSH1 0x4 MSTORE PUSH1 0x24 PUSH1 0x0 REVERT JUMPDEST PUSH1 0x0 PUSH2 0xAFC DUP3 PUSH2 0x6B5 JUMP JUMPDEST SWAP2 POP PUSH2 0xB07 DUP4 PUSH2 0x6B5 JUMP JUMPDEST SWAP3 POP DUP3 PUSH2 0xB17 JUMPI PUSH2 0xB16 PUSH2 0xAC2 JUMP JUMPDEST JUMPDEST DUP3 DUP3 DIV SWAP1 POP SWAP3 SWAP2 POP POP JUMP JUMPDEST PUSH1 0x0 PUSH10 0xFFFFFFFFFFFFFFFFFFFF DUP3 AND SWAP1 POP SWAP2 SWAP1 POP JUMP JUMPDEST PUSH2 0xB41 DUP2 PUSH2 0xB22 JUMP JUMPDEST DUP2 EQ PUSH2 0xB4C JUMPI PUSH1 0x0 DUP1 REVERT JUMPDEST POP JUMP JUMPDEST PUSH1 0x0 DUP2 MLOAD SWAP1 POP PUSH2 0xB5E DUP2 PUSH2 0xB38 JUMP JUMPDEST SWAP3 SWAP2 POP POP JUMP JUMPDEST PUSH1 0x0 DUP2 SWAP1 POP SWAP2 SWAP1 POP JUMP JUMPDEST PUSH2 0xB77 DUP2 PUSH2 0xB64 JUMP JUMPDEST DUP2 EQ PUSH2 0xB82 JUMPI PUSH1 0x0 DUP1 REVERT JUMPDEST POP JUMP JUMPDEST PUSH1 0x0 DUP2 MLOAD SWAP1 POP PUSH2 0xB94 DUP2 PUSH2 0xB6E JUMP JUMPDEST SWAP3 SWAP2 POP POP JUMP JUMPDEST PUSH1 0x0 DUP2 MLOAD SWAP1 POP PUSH2 0xBA9 DUP2 PUSH2 0x6BF JUMP JUMPDEST SWAP3 SWAP2 POP POP JUMP JUMPDEST PUSH1 0x0 DUP1 PUSH1 0x0 DUP1 PUSH1 0x0 PUSH1 0xA0 DUP7 DUP9 SUB SLT ISZERO PUSH2 0xBCB JUMPI PUSH2 0xBCA PUSH2 0x6B0 JUMP JUMPDEST JUMPDEST PUSH1 0x0 PUSH2 0xBD9 DUP9 DUP3 DUP10 ADD PUSH2 0xB4F JUMP JUMPDEST SWAP6 POP POP PUSH1 0x20 PUSH2 0xBEA DUP9 DUP3 DUP10 ADD PUSH2 0xB85 JUMP JUMPDEST SWAP5 POP POP PUSH1 0x40 PUSH2 0xBFB DUP9 DUP3 DUP10 ADD PUSH2 0xB9A JUMP JUMPDEST SWAP4 POP POP PUSH1 0x60 PUSH2 0xC0C DUP9 DUP3 DUP10 ADD PUSH2 0xB9A JUMP JUMPDEST SWAP3 POP POP PUSH1 0x80 PUSH2 0xC1D DUP9 DUP3 DUP10 ADD PUSH2 0xB4F JUMP JUMPDEST SWAP2 POP POP SWAP3 SWAP6 POP SWAP3 SWAP6 SWAP1 SWAP4 POP JUMP JUMPDEST PUSH1 0x0 PUSH2 0xC35 DUP3 PUSH2 0xB64 JUMP JUMPDEST SWAP2 POP PUSH2 0xC40 DUP4 PUSH2 0xB64 JUMP JUMPDEST SWAP3 POP DUP3 PUSH32 0x7FFFFFFFFFFFFFFFFFFFFFFFFFFFFFFFFFFFFFFFFFFFFFFFFFFFFFFFFFFFFFFF DIV DUP3 GT PUSH1 0x0 DUP5 SGT PUSH1 0x0 DUP5 SGT AND AND ISZERO PUSH2 0xC7F JUMPI PUSH2 0xC7E PUSH2 0x8A3 JUMP JUMPDEST JUMPDEST DUP2 PUSH32 0x8000000000000000000000000000000000000000000000000000000000000000 SDIV DUP4 SLT PUSH1 0x0 DUP5 SLT PUSH1 0x0 DUP5 SGT AND AND ISZERO PUSH2 0xCBC JUMPI PUSH2 0xCBB PUSH2 0x8A3 JUMP JUMPDEST JUMPDEST DUP3 PUSH32 0x8000000000000000000000000000000000000000000000000000000000000000 SDIV DUP3 SLT PUSH1 0x0 DUP5 SGT PUSH1 0x0 DUP5 SLT AND AND ISZERO PUSH2 0xCF9 JUMPI PUSH2 0xCF8 PUSH2 0x8A3 JUMP JUMPDEST JUMPDEST DUP3 PUSH32 0x7FFFFFFFFFFFFFFFFFFFFFFFFFFFFFFFFFFFFFFFFFFFFFFFFFFFFFFFFFFFFFFF SDIV DUP3 SLT PUSH1 0x0 DUP5 SLT PUSH1 0x0 DUP5 SLT AND AND ISZERO PUSH2 0xD36 JUMPI PUSH2 0xD35 PUSH2 0x8A3 JUMP JUMPDEST JUMPDEST DUP3 DUP3 MUL SWAP1 POP SWAP3 SWAP2 POP POP JUMP INVALID LOG2 PUSH5 0x6970667358 0x22 SLT KECCAK256 STATICCALL 0xDC LOG4 0x2A CALLCODE 0xAF 0xEB EQ 0xE7 LOG3 LOG3 BLOCKHASH 0x24 0xC8 0xD EQ NOT 0xAA DUP10 PUSH2 0xF6D5 0xC4 0xCE SWAP3 0x2C DELEGATECALL POP 0xA9 0xB2 0xE7 PUSH25 0x64736F6C634300080800330000000000000000000000000000 "
				},
				"gasEstimates": {
					"creation": {
						"codeDepositCost": "689400",
						"executionCost": "infinite",
						"totalCost": "infinite"
					},
					"external": {
						"MINIMUMUSD()": "351",
						"amountFunded(address)": "2902",
						"fund()": "infinite",
						"funder(uint256)": "4934",
						"i_owner()": "infinite",
						"withdraw()": "infinite"
					}
				},
				"methodIdentifiers": {
					"MINIMUMUSD()": "7d451480",
					"amountFunded(address)": "deaf2cf0",
					"fund()": "b60d4288",
					"funder(uint256)": "1f2c9238",
					"i_owner()": "dba6335f",
					"withdraw()": "3ccfd60b"
				}
			},
			"storageLayout": {
				"storage": [
					{
						"astId": 59,
						"contract": "contracts/Transaction.sol:Transaction",
						"label": "funder",
						"offset": 0,
						"slot": "0",
						"type": "t_array(t_address)dyn_storage"
					},
					{
						"astId": 63,
						"contract": "contracts/Transaction.sol:Transaction",
						"label": "amountFunded",
						"offset": 0,
						"slot": "1",
						"type": "t_mapping(t_address,t_uint256)"
					}
				],
				"types": {
					"t_address": {
						"encoding": "inplace",
						"label": "address",
						"numberOfBytes": "20"
					},
					"t_array(t_address)dyn_storage": {
						"base": "t_address",
						"encoding": "dynamic_array",
						"label": "address[]",
						"numberOfBytes": "32"
					},
					"t_mapping(t_address,t_uint256)": {
						"encoding": "mapping",
						"key": "t_address",
						"label": "mapping(address => uint256)",
						"numberOfBytes": "32",
						"value": "t_uint256"
					},
					"t_uint256": {
						"encoding": "inplace",
						"label": "uint256",
						"numberOfBytes": "32"
					}
				}
			},
			"userdoc": {
				"kind": "user",
				"methods": {},
				"version": 1
			}
		}
	}
}