{
	"contracts/Transaction.sol": {
		"Transaction": {
			"abi": [
				{
					"inputs": [],
					"stateMutability": "nonpayable",
					"type": "constructor"
				},
				{
					"inputs": [
						{
							"internalType": "address",
							"name": "",
							"type": "address"
						}
					],
					"name": "amountFunded",
					"outputs": [
						{
							"internalType": "uint256",
							"name": "",
							"type": "uint256"
						}
					],
					"stateMutability": "view",
					"type": "function"
				},
				{
					"inputs": [],
					"name": "fund",
					"outputs": [],
					"stateMutability": "payable",
					"type": "function"
				},
				{
					"inputs": [
						{
							"internalType": "uint256",
							"name": "",
							"type": "uint256"
						}
					],
					"name": "funder",
					"outputs": [
						{
							"internalType": "address",
							"name": "",
							"type": "address"
						}
					],
					"stateMutability": "view",
					"type": "function"
				},
				{
					"inputs": [],
					"name": "minimumUSD",
					"outputs": [
						{
							"internalType": "uint256",
							"name": "",
							"type": "uint256"
						}
					],
					"stateMutability": "view",
					"type": "function"
				},
				{
					"inputs": [],
					"name": "owner",
					"outputs": [
						{
							"internalType": "address",
							"name": "",
							"type": "address"
						}
					],
					"stateMutability": "view",
					"type": "function"
				},
				{
					"inputs": [
						{
							"internalType": "uint256",
							"name": "",
							"type": "uint256"
						}
					],
					"name": "withdraw",
					"outputs": [],
					"stateMutability": "nonpayable",
					"type": "function"
				}
			],
			"devdoc": {
				"kind": "dev",
				"methods": {},
				"version": 1
			},
			"evm": {
				"assembly": "    /* \"contracts/Transaction.sol\":97:1293  contract Transaction {... */\n  mstore(0x40, 0x80)\n    /* \"contracts/Transaction.sol\":191:199  2 * 1e18 */\n  0x1bc16d674ec80000\n    /* \"contracts/Transaction.sol\":163:199  uint256 public minimumUSD = 2 * 1e18 */\n  0x00\n  sstore\n    /* \"contracts/Transaction.sol\":314:363  constructor() {... */\n  callvalue\n  dup1\n  iszero\n  tag_1\n  jumpi\n  0x00\n  dup1\n  revert\ntag_1:\n  pop\n    /* \"contracts/Transaction.sol\":346:356  msg.sender */\n  caller\n    /* \"contracts/Transaction.sol\":338:343  owner */\n  0x03\n  0x00\n    /* \"contracts/Transaction.sol\":338:356  owner = msg.sender */\n  0x0100\n  exp\n  dup2\n  sload\n  dup2\n  0xffffffffffffffffffffffffffffffffffffffff\n  mul\n  not\n  and\n  swap1\n  dup4\n  0xffffffffffffffffffffffffffffffffffffffff\n  and\n  mul\n  or\n  swap1\n  sstore\n  pop\n    /* \"contracts/Transaction.sol\":97:1293  contract Transaction {... */\n  dataSize(sub_0)\n  dup1\n  dataOffset(sub_0)\n  0x00\n  codecopy\n  0x00\n  return\nstop\n\nsub_0: assembly {\n        /* \"contracts/Transaction.sol\":97:1293  contract Transaction {... */\n      mstore(0x40, 0x80)\n      jumpi(tag_1, lt(calldatasize, 0x04))\n      shr(0xe0, calldataload(0x00))\n      dup1\n      0x1f2c9238\n      eq\n      tag_2\n      jumpi\n      dup1\n      0x2e1a7d4d\n      eq\n      tag_3\n      jumpi\n      dup1\n      0x3430a88c\n      eq\n      tag_4\n      jumpi\n      dup1\n      0x8da5cb5b\n      eq\n      tag_5\n      jumpi\n      dup1\n      0xb60d4288\n      eq\n      tag_6\n      jumpi\n      dup1\n      0xdeaf2cf0\n      eq\n      tag_7\n      jumpi\n    tag_1:\n      0x00\n      dup1\n      revert\n        /* \"contracts/Transaction.sol\":205:228  address[] public funder */\n    tag_2:\n      callvalue\n      dup1\n      iszero\n      tag_8\n      jumpi\n      0x00\n      dup1\n      revert\n    tag_8:\n      pop\n      tag_9\n      0x04\n      dup1\n      calldatasize\n      sub\n      dup2\n      add\n      swap1\n      tag_10\n      swap2\n      swap1\n      tag_11\n      jump\t// in\n    tag_10:\n      tag_12\n      jump\t// in\n    tag_9:\n      mload(0x40)\n      tag_13\n      swap2\n      swap1\n      tag_14\n      jump\t// in\n    tag_13:\n      mload(0x40)\n      dup1\n      swap2\n      sub\n      swap1\n      return\n        /* \"contracts/Transaction.sol\":587:1289  function withdraw(uint256) public {... */\n    tag_3:\n      callvalue\n      dup1\n      iszero\n      tag_15\n      jumpi\n      0x00\n      dup1\n      revert\n    tag_15:\n      pop\n      tag_16\n      0x04\n      dup1\n      calldatasize\n      sub\n      dup2\n      add\n      swap1\n      tag_17\n      swap2\n      swap1\n      tag_11\n      jump\t// in\n    tag_17:\n      tag_18\n      jump\t// in\n    tag_16:\n      stop\n        /* \"contracts/Transaction.sol\":163:199  uint256 public minimumUSD = 2 * 1e18 */\n    tag_4:\n      callvalue\n      dup1\n      iszero\n      tag_19\n      jumpi\n      0x00\n      dup1\n      revert\n    tag_19:\n      pop\n      tag_20\n      tag_21\n      jump\t// in\n    tag_20:\n      mload(0x40)\n      tag_22\n      swap2\n      swap1\n      tag_23\n      jump\t// in\n    tag_22:\n      mload(0x40)\n      dup1\n      swap2\n      sub\n      swap1\n      return\n        /* \"contracts/Transaction.sol\":287:307  address public owner */\n    tag_5:\n      callvalue\n      dup1\n      iszero\n      tag_24\n      jumpi\n      0x00\n      dup1\n      revert\n    tag_24:\n      pop\n      tag_25\n      tag_26\n      jump\t// in\n    tag_25:\n      mload(0x40)\n      tag_27\n      swap2\n      swap1\n      tag_14\n      jump\t// in\n    tag_27:\n      mload(0x40)\n      dup1\n      swap2\n      sub\n      swap1\n      return\n        /* \"contracts/Transaction.sol\":375:580  function fund() public payable {... */\n    tag_6:\n      tag_28\n      tag_29\n      jump\t// in\n    tag_28:\n      stop\n        /* \"contracts/Transaction.sol\":234:281  mapping(address => uint256) public amountFunded */\n    tag_7:\n      callvalue\n      dup1\n      iszero\n      tag_30\n      jumpi\n      0x00\n      dup1\n      revert\n    tag_30:\n      pop\n      tag_31\n      0x04\n      dup1\n      calldatasize\n      sub\n      dup2\n      add\n      swap1\n      tag_32\n      swap2\n      swap1\n      tag_33\n      jump\t// in\n    tag_32:\n      tag_34\n      jump\t// in\n    tag_31:\n      mload(0x40)\n      tag_35\n      swap2\n      swap1\n      tag_23\n      jump\t// in\n    tag_35:\n      mload(0x40)\n      dup1\n      swap2\n      sub\n      swap1\n      return\n        /* \"contracts/Transaction.sol\":205:228  address[] public funder */\n    tag_12:\n      0x01\n      dup2\n      dup2\n      sload\n      dup2\n      lt\n      tag_36\n      jumpi\n      0x00\n      dup1\n      revert\n    tag_36:\n      swap1\n      0x00\n      mstore\n      keccak256(0x00, 0x20)\n      add\n      0x00\n      swap2\n      pop\n      sload\n      swap1\n      0x0100\n      exp\n      swap1\n      div\n      0xffffffffffffffffffffffffffffffffffffffff\n      and\n      dup2\n      jump\t// out\n        /* \"contracts/Transaction.sol\":587:1289  function withdraw(uint256) public {... */\n    tag_18:\n        /* \"contracts/Transaction.sol\":635:654  uint256 funderIndex */\n      0x00\n        /* \"contracts/Transaction.sol\":631:817  for(uint256 funderIndex = 0; funderIndex < funder.length; funderIndex++) {... */\n    tag_39:\n        /* \"contracts/Transaction.sol\":674:680  funder */\n      0x01\n        /* \"contracts/Transaction.sol\":674:687  funder.length */\n      dup1\n      sload\n      swap1\n      pop\n        /* \"contracts/Transaction.sol\":660:671  funderIndex */\n      dup2\n        /* \"contracts/Transaction.sol\":660:687  funderIndex < funder.length */\n      lt\n        /* \"contracts/Transaction.sol\":631:817  for(uint256 funderIndex = 0; funderIndex < funder.length; funderIndex++) {... */\n      iszero\n      tag_40\n      jumpi\n        /* \"contracts/Transaction.sol\":718:739  address funderAddress */\n      0x00\n        /* \"contracts/Transaction.sol\":742:748  funder */\n      0x01\n        /* \"contracts/Transaction.sol\":749:760  funderIndex */\n      dup3\n        /* \"contracts/Transaction.sol\":742:761  funder[funderIndex] */\n      dup2\n      sload\n      dup2\n      lt\n      tag_42\n      jumpi\n      tag_43\n      tag_44\n      jump\t// in\n    tag_43:\n    tag_42:\n      swap1\n      0x00\n      mstore\n      keccak256(0x00, 0x20)\n      add\n      0x00\n      swap1\n      sload\n      swap1\n      0x0100\n      exp\n      swap1\n      div\n      0xffffffffffffffffffffffffffffffffffffffff\n      and\n        /* \"contracts/Transaction.sol\":718:761  address funderAddress = funder[funderIndex] */\n      swap1\n      pop\n        /* \"contracts/Transaction.sol\":805:806  0 */\n      0x00\n        /* \"contracts/Transaction.sol\":775:787  amountFunded */\n      0x02\n        /* \"contracts/Transaction.sol\":775:802  amountFunded[funderAddress] */\n      0x00\n        /* \"contracts/Transaction.sol\":788:801  funderAddress */\n      dup4\n        /* \"contracts/Transaction.sol\":775:802  amountFunded[funderAddress] */\n      0xffffffffffffffffffffffffffffffffffffffff\n      and\n      0xffffffffffffffffffffffffffffffffffffffff\n      and\n      dup2\n      mstore\n      0x20\n      add\n      swap1\n      dup2\n      mstore\n      0x20\n      add\n      0x00\n      keccak256\n        /* \"contracts/Transaction.sol\":775:806  amountFunded[funderAddress] = 0 */\n      dup2\n      swap1\n      sstore\n      pop\n        /* \"contracts/Transaction.sol\":704:817  {... */\n      pop\n        /* \"contracts/Transaction.sol\":689:702  funderIndex++ */\n      dup1\n      dup1\n      tag_46\n      swap1\n      tag_47\n      jump\t// in\n    tag_46:\n      swap2\n      pop\n      pop\n        /* \"contracts/Transaction.sol\":631:817  for(uint256 funderIndex = 0; funderIndex < funder.length; funderIndex++) {... */\n      jump(tag_39)\n    tag_40:\n      pop\n        /* \"contracts/Transaction.sol\":1163:1175  bool success */\n      0x00\n        /* \"contracts/Transaction.sol\":1189:1199  msg.sender */\n      caller\n        /* \"contracts/Transaction.sol\":1181:1205  payable(msg.sender).call */\n      0xffffffffffffffffffffffffffffffffffffffff\n      and\n        /* \"contracts/Transaction.sol\":1213:1234  address(this).balance */\n      selfbalance\n        /* \"contracts/Transaction.sol\":1181:1239  payable(msg.sender).call{value: address(this).balance}(\"\") */\n      mload(0x40)\n      tag_48\n      swap1\n      tag_49\n      jump\t// in\n    tag_48:\n      0x00\n      mload(0x40)\n      dup1\n      dup4\n      sub\n      dup2\n      dup6\n      dup8\n      gas\n      call\n      swap3\n      pop\n      pop\n      pop\n      returndatasize\n      dup1\n      0x00\n      dup2\n      eq\n      tag_52\n      jumpi\n      mload(0x40)\n      swap2\n      pop\n      and(add(returndatasize, 0x3f), not(0x1f))\n      dup3\n      add\n      0x40\n      mstore\n      returndatasize\n      dup3\n      mstore\n      returndatasize\n      0x00\n      0x20\n      dup5\n      add\n      returndatacopy\n      jump(tag_51)\n    tag_52:\n      0x60\n      swap2\n      pop\n    tag_51:\n      pop\n        /* \"contracts/Transaction.sol\":1162:1239  (bool success, ) = payable(msg.sender).call{value: address(this).balance}(\"\") */\n      pop\n      swap1\n      pop\n        /* \"contracts/Transaction.sol\":1257:1264  success */\n      dup1\n        /* \"contracts/Transaction.sol\":1249:1282  require(success, \"Review amount\") */\n      tag_53\n      jumpi\n      mload(0x40)\n      0x08c379a000000000000000000000000000000000000000000000000000000000\n      dup2\n      mstore\n      0x04\n      add\n      tag_54\n      swap1\n      tag_55\n      jump\t// in\n    tag_54:\n      mload(0x40)\n      dup1\n      swap2\n      sub\n      swap1\n      revert\n    tag_53:\n        /* \"contracts/Transaction.sol\":621:1289  {... */\n      pop\n        /* \"contracts/Transaction.sol\":587:1289  function withdraw(uint256) public {... */\n      pop\n      jump\t// out\n        /* \"contracts/Transaction.sol\":163:199  uint256 public minimumUSD = 2 * 1e18 */\n    tag_21:\n      sload(0x00)\n      dup2\n      jump\t// out\n        /* \"contracts/Transaction.sol\":287:307  address public owner */\n    tag_26:\n      0x03\n      0x00\n      swap1\n      sload\n      swap1\n      0x0100\n      exp\n      swap1\n      div\n      0xffffffffffffffffffffffffffffffffffffffff\n      and\n      dup2\n      jump\t// out\n        /* \"contracts/Transaction.sol\":375:580  function fund() public payable {... */\n    tag_29:\n        /* \"contracts/Transaction.sol\":449:459  minimumUSD */\n      sload(0x00)\n        /* \"contracts/Transaction.sol\":424:445  msg.value.converter() */\n      tag_57\n        /* \"contracts/Transaction.sol\":424:433  msg.value */\n      callvalue\n        /* \"contracts/Transaction.sol\":424:443  msg.value.converter */\n      tag_58\n        /* \"contracts/Transaction.sol\":424:445  msg.value.converter() */\n      jump\t// in\n    tag_57:\n        /* \"contracts/Transaction.sol\":424:459  msg.value.converter() >= minimumUSD */\n      lt\n      iszero\n        /* \"contracts/Transaction.sol\":416:493  require(msg.value.converter() >= minimumUSD, \"Amount must be greater than 1\") */\n      tag_59\n      jumpi\n      mload(0x40)\n      0x08c379a000000000000000000000000000000000000000000000000000000000\n      dup2\n      mstore\n      0x04\n      add\n      tag_60\n      swap1\n      tag_61\n      jump\t// in\n    tag_60:\n      mload(0x40)\n      dup1\n      swap2\n      sub\n      swap1\n      revert\n    tag_59:\n        /* \"contracts/Transaction.sol\":503:509  funder */\n      0x01\n        /* \"contracts/Transaction.sol\":515:525  msg.sender */\n      caller\n        /* \"contracts/Transaction.sol\":503:526  funder.push(msg.sender) */\n      swap1\n      dup1\n      0x01\n      dup2\n      sload\n      add\n      dup1\n      dup3\n      sstore\n      dup1\n      swap2\n      pop\n      pop\n      0x01\n      swap1\n      sub\n      swap1\n      0x00\n      mstore\n      keccak256(0x00, 0x20)\n      add\n      0x00\n      swap1\n      swap2\n      swap1\n      swap2\n      swap1\n      swap2\n      0x0100\n      exp\n      dup2\n      sload\n      dup2\n      0xffffffffffffffffffffffffffffffffffffffff\n      mul\n      not\n      and\n      swap1\n      dup4\n      0xffffffffffffffffffffffffffffffffffffffff\n      and\n      mul\n      or\n      swap1\n      sstore\n      pop\n        /* \"contracts/Transaction.sol\":563:572  msg.value */\n      callvalue\n        /* \"contracts/Transaction.sol\":536:548  amountFunded */\n      0x02\n        /* \"contracts/Transaction.sol\":536:560  amountFunded[msg.sender] */\n      0x00\n        /* \"contracts/Transaction.sol\":549:559  msg.sender */\n      caller\n        /* \"contracts/Transaction.sol\":536:560  amountFunded[msg.sender] */\n      0xffffffffffffffffffffffffffffffffffffffff\n      and\n      0xffffffffffffffffffffffffffffffffffffffff\n      and\n      dup2\n      mstore\n      0x20\n      add\n      swap1\n      dup2\n      mstore\n      0x20\n      add\n      0x00\n      keccak256\n        /* \"contracts/Transaction.sol\":536:572  amountFunded[msg.sender] = msg.value */\n      dup2\n      swap1\n      sstore\n      pop\n        /* \"contracts/Transaction.sol\":375:580  function fund() public payable {... */\n      jump\t// out\n        /* \"contracts/Transaction.sol\":234:281  mapping(address => uint256) public amountFunded */\n    tag_34:\n      mstore(0x20, 0x02)\n      dup1\n      0x00\n      mstore\n      keccak256(0x00, 0x40)\n      0x00\n      swap2\n      pop\n      swap1\n      pop\n      sload\n      dup2\n      jump\t// out\n        /* \"contracts/library/PriceConverter.sol\":434:630  function converter(uint256 ethAmount) internal view returns(uint256) {... */\n    tag_58:\n        /* \"contracts/library/PriceConverter.sol\":494:501  uint256 */\n      0x00\n        /* \"contracts/library/PriceConverter.sol\":513:526  uint256 price */\n      dup1\n        /* \"contracts/library/PriceConverter.sol\":529:539  getPrice() */\n      tag_64\n        /* \"contracts/library/PriceConverter.sol\":529:537  getPrice */\n      tag_65\n        /* \"contracts/library/PriceConverter.sol\":529:539  getPrice() */\n      jump\t// in\n    tag_64:\n        /* \"contracts/library/PriceConverter.sol\":513:539  uint256 price = getPrice() */\n      swap1\n      pop\n        /* \"contracts/library/PriceConverter.sol\":549:567  uint256 priceInUSD */\n      0x00\n        /* \"contracts/library/PriceConverter.sol\":592:596  1e18 */\n      0x0de0b6b3a7640000\n        /* \"contracts/library/PriceConverter.sol\":579:588  ethAmount */\n      dup5\n        /* \"contracts/library/PriceConverter.sol\":571:576  price */\n      dup4\n        /* \"contracts/library/PriceConverter.sol\":571:588  price * ethAmount */\n      tag_66\n      swap2\n      swap1\n      tag_67\n      jump\t// in\n    tag_66:\n        /* \"contracts/library/PriceConverter.sol\":570:596  (price * ethAmount) / 1e18 */\n      tag_68\n      swap2\n      swap1\n      tag_69\n      jump\t// in\n    tag_68:\n        /* \"contracts/library/PriceConverter.sol\":549:596  uint256 priceInUSD = (price * ethAmount) / 1e18 */\n      swap1\n      pop\n        /* \"contracts/library/PriceConverter.sol\":613:623  priceInUSD */\n      dup1\n        /* \"contracts/library/PriceConverter.sol\":606:623  return priceInUSD */\n      swap3\n      pop\n      pop\n      pop\n        /* \"contracts/library/PriceConverter.sol\":434:630  function converter(uint256 ethAmount) internal view returns(uint256) {... */\n      swap2\n      swap1\n      pop\n      jump\t// out\n        /* \"contracts/library/PriceConverter.sol\":164:428  function getPrice() internal view returns(uint256) {... */\n    tag_65:\n        /* \"contracts/library/PriceConverter.sol\":206:213  uint256 */\n      0x00\n        /* \"contracts/library/PriceConverter.sol\":225:256  AggregatorV3Interface priceFeed */\n      dup1\n        /* \"contracts/library/PriceConverter.sol\":281:323  0xD4a33860578De61DBAbDc8BFdb98FD742fA7028e */\n      0xd4a33860578de61dbabdc8bfdb98fd742fa7028e\n        /* \"contracts/library/PriceConverter.sol\":225:324  AggregatorV3Interface priceFeed = AggregatorV3Interface(0xD4a33860578De61DBAbDc8BFdb98FD742fA7028e) */\n      swap1\n      pop\n        /* \"contracts/library/PriceConverter.sol\":336:348  int256 price */\n      0x00\n        /* \"contracts/library/PriceConverter.sol\":356:365  priceFeed */\n      dup2\n        /* \"contracts/library/PriceConverter.sol\":356:381  priceFeed.latestRoundData */\n      0xffffffffffffffffffffffffffffffffffffffff\n      and\n      0xfeaf968c\n        /* \"contracts/library/PriceConverter.sol\":356:383  priceFeed.latestRoundData() */\n      mload(0x40)\n      dup2\n      0xffffffff\n      and\n      0xe0\n      shl\n      dup2\n      mstore\n      0x04\n      add\n      0xa0\n      mload(0x40)\n      dup1\n      dup4\n      sub\n      dup2\n      dup7\n      dup1\n      extcodesize\n      iszero\n      dup1\n      iszero\n      tag_71\n      jumpi\n      0x00\n      dup1\n      revert\n    tag_71:\n      pop\n      gas\n      staticcall\n      iszero\n      dup1\n      iszero\n      tag_73\n      jumpi\n      returndatasize\n      0x00\n      dup1\n      returndatacopy\n      revert(0x00, returndatasize)\n    tag_73:\n      pop\n      pop\n      pop\n      pop\n      mload(0x40)\n      returndatasize\n      not(0x1f)\n      0x1f\n      dup3\n      add\n      and\n      dup3\n      add\n      dup1\n      0x40\n      mstore\n      pop\n      dup2\n      add\n      swap1\n      tag_74\n      swap2\n      swap1\n      tag_75\n      jump\t// in\n    tag_74:\n        /* \"contracts/library/PriceConverter.sol\":334:383  (,int256 price,,, ) = priceFeed.latestRoundData() */\n      pop\n      pop\n      pop\n      swap2\n      pop\n      pop\n        /* \"contracts/library/PriceConverter.sol\":416:420  1e10 */\n      0x02540be400\n        /* \"contracts/library/PriceConverter.sol\":408:413  price */\n      dup2\n        /* \"contracts/library/PriceConverter.sol\":408:420  price * 1e10 */\n      tag_76\n      swap2\n      swap1\n      tag_77\n      jump\t// in\n    tag_76:\n        /* \"contracts/library/PriceConverter.sol\":393:421  return uint256(price * 1e10) */\n      swap3\n      pop\n      pop\n      pop\n        /* \"contracts/library/PriceConverter.sol\":164:428  function getPrice() internal view returns(uint256) {... */\n      swap1\n      jump\t// out\n        /* \"#utility.yul\":88:205   */\n    tag_79:\n        /* \"#utility.yul\":197:198   */\n      0x00\n        /* \"#utility.yul\":194:195   */\n      dup1\n        /* \"#utility.yul\":187:199   */\n      revert\n        /* \"#utility.yul\":334:411   */\n    tag_81:\n        /* \"#utility.yul\":371:378   */\n      0x00\n        /* \"#utility.yul\":400:405   */\n      dup2\n        /* \"#utility.yul\":389:405   */\n      swap1\n      pop\n        /* \"#utility.yul\":334:411   */\n      swap2\n      swap1\n      pop\n      jump\t// out\n        /* \"#utility.yul\":417:539   */\n    tag_82:\n        /* \"#utility.yul\":490:514   */\n      tag_113\n        /* \"#utility.yul\":508:513   */\n      dup2\n        /* \"#utility.yul\":490:514   */\n      tag_81\n      jump\t// in\n    tag_113:\n        /* \"#utility.yul\":483:488   */\n      dup2\n        /* \"#utility.yul\":480:515   */\n      eq\n        /* \"#utility.yul\":470:533   */\n      tag_114\n      jumpi\n        /* \"#utility.yul\":529:530   */\n      0x00\n        /* \"#utility.yul\":526:527   */\n      dup1\n        /* \"#utility.yul\":519:531   */\n      revert\n        /* \"#utility.yul\":470:533   */\n    tag_114:\n        /* \"#utility.yul\":417:539   */\n      pop\n      jump\t// out\n        /* \"#utility.yul\":545:684   */\n    tag_83:\n        /* \"#utility.yul\":591:596   */\n      0x00\n        /* \"#utility.yul\":629:635   */\n      dup2\n        /* \"#utility.yul\":616:636   */\n      calldataload\n        /* \"#utility.yul\":607:636   */\n      swap1\n      pop\n        /* \"#utility.yul\":645:678   */\n      tag_116\n        /* \"#utility.yul\":672:677   */\n      dup2\n        /* \"#utility.yul\":645:678   */\n      tag_82\n      jump\t// in\n    tag_116:\n        /* \"#utility.yul\":545:684   */\n      swap3\n      swap2\n      pop\n      pop\n      jump\t// out\n        /* \"#utility.yul\":690:1019   */\n    tag_11:\n        /* \"#utility.yul\":749:755   */\n      0x00\n        /* \"#utility.yul\":798:800   */\n      0x20\n        /* \"#utility.yul\":786:795   */\n      dup3\n        /* \"#utility.yul\":777:784   */\n      dup5\n        /* \"#utility.yul\":773:796   */\n      sub\n        /* \"#utility.yul\":769:801   */\n      slt\n        /* \"#utility.yul\":766:885   */\n      iszero\n      tag_118\n      jumpi\n        /* \"#utility.yul\":804:883   */\n      tag_119\n      tag_79\n      jump\t// in\n    tag_119:\n        /* \"#utility.yul\":766:885   */\n    tag_118:\n        /* \"#utility.yul\":924:925   */\n      0x00\n        /* \"#utility.yul\":949:1002   */\n      tag_120\n        /* \"#utility.yul\":994:1001   */\n      dup5\n        /* \"#utility.yul\":985:991   */\n      dup3\n        /* \"#utility.yul\":974:983   */\n      dup6\n        /* \"#utility.yul\":970:992   */\n      add\n        /* \"#utility.yul\":949:1002   */\n      tag_83\n      jump\t// in\n    tag_120:\n        /* \"#utility.yul\":939:1002   */\n      swap2\n      pop\n        /* \"#utility.yul\":895:1012   */\n      pop\n        /* \"#utility.yul\":690:1019   */\n      swap3\n      swap2\n      pop\n      pop\n      jump\t// out\n        /* \"#utility.yul\":1025:1151   */\n    tag_84:\n        /* \"#utility.yul\":1062:1069   */\n      0x00\n        /* \"#utility.yul\":1102:1144   */\n      0xffffffffffffffffffffffffffffffffffffffff\n        /* \"#utility.yul\":1095:1100   */\n      dup3\n        /* \"#utility.yul\":1091:1145   */\n      and\n        /* \"#utility.yul\":1080:1145   */\n      swap1\n      pop\n        /* \"#utility.yul\":1025:1151   */\n      swap2\n      swap1\n      pop\n      jump\t// out\n        /* \"#utility.yul\":1157:1253   */\n    tag_85:\n        /* \"#utility.yul\":1194:1201   */\n      0x00\n        /* \"#utility.yul\":1223:1247   */\n      tag_123\n        /* \"#utility.yul\":1241:1246   */\n      dup3\n        /* \"#utility.yul\":1223:1247   */\n      tag_84\n      jump\t// in\n    tag_123:\n        /* \"#utility.yul\":1212:1247   */\n      swap1\n      pop\n        /* \"#utility.yul\":1157:1253   */\n      swap2\n      swap1\n      pop\n      jump\t// out\n        /* \"#utility.yul\":1259:1377   */\n    tag_86:\n        /* \"#utility.yul\":1346:1370   */\n      tag_125\n        /* \"#utility.yul\":1364:1369   */\n      dup2\n        /* \"#utility.yul\":1346:1370   */\n      tag_85\n      jump\t// in\n    tag_125:\n        /* \"#utility.yul\":1341:1344   */\n      dup3\n        /* \"#utility.yul\":1334:1371   */\n      mstore\n        /* \"#utility.yul\":1259:1377   */\n      pop\n      pop\n      jump\t// out\n        /* \"#utility.yul\":1383:1605   */\n    tag_14:\n        /* \"#utility.yul\":1476:1480   */\n      0x00\n        /* \"#utility.yul\":1514:1516   */\n      0x20\n        /* \"#utility.yul\":1503:1512   */\n      dup3\n        /* \"#utility.yul\":1499:1517   */\n      add\n        /* \"#utility.yul\":1491:1517   */\n      swap1\n      pop\n        /* \"#utility.yul\":1527:1598   */\n      tag_127\n        /* \"#utility.yul\":1595:1596   */\n      0x00\n        /* \"#utility.yul\":1584:1593   */\n      dup4\n        /* \"#utility.yul\":1580:1597   */\n      add\n        /* \"#utility.yul\":1571:1577   */\n      dup5\n        /* \"#utility.yul\":1527:1598   */\n      tag_86\n      jump\t// in\n    tag_127:\n        /* \"#utility.yul\":1383:1605   */\n      swap3\n      swap2\n      pop\n      pop\n      jump\t// out\n        /* \"#utility.yul\":1611:1729   */\n    tag_87:\n        /* \"#utility.yul\":1698:1722   */\n      tag_129\n        /* \"#utility.yul\":1716:1721   */\n      dup2\n        /* \"#utility.yul\":1698:1722   */\n      tag_81\n      jump\t// in\n    tag_129:\n        /* \"#utility.yul\":1693:1696   */\n      dup3\n        /* \"#utility.yul\":1686:1723   */\n      mstore\n        /* \"#utility.yul\":1611:1729   */\n      pop\n      pop\n      jump\t// out\n        /* \"#utility.yul\":1735:1957   */\n    tag_23:\n        /* \"#utility.yul\":1828:1832   */\n      0x00\n        /* \"#utility.yul\":1866:1868   */\n      0x20\n        /* \"#utility.yul\":1855:1864   */\n      dup3\n        /* \"#utility.yul\":1851:1869   */\n      add\n        /* \"#utility.yul\":1843:1869   */\n      swap1\n      pop\n        /* \"#utility.yul\":1879:1950   */\n      tag_131\n        /* \"#utility.yul\":1947:1948   */\n      0x00\n        /* \"#utility.yul\":1936:1945   */\n      dup4\n        /* \"#utility.yul\":1932:1949   */\n      add\n        /* \"#utility.yul\":1923:1929   */\n      dup5\n        /* \"#utility.yul\":1879:1950   */\n      tag_87\n      jump\t// in\n    tag_131:\n        /* \"#utility.yul\":1735:1957   */\n      swap3\n      swap2\n      pop\n      pop\n      jump\t// out\n        /* \"#utility.yul\":1963:2085   */\n    tag_88:\n        /* \"#utility.yul\":2036:2060   */\n      tag_133\n        /* \"#utility.yul\":2054:2059   */\n      dup2\n        /* \"#utility.yul\":2036:2060   */\n      tag_85\n      jump\t// in\n    tag_133:\n        /* \"#utility.yul\":2029:2034   */\n      dup2\n        /* \"#utility.yul\":2026:2061   */\n      eq\n        /* \"#utility.yul\":2016:2079   */\n      tag_134\n      jumpi\n        /* \"#utility.yul\":2075:2076   */\n      0x00\n        /* \"#utility.yul\":2072:2073   */\n      dup1\n        /* \"#utility.yul\":2065:2077   */\n      revert\n        /* \"#utility.yul\":2016:2079   */\n    tag_134:\n        /* \"#utility.yul\":1963:2085   */\n      pop\n      jump\t// out\n        /* \"#utility.yul\":2091:2230   */\n    tag_89:\n        /* \"#utility.yul\":2137:2142   */\n      0x00\n        /* \"#utility.yul\":2175:2181   */\n      dup2\n        /* \"#utility.yul\":2162:2182   */\n      calldataload\n        /* \"#utility.yul\":2153:2182   */\n      swap1\n      pop\n        /* \"#utility.yul\":2191:2224   */\n      tag_136\n        /* \"#utility.yul\":2218:2223   */\n      dup2\n        /* \"#utility.yul\":2191:2224   */\n      tag_88\n      jump\t// in\n    tag_136:\n        /* \"#utility.yul\":2091:2230   */\n      swap3\n      swap2\n      pop\n      pop\n      jump\t// out\n        /* \"#utility.yul\":2236:2565   */\n    tag_33:\n        /* \"#utility.yul\":2295:2301   */\n      0x00\n        /* \"#utility.yul\":2344:2346   */\n      0x20\n        /* \"#utility.yul\":2332:2341   */\n      dup3\n        /* \"#utility.yul\":2323:2330   */\n      dup5\n        /* \"#utility.yul\":2319:2342   */\n      sub\n        /* \"#utility.yul\":2315:2347   */\n      slt\n        /* \"#utility.yul\":2312:2431   */\n      iszero\n      tag_138\n      jumpi\n        /* \"#utility.yul\":2350:2429   */\n      tag_139\n      tag_79\n      jump\t// in\n    tag_139:\n        /* \"#utility.yul\":2312:2431   */\n    tag_138:\n        /* \"#utility.yul\":2470:2471   */\n      0x00\n        /* \"#utility.yul\":2495:2548   */\n      tag_140\n        /* \"#utility.yul\":2540:2547   */\n      dup5\n        /* \"#utility.yul\":2531:2537   */\n      dup3\n        /* \"#utility.yul\":2520:2529   */\n      dup6\n        /* \"#utility.yul\":2516:2538   */\n      add\n        /* \"#utility.yul\":2495:2548   */\n      tag_89\n      jump\t// in\n    tag_140:\n        /* \"#utility.yul\":2485:2548   */\n      swap2\n      pop\n        /* \"#utility.yul\":2441:2558   */\n      pop\n        /* \"#utility.yul\":2236:2565   */\n      swap3\n      swap2\n      pop\n      pop\n      jump\t// out\n        /* \"#utility.yul\":2571:2751   */\n    tag_44:\n        /* \"#utility.yul\":2619:2696   */\n      0x4e487b7100000000000000000000000000000000000000000000000000000000\n        /* \"#utility.yul\":2616:2617   */\n      0x00\n        /* \"#utility.yul\":2609:2697   */\n      mstore\n        /* \"#utility.yul\":2716:2720   */\n      0x32\n        /* \"#utility.yul\":2713:2714   */\n      0x04\n        /* \"#utility.yul\":2706:2721   */\n      mstore\n        /* \"#utility.yul\":2740:2744   */\n      0x24\n        /* \"#utility.yul\":2737:2738   */\n      0x00\n        /* \"#utility.yul\":2730:2745   */\n      revert\n        /* \"#utility.yul\":2757:2937   */\n    tag_90:\n        /* \"#utility.yul\":2805:2882   */\n      0x4e487b7100000000000000000000000000000000000000000000000000000000\n        /* \"#utility.yul\":2802:2803   */\n      0x00\n        /* \"#utility.yul\":2795:2883   */\n      mstore\n        /* \"#utility.yul\":2902:2906   */\n      0x11\n        /* \"#utility.yul\":2899:2900   */\n      0x04\n        /* \"#utility.yul\":2892:2907   */\n      mstore\n        /* \"#utility.yul\":2926:2930   */\n      0x24\n        /* \"#utility.yul\":2923:2924   */\n      0x00\n        /* \"#utility.yul\":2916:2931   */\n      revert\n        /* \"#utility.yul\":2943:3176   */\n    tag_47:\n        /* \"#utility.yul\":2982:2985   */\n      0x00\n        /* \"#utility.yul\":3005:3029   */\n      tag_144\n        /* \"#utility.yul\":3023:3028   */\n      dup3\n        /* \"#utility.yul\":3005:3029   */\n      tag_81\n      jump\t// in\n    tag_144:\n        /* \"#utility.yul\":2996:3029   */\n      swap2\n      pop\n        /* \"#utility.yul\":3051:3117   */\n      0xffffffffffffffffffffffffffffffffffffffffffffffffffffffffffffffff\n        /* \"#utility.yul\":3044:3049   */\n      dup3\n        /* \"#utility.yul\":3041:3118   */\n      eq\n        /* \"#utility.yul\":3038:3141   */\n      iszero\n      tag_145\n      jumpi\n        /* \"#utility.yul\":3121:3139   */\n      tag_146\n      tag_90\n      jump\t// in\n    tag_146:\n        /* \"#utility.yul\":3038:3141   */\n    tag_145:\n        /* \"#utility.yul\":3168:3169   */\n      0x01\n        /* \"#utility.yul\":3161:3166   */\n      dup3\n        /* \"#utility.yul\":3157:3170   */\n      add\n        /* \"#utility.yul\":3150:3170   */\n      swap1\n      pop\n        /* \"#utility.yul\":2943:3176   */\n      swap2\n      swap1\n      pop\n      jump\t// out\n        /* \"#utility.yul\":3182:3329   */\n    tag_91:\n        /* \"#utility.yul\":3283:3294   */\n      0x00\n        /* \"#utility.yul\":3320:3323   */\n      dup2\n        /* \"#utility.yul\":3305:3323   */\n      swap1\n      pop\n        /* \"#utility.yul\":3182:3329   */\n      swap3\n      swap2\n      pop\n      pop\n      jump\t// out\n        /* \"#utility.yul\":3335:3449   */\n    tag_92:\n      pop\n      jump\t// out\n        /* \"#utility.yul\":3455:3853   */\n    tag_93:\n        /* \"#utility.yul\":3614:3617   */\n      0x00\n        /* \"#utility.yul\":3635:3718   */\n      tag_150\n        /* \"#utility.yul\":3716:3717   */\n      0x00\n        /* \"#utility.yul\":3711:3714   */\n      dup4\n        /* \"#utility.yul\":3635:3718   */\n      tag_91\n      jump\t// in\n    tag_150:\n        /* \"#utility.yul\":3628:3718   */\n      swap2\n      pop\n        /* \"#utility.yul\":3727:3820   */\n      tag_151\n        /* \"#utility.yul\":3816:3819   */\n      dup3\n        /* \"#utility.yul\":3727:3820   */\n      tag_92\n      jump\t// in\n    tag_151:\n        /* \"#utility.yul\":3845:3846   */\n      0x00\n        /* \"#utility.yul\":3840:3843   */\n      dup3\n        /* \"#utility.yul\":3836:3847   */\n      add\n        /* \"#utility.yul\":3829:3847   */\n      swap1\n      pop\n        /* \"#utility.yul\":3455:3853   */\n      swap2\n      swap1\n      pop\n      jump\t// out\n        /* \"#utility.yul\":3859:4238   */\n    tag_49:\n        /* \"#utility.yul\":4043:4046   */\n      0x00\n        /* \"#utility.yul\":4065:4212   */\n      tag_153\n        /* \"#utility.yul\":4208:4211   */\n      dup3\n        /* \"#utility.yul\":4065:4212   */\n      tag_93\n      jump\t// in\n    tag_153:\n        /* \"#utility.yul\":4058:4212   */\n      swap2\n      pop\n        /* \"#utility.yul\":4229:4232   */\n      dup2\n        /* \"#utility.yul\":4222:4232   */\n      swap1\n      pop\n        /* \"#utility.yul\":3859:4238   */\n      swap2\n      swap1\n      pop\n      jump\t// out\n        /* \"#utility.yul\":4244:4413   */\n    tag_94:\n        /* \"#utility.yul\":4328:4339   */\n      0x00\n        /* \"#utility.yul\":4362:4368   */\n      dup3\n        /* \"#utility.yul\":4357:4360   */\n      dup3\n        /* \"#utility.yul\":4350:4369   */\n      mstore\n        /* \"#utility.yul\":4402:4406   */\n      0x20\n        /* \"#utility.yul\":4397:4400   */\n      dup3\n        /* \"#utility.yul\":4393:4407   */\n      add\n        /* \"#utility.yul\":4378:4407   */\n      swap1\n      pop\n        /* \"#utility.yul\":4244:4413   */\n      swap3\n      swap2\n      pop\n      pop\n      jump\t// out\n        /* \"#utility.yul\":4419:4582   */\n    tag_95:\n        /* \"#utility.yul\":4559:4574   */\n      0x52657669657720616d6f756e7400000000000000000000000000000000000000\n        /* \"#utility.yul\":4555:4556   */\n      0x00\n        /* \"#utility.yul\":4547:4553   */\n      dup3\n        /* \"#utility.yul\":4543:4557   */\n      add\n        /* \"#utility.yul\":4536:4575   */\n      mstore\n        /* \"#utility.yul\":4419:4582   */\n      pop\n      jump\t// out\n        /* \"#utility.yul\":4588:4954   */\n    tag_96:\n        /* \"#utility.yul\":4730:4733   */\n      0x00\n        /* \"#utility.yul\":4751:4818   */\n      tag_157\n        /* \"#utility.yul\":4815:4817   */\n      0x0d\n        /* \"#utility.yul\":4810:4813   */\n      dup4\n        /* \"#utility.yul\":4751:4818   */\n      tag_94\n      jump\t// in\n    tag_157:\n        /* \"#utility.yul\":4744:4818   */\n      swap2\n      pop\n        /* \"#utility.yul\":4827:4920   */\n      tag_158\n        /* \"#utility.yul\":4916:4919   */\n      dup3\n        /* \"#utility.yul\":4827:4920   */\n      tag_95\n      jump\t// in\n    tag_158:\n        /* \"#utility.yul\":4945:4947   */\n      0x20\n        /* \"#utility.yul\":4940:4943   */\n      dup3\n        /* \"#utility.yul\":4936:4948   */\n      add\n        /* \"#utility.yul\":4929:4948   */\n      swap1\n      pop\n        /* \"#utility.yul\":4588:4954   */\n      swap2\n      swap1\n      pop\n      jump\t// out\n        /* \"#utility.yul\":4960:5379   */\n    tag_55:\n        /* \"#utility.yul\":5126:5130   */\n      0x00\n        /* \"#utility.yul\":5164:5166   */\n      0x20\n        /* \"#utility.yul\":5153:5162   */\n      dup3\n        /* \"#utility.yul\":5149:5167   */\n      add\n        /* \"#utility.yul\":5141:5167   */\n      swap1\n      pop\n        /* \"#utility.yul\":5213:5222   */\n      dup2\n        /* \"#utility.yul\":5207:5211   */\n      dup2\n        /* \"#utility.yul\":5203:5223   */\n      sub\n        /* \"#utility.yul\":5199:5200   */\n      0x00\n        /* \"#utility.yul\":5188:5197   */\n      dup4\n        /* \"#utility.yul\":5184:5201   */\n      add\n        /* \"#utility.yul\":5177:5224   */\n      mstore\n        /* \"#utility.yul\":5241:5372   */\n      tag_160\n        /* \"#utility.yul\":5367:5371   */\n      dup2\n        /* \"#utility.yul\":5241:5372   */\n      tag_96\n      jump\t// in\n    tag_160:\n        /* \"#utility.yul\":5233:5372   */\n      swap1\n      pop\n        /* \"#utility.yul\":4960:5379   */\n      swap2\n      swap1\n      pop\n      jump\t// out\n        /* \"#utility.yul\":5385:5564   */\n    tag_97:\n        /* \"#utility.yul\":5525:5556   */\n      0x416d6f756e74206d7573742062652067726561746572207468616e2031000000\n        /* \"#utility.yul\":5521:5522   */\n      0x00\n        /* \"#utility.yul\":5513:5519   */\n      dup3\n        /* \"#utility.yul\":5509:5523   */\n      add\n        /* \"#utility.yul\":5502:5557   */\n      mstore\n        /* \"#utility.yul\":5385:5564   */\n      pop\n      jump\t// out\n        /* \"#utility.yul\":5570:5936   */\n    tag_98:\n        /* \"#utility.yul\":5712:5715   */\n      0x00\n        /* \"#utility.yul\":5733:5800   */\n      tag_163\n        /* \"#utility.yul\":5797:5799   */\n      0x1d\n        /* \"#utility.yul\":5792:5795   */\n      dup4\n        /* \"#utility.yul\":5733:5800   */\n      tag_94\n      jump\t// in\n    tag_163:\n        /* \"#utility.yul\":5726:5800   */\n      swap2\n      pop\n        /* \"#utility.yul\":5809:5902   */\n      tag_164\n        /* \"#utility.yul\":5898:5901   */\n      dup3\n        /* \"#utility.yul\":5809:5902   */\n      tag_97\n      jump\t// in\n    tag_164:\n        /* \"#utility.yul\":5927:5929   */\n      0x20\n        /* \"#utility.yul\":5922:5925   */\n      dup3\n        /* \"#utility.yul\":5918:5930   */\n      add\n        /* \"#utility.yul\":5911:5930   */\n      swap1\n      pop\n        /* \"#utility.yul\":5570:5936   */\n      swap2\n      swap1\n      pop\n      jump\t// out\n        /* \"#utility.yul\":5942:6361   */\n    tag_61:\n        /* \"#utility.yul\":6108:6112   */\n      0x00\n        /* \"#utility.yul\":6146:6148   */\n      0x20\n        /* \"#utility.yul\":6135:6144   */\n      dup3\n        /* \"#utility.yul\":6131:6149   */\n      add\n        /* \"#utility.yul\":6123:6149   */\n      swap1\n      pop\n        /* \"#utility.yul\":6195:6204   */\n      dup2\n        /* \"#utility.yul\":6189:6193   */\n      dup2\n        /* \"#utility.yul\":6185:6205   */\n      sub\n        /* \"#utility.yul\":6181:6182   */\n      0x00\n        /* \"#utility.yul\":6170:6179   */\n      dup4\n        /* \"#utility.yul\":6166:6183   */\n      add\n        /* \"#utility.yul\":6159:6206   */\n      mstore\n        /* \"#utility.yul\":6223:6354   */\n      tag_166\n        /* \"#utility.yul\":6349:6353   */\n      dup2\n        /* \"#utility.yul\":6223:6354   */\n      tag_98\n      jump\t// in\n    tag_166:\n        /* \"#utility.yul\":6215:6354   */\n      swap1\n      pop\n        /* \"#utility.yul\":5942:6361   */\n      swap2\n      swap1\n      pop\n      jump\t// out\n        /* \"#utility.yul\":6367:6715   */\n    tag_67:\n        /* \"#utility.yul\":6407:6414   */\n      0x00\n        /* \"#utility.yul\":6430:6450   */\n      tag_168\n        /* \"#utility.yul\":6448:6449   */\n      dup3\n        /* \"#utility.yul\":6430:6450   */\n      tag_81\n      jump\t// in\n    tag_168:\n        /* \"#utility.yul\":6425:6450   */\n      swap2\n      pop\n        /* \"#utility.yul\":6464:6484   */\n      tag_169\n        /* \"#utility.yul\":6482:6483   */\n      dup4\n        /* \"#utility.yul\":6464:6484   */\n      tag_81\n      jump\t// in\n    tag_169:\n        /* \"#utility.yul\":6459:6484   */\n      swap3\n      pop\n        /* \"#utility.yul\":6652:6653   */\n      dup2\n        /* \"#utility.yul\":6584:6650   */\n      0xffffffffffffffffffffffffffffffffffffffffffffffffffffffffffffffff\n        /* \"#utility.yul\":6580:6654   */\n      div\n        /* \"#utility.yul\":6577:6578   */\n      dup4\n        /* \"#utility.yul\":6574:6655   */\n      gt\n        /* \"#utility.yul\":6569:6570   */\n      dup3\n        /* \"#utility.yul\":6562:6571   */\n      iszero\n        /* \"#utility.yul\":6555:6572   */\n      iszero\n        /* \"#utility.yul\":6551:6656   */\n      and\n        /* \"#utility.yul\":6548:6679   */\n      iszero\n      tag_170\n      jumpi\n        /* \"#utility.yul\":6659:6677   */\n      tag_171\n      tag_90\n      jump\t// in\n    tag_171:\n        /* \"#utility.yul\":6548:6679   */\n    tag_170:\n        /* \"#utility.yul\":6707:6708   */\n      dup3\n        /* \"#utility.yul\":6704:6705   */\n      dup3\n        /* \"#utility.yul\":6700:6709   */\n      mul\n        /* \"#utility.yul\":6689:6709   */\n      swap1\n      pop\n        /* \"#utility.yul\":6367:6715   */\n      swap3\n      swap2\n      pop\n      pop\n      jump\t// out\n        /* \"#utility.yul\":6721:6901   */\n    tag_99:\n        /* \"#utility.yul\":6769:6846   */\n      0x4e487b7100000000000000000000000000000000000000000000000000000000\n        /* \"#utility.yul\":6766:6767   */\n      0x00\n        /* \"#utility.yul\":6759:6847   */\n      mstore\n        /* \"#utility.yul\":6866:6870   */\n      0x12\n        /* \"#utility.yul\":6863:6864   */\n      0x04\n        /* \"#utility.yul\":6856:6871   */\n      mstore\n        /* \"#utility.yul\":6890:6894   */\n      0x24\n        /* \"#utility.yul\":6887:6888   */\n      0x00\n        /* \"#utility.yul\":6880:6895   */\n      revert\n        /* \"#utility.yul\":6907:7092   */\n    tag_69:\n        /* \"#utility.yul\":6947:6948   */\n      0x00\n        /* \"#utility.yul\":6964:6984   */\n      tag_174\n        /* \"#utility.yul\":6982:6983   */\n      dup3\n        /* \"#utility.yul\":6964:6984   */\n      tag_81\n      jump\t// in\n    tag_174:\n        /* \"#utility.yul\":6959:6984   */\n      swap2\n      pop\n        /* \"#utility.yul\":6998:7018   */\n      tag_175\n        /* \"#utility.yul\":7016:7017   */\n      dup4\n        /* \"#utility.yul\":6998:7018   */\n      tag_81\n      jump\t// in\n    tag_175:\n        /* \"#utility.yul\":6993:7018   */\n      swap3\n      pop\n        /* \"#utility.yul\":7037:7038   */\n      dup3\n        /* \"#utility.yul\":7027:7062   */\n      tag_176\n      jumpi\n        /* \"#utility.yul\":7042:7060   */\n      tag_177\n      tag_99\n      jump\t// in\n    tag_177:\n        /* \"#utility.yul\":7027:7062   */\n    tag_176:\n        /* \"#utility.yul\":7084:7085   */\n      dup3\n        /* \"#utility.yul\":7081:7082   */\n      dup3\n        /* \"#utility.yul\":7077:7086   */\n      div\n        /* \"#utility.yul\":7072:7086   */\n      swap1\n      pop\n        /* \"#utility.yul\":6907:7092   */\n      swap3\n      swap2\n      pop\n      pop\n      jump\t// out\n        /* \"#utility.yul\":7098:7203   */\n    tag_100:\n        /* \"#utility.yul\":7134:7141   */\n      0x00\n        /* \"#utility.yul\":7174:7196   */\n      0xffffffffffffffffffff\n        /* \"#utility.yul\":7167:7172   */\n      dup3\n        /* \"#utility.yul\":7163:7197   */\n      and\n        /* \"#utility.yul\":7152:7197   */\n      swap1\n      pop\n        /* \"#utility.yul\":7098:7203   */\n      swap2\n      swap1\n      pop\n      jump\t// out\n        /* \"#utility.yul\":7209:7329   */\n    tag_101:\n        /* \"#utility.yul\":7281:7304   */\n      tag_180\n        /* \"#utility.yul\":7298:7303   */\n      dup2\n        /* \"#utility.yul\":7281:7304   */\n      tag_100\n      jump\t// in\n    tag_180:\n        /* \"#utility.yul\":7274:7279   */\n      dup2\n        /* \"#utility.yul\":7271:7305   */\n      eq\n        /* \"#utility.yul\":7261:7323   */\n      tag_181\n      jumpi\n        /* \"#utility.yul\":7319:7320   */\n      0x00\n        /* \"#utility.yul\":7316:7317   */\n      dup1\n        /* \"#utility.yul\":7309:7321   */\n      revert\n        /* \"#utility.yul\":7261:7323   */\n    tag_181:\n        /* \"#utility.yul\":7209:7329   */\n      pop\n      jump\t// out\n        /* \"#utility.yul\":7335:7476   */\n    tag_102:\n        /* \"#utility.yul\":7391:7396   */\n      0x00\n        /* \"#utility.yul\":7422:7428   */\n      dup2\n        /* \"#utility.yul\":7416:7429   */\n      mload\n        /* \"#utility.yul\":7407:7429   */\n      swap1\n      pop\n        /* \"#utility.yul\":7438:7470   */\n      tag_183\n        /* \"#utility.yul\":7464:7469   */\n      dup2\n        /* \"#utility.yul\":7438:7470   */\n      tag_101\n      jump\t// in\n    tag_183:\n        /* \"#utility.yul\":7335:7476   */\n      swap3\n      swap2\n      pop\n      pop\n      jump\t// out\n        /* \"#utility.yul\":7482:7558   */\n    tag_103:\n        /* \"#utility.yul\":7518:7525   */\n      0x00\n        /* \"#utility.yul\":7547:7552   */\n      dup2\n        /* \"#utility.yul\":7536:7552   */\n      swap1\n      pop\n        /* \"#utility.yul\":7482:7558   */\n      swap2\n      swap1\n      pop\n      jump\t// out\n        /* \"#utility.yul\":7564:7684   */\n    tag_104:\n        /* \"#utility.yul\":7636:7659   */\n      tag_186\n        /* \"#utility.yul\":7653:7658   */\n      dup2\n        /* \"#utility.yul\":7636:7659   */\n      tag_103\n      jump\t// in\n    tag_186:\n        /* \"#utility.yul\":7629:7634   */\n      dup2\n        /* \"#utility.yul\":7626:7660   */\n      eq\n        /* \"#utility.yul\":7616:7678   */\n      tag_187\n      jumpi\n        /* \"#utility.yul\":7674:7675   */\n      0x00\n        /* \"#utility.yul\":7671:7672   */\n      dup1\n        /* \"#utility.yul\":7664:7676   */\n      revert\n        /* \"#utility.yul\":7616:7678   */\n    tag_187:\n        /* \"#utility.yul\":7564:7684   */\n      pop\n      jump\t// out\n        /* \"#utility.yul\":7690:7831   */\n    tag_105:\n        /* \"#utility.yul\":7746:7751   */\n      0x00\n        /* \"#utility.yul\":7777:7783   */\n      dup2\n        /* \"#utility.yul\":7771:7784   */\n      mload\n        /* \"#utility.yul\":7762:7784   */\n      swap1\n      pop\n        /* \"#utility.yul\":7793:7825   */\n      tag_189\n        /* \"#utility.yul\":7819:7824   */\n      dup2\n        /* \"#utility.yul\":7793:7825   */\n      tag_104\n      jump\t// in\n    tag_189:\n        /* \"#utility.yul\":7690:7831   */\n      swap3\n      swap2\n      pop\n      pop\n      jump\t// out\n        /* \"#utility.yul\":7837:7980   */\n    tag_106:\n        /* \"#utility.yul\":7894:7899   */\n      0x00\n        /* \"#utility.yul\":7925:7931   */\n      dup2\n        /* \"#utility.yul\":7919:7932   */\n      mload\n        /* \"#utility.yul\":7910:7932   */\n      swap1\n      pop\n        /* \"#utility.yul\":7941:7974   */\n      tag_191\n        /* \"#utility.yul\":7968:7973   */\n      dup2\n        /* \"#utility.yul\":7941:7974   */\n      tag_82\n      jump\t// in\n    tag_191:\n        /* \"#utility.yul\":7837:7980   */\n      swap3\n      swap2\n      pop\n      pop\n      jump\t// out\n        /* \"#utility.yul\":7986:8957   */\n    tag_75:\n        /* \"#utility.yul\":8089:8095   */\n      0x00\n        /* \"#utility.yul\":8097:8103   */\n      dup1\n        /* \"#utility.yul\":8105:8111   */\n      0x00\n        /* \"#utility.yul\":8113:8119   */\n      dup1\n        /* \"#utility.yul\":8121:8127   */\n      0x00\n        /* \"#utility.yul\":8170:8173   */\n      0xa0\n        /* \"#utility.yul\":8158:8167   */\n      dup7\n        /* \"#utility.yul\":8149:8156   */\n      dup9\n        /* \"#utility.yul\":8145:8168   */\n      sub\n        /* \"#utility.yul\":8141:8174   */\n      slt\n        /* \"#utility.yul\":8138:8258   */\n      iszero\n      tag_193\n      jumpi\n        /* \"#utility.yul\":8177:8256   */\n      tag_194\n      tag_79\n      jump\t// in\n    tag_194:\n        /* \"#utility.yul\":8138:8258   */\n    tag_193:\n        /* \"#utility.yul\":8297:8298   */\n      0x00\n        /* \"#utility.yul\":8322:8385   */\n      tag_195\n        /* \"#utility.yul\":8377:8384   */\n      dup9\n        /* \"#utility.yul\":8368:8374   */\n      dup3\n        /* \"#utility.yul\":8357:8366   */\n      dup10\n        /* \"#utility.yul\":8353:8375   */\n      add\n        /* \"#utility.yul\":8322:8385   */\n      tag_102\n      jump\t// in\n    tag_195:\n        /* \"#utility.yul\":8312:8385   */\n      swap6\n      pop\n        /* \"#utility.yul\":8268:8395   */\n      pop\n        /* \"#utility.yul\":8434:8436   */\n      0x20\n        /* \"#utility.yul\":8460:8523   */\n      tag_196\n        /* \"#utility.yul\":8515:8522   */\n      dup9\n        /* \"#utility.yul\":8506:8512   */\n      dup3\n        /* \"#utility.yul\":8495:8504   */\n      dup10\n        /* \"#utility.yul\":8491:8513   */\n      add\n        /* \"#utility.yul\":8460:8523   */\n      tag_105\n      jump\t// in\n    tag_196:\n        /* \"#utility.yul\":8450:8523   */\n      swap5\n      pop\n        /* \"#utility.yul\":8405:8533   */\n      pop\n        /* \"#utility.yul\":8572:8574   */\n      0x40\n        /* \"#utility.yul\":8598:8662   */\n      tag_197\n        /* \"#utility.yul\":8654:8661   */\n      dup9\n        /* \"#utility.yul\":8645:8651   */\n      dup3\n        /* \"#utility.yul\":8634:8643   */\n      dup10\n        /* \"#utility.yul\":8630:8652   */\n      add\n        /* \"#utility.yul\":8598:8662   */\n      tag_106\n      jump\t// in\n    tag_197:\n        /* \"#utility.yul\":8588:8662   */\n      swap4\n      pop\n        /* \"#utility.yul\":8543:8672   */\n      pop\n        /* \"#utility.yul\":8711:8713   */\n      0x60\n        /* \"#utility.yul\":8737:8801   */\n      tag_198\n        /* \"#utility.yul\":8793:8800   */\n      dup9\n        /* \"#utility.yul\":8784:8790   */\n      dup3\n        /* \"#utility.yul\":8773:8782   */\n      dup10\n        /* \"#utility.yul\":8769:8791   */\n      add\n        /* \"#utility.yul\":8737:8801   */\n      tag_106\n      jump\t// in\n    tag_198:\n        /* \"#utility.yul\":8727:8801   */\n      swap3\n      pop\n        /* \"#utility.yul\":8682:8811   */\n      pop\n        /* \"#utility.yul\":8850:8853   */\n      0x80\n        /* \"#utility.yul\":8877:8940   */\n      tag_199\n        /* \"#utility.yul\":8932:8939   */\n      dup9\n        /* \"#utility.yul\":8923:8929   */\n      dup3\n        /* \"#utility.yul\":8912:8921   */\n      dup10\n        /* \"#utility.yul\":8908:8930   */\n      add\n        /* \"#utility.yul\":8877:8940   */\n      tag_102\n      jump\t// in\n    tag_199:\n        /* \"#utility.yul\":8867:8940   */\n      swap2\n      pop\n        /* \"#utility.yul\":8821:8950   */\n      pop\n        /* \"#utility.yul\":7986:8957   */\n      swap3\n      swap6\n      pop\n      swap3\n      swap6\n      swap1\n      swap4\n      pop\n      jump\t// out\n        /* \"#utility.yul\":8963:9954   */\n    tag_77:\n        /* \"#utility.yul\":9002:9009   */\n      0x00\n        /* \"#utility.yul\":9025:9044   */\n      tag_201\n        /* \"#utility.yul\":9042:9043   */\n      dup3\n        /* \"#utility.yul\":9025:9044   */\n      tag_103\n      jump\t// in\n    tag_201:\n        /* \"#utility.yul\":9020:9044   */\n      swap2\n      pop\n        /* \"#utility.yul\":9058:9077   */\n      tag_202\n        /* \"#utility.yul\":9075:9076   */\n      dup4\n        /* \"#utility.yul\":9058:9077   */\n      tag_103\n      jump\t// in\n    tag_202:\n        /* \"#utility.yul\":9053:9077   */\n      swap3\n      pop\n        /* \"#utility.yul\":9259:9260   */\n      dup3\n        /* \"#utility.yul\":9191:9257   */\n      0x7fffffffffffffffffffffffffffffffffffffffffffffffffffffffffffffff\n        /* \"#utility.yul\":9187:9261   */\n      div\n        /* \"#utility.yul\":9184:9185   */\n      dup3\n        /* \"#utility.yul\":9181:9262   */\n      gt\n        /* \"#utility.yul\":9176:9177   */\n      0x00\n        /* \"#utility.yul\":9173:9174   */\n      dup5\n        /* \"#utility.yul\":9169:9178   */\n      sgt\n        /* \"#utility.yul\":9165:9166   */\n      0x00\n        /* \"#utility.yul\":9162:9163   */\n      dup5\n        /* \"#utility.yul\":9158:9167   */\n      sgt\n        /* \"#utility.yul\":9154:9179   */\n      and\n        /* \"#utility.yul\":9150:9263   */\n      and\n        /* \"#utility.yul\":9147:9286   */\n      iszero\n      tag_203\n      jumpi\n        /* \"#utility.yul\":9266:9284   */\n      tag_204\n      tag_90\n      jump\t// in\n    tag_204:\n        /* \"#utility.yul\":9147:9286   */\n    tag_203:\n        /* \"#utility.yul\":9470:9471   */\n      dup2\n        /* \"#utility.yul\":9402:9468   */\n      0x8000000000000000000000000000000000000000000000000000000000000000\n        /* \"#utility.yul\":9397:9472   */\n      sdiv\n        /* \"#utility.yul\":9394:9395   */\n      dup4\n        /* \"#utility.yul\":9390:9473   */\n      slt\n        /* \"#utility.yul\":9385:9386   */\n      0x00\n        /* \"#utility.yul\":9382:9383   */\n      dup5\n        /* \"#utility.yul\":9378:9387   */\n      slt\n        /* \"#utility.yul\":9374:9375   */\n      0x00\n        /* \"#utility.yul\":9371:9372   */\n      dup5\n        /* \"#utility.yul\":9367:9376   */\n      sgt\n        /* \"#utility.yul\":9363:9388   */\n      and\n        /* \"#utility.yul\":9359:9474   */\n      and\n        /* \"#utility.yul\":9356:9497   */\n      iszero\n      tag_205\n      jumpi\n        /* \"#utility.yul\":9477:9495   */\n      tag_206\n      tag_90\n      jump\t// in\n    tag_206:\n        /* \"#utility.yul\":9356:9497   */\n    tag_205:\n        /* \"#utility.yul\":9681:9682   */\n      dup3\n        /* \"#utility.yul\":9613:9679   */\n      0x8000000000000000000000000000000000000000000000000000000000000000\n        /* \"#utility.yul\":9608:9683   */\n      sdiv\n        /* \"#utility.yul\":9605:9606   */\n      dup3\n        /* \"#utility.yul\":9601:9684   */\n      slt\n        /* \"#utility.yul\":9596:9597   */\n      0x00\n        /* \"#utility.yul\":9593:9594   */\n      dup5\n        /* \"#utility.yul\":9589:9598   */\n      sgt\n        /* \"#utility.yul\":9585:9586   */\n      0x00\n        /* \"#utility.yul\":9582:9583   */\n      dup5\n        /* \"#utility.yul\":9578:9587   */\n      slt\n        /* \"#utility.yul\":9574:9599   */\n      and\n        /* \"#utility.yul\":9570:9685   */\n      and\n        /* \"#utility.yul\":9567:9708   */\n      iszero\n      tag_207\n      jumpi\n        /* \"#utility.yul\":9688:9706   */\n      tag_208\n      tag_90\n      jump\t// in\n    tag_208:\n        /* \"#utility.yul\":9567:9708   */\n    tag_207:\n        /* \"#utility.yul\":9891:9892   */\n      dup3\n        /* \"#utility.yul\":9823:9889   */\n      0x7fffffffffffffffffffffffffffffffffffffffffffffffffffffffffffffff\n        /* \"#utility.yul\":9818:9893   */\n      sdiv\n        /* \"#utility.yul\":9815:9816   */\n      dup3\n        /* \"#utility.yul\":9811:9894   */\n      slt\n        /* \"#utility.yul\":9806:9807   */\n      0x00\n        /* \"#utility.yul\":9803:9804   */\n      dup5\n        /* \"#utility.yul\":9799:9808   */\n      slt\n        /* \"#utility.yul\":9795:9796   */\n      0x00\n        /* \"#utility.yul\":9792:9793   */\n      dup5\n        /* \"#utility.yul\":9788:9797   */\n      slt\n        /* \"#utility.yul\":9784:9809   */\n      and\n        /* \"#utility.yul\":9780:9895   */\n      and\n        /* \"#utility.yul\":9777:9918   */\n      iszero\n      tag_209\n      jumpi\n        /* \"#utility.yul\":9898:9916   */\n      tag_210\n      tag_90\n      jump\t// in\n    tag_210:\n        /* \"#utility.yul\":9777:9918   */\n    tag_209:\n        /* \"#utility.yul\":9946:9947   */\n      dup3\n        /* \"#utility.yul\":9943:9944   */\n      dup3\n        /* \"#utility.yul\":9939:9948   */\n      mul\n        /* \"#utility.yul\":9928:9948   */\n      swap1\n      pop\n        /* \"#utility.yul\":8963:9954   */\n      swap3\n      swap2\n      pop\n      pop\n      jump\t// out\n\n    auxdata: 0xa264697066735822122040296968c6a2a10a3510cab7e2e99b4d35efed700ce0269c997dafe2c08d446a64736f6c63430008080033\n}\n",
				"bytecode": {
					"linkReferences": {},
					"object": "6080604052671bc16d674ec8000060005534801561001c57600080fd5b5033600360006101000a81548173ffffffffffffffffffffffffffffffffffffffff021916908373ffffffffffffffffffffffffffffffffffffffff160217905550610b518061006d6000396000f3fe6080604052600436106100555760003560e01c80631f2c92381461005a5780632e1a7d4d146100975780633430a88c146100c05780638da5cb5b146100eb578063b60d428814610116578063deaf2cf014610120575b600080fd5b34801561006657600080fd5b50610081600480360381019061007c9190610560565b61015d565b60405161008e91906105ce565b60405180910390f35b3480156100a357600080fd5b506100be60048036038101906100b99190610560565b61019c565b005b3480156100cc57600080fd5b506100d56102f9565b6040516100e291906105f8565b60405180910390f35b3480156100f757600080fd5b506101006102ff565b60405161010d91906105ce565b60405180910390f35b61011e610325565b005b34801561012c57600080fd5b506101476004803603810190610142919061063f565b61041b565b60405161015491906105f8565b60405180910390f35b6001818154811061016d57600080fd5b906000526020600020016000915054906101000a900473ffffffffffffffffffffffffffffffffffffffff1681565b60005b600180549050811015610248576000600182815481106101c2576101c161066c565b5b9060005260206000200160009054906101000a900473ffffffffffffffffffffffffffffffffffffffff1690506000600260008373ffffffffffffffffffffffffffffffffffffffff1673ffffffffffffffffffffffffffffffffffffffff16815260200190815260200160002081905550508080610240906106ca565b91505061019f565b5060003373ffffffffffffffffffffffffffffffffffffffff164760405161026f90610744565b60006040518083038185875af1925050503d80600081146102ac576040519150601f19603f3d011682016040523d82523d6000602084013e6102b1565b606091505b50509050806102f5576040517f08c379a00000000000000000000000000000000000000000000000000000000081526004016102ec906107b6565b60405180910390fd5b5050565b60005481565b600360009054906101000a900473ffffffffffffffffffffffffffffffffffffffff1681565b60005461033134610433565b1015610372576040517f08c379a000000000000000000000000000000000000000000000000000000000815260040161036990610822565b60405180910390fd5b6001339080600181540180825580915050600190039060005260206000200160009091909190916101000a81548173ffffffffffffffffffffffffffffffffffffffff021916908373ffffffffffffffffffffffffffffffffffffffff16021790555034600260003373ffffffffffffffffffffffffffffffffffffffff1673ffffffffffffffffffffffffffffffffffffffff16815260200190815260200160002081905550565b60026020528060005260406000206000915090505481565b60008061043e61046d565b90506000670de0b6b3a764000084836104579190610842565b61046191906108cb565b90508092505050919050565b60008073d4a33860578de61dbabdc8bfdb98fd742fa7028e905060008173ffffffffffffffffffffffffffffffffffffffff1663feaf968c6040518163ffffffff1660e01b815260040160a06040518083038186803b1580156104cf57600080fd5b505afa1580156104e3573d6000803e3d6000fd5b505050506040513d601f19601f820116820180604052508101906105079190610989565b5050509150506402540be4008161051e9190610a04565b9250505090565b600080fd5b6000819050919050565b61053d8161052a565b811461054857600080fd5b50565b60008135905061055a81610534565b92915050565b60006020828403121561057657610575610525565b5b60006105848482850161054b565b91505092915050565b600073ffffffffffffffffffffffffffffffffffffffff82169050919050565b60006105b88261058d565b9050919050565b6105c8816105ad565b82525050565b60006020820190506105e360008301846105bf565b92915050565b6105f28161052a565b82525050565b600060208201905061060d60008301846105e9565b92915050565b61061c816105ad565b811461062757600080fd5b50565b60008135905061063981610613565b92915050565b60006020828403121561065557610654610525565b5b60006106638482850161062a565b91505092915050565b7f4e487b7100000000000000000000000000000000000000000000000000000000600052603260045260246000fd5b7f4e487b7100000000000000000000000000000000000000000000000000000000600052601160045260246000fd5b60006106d58261052a565b91507fffffffffffffffffffffffffffffffffffffffffffffffffffffffffffffffff8214156107085761070761069b565b5b600182019050919050565b600081905092915050565b50565b600061072e600083610713565b91506107398261071e565b600082019050919050565b600061074f82610721565b9150819050919050565b600082825260208201905092915050565b7f52657669657720616d6f756e7400000000000000000000000000000000000000600082015250565b60006107a0600d83610759565b91506107ab8261076a565b602082019050919050565b600060208201905081810360008301526107cf81610793565b9050919050565b7f416d6f756e74206d7573742062652067726561746572207468616e2031000000600082015250565b600061080c601d83610759565b9150610817826107d6565b602082019050919050565b6000602082019050818103600083015261083b816107ff565b9050919050565b600061084d8261052a565b91506108588361052a565b9250817fffffffffffffffffffffffffffffffffffffffffffffffffffffffffffffffff04831182151516156108915761089061069b565b5b828202905092915050565b7f4e487b7100000000000000000000000000000000000000000000000000000000600052601260045260246000fd5b60006108d68261052a565b91506108e18361052a565b9250826108f1576108f061089c565b5b828204905092915050565b600069ffffffffffffffffffff82169050919050565b61091b816108fc565b811461092657600080fd5b50565b60008151905061093881610912565b92915050565b6000819050919050565b6109518161093e565b811461095c57600080fd5b50565b60008151905061096e81610948565b92915050565b60008151905061098381610534565b92915050565b600080600080600060a086880312156109a5576109a4610525565b5b60006109b388828901610929565b95505060206109c48882890161095f565b94505060406109d588828901610974565b93505060606109e688828901610974565b92505060806109f788828901610929565b9150509295509295909350565b6000610a0f8261093e565b9150610a1a8361093e565b9250827f7fffffffffffffffffffffffffffffffffffffffffffffffffffffffffffffff0482116000841360008413161615610a5957610a5861069b565b5b817f80000000000000000000000000000000000000000000000000000000000000000583126000841260008413161615610a9657610a9561069b565b5b827f80000000000000000000000000000000000000000000000000000000000000000582126000841360008412161615610ad357610ad261069b565b5b827f7fffffffffffffffffffffffffffffffffffffffffffffffffffffffffffffff0582126000841260008412161615610b1057610b0f61069b565b5b82820290509291505056fea264697066735822122040296968c6a2a10a3510cab7e2e99b4d35efed700ce0269c997dafe2c08d446a64736f6c63430008080033",
					"opcodes": "PUSH1 0x80 PUSH1 0x40 MSTORE PUSH8 0x1BC16D674EC80000 PUSH1 0x0 SSTORE CALLVALUE DUP1 ISZERO PUSH2 0x1C JUMPI PUSH1 0x0 DUP1 REVERT JUMPDEST POP CALLER PUSH1 0x3 PUSH1 0x0 PUSH2 0x100 EXP DUP2 SLOAD DUP2 PUSH20 0xFFFFFFFFFFFFFFFFFFFFFFFFFFFFFFFFFFFFFFFF MUL NOT AND SWAP1 DUP4 PUSH20 0xFFFFFFFFFFFFFFFFFFFFFFFFFFFFFFFFFFFFFFFF AND MUL OR SWAP1 SSTORE POP PUSH2 0xB51 DUP1 PUSH2 0x6D PUSH1 0x0 CODECOPY PUSH1 0x0 RETURN INVALID PUSH1 0x80 PUSH1 0x40 MSTORE PUSH1 0x4 CALLDATASIZE LT PUSH2 0x55 JUMPI PUSH1 0x0 CALLDATALOAD PUSH1 0xE0 SHR DUP1 PUSH4 0x1F2C9238 EQ PUSH2 0x5A JUMPI DUP1 PUSH4 0x2E1A7D4D EQ PUSH2 0x97 JUMPI DUP1 PUSH4 0x3430A88C EQ PUSH2 0xC0 JUMPI DUP1 PUSH4 0x8DA5CB5B EQ PUSH2 0xEB JUMPI DUP1 PUSH4 0xB60D4288 EQ PUSH2 0x116 JUMPI DUP1 PUSH4 0xDEAF2CF0 EQ PUSH2 0x120 JUMPI JUMPDEST PUSH1 0x0 DUP1 REVERT JUMPDEST CALLVALUE DUP1 ISZERO PUSH2 0x66 JUMPI PUSH1 0x0 DUP1 REVERT JUMPDEST POP PUSH2 0x81 PUSH1 0x4 DUP1 CALLDATASIZE SUB DUP2 ADD SWAP1 PUSH2 0x7C SWAP2 SWAP1 PUSH2 0x560 JUMP JUMPDEST PUSH2 0x15D JUMP JUMPDEST PUSH1 0x40 MLOAD PUSH2 0x8E SWAP2 SWAP1 PUSH2 0x5CE JUMP JUMPDEST PUSH1 0x40 MLOAD DUP1 SWAP2 SUB SWAP1 RETURN JUMPDEST CALLVALUE DUP1 ISZERO PUSH2 0xA3 JUMPI PUSH1 0x0 DUP1 REVERT JUMPDEST POP PUSH2 0xBE PUSH1 0x4 DUP1 CALLDATASIZE SUB DUP2 ADD SWAP1 PUSH2 0xB9 SWAP2 SWAP1 PUSH2 0x560 JUMP JUMPDEST PUSH2 0x19C JUMP JUMPDEST STOP JUMPDEST CALLVALUE DUP1 ISZERO PUSH2 0xCC JUMPI PUSH1 0x0 DUP1 REVERT JUMPDEST POP PUSH2 0xD5 PUSH2 0x2F9 JUMP JUMPDEST PUSH1 0x40 MLOAD PUSH2 0xE2 SWAP2 SWAP1 PUSH2 0x5F8 JUMP JUMPDEST PUSH1 0x40 MLOAD DUP1 SWAP2 SUB SWAP1 RETURN JUMPDEST CALLVALUE DUP1 ISZERO PUSH2 0xF7 JUMPI PUSH1 0x0 DUP1 REVERT JUMPDEST POP PUSH2 0x100 PUSH2 0x2FF JUMP JUMPDEST PUSH1 0x40 MLOAD PUSH2 0x10D SWAP2 SWAP1 PUSH2 0x5CE JUMP JUMPDEST PUSH1 0x40 MLOAD DUP1 SWAP2 SUB SWAP1 RETURN JUMPDEST PUSH2 0x11E PUSH2 0x325 JUMP JUMPDEST STOP JUMPDEST CALLVALUE DUP1 ISZERO PUSH2 0x12C JUMPI PUSH1 0x0 DUP1 REVERT JUMPDEST POP PUSH2 0x147 PUSH1 0x4 DUP1 CALLDATASIZE SUB DUP2 ADD SWAP1 PUSH2 0x142 SWAP2 SWAP1 PUSH2 0x63F JUMP JUMPDEST PUSH2 0x41B JUMP JUMPDEST PUSH1 0x40 MLOAD PUSH2 0x154 SWAP2 SWAP1 PUSH2 0x5F8 JUMP JUMPDEST PUSH1 0x40 MLOAD DUP1 SWAP2 SUB SWAP1 RETURN JUMPDEST PUSH1 0x1 DUP2 DUP2 SLOAD DUP2 LT PUSH2 0x16D JUMPI PUSH1 0x0 DUP1 REVERT JUMPDEST SWAP1 PUSH1 0x0 MSTORE PUSH1 0x20 PUSH1 0x0 KECCAK256 ADD PUSH1 0x0 SWAP2 POP SLOAD SWAP1 PUSH2 0x100 EXP SWAP1 DIV PUSH20 0xFFFFFFFFFFFFFFFFFFFFFFFFFFFFFFFFFFFFFFFF AND DUP2 JUMP JUMPDEST PUSH1 0x0 JUMPDEST PUSH1 0x1 DUP1 SLOAD SWAP1 POP DUP2 LT ISZERO PUSH2 0x248 JUMPI PUSH1 0x0 PUSH1 0x1 DUP3 DUP2 SLOAD DUP2 LT PUSH2 0x1C2 JUMPI PUSH2 0x1C1 PUSH2 0x66C JUMP JUMPDEST JUMPDEST SWAP1 PUSH1 0x0 MSTORE PUSH1 0x20 PUSH1 0x0 KECCAK256 ADD PUSH1 0x0 SWAP1 SLOAD SWAP1 PUSH2 0x100 EXP SWAP1 DIV PUSH20 0xFFFFFFFFFFFFFFFFFFFFFFFFFFFFFFFFFFFFFFFF AND SWAP1 POP PUSH1 0x0 PUSH1 0x2 PUSH1 0x0 DUP4 PUSH20 0xFFFFFFFFFFFFFFFFFFFFFFFFFFFFFFFFFFFFFFFF AND PUSH20 0xFFFFFFFFFFFFFFFFFFFFFFFFFFFFFFFFFFFFFFFF AND DUP2 MSTORE PUSH1 0x20 ADD SWAP1 DUP2 MSTORE PUSH1 0x20 ADD PUSH1 0x0 KECCAK256 DUP2 SWAP1 SSTORE POP POP DUP1 DUP1 PUSH2 0x240 SWAP1 PUSH2 0x6CA JUMP JUMPDEST SWAP2 POP POP PUSH2 0x19F JUMP JUMPDEST POP PUSH1 0x0 CALLER PUSH20 0xFFFFFFFFFFFFFFFFFFFFFFFFFFFFFFFFFFFFFFFF AND SELFBALANCE PUSH1 0x40 MLOAD PUSH2 0x26F SWAP1 PUSH2 0x744 JUMP JUMPDEST PUSH1 0x0 PUSH1 0x40 MLOAD DUP1 DUP4 SUB DUP2 DUP6 DUP8 GAS CALL SWAP3 POP POP POP RETURNDATASIZE DUP1 PUSH1 0x0 DUP2 EQ PUSH2 0x2AC JUMPI PUSH1 0x40 MLOAD SWAP2 POP PUSH1 0x1F NOT PUSH1 0x3F RETURNDATASIZE ADD AND DUP3 ADD PUSH1 0x40 MSTORE RETURNDATASIZE DUP3 MSTORE RETURNDATASIZE PUSH1 0x0 PUSH1 0x20 DUP5 ADD RETURNDATACOPY PUSH2 0x2B1 JUMP JUMPDEST PUSH1 0x60 SWAP2 POP JUMPDEST POP POP SWAP1 POP DUP1 PUSH2 0x2F5 JUMPI PUSH1 0x40 MLOAD PUSH32 0x8C379A000000000000000000000000000000000000000000000000000000000 DUP2 MSTORE PUSH1 0x4 ADD PUSH2 0x2EC SWAP1 PUSH2 0x7B6 JUMP JUMPDEST PUSH1 0x40 MLOAD DUP1 SWAP2 SUB SWAP1 REVERT JUMPDEST POP POP JUMP JUMPDEST PUSH1 0x0 SLOAD DUP2 JUMP JUMPDEST PUSH1 0x3 PUSH1 0x0 SWAP1 SLOAD SWAP1 PUSH2 0x100 EXP SWAP1 DIV PUSH20 0xFFFFFFFFFFFFFFFFFFFFFFFFFFFFFFFFFFFFFFFF AND DUP2 JUMP JUMPDEST PUSH1 0x0 SLOAD PUSH2 0x331 CALLVALUE PUSH2 0x433 JUMP JUMPDEST LT ISZERO PUSH2 0x372 JUMPI PUSH1 0x40 MLOAD PUSH32 0x8C379A000000000000000000000000000000000000000000000000000000000 DUP2 MSTORE PUSH1 0x4 ADD PUSH2 0x369 SWAP1 PUSH2 0x822 JUMP JUMPDEST PUSH1 0x40 MLOAD DUP1 SWAP2 SUB SWAP1 REVERT JUMPDEST PUSH1 0x1 CALLER SWAP1 DUP1 PUSH1 0x1 DUP2 SLOAD ADD DUP1 DUP3 SSTORE DUP1 SWAP2 POP POP PUSH1 0x1 SWAP1 SUB SWAP1 PUSH1 0x0 MSTORE PUSH1 0x20 PUSH1 0x0 KECCAK256 ADD PUSH1 0x0 SWAP1 SWAP2 SWAP1 SWAP2 SWAP1 SWAP2 PUSH2 0x100 EXP DUP2 SLOAD DUP2 PUSH20 0xFFFFFFFFFFFFFFFFFFFFFFFFFFFFFFFFFFFFFFFF MUL NOT AND SWAP1 DUP4 PUSH20 0xFFFFFFFFFFFFFFFFFFFFFFFFFFFFFFFFFFFFFFFF AND MUL OR SWAP1 SSTORE POP CALLVALUE PUSH1 0x2 PUSH1 0x0 CALLER PUSH20 0xFFFFFFFFFFFFFFFFFFFFFFFFFFFFFFFFFFFFFFFF AND PUSH20 0xFFFFFFFFFFFFFFFFFFFFFFFFFFFFFFFFFFFFFFFF AND DUP2 MSTORE PUSH1 0x20 ADD SWAP1 DUP2 MSTORE PUSH1 0x20 ADD PUSH1 0x0 KECCAK256 DUP2 SWAP1 SSTORE POP JUMP JUMPDEST PUSH1 0x2 PUSH1 0x20 MSTORE DUP1 PUSH1 0x0 MSTORE PUSH1 0x40 PUSH1 0x0 KECCAK256 PUSH1 0x0 SWAP2 POP SWAP1 POP SLOAD DUP2 JUMP JUMPDEST PUSH1 0x0 DUP1 PUSH2 0x43E PUSH2 0x46D JUMP JUMPDEST SWAP1 POP PUSH1 0x0 PUSH8 0xDE0B6B3A7640000 DUP5 DUP4 PUSH2 0x457 SWAP2 SWAP1 PUSH2 0x842 JUMP JUMPDEST PUSH2 0x461 SWAP2 SWAP1 PUSH2 0x8CB JUMP JUMPDEST SWAP1 POP DUP1 SWAP3 POP POP POP SWAP2 SWAP1 POP JUMP JUMPDEST PUSH1 0x0 DUP1 PUSH20 0xD4A33860578DE61DBABDC8BFDB98FD742FA7028E SWAP1 POP PUSH1 0x0 DUP2 PUSH20 0xFFFFFFFFFFFFFFFFFFFFFFFFFFFFFFFFFFFFFFFF AND PUSH4 0xFEAF968C PUSH1 0x40 MLOAD DUP2 PUSH4 0xFFFFFFFF AND PUSH1 0xE0 SHL DUP2 MSTORE PUSH1 0x4 ADD PUSH1 0xA0 PUSH1 0x40 MLOAD DUP1 DUP4 SUB DUP2 DUP7 DUP1 EXTCODESIZE ISZERO DUP1 ISZERO PUSH2 0x4CF JUMPI PUSH1 0x0 DUP1 REVERT JUMPDEST POP GAS STATICCALL ISZERO DUP1 ISZERO PUSH2 0x4E3 JUMPI RETURNDATASIZE PUSH1 0x0 DUP1 RETURNDATACOPY RETURNDATASIZE PUSH1 0x0 REVERT JUMPDEST POP POP POP POP PUSH1 0x40 MLOAD RETURNDATASIZE PUSH1 0x1F NOT PUSH1 0x1F DUP3 ADD AND DUP3 ADD DUP1 PUSH1 0x40 MSTORE POP DUP2 ADD SWAP1 PUSH2 0x507 SWAP2 SWAP1 PUSH2 0x989 JUMP JUMPDEST POP POP POP SWAP2 POP POP PUSH5 0x2540BE400 DUP2 PUSH2 0x51E SWAP2 SWAP1 PUSH2 0xA04 JUMP JUMPDEST SWAP3 POP POP POP SWAP1 JUMP JUMPDEST PUSH1 0x0 DUP1 REVERT JUMPDEST PUSH1 0x0 DUP2 SWAP1 POP SWAP2 SWAP1 POP JUMP JUMPDEST PUSH2 0x53D DUP2 PUSH2 0x52A JUMP JUMPDEST DUP2 EQ PUSH2 0x548 JUMPI PUSH1 0x0 DUP1 REVERT JUMPDEST POP JUMP JUMPDEST PUSH1 0x0 DUP2 CALLDATALOAD SWAP1 POP PUSH2 0x55A DUP2 PUSH2 0x534 JUMP JUMPDEST SWAP3 SWAP2 POP POP JUMP JUMPDEST PUSH1 0x0 PUSH1 0x20 DUP3 DUP5 SUB SLT ISZERO PUSH2 0x576 JUMPI PUSH2 0x575 PUSH2 0x525 JUMP JUMPDEST JUMPDEST PUSH1 0x0 PUSH2 0x584 DUP5 DUP3 DUP6 ADD PUSH2 0x54B JUMP JUMPDEST SWAP2 POP POP SWAP3 SWAP2 POP POP JUMP JUMPDEST PUSH1 0x0 PUSH20 0xFFFFFFFFFFFFFFFFFFFFFFFFFFFFFFFFFFFFFFFF DUP3 AND SWAP1 POP SWAP2 SWAP1 POP JUMP JUMPDEST PUSH1 0x0 PUSH2 0x5B8 DUP3 PUSH2 0x58D JUMP JUMPDEST SWAP1 POP SWAP2 SWAP1 POP JUMP JUMPDEST PUSH2 0x5C8 DUP2 PUSH2 0x5AD JUMP JUMPDEST DUP3 MSTORE POP POP JUMP JUMPDEST PUSH1 0x0 PUSH1 0x20 DUP3 ADD SWAP1 POP PUSH2 0x5E3 PUSH1 0x0 DUP4 ADD DUP5 PUSH2 0x5BF JUMP JUMPDEST SWAP3 SWAP2 POP POP JUMP JUMPDEST PUSH2 0x5F2 DUP2 PUSH2 0x52A JUMP JUMPDEST DUP3 MSTORE POP POP JUMP JUMPDEST PUSH1 0x0 PUSH1 0x20 DUP3 ADD SWAP1 POP PUSH2 0x60D PUSH1 0x0 DUP4 ADD DUP5 PUSH2 0x5E9 JUMP JUMPDEST SWAP3 SWAP2 POP POP JUMP JUMPDEST PUSH2 0x61C DUP2 PUSH2 0x5AD JUMP JUMPDEST DUP2 EQ PUSH2 0x627 JUMPI PUSH1 0x0 DUP1 REVERT JUMPDEST POP JUMP JUMPDEST PUSH1 0x0 DUP2 CALLDATALOAD SWAP1 POP PUSH2 0x639 DUP2 PUSH2 0x613 JUMP JUMPDEST SWAP3 SWAP2 POP POP JUMP JUMPDEST PUSH1 0x0 PUSH1 0x20 DUP3 DUP5 SUB SLT ISZERO PUSH2 0x655 JUMPI PUSH2 0x654 PUSH2 0x525 JUMP JUMPDEST JUMPDEST PUSH1 0x0 PUSH2 0x663 DUP5 DUP3 DUP6 ADD PUSH2 0x62A JUMP JUMPDEST SWAP2 POP POP SWAP3 SWAP2 POP POP JUMP JUMPDEST PUSH32 0x4E487B7100000000000000000000000000000000000000000000000000000000 PUSH1 0x0 MSTORE PUSH1 0x32 PUSH1 0x4 MSTORE PUSH1 0x24 PUSH1 0x0 REVERT JUMPDEST PUSH32 0x4E487B7100000000000000000000000000000000000000000000000000000000 PUSH1 0x0 MSTORE PUSH1 0x11 PUSH1 0x4 MSTORE PUSH1 0x24 PUSH1 0x0 REVERT JUMPDEST PUSH1 0x0 PUSH2 0x6D5 DUP3 PUSH2 0x52A JUMP JUMPDEST SWAP2 POP PUSH32 0xFFFFFFFFFFFFFFFFFFFFFFFFFFFFFFFFFFFFFFFFFFFFFFFFFFFFFFFFFFFFFFFF DUP3 EQ ISZERO PUSH2 0x708 JUMPI PUSH2 0x707 PUSH2 0x69B JUMP JUMPDEST JUMPDEST PUSH1 0x1 DUP3 ADD SWAP1 POP SWAP2 SWAP1 POP JUMP JUMPDEST PUSH1 0x0 DUP2 SWAP1 POP SWAP3 SWAP2 POP POP JUMP JUMPDEST POP JUMP JUMPDEST PUSH1 0x0 PUSH2 0x72E PUSH1 0x0 DUP4 PUSH2 0x713 JUMP JUMPDEST SWAP2 POP PUSH2 0x739 DUP3 PUSH2 0x71E JUMP JUMPDEST PUSH1 0x0 DUP3 ADD SWAP1 POP SWAP2 SWAP1 POP JUMP JUMPDEST PUSH1 0x0 PUSH2 0x74F DUP3 PUSH2 0x721 JUMP JUMPDEST SWAP2 POP DUP2 SWAP1 POP SWAP2 SWAP1 POP JUMP JUMPDEST PUSH1 0x0 DUP3 DUP3 MSTORE PUSH1 0x20 DUP3 ADD SWAP1 POP SWAP3 SWAP2 POP POP JUMP JUMPDEST PUSH32 0x52657669657720616D6F756E7400000000000000000000000000000000000000 PUSH1 0x0 DUP3 ADD MSTORE POP JUMP JUMPDEST PUSH1 0x0 PUSH2 0x7A0 PUSH1 0xD DUP4 PUSH2 0x759 JUMP JUMPDEST SWAP2 POP PUSH2 0x7AB DUP3 PUSH2 0x76A JUMP JUMPDEST PUSH1 0x20 DUP3 ADD SWAP1 POP SWAP2 SWAP1 POP JUMP JUMPDEST PUSH1 0x0 PUSH1 0x20 DUP3 ADD SWAP1 POP DUP2 DUP2 SUB PUSH1 0x0 DUP4 ADD MSTORE PUSH2 0x7CF DUP2 PUSH2 0x793 JUMP JUMPDEST SWAP1 POP SWAP2 SWAP1 POP JUMP JUMPDEST PUSH32 0x416D6F756E74206D7573742062652067726561746572207468616E2031000000 PUSH1 0x0 DUP3 ADD MSTORE POP JUMP JUMPDEST PUSH1 0x0 PUSH2 0x80C PUSH1 0x1D DUP4 PUSH2 0x759 JUMP JUMPDEST SWAP2 POP PUSH2 0x817 DUP3 PUSH2 0x7D6 JUMP JUMPDEST PUSH1 0x20 DUP3 ADD SWAP1 POP SWAP2 SWAP1 POP JUMP JUMPDEST PUSH1 0x0 PUSH1 0x20 DUP3 ADD SWAP1 POP DUP2 DUP2 SUB PUSH1 0x0 DUP4 ADD MSTORE PUSH2 0x83B DUP2 PUSH2 0x7FF JUMP JUMPDEST SWAP1 POP SWAP2 SWAP1 POP JUMP JUMPDEST PUSH1 0x0 PUSH2 0x84D DUP3 PUSH2 0x52A JUMP JUMPDEST SWAP2 POP PUSH2 0x858 DUP4 PUSH2 0x52A JUMP JUMPDEST SWAP3 POP DUP2 PUSH32 0xFFFFFFFFFFFFFFFFFFFFFFFFFFFFFFFFFFFFFFFFFFFFFFFFFFFFFFFFFFFFFFFF DIV DUP4 GT DUP3 ISZERO ISZERO AND ISZERO PUSH2 0x891 JUMPI PUSH2 0x890 PUSH2 0x69B JUMP JUMPDEST JUMPDEST DUP3 DUP3 MUL SWAP1 POP SWAP3 SWAP2 POP POP JUMP JUMPDEST PUSH32 0x4E487B7100000000000000000000000000000000000000000000000000000000 PUSH1 0x0 MSTORE PUSH1 0x12 PUSH1 0x4 MSTORE PUSH1 0x24 PUSH1 0x0 REVERT JUMPDEST PUSH1 0x0 PUSH2 0x8D6 DUP3 PUSH2 0x52A JUMP JUMPDEST SWAP2 POP PUSH2 0x8E1 DUP4 PUSH2 0x52A JUMP JUMPDEST SWAP3 POP DUP3 PUSH2 0x8F1 JUMPI PUSH2 0x8F0 PUSH2 0x89C JUMP JUMPDEST JUMPDEST DUP3 DUP3 DIV SWAP1 POP SWAP3 SWAP2 POP POP JUMP JUMPDEST PUSH1 0x0 PUSH10 0xFFFFFFFFFFFFFFFFFFFF DUP3 AND SWAP1 POP SWAP2 SWAP1 POP JUMP JUMPDEST PUSH2 0x91B DUP2 PUSH2 0x8FC JUMP JUMPDEST DUP2 EQ PUSH2 0x926 JUMPI PUSH1 0x0 DUP1 REVERT JUMPDEST POP JUMP JUMPDEST PUSH1 0x0 DUP2 MLOAD SWAP1 POP PUSH2 0x938 DUP2 PUSH2 0x912 JUMP JUMPDEST SWAP3 SWAP2 POP POP JUMP JUMPDEST PUSH1 0x0 DUP2 SWAP1 POP SWAP2 SWAP1 POP JUMP JUMPDEST PUSH2 0x951 DUP2 PUSH2 0x93E JUMP JUMPDEST DUP2 EQ PUSH2 0x95C JUMPI PUSH1 0x0 DUP1 REVERT JUMPDEST POP JUMP JUMPDEST PUSH1 0x0 DUP2 MLOAD SWAP1 POP PUSH2 0x96E DUP2 PUSH2 0x948 JUMP JUMPDEST SWAP3 SWAP2 POP POP JUMP JUMPDEST PUSH1 0x0 DUP2 MLOAD SWAP1 POP PUSH2 0x983 DUP2 PUSH2 0x534 JUMP JUMPDEST SWAP3 SWAP2 POP POP JUMP JUMPDEST PUSH1 0x0 DUP1 PUSH1 0x0 DUP1 PUSH1 0x0 PUSH1 0xA0 DUP7 DUP9 SUB SLT ISZERO PUSH2 0x9A5 JUMPI PUSH2 0x9A4 PUSH2 0x525 JUMP JUMPDEST JUMPDEST PUSH1 0x0 PUSH2 0x9B3 DUP9 DUP3 DUP10 ADD PUSH2 0x929 JUMP JUMPDEST SWAP6 POP POP PUSH1 0x20 PUSH2 0x9C4 DUP9 DUP3 DUP10 ADD PUSH2 0x95F JUMP JUMPDEST SWAP5 POP POP PUSH1 0x40 PUSH2 0x9D5 DUP9 DUP3 DUP10 ADD PUSH2 0x974 JUMP JUMPDEST SWAP4 POP POP PUSH1 0x60 PUSH2 0x9E6 DUP9 DUP3 DUP10 ADD PUSH2 0x974 JUMP JUMPDEST SWAP3 POP POP PUSH1 0x80 PUSH2 0x9F7 DUP9 DUP3 DUP10 ADD PUSH2 0x929 JUMP JUMPDEST SWAP2 POP POP SWAP3 SWAP6 POP SWAP3 SWAP6 SWAP1 SWAP4 POP JUMP JUMPDEST PUSH1 0x0 PUSH2 0xA0F DUP3 PUSH2 0x93E JUMP JUMPDEST SWAP2 POP PUSH2 0xA1A DUP4 PUSH2 0x93E JUMP JUMPDEST SWAP3 POP DUP3 PUSH32 0x7FFFFFFFFFFFFFFFFFFFFFFFFFFFFFFFFFFFFFFFFFFFFFFFFFFFFFFFFFFFFFFF DIV DUP3 GT PUSH1 0x0 DUP5 SGT PUSH1 0x0 DUP5 SGT AND AND ISZERO PUSH2 0xA59 JUMPI PUSH2 0xA58 PUSH2 0x69B JUMP JUMPDEST JUMPDEST DUP2 PUSH32 0x8000000000000000000000000000000000000000000000000000000000000000 SDIV DUP4 SLT PUSH1 0x0 DUP5 SLT PUSH1 0x0 DUP5 SGT AND AND ISZERO PUSH2 0xA96 JUMPI PUSH2 0xA95 PUSH2 0x69B JUMP JUMPDEST JUMPDEST DUP3 PUSH32 0x8000000000000000000000000000000000000000000000000000000000000000 SDIV DUP3 SLT PUSH1 0x0 DUP5 SGT PUSH1 0x0 DUP5 SLT AND AND ISZERO PUSH2 0xAD3 JUMPI PUSH2 0xAD2 PUSH2 0x69B JUMP JUMPDEST JUMPDEST DUP3 PUSH32 0x7FFFFFFFFFFFFFFFFFFFFFFFFFFFFFFFFFFFFFFFFFFFFFFFFFFFFFFFFFFFFFFF SDIV DUP3 SLT PUSH1 0x0 DUP5 SLT PUSH1 0x0 DUP5 SLT AND AND ISZERO PUSH2 0xB10 JUMPI PUSH2 0xB0F PUSH2 0x69B JUMP JUMPDEST JUMPDEST DUP3 DUP3 MUL SWAP1 POP SWAP3 SWAP2 POP POP JUMP INVALID LOG2 PUSH5 0x6970667358 0x22 SLT KECCAK256 BLOCKHASH 0x29 PUSH10 0x68C6A2A10A3510CAB7E2 0xE9 SWAP12 0x4D CALLDATALOAD 0xEF 0xED PUSH17 0xCE0269C997DAFE2C08D446A64736F6C63 NUMBER STOP ADDMOD ADDMOD STOP CALLER "
				},
				"gasEstimates": {
					"creation": {
						"codeDepositCost": "579400",
						"executionCost": "46985",
						"totalCost": "626385"
					},
					"external": {
						"amountFunded(address)": "2902",
						"fund()": "infinite",
						"funder(uint256)": "4934",
						"minimumUSD()": "2451",
						"owner()": "2558",
						"withdraw(uint256)": "infinite"
					}
				},
				"methodIdentifiers": {
					"amountFunded(address)": "deaf2cf0",
					"fund()": "b60d4288",
					"funder(uint256)": "1f2c9238",
					"minimumUSD()": "3430a88c",
					"owner()": "8da5cb5b",
					"withdraw(uint256)": "2e1a7d4d"
				}
			},
			"storageLayout": {
				"storage": [
					{
						"astId": 56,
						"contract": "contracts/Transaction.sol:Transaction",
						"label": "minimumUSD",
						"offset": 0,
						"slot": "0",
						"type": "t_uint256"
					},
					{
						"astId": 59,
						"contract": "contracts/Transaction.sol:Transaction",
						"label": "funder",
						"offset": 0,
						"slot": "1",
						"type": "t_array(t_address)dyn_storage"
					},
					{
						"astId": 63,
						"contract": "contracts/Transaction.sol:Transaction",
						"label": "amountFunded",
						"offset": 0,
						"slot": "2",
						"type": "t_mapping(t_address,t_uint256)"
					},
					{
						"astId": 65,
						"contract": "contracts/Transaction.sol:Transaction",
						"label": "owner",
						"offset": 0,
						"slot": "3",
						"type": "t_address"
					}
				],
				"types": {
					"t_address": {
						"encoding": "inplace",
						"label": "address",
						"numberOfBytes": "20"
					},
					"t_array(t_address)dyn_storage": {
						"base": "t_address",
						"encoding": "dynamic_array",
						"label": "address[]",
						"numberOfBytes": "32"
					},
					"t_mapping(t_address,t_uint256)": {
						"encoding": "mapping",
						"key": "t_address",
						"label": "mapping(address => uint256)",
						"numberOfBytes": "32",
						"value": "t_uint256"
					},
					"t_uint256": {
						"encoding": "inplace",
						"label": "uint256",
						"numberOfBytes": "32"
					}
				}
			},
			"userdoc": {
				"kind": "user",
				"methods": {},
				"version": 1
			}
		}
	}
}